{
  "contractName": "baseFractionToken",
  "abi": [
    {
      "inputs": [
        {
          "internalType": "address",
          "name": "_NFTOwner",
          "type": "address"
        },
        {
          "internalType": "uint256",
          "name": "_royaltyPercentage",
          "type": "uint256"
        },
        {
          "internalType": "uint256",
          "name": "_supply",
          "type": "uint256"
        },
        {
          "internalType": "string",
          "name": "_tokenName",
          "type": "string"
        },
        {
          "internalType": "string",
          "name": "_tokenTicker",
          "type": "string"
        },
        {
          "internalType": "address",
          "name": "_vaultContractAddress",
          "type": "address"
        }
      ],
      "stateMutability": "nonpayable",
      "type": "constructor"
    },
    {
      "anonymous": false,
      "inputs": [
        {
          "indexed": true,
          "internalType": "address",
          "name": "owner",
          "type": "address"
        },
        {
          "indexed": true,
          "internalType": "address",
          "name": "spender",
          "type": "address"
        },
        {
          "indexed": false,
          "internalType": "uint256",
          "name": "value",
          "type": "uint256"
        }
      ],
      "name": "Approval",
      "type": "event"
    },
    {
      "anonymous": false,
      "inputs": [
        {
          "indexed": true,
          "internalType": "address",
          "name": "from",
          "type": "address"
        },
        {
          "indexed": true,
          "internalType": "address",
          "name": "to",
          "type": "address"
        },
        {
          "indexed": false,
          "internalType": "uint256",
          "name": "value",
          "type": "uint256"
        }
      ],
      "name": "Transfer",
      "type": "event"
    },
    {
      "inputs": [
        {
          "internalType": "address",
          "name": "owner",
          "type": "address"
        },
        {
          "internalType": "address",
          "name": "spender",
          "type": "address"
        }
      ],
      "name": "allowance",
      "outputs": [
        {
          "internalType": "uint256",
          "name": "",
          "type": "uint256"
        }
      ],
      "stateMutability": "view",
      "type": "function"
    },
    {
      "inputs": [
        {
          "internalType": "address",
          "name": "spender",
          "type": "address"
        },
        {
          "internalType": "uint256",
          "name": "amount",
          "type": "uint256"
        }
      ],
      "name": "approve",
      "outputs": [
        {
          "internalType": "bool",
          "name": "",
          "type": "bool"
        }
      ],
      "stateMutability": "nonpayable",
      "type": "function"
    },
    {
      "inputs": [
        {
          "internalType": "address",
          "name": "account",
          "type": "address"
        }
      ],
      "name": "balanceOf",
      "outputs": [
        {
          "internalType": "uint256",
          "name": "",
          "type": "uint256"
        }
      ],
      "stateMutability": "view",
      "type": "function"
    },
    {
      "inputs": [
        {
          "internalType": "address",
          "name": "account",
          "type": "address"
        },
        {
          "internalType": "uint256",
          "name": "amount",
          "type": "uint256"
        }
      ],
      "name": "burnFrom",
      "outputs": [],
      "stateMutability": "nonpayable",
      "type": "function"
    },
    {
      "inputs": [],
      "name": "decimals",
      "outputs": [
        {
          "internalType": "uint8",
          "name": "",
          "type": "uint8"
        }
      ],
      "stateMutability": "view",
      "type": "function"
    },
    {
      "inputs": [
        {
          "internalType": "address",
          "name": "spender",
          "type": "address"
        },
        {
          "internalType": "uint256",
          "name": "subtractedValue",
          "type": "uint256"
        }
      ],
      "name": "decreaseAllowance",
      "outputs": [
        {
          "internalType": "bool",
          "name": "",
          "type": "bool"
        }
      ],
      "stateMutability": "nonpayable",
      "type": "function"
    },
    {
      "inputs": [
        {
          "internalType": "address",
          "name": "spender",
          "type": "address"
        },
        {
          "internalType": "uint256",
          "name": "addedValue",
          "type": "uint256"
        }
      ],
      "name": "increaseAllowance",
      "outputs": [
        {
          "internalType": "bool",
          "name": "",
          "type": "bool"
        }
      ],
      "stateMutability": "nonpayable",
      "type": "function"
    },
    {
      "inputs": [],
      "name": "name",
      "outputs": [
        {
          "internalType": "string",
          "name": "",
          "type": "string"
        }
      ],
      "stateMutability": "view",
      "type": "function"
    },
    {
      "inputs": [],
      "name": "symbol",
      "outputs": [
        {
          "internalType": "string",
          "name": "",
          "type": "string"
        }
      ],
      "stateMutability": "view",
      "type": "function"
    },
    {
      "inputs": [],
      "name": "totalSupply",
      "outputs": [
        {
          "internalType": "uint256",
          "name": "",
          "type": "uint256"
        }
      ],
      "stateMutability": "view",
      "type": "function"
    },
    {
      "inputs": [
        {
          "internalType": "address",
          "name": "to",
          "type": "address"
        },
        {
          "internalType": "uint256",
          "name": "amount",
          "type": "uint256"
        }
      ],
      "name": "transfer",
      "outputs": [
        {
          "internalType": "bool",
          "name": "",
          "type": "bool"
        }
      ],
      "stateMutability": "nonpayable",
      "type": "function"
    },
    {
      "inputs": [
        {
          "internalType": "address",
          "name": "from",
          "type": "address"
        },
        {
          "internalType": "address",
          "name": "to",
          "type": "address"
        },
        {
          "internalType": "uint256",
          "name": "amount",
          "type": "uint256"
        }
      ],
      "name": "transferFrom",
      "outputs": [
        {
          "internalType": "bool",
          "name": "",
          "type": "bool"
        }
      ],
      "stateMutability": "nonpayable",
      "type": "function"
    },
    {
      "inputs": [
        {
          "internalType": "uint256",
          "name": "amount",
          "type": "uint256"
        }
      ],
      "name": "burn",
      "outputs": [],
      "stateMutability": "nonpayable",
      "type": "function"
    },
    {
      "inputs": [
        {
          "internalType": "address",
          "name": "newUser",
          "type": "address"
        },
        {
          "internalType": "address",
          "name": "oldUser",
          "type": "address"
        }
      ],
      "name": "addNewUserRemoveOld",
      "outputs": [],
      "stateMutability": "nonpayable",
      "type": "function"
    },
    {
      "inputs": [
        {
          "internalType": "address",
          "name": "_newOwner",
          "type": "address"
        }
      ],
      "name": "updateNFTOwner",
      "outputs": [],
      "stateMutability": "nonpayable",
      "type": "function"
    },
    {
      "inputs": [],
      "name": "returnTokenOwners",
      "outputs": [
        {
          "internalType": "address[]",
          "name": "",
          "type": "address[]"
        }
      ],
      "stateMutability": "view",
      "type": "function"
    }
  ],
  "bytecode": "0x60806040523480156200001157600080fd5b506040516200261838038062002618833981810160405281019062000037919062000583565b828281600390805190602001906200005192919062000296565b5080600490805190602001906200006a92919062000296565b50505085600560006101000a81548173ffffffffffffffffffffffffffffffffffffffff021916908373ffffffffffffffffffffffffffffffffffffffff16021790555084600781905550620000c786856200011460201b60201c565b80600660006101000a81548173ffffffffffffffffffffffffffffffffffffffff021916908373ffffffffffffffffffffffffffffffffffffffff160217905550505050505050620007fe565b600073ffffffffffffffffffffffffffffffffffffffff168273ffffffffffffffffffffffffffffffffffffffff160362000186576040517f08c379a00000000000000000000000000000000000000000000000000000000081526004016200017d90620006be565b60405180910390fd5b6200019a600083836200028c60201b60201c565b8060026000828254620001ae91906200070f565b92505081905550806000808473ffffffffffffffffffffffffffffffffffffffff1673ffffffffffffffffffffffffffffffffffffffff16815260200190815260200160002060008282546200020591906200070f565b925050819055508173ffffffffffffffffffffffffffffffffffffffff16600073ffffffffffffffffffffffffffffffffffffffff167fddf252ad1be2c89b69c2b068fc378daa952ba7f163c4a11628f55a4df523b3ef836040516200026c91906200077d565b60405180910390a362000288600083836200029160201b60201c565b5050565b505050565b505050565b828054620002a490620007c9565b90600052602060002090601f016020900481019282620002c8576000855562000314565b82601f10620002e357805160ff191683800117855562000314565b8280016001018555821562000314579182015b8281111562000313578251825591602001919060010190620002f6565b5b50905062000323919062000327565b5090565b5b808211156200034257600081600090555060010162000328565b5090565b6000604051905090565b600080fd5b600080fd5b600073ffffffffffffffffffffffffffffffffffffffff82169050919050565b600062000387826200035a565b9050919050565b62000399816200037a565b8114620003a557600080fd5b50565b600081519050620003b9816200038e565b92915050565b6000819050919050565b620003d481620003bf565b8114620003e057600080fd5b50565b600081519050620003f481620003c9565b92915050565b600080fd5b600080fd5b6000601f19601f8301169050919050565b7f4e487b7100000000000000000000000000000000000000000000000000000000600052604160045260246000fd5b6200044f8262000404565b810181811067ffffffffffffffff8211171562000471576200047062000415565b5b80604052505050565b60006200048662000346565b905062000494828262000444565b919050565b600067ffffffffffffffff821115620004b757620004b662000415565b5b620004c28262000404565b9050602081019050919050565b60005b83811015620004ef578082015181840152602081019050620004d2565b83811115620004ff576000848401525b50505050565b60006200051c620005168462000499565b6200047a565b9050828152602081018484840111156200053b576200053a620003ff565b5b62000548848285620004cf565b509392505050565b600082601f830112620005685762000567620003fa565b5b81516200057a84826020860162000505565b91505092915050565b60008060008060008060c08789031215620005a357620005a262000350565b5b6000620005b389828a01620003a8565b9650506020620005c689828a01620003e3565b9550506040620005d989828a01620003e3565b945050606087015167ffffffffffffffff811115620005fd57620005fc62000355565b5b6200060b89828a0162000550565b935050608087015167ffffffffffffffff8111156200062f576200062e62000355565b5b6200063d89828a0162000550565b92505060a06200065089828a01620003a8565b9150509295509295509295565b600082825260208201905092915050565b7f45524332303a206d696e7420746f20746865207a65726f206164647265737300600082015250565b6000620006a6601f836200065d565b9150620006b3826200066e565b602082019050919050565b60006020820190508181036000830152620006d98162000697565b9050919050565b7f4e487b7100000000000000000000000000000000000000000000000000000000600052601160045260246000fd5b60006200071c82620003bf565b91506200072983620003bf565b9250827fffffffffffffffffffffffffffffffffffffffffffffffffffffffffffffffff03821115620007615762000760620006e0565b5b828201905092915050565b6200077781620003bf565b82525050565b60006020820190506200079460008301846200076c565b92915050565b7f4e487b7100000000000000000000000000000000000000000000000000000000600052602260045260246000fd5b60006002820490506001821680620007e257607f821691505b602082108103620007f857620007f76200079a565b5b50919050565b611e0a806200080e6000396000f3fe608060405234801561001057600080fd5b50600436106101005760003560e01c8063765012211161009757806395d89b411161006657806395d89b41146102ad578063a457c2d7146102cb578063a9059cbb146102fb578063dd62ed3e1461032b57610100565b8063765012211461023b57806379cc6790146102575780639385e55a1461027357806394ee29d91461028f57610100565b8063313ce567116100d3578063313ce567146101a157806339509351146101bf57806342966c68146101ef57806370a082311461020b57610100565b806306fdde0314610105578063095ea7b31461012357806318160ddd1461015357806323b872dd14610171575b600080fd5b61010d61035b565b60405161011a919061129d565b60405180910390f35b61013d60048036038101906101389190611358565b6103ed565b60405161014a91906113b3565b60405180910390f35b61015b610410565b60405161016891906113dd565b60405180910390f35b61018b600480360381019061018691906113f8565b61041a565b60405161019891906113b3565b60405180910390f35b6101a96104b0565b6040516101b69190611467565b60405180910390f35b6101d960048036038101906101d49190611358565b6104b9565b6040516101e691906113b3565b60405180910390f35b61020960048036038101906102049190611482565b6104f0565b005b610225600480360381019061022091906114af565b610504565b60405161023291906113dd565b60405180910390f35b610255600480360381019061025091906114af565b61054c565b005b610271600480360381019061026c9190611358565b610620565b005b61028d600480360381019061028891906114dc565b610640565b005b6102976108a0565b6040516102a491906115da565b60405180910390f35b6102b561092e565b6040516102c2919061129d565b60405180910390f35b6102e560048036038101906102e09190611358565b6109c0565b6040516102f291906113b3565b60405180910390f35b61031560048036038101906103109190611358565b610a37565b60405161032291906113b3565b60405180910390f35b610345600480360381019061034091906114dc565b610ac1565b60405161035291906113dd565b60405180910390f35b60606003805461036a9061162b565b80601f01602080910402602001604051908101604052809291908181526020018280546103969061162b565b80156103e35780601f106103b8576101008083540402835291602001916103e3565b820191906000526020600020905b8154815290600101906020018083116103c657829003601f168201915b5050505050905090565b6000806103f8610b48565b9050610405818585610b50565b600191505092915050565b6000600254905090565b600080610425610b48565b9050610432858285610d19565b6000606460075485610444919061168b565b61044e9190611714565b90506000818561045e9190611745565b905061048d87600560009054906101000a900473ffffffffffffffffffffffffffffffffffffffff1684610da5565b610498878783610da5565b6104a28688610640565b600193505050509392505050565b60006012905090565b6000806104c4610b48565b90506104e58185856104d68589610ac1565b6104e09190611779565b610b50565b600191505092915050565b6105016104fb610b48565b82611024565b50565b60008060008373ffffffffffffffffffffffffffffffffffffffff1673ffffffffffffffffffffffffffffffffffffffff168152602001908152602001600020549050919050565b600660009054906101000a900473ffffffffffffffffffffffffffffffffffffffff1673ffffffffffffffffffffffffffffffffffffffff163373ffffffffffffffffffffffffffffffffffffffff16146105dc576040517f08c379a00000000000000000000000000000000000000000000000000000000081526004016105d390611841565b60405180910390fd5b80600560006101000a81548173ffffffffffffffffffffffffffffffffffffffff021916908373ffffffffffffffffffffffffffffffffffffffff16021790555050565b6106328261062c610b48565b83610d19565b61063c8282611024565b5050565b6009829080600181540180825580915050600190039060005260206000200160009091909190916101000a81548173ffffffffffffffffffffffffffffffffffffffff021916908373ffffffffffffffffffffffffffffffffffffffff1602179055506001600a60008473ffffffffffffffffffffffffffffffffffffffff1673ffffffffffffffffffffffffffffffffffffffff16815260200190815260200160002060006101000a81548160ff02191690831515021790555060011515600a60008373ffffffffffffffffffffffffffffffffffffffff1673ffffffffffffffffffffffffffffffffffffffff16815260200190815260200160002060009054906101000a900460ff1615151480156107635750600061076182610504565b145b1561089c5760005b60098054905081101561089a578173ffffffffffffffffffffffffffffffffffffffff16600982815481106107a3576107a2611861565b5b9060005260206000200160009054906101000a900473ffffffffffffffffffffffffffffffffffffffff1673ffffffffffffffffffffffffffffffffffffffff160361088757600981815481106107fd576107fc611861565b5b9060005260206000200160006101000a81549073ffffffffffffffffffffffffffffffffffffffff02191690556000600a60008473ffffffffffffffffffffffffffffffffffffffff1673ffffffffffffffffffffffffffffffffffffffff16815260200190815260200160002060006101000a81548160ff02191690831515021790555061089a565b808061089290611890565b91505061076b565b505b5050565b6060600980548060200260200160405190810160405280929190818152602001828054801561092457602002820191906000526020600020905b8160009054906101000a900473ffffffffffffffffffffffffffffffffffffffff1673ffffffffffffffffffffffffffffffffffffffff16815260200190600101908083116108da575b5050505050905090565b60606004805461093d9061162b565b80601f01602080910402602001604051908101604052809291908181526020018280546109699061162b565b80156109b65780601f1061098b576101008083540402835291602001916109b6565b820191906000526020600020905b81548152906001019060200180831161099957829003601f168201915b5050505050905090565b6000806109cb610b48565b905060006109d98286610ac1565b905083811015610a1e576040517f08c379a0000000000000000000000000000000000000000000000000000000008152600401610a159061194a565b60405180910390fd5b610a2b8286868403610b50565b60019250505092915050565b600080606460075484610a4a919061168b565b610a549190611714565b905060008184610a649190611745565b90506000610a70610b48565b9050610a9f81600560009054906101000a900473ffffffffffffffffffffffffffffffffffffffff1685610da5565b610aaa818784610da5565b610ab48682610640565b6001935050505092915050565b6000600160008473ffffffffffffffffffffffffffffffffffffffff1673ffffffffffffffffffffffffffffffffffffffff16815260200190815260200160002060008373ffffffffffffffffffffffffffffffffffffffff1673ffffffffffffffffffffffffffffffffffffffff16815260200190815260200160002054905092915050565b600033905090565b600073ffffffffffffffffffffffffffffffffffffffff168373ffffffffffffffffffffffffffffffffffffffff1603610bbf576040517f08c379a0000000000000000000000000000000000000000000000000000000008152600401610bb6906119dc565b60405180910390fd5b600073ffffffffffffffffffffffffffffffffffffffff168273ffffffffffffffffffffffffffffffffffffffff1603610c2e576040517f08c379a0000000000000000000000000000000000000000000000000000000008152600401610c2590611a6e565b60405180910390fd5b80600160008573ffffffffffffffffffffffffffffffffffffffff1673ffffffffffffffffffffffffffffffffffffffff16815260200190815260200160002060008473ffffffffffffffffffffffffffffffffffffffff1673ffffffffffffffffffffffffffffffffffffffff168152602001908152602001600020819055508173ffffffffffffffffffffffffffffffffffffffff168373ffffffffffffffffffffffffffffffffffffffff167f8c5be1e5ebec7d5bd14f71427d1e84f3dd0314c0f7b2291e5b200ac8c7c3b92583604051610d0c91906113dd565b60405180910390a3505050565b6000610d258484610ac1565b90507fffffffffffffffffffffffffffffffffffffffffffffffffffffffffffffffff8114610d9f5781811015610d91576040517f08c379a0000000000000000000000000000000000000000000000000000000008152600401610d8890611ada565b60405180910390fd5b610d9e8484848403610b50565b5b50505050565b600073ffffffffffffffffffffffffffffffffffffffff168373ffffffffffffffffffffffffffffffffffffffff1603610e14576040517f08c379a0000000000000000000000000000000000000000000000000000000008152600401610e0b90611b6c565b60405180910390fd5b600073ffffffffffffffffffffffffffffffffffffffff168273ffffffffffffffffffffffffffffffffffffffff1603610e83576040517f08c379a0000000000000000000000000000000000000000000000000000000008152600401610e7a90611bfe565b60405180910390fd5b610e8e8383836111fa565b60008060008573ffffffffffffffffffffffffffffffffffffffff1673ffffffffffffffffffffffffffffffffffffffff16815260200190815260200160002054905081811015610f14576040517f08c379a0000000000000000000000000000000000000000000000000000000008152600401610f0b90611c90565b60405180910390fd5b8181036000808673ffffffffffffffffffffffffffffffffffffffff1673ffffffffffffffffffffffffffffffffffffffff16815260200190815260200160002081905550816000808573ffffffffffffffffffffffffffffffffffffffff1673ffffffffffffffffffffffffffffffffffffffff1681526020019081526020016000206000828254610fa79190611779565b925050819055508273ffffffffffffffffffffffffffffffffffffffff168473ffffffffffffffffffffffffffffffffffffffff167fddf252ad1be2c89b69c2b068fc378daa952ba7f163c4a11628f55a4df523b3ef8460405161100b91906113dd565b60405180910390a361101e8484846111ff565b50505050565b600073ffffffffffffffffffffffffffffffffffffffff168273ffffffffffffffffffffffffffffffffffffffff1603611093576040517f08c379a000000000000000000000000000000000000000000000000000000000815260040161108a90611d22565b60405180910390fd5b61109f826000836111fa565b60008060008473ffffffffffffffffffffffffffffffffffffffff1673ffffffffffffffffffffffffffffffffffffffff16815260200190815260200160002054905081811015611125576040517f08c379a000000000000000000000000000000000000000000000000000000000815260040161111c90611db4565b60405180910390fd5b8181036000808573ffffffffffffffffffffffffffffffffffffffff1673ffffffffffffffffffffffffffffffffffffffff16815260200190815260200160002081905550816002600082825461117c9190611745565b92505081905550600073ffffffffffffffffffffffffffffffffffffffff168373ffffffffffffffffffffffffffffffffffffffff167fddf252ad1be2c89b69c2b068fc378daa952ba7f163c4a11628f55a4df523b3ef846040516111e191906113dd565b60405180910390a36111f5836000846111ff565b505050565b505050565b505050565b600081519050919050565b600082825260208201905092915050565b60005b8381101561123e578082015181840152602081019050611223565b8381111561124d576000848401525b50505050565b6000601f19601f8301169050919050565b600061126f82611204565b611279818561120f565b9350611289818560208601611220565b61129281611253565b840191505092915050565b600060208201905081810360008301526112b78184611264565b905092915050565b600080fd5b600073ffffffffffffffffffffffffffffffffffffffff82169050919050565b60006112ef826112c4565b9050919050565b6112ff816112e4565b811461130a57600080fd5b50565b60008135905061131c816112f6565b92915050565b6000819050919050565b61133581611322565b811461134057600080fd5b50565b6000813590506113528161132c565b92915050565b6000806040838503121561136f5761136e6112bf565b5b600061137d8582860161130d565b925050602061138e85828601611343565b9150509250929050565b60008115159050919050565b6113ad81611398565b82525050565b60006020820190506113c860008301846113a4565b92915050565b6113d781611322565b82525050565b60006020820190506113f260008301846113ce565b92915050565b600080600060608486031215611411576114106112bf565b5b600061141f8682870161130d565b93505060206114308682870161130d565b925050604061144186828701611343565b9150509250925092565b600060ff82169050919050565b6114618161144b565b82525050565b600060208201905061147c6000830184611458565b92915050565b600060208284031215611498576114976112bf565b5b60006114a684828501611343565b91505092915050565b6000602082840312156114c5576114c46112bf565b5b60006114d38482850161130d565b91505092915050565b600080604083850312156114f3576114f26112bf565b5b60006115018582860161130d565b92505060206115128582860161130d565b9150509250929050565b600081519050919050565b600082825260208201905092915050565b6000819050602082019050919050565b611551816112e4565b82525050565b60006115638383611548565b60208301905092915050565b6000602082019050919050565b60006115878261151c565b6115918185611527565b935061159c83611538565b8060005b838110156115cd5781516115b48882611557565b97506115bf8361156f565b9250506001810190506115a0565b5085935050505092915050565b600060208201905081810360008301526115f4818461157c565b905092915050565b7f4e487b7100000000000000000000000000000000000000000000000000000000600052602260045260246000fd5b6000600282049050600182168061164357607f821691505b602082108103611656576116556115fc565b5b50919050565b7f4e487b7100000000000000000000000000000000000000000000000000000000600052601160045260246000fd5b600061169682611322565b91506116a183611322565b9250817fffffffffffffffffffffffffffffffffffffffffffffffffffffffffffffffff04831182151516156116da576116d961165c565b5b828202905092915050565b7f4e487b7100000000000000000000000000000000000000000000000000000000600052601260045260246000fd5b600061171f82611322565b915061172a83611322565b92508261173a576117396116e5565b5b828204905092915050565b600061175082611322565b915061175b83611322565b92508282101561176e5761176d61165c565b5b828203905092915050565b600061178482611322565b915061178f83611322565b9250827fffffffffffffffffffffffffffffffffffffffffffffffffffffffffffffffff038211156117c4576117c361165c565b5b828201905092915050565b7f4f6e6c79207661756c7420636f6e74726163742063616e20757064617465207460008201527f686973206e6674206f776e657200000000000000000000000000000000000000602082015250565b600061182b602d8361120f565b9150611836826117cf565b604082019050919050565b6000602082019050818103600083015261185a8161181e565b9050919050565b7f4e487b7100000000000000000000000000000000000000000000000000000000600052603260045260246000fd5b600061189b82611322565b91507fffffffffffffffffffffffffffffffffffffffffffffffffffffffffffffffff82036118cd576118cc61165c565b5b600182019050919050565b7f45524332303a2064656372656173656420616c6c6f77616e63652062656c6f7760008201527f207a65726f000000000000000000000000000000000000000000000000000000602082015250565b600061193460258361120f565b915061193f826118d8565b604082019050919050565b6000602082019050818103600083015261196381611927565b9050919050565b7f45524332303a20617070726f76652066726f6d20746865207a65726f2061646460008201527f7265737300000000000000000000000000000000000000000000000000000000602082015250565b60006119c660248361120f565b91506119d18261196a565b604082019050919050565b600060208201905081810360008301526119f5816119b9565b9050919050565b7f45524332303a20617070726f766520746f20746865207a65726f20616464726560008201527f7373000000000000000000000000000000000000000000000000000000000000602082015250565b6000611a5860228361120f565b9150611a63826119fc565b604082019050919050565b60006020820190508181036000830152611a8781611a4b565b9050919050565b7f45524332303a20696e73756666696369656e7420616c6c6f77616e6365000000600082015250565b6000611ac4601d8361120f565b9150611acf82611a8e565b602082019050919050565b60006020820190508181036000830152611af381611ab7565b9050919050565b7f45524332303a207472616e736665722066726f6d20746865207a65726f20616460008201527f6472657373000000000000000000000000000000000000000000000000000000602082015250565b6000611b5660258361120f565b9150611b6182611afa565b604082019050919050565b60006020820190508181036000830152611b8581611b49565b9050919050565b7f45524332303a207472616e7366657220746f20746865207a65726f206164647260008201527f6573730000000000000000000000000000000000000000000000000000000000602082015250565b6000611be860238361120f565b9150611bf382611b8c565b604082019050919050565b60006020820190508181036000830152611c1781611bdb565b9050919050565b7f45524332303a207472616e7366657220616d6f756e742065786365656473206260008201527f616c616e63650000000000000000000000000000000000000000000000000000602082015250565b6000611c7a60268361120f565b9150611c8582611c1e565b604082019050919050565b60006020820190508181036000830152611ca981611c6d565b9050919050565b7f45524332303a206275726e2066726f6d20746865207a65726f2061646472657360008201527f7300000000000000000000000000000000000000000000000000000000000000602082015250565b6000611d0c60218361120f565b9150611d1782611cb0565b604082019050919050565b60006020820190508181036000830152611d3b81611cff565b9050919050565b7f45524332303a206275726e20616d6f756e7420657863656564732062616c616e60008201527f6365000000000000000000000000000000000000000000000000000000000000602082015250565b6000611d9e60228361120f565b9150611da982611d42565b604082019050919050565b60006020820190508181036000830152611dcd81611d91565b905091905056fea26469706673582212203165b306c84b2aea98334a8f82887bd6e2db6d603a0fcea015772fb1854d9ff164736f6c634300080e0033",
  "immutableReferences": {},
  "source": "pragma solidity 0.8.14;\r\n\r\nimport \"@openzeppelin/contracts/token/ERC20/ERC20.sol\";\r\nimport \"@openzeppelin/contracts/token/ERC20/extensions/ERC20Burnable.sol\";\r\nimport \"@openzeppelin/contracts/security/ReentrancyGuard.sol\";\r\nimport \"@openzeppelin/contracts/token/ERC721/ERC721.sol\";\r\ncontract baseFractionToken is ERC20, ERC20Burnable {\r\n    address NFTOwner;\r\n    address VaultContractAddress;\r\n    uint RoyaltyPercentage;\r\n\r\n    ERC721 NFT;\r\n\r\n    address[] tokenOwners;\r\n    mapping(address => bool) isHolding;\r\n\r\n    constructor(address _NFTOwner, uint _royaltyPercentage, uint _supply, string memory _tokenName, string memory _tokenTicker, address _vaultContractAddress) ERC20(_tokenName, _tokenTicker) {\r\n    NFTOwner = _NFTOwner;\r\n    RoyaltyPercentage = _royaltyPercentage;\r\n    _mint(_NFTOwner, _supply);\r\n    VaultContractAddress = _vaultContractAddress;\r\n    }\r\n\r\n    function transfer(address to, uint256 amount) override public returns (bool) {\r\n        uint royaltyFee = amount * RoyaltyPercentage / 100;\r\n        uint afterRoyaltyFee = amount - royaltyFee;\r\n        \r\n        address owner = _msgSender();\r\n        //send royalty\r\n        _transfer(owner, NFTOwner, royaltyFee);\r\n        //send to new owner\r\n        _transfer(owner, to, afterRoyaltyFee);\r\n\r\n        addNewUserRemoveOld(to, owner);\r\n        \r\n        return true;\r\n    }\r\n\r\n    function transferFrom(\r\n        address from,\r\n        address to,\r\n        uint256 amount\r\n    ) public virtual override returns (bool) {\r\n        address spender = _msgSender();\r\n        _spendAllowance(from, spender, amount);\r\n\r\n        uint royaltyFee = amount * RoyaltyPercentage / 100;\r\n        uint afterRoyaltyFee = amount - royaltyFee;\r\n        //send royalty\r\n        _transfer(from, NFTOwner, royaltyFee);\r\n        //send to new owner\r\n        _transfer(from, to, afterRoyaltyFee);\r\n\r\n        addNewUserRemoveOld(to, from);\r\n\r\n        return true;\r\n    }\r\n\r\n    function burn(uint256 amount) public virtual override {\r\n        _burn(_msgSender(), amount);\r\n    }\r\n\r\n    function addNewUserRemoveOld(address newUser, address oldUser) public{\r\n        tokenOwners.push(newUser);\r\n        isHolding[newUser] = true;\r\n\r\n        if (isHolding[oldUser] == true &&\r\n            balanceOf(oldUser) == 0 ) {\r\n            \r\n            for (uint i = 0; i < tokenOwners.length; i++) {\r\n                if (tokenOwners[i] == oldUser) {\r\n\r\n                    delete tokenOwners[i];\r\n                    isHolding[oldUser] = false;\r\n                    break;\r\n                }\r\n            }\r\n        }\r\n    }\r\n\r\n    function updateNFTOwner(address _newOwner) public {\r\n        require(msg.sender == VaultContractAddress, \"Only vault contract can update this nft owner\");\r\n\r\n        NFTOwner = _newOwner;\r\n    }\r\n\r\n    function returnTokenOwners() public view returns(address[] memory) {\r\n        return tokenOwners;\r\n    }\r\n}",
  "sourcePath": "D:\\Libraries\\Desktop\\Truffle\\fractionaliseNFT after split\\contracts\\FractionToken.sol",
  "compiler": {
    "name": "solc",
    "version": "0.8.14+commit.80d49f37.Emscripten.clang"
  },
  "schemaVersion": "3.4.6",
  "updatedAt": "2022-05-25T04:14:59.383Z",
  "devdoc": {
    "kind": "dev",
    "methods": {
      "allowance(address,address)": {
        "details": "See {IERC20-allowance}."
      },
      "approve(address,uint256)": {
        "details": "See {IERC20-approve}. NOTE: If `amount` is the maximum `uint256`, the allowance is not updated on `transferFrom`. This is semantically equivalent to an infinite approval. Requirements: - `spender` cannot be the zero address."
      },
      "balanceOf(address)": {
        "details": "See {IERC20-balanceOf}."
      },
      "burn(uint256)": {
        "details": "Destroys `amount` tokens from the caller. See {ERC20-_burn}."
      },
      "burnFrom(address,uint256)": {
        "details": "Destroys `amount` tokens from `account`, deducting from the caller's allowance. See {ERC20-_burn} and {ERC20-allowance}. Requirements: - the caller must have allowance for ``accounts``'s tokens of at least `amount`."
      },
      "decimals()": {
        "details": "Returns the number of decimals used to get its user representation. For example, if `decimals` equals `2`, a balance of `505` tokens should be displayed to a user as `5.05` (`505 / 10 ** 2`). Tokens usually opt for a value of 18, imitating the relationship between Ether and Wei. This is the value {ERC20} uses, unless this function is overridden; NOTE: This information is only used for _display_ purposes: it in no way affects any of the arithmetic of the contract, including {IERC20-balanceOf} and {IERC20-transfer}."
      },
      "decreaseAllowance(address,uint256)": {
        "details": "Atomically decreases the allowance granted to `spender` by the caller. This is an alternative to {approve} that can be used as a mitigation for problems described in {IERC20-approve}. Emits an {Approval} event indicating the updated allowance. Requirements: - `spender` cannot be the zero address. - `spender` must have allowance for the caller of at least `subtractedValue`."
      },
      "increaseAllowance(address,uint256)": {
        "details": "Atomically increases the allowance granted to `spender` by the caller. This is an alternative to {approve} that can be used as a mitigation for problems described in {IERC20-approve}. Emits an {Approval} event indicating the updated allowance. Requirements: - `spender` cannot be the zero address."
      },
      "name()": {
        "details": "Returns the name of the token."
      },
      "symbol()": {
        "details": "Returns the symbol of the token, usually a shorter version of the name."
      },
      "totalSupply()": {
        "details": "See {IERC20-totalSupply}."
      },
      "transfer(address,uint256)": {
        "details": "See {IERC20-transfer}. Requirements: - `to` cannot be the zero address. - the caller must have a balance of at least `amount`."
      },
      "transferFrom(address,address,uint256)": {
        "details": "See {IERC20-transferFrom}. Emits an {Approval} event indicating the updated allowance. This is not required by the EIP. See the note at the beginning of {ERC20}. NOTE: Does not update the allowance if the current allowance is the maximum `uint256`. Requirements: - `from` and `to` cannot be the zero address. - `from` must have a balance of at least `amount`. - the caller must have allowance for ``from``'s tokens of at least `amount`."
      }
    },
    "version": 1
  },
  "userdoc": {
    "kind": "user",
    "methods": {},
    "version": 1
  }
}