{
  "contractName": "MainContract",
  "abi": [
    {
      "inputs": [],
      "stateMutability": "nonpayable",
      "type": "constructor"
    },
    {
      "inputs": [],
      "name": "updateDepositValue",
      "outputs": [],
      "stateMutability": "nonpayable",
      "type": "function"
    },
    {
      "inputs": [
        {
          "internalType": "address",
          "name": "_NFTContractAddress",
          "type": "address"
        },
        {
          "internalType": "uint256",
          "name": "_tokenId",
          "type": "uint256"
        }
      ],
      "name": "depositNft",
      "outputs": [],
      "stateMutability": "nonpayable",
      "type": "function"
    },
    {
      "inputs": [
        {
          "internalType": "address",
          "name": "_NFTContractAddress",
          "type": "address"
        },
        {
          "internalType": "uint256",
          "name": "_tokenId",
          "type": "uint256"
        },
        {
          "internalType": "uint256",
          "name": "_royaltyPercentage",
          "type": "uint256"
        },
        {
          "internalType": "uint256",
          "name": "_supply",
          "type": "uint256"
        },
        {
          "internalType": "string",
          "name": "_tokenName",
          "type": "string"
        },
        {
          "internalType": "string",
          "name": "_tokenTicker",
          "type": "string"
        }
      ],
      "name": "createFraction",
      "outputs": [],
      "stateMutability": "nonpayable",
      "type": "function"
    },
    {
      "inputs": [
        {
          "internalType": "address",
          "name": "_NFTContractAddress",
          "type": "address"
        },
        {
          "internalType": "uint256",
          "name": "_tokenId",
          "type": "uint256"
        }
      ],
      "name": "withdrawNft",
      "outputs": [],
      "stateMutability": "nonpayable",
      "type": "function"
    },
    {
      "inputs": [
        {
          "internalType": "uint256",
          "name": "_index",
          "type": "uint256"
        }
      ],
      "name": "getFractionContractAddress",
      "outputs": [
        {
          "internalType": "address",
          "name": "",
          "type": "address"
        }
      ],
      "stateMutability": "view",
      "type": "function",
      "constant": true
    },
    {
      "inputs": [],
      "name": "getArraySize",
      "outputs": [
        {
          "internalType": "uint256",
          "name": "",
          "type": "uint256"
        }
      ],
      "stateMutability": "view",
      "type": "function",
      "constant": true
    },
    {
      "inputs": [],
      "name": "getDepositsMade",
      "outputs": [
        {
          "internalType": "uint256",
          "name": "",
          "type": "uint256"
        }
      ],
      "stateMutability": "view",
      "type": "function",
      "constant": true
    },
    {
      "inputs": [
        {
          "internalType": "address",
          "name": "",
          "type": "address"
        },
        {
          "internalType": "address",
          "name": "from",
          "type": "address"
        },
        {
          "internalType": "uint256",
          "name": "",
          "type": "uint256"
        },
        {
          "internalType": "bytes",
          "name": "",
          "type": "bytes"
        }
      ],
      "name": "onERC721Received",
      "outputs": [
        {
          "internalType": "bytes4",
          "name": "",
          "type": "bytes4"
        }
      ],
      "stateMutability": "pure",
      "type": "function",
      "constant": true
    }
  ],
  "bytecode": "0x608060405234801561001057600080fd5b5060006001819055506138a6806100286000396000f3fe60806040523480156200001157600080fd5b5060043610620000945760003560e01c8063a72e2cd61162000063578063a72e2cd61462000149578063ae03f22d1462000169578063afabcf7d1462000175578063d8fc651914620001955762000094565b8063150b7a0214620000995780633b1cbad814620000cf5780634ae7ed0914620000f1578063588605021462000113575b600080fd5b620000b76004803603810190620000b19190620015c7565b620001b5565b604051620000c691906200169a565b60405180910390f35b620000d9620001ca565b604051620000e89190620016c8565b60405180910390f35b620000fb62000216565b6040516200010a9190620016c8565b60405180910390f35b6200013160048036038101906200012b9190620016e5565b62000220565b60405162000140919062001728565b60405180910390f35b62000167600480360381019062000161919062001745565b620002b1565b005b620001736200075e565b005b6200019360048036038101906200018d9190620018e9565b6200077a565b005b620001b36004803603810190620001ad919062001745565b62000d1c565b005b600063150b7a0260e01b905095945050505050565b60008060003373ffffffffffffffffffffffffffffffffffffffff1673ffffffffffffffffffffffffffffffffffffffff16815260200190815260200160002060000180549050905090565b6000600154905090565b60008060003373ffffffffffffffffffffffffffffffffffffffff1673ffffffffffffffffffffffffffffffffffffffff1681526020019081526020016000206000018281548110620002785762000277620019c3565b5b906000526020600020906008020160060160009054906101000a900473ffffffffffffffffffffffffffffffffffffffff169050919050565b620002bb620013c5565b82816040019073ffffffffffffffffffffffffffffffffffffffff16908173ffffffffffffffffffffffffffffffffffffffff16815250503373ffffffffffffffffffffffffffffffffffffffff16816040015173ffffffffffffffffffffffffffffffffffffffff16636352211e846040518263ffffffff1660e01b8152600401620003499190620016c8565b602060405180830381865afa15801562000367573d6000803e3d6000fd5b505050506040513d601f19601f820116820180604052508101906200038d919062001a09565b73ffffffffffffffffffffffffffffffffffffffff1614620003e6576040517f08c379a0000000000000000000000000000000000000000000000000000000008152600401620003dd9062001a9c565b60405180910390fd5b60016000815480929190620003fb9062001aed565b9190505550806040015173ffffffffffffffffffffffffffffffffffffffff166342842e0e3330856040518463ffffffff1660e01b8152600401620004439392919062001b3a565b600060405180830381600087803b1580156200045e57600080fd5b505af115801562000473573d6000803e3d6000fd5b5050505082816020019073ffffffffffffffffffffffffffffffffffffffff16908173ffffffffffffffffffffffffffffffffffffffff168152505033816000019073ffffffffffffffffffffffffffffffffffffffff16908173ffffffffffffffffffffffffffffffffffffffff168152505081816060018181525050428160800181815250506000816101000190151590811515815250506000803373ffffffffffffffffffffffffffffffffffffffff1673ffffffffffffffffffffffffffffffffffffffff16815260200190815260200160002060000181908060018154018082558091505060019003906000526020600020906008020160009091909190915060008201518160000160006101000a81548173ffffffffffffffffffffffffffffffffffffffff021916908373ffffffffffffffffffffffffffffffffffffffff16021790555060208201518160010160006101000a81548173ffffffffffffffffffffffffffffffffffffffff021916908373ffffffffffffffffffffffffffffffffffffffff16021790555060408201518160020160006101000a81548173ffffffffffffffffffffffffffffffffffffffff021916908373ffffffffffffffffffffffffffffffffffffffff160217905550606082015181600301556080820151816004015560a08201518160050160006101000a81548173ffffffffffffffffffffffffffffffffffffffff021916908373ffffffffffffffffffffffffffffffffffffffff16021790555060c08201518160060160006101000a81548173ffffffffffffffffffffffffffffffffffffffff021916908373ffffffffffffffffffffffffffffffffffffffff16021790555060e08201518160070160006101000a81548173ffffffffffffffffffffffffffffffffffffffff021916908373ffffffffffffffffffffffffffffffffffffffff1602179055506101008201518160070160146101000a81548160ff0219169083151502179055505050505050565b60016000815480929190620007739062001aed565b9190505550565b60005b6000803373ffffffffffffffffffffffffffffffffffffffff1673ffffffffffffffffffffffffffffffffffffffff1681526020019081526020016000206000018054905081101562000d13578673ffffffffffffffffffffffffffffffffffffffff166000803373ffffffffffffffffffffffffffffffffffffffff1673ffffffffffffffffffffffffffffffffffffffff1681526020019081526020016000206000018281548110620008375762000836620019c3565b5b906000526020600020906008020160010160009054906101000a900473ffffffffffffffffffffffffffffffffffffffff1673ffffffffffffffffffffffffffffffffffffffff16148015620008f35750856000803373ffffffffffffffffffffffffffffffffffffffff1673ffffffffffffffffffffffffffffffffffffffff1681526020019081526020016000206000018281548110620008df57620008de620019c3565b5b906000526020600020906008020160030154145b8015620009b257503373ffffffffffffffffffffffffffffffffffffffff166000803373ffffffffffffffffffffffffffffffffffffffff1673ffffffffffffffffffffffffffffffffffffffff1681526020019081526020016000206000018281548110620009685762000967620019c3565b5b906000526020600020906008020160000160009054906101000a900473ffffffffffffffffffffffffffffffffffffffff1673ffffffffffffffffffffffffffffffffffffffff16145b1562000cfd5760003386868686604051620009cd9062001497565b620009dd95949392919062001bf9565b604051809103906000f080158015620009fa573d6000803e3d6000fd5b50905060016000803373ffffffffffffffffffffffffffffffffffffffff1673ffffffffffffffffffffffffffffffffffffffff168152602001908152602001600020600001838154811062000a555762000a54620019c3565b5b906000526020600020906008020160070160146101000a81548160ff021916908315150217905550806000803373ffffffffffffffffffffffffffffffffffffffff1673ffffffffffffffffffffffffffffffffffffffff168152602001908152602001600020600001838154811062000ad45762000ad3620019c3565b5b906000526020600020906008020160050160006101000a81548173ffffffffffffffffffffffffffffffffffffffff021916908373ffffffffffffffffffffffffffffffffffffffff160217905550806000803373ffffffffffffffffffffffffffffffffffffffff1673ffffffffffffffffffffffffffffffffffffffff168152602001908152602001600020600001838154811062000b7a5762000b79620019c3565b5b906000526020600020906008020160060160006101000a81548173ffffffffffffffffffffffffffffffffffffffff021916908373ffffffffffffffffffffffffffffffffffffffff1602179055506000803373ffffffffffffffffffffffffffffffffffffffff1673ffffffffffffffffffffffffffffffffffffffff168152602001908152602001600020600001828154811062000c1f5762000c1e620019c3565b5b906000526020600020906008020160060160009054906101000a900473ffffffffffffffffffffffffffffffffffffffff166000803373ffffffffffffffffffffffffffffffffffffffff1673ffffffffffffffffffffffffffffffffffffffff168152602001908152602001600020600001838154811062000ca75762000ca6620019c3565b5b906000526020600020906008020160070160006101000a81548173ffffffffffffffffffffffffffffffffffffffff021916908373ffffffffffffffffffffffffffffffffffffffff1602179055505062000d13565b808062000d0a9062001aed565b9150506200077d565b50505050505050565b600082905060005b6000803373ffffffffffffffffffffffffffffffffffffffff1673ffffffffffffffffffffffffffffffffffffffff16815260200190815260200160002060000180549050811015620013bf578173ffffffffffffffffffffffffffffffffffffffff166000803373ffffffffffffffffffffffffffffffffffffffff1673ffffffffffffffffffffffffffffffffffffffff168152602001908152602001600020600001828154811062000dde5762000ddd620019c3565b5b906000526020600020906008020160020160009054906101000a900473ffffffffffffffffffffffffffffffffffffffff1673ffffffffffffffffffffffffffffffffffffffff1614801562000e9a5750826000803373ffffffffffffffffffffffffffffffffffffffff1673ffffffffffffffffffffffffffffffffffffffff168152602001908152602001600020600001828154811062000e865762000e85620019c3565b5b906000526020600020906008020160030154145b15620013a957600015156000803373ffffffffffffffffffffffffffffffffffffffff1673ffffffffffffffffffffffffffffffffffffffff168152602001908152602001600020600001848154811062000efa5762000ef9620019c3565b5b906000526020600020906008020160070160149054906101000a900460ff1615150362001021576000803373ffffffffffffffffffffffffffffffffffffffff1673ffffffffffffffffffffffffffffffffffffffff168152602001908152602001600020600001838154811062000f775762000f76620019c3565b5b906000526020600020906008020160020160009054906101000a900473ffffffffffffffffffffffffffffffffffffffff1673ffffffffffffffffffffffffffffffffffffffff166342842e0e3033866040518463ffffffff1660e01b815260040162000fe79392919062001b3a565b600060405180830381600087803b1580156200100257600080fd5b505af115801562001017573d6000803e3d6000fd5b50505050620013a8565b600115156000803373ffffffffffffffffffffffffffffffffffffffff1673ffffffffffffffffffffffffffffffffffffffff16815260200190815260200160002060000184815481106200107b576200107a620019c3565b5b906000526020600020906008020160070160149054906101000a900460ff161515148015620012a657506000803373ffffffffffffffffffffffffffffffffffffffff1673ffffffffffffffffffffffffffffffffffffffff1681526020019081526020016000206000018381548110620010fb57620010fa620019c3565b5b906000526020600020906008020160070160009054906101000a900473ffffffffffffffffffffffffffffffffffffffff1673ffffffffffffffffffffffffffffffffffffffff166318160ddd6040518163ffffffff1660e01b8152600401602060405180830381865afa15801562001178573d6000803e3d6000fd5b505050506040513d601f19601f820116820180604052508101906200119e919062001c7b565b6000803373ffffffffffffffffffffffffffffffffffffffff1673ffffffffffffffffffffffffffffffffffffffff1681526020019081526020016000206000018481548110620011f457620011f3620019c3565b5b906000526020600020906008020160070160009054906101000a900473ffffffffffffffffffffffffffffffffffffffff1673ffffffffffffffffffffffffffffffffffffffff166370a08231336040518263ffffffff1660e01b815260040162001260919062001728565b602060405180830381865afa1580156200127e573d6000803e3d6000fd5b505050506040513d601f19601f82011682018060405250810190620012a4919062001c7b565b145b15620013a7576000803373ffffffffffffffffffffffffffffffffffffffff1673ffffffffffffffffffffffffffffffffffffffff1681526020019081526020016000206000018381548110620013025762001301620019c3565b5b906000526020600020906008020160020160009054906101000a900473ffffffffffffffffffffffffffffffffffffffff1673ffffffffffffffffffffffffffffffffffffffff166342842e0e3033866040518463ffffffff1660e01b8152600401620013729392919062001b3a565b600060405180830381600087803b1580156200138d57600080fd5b505af1158015620013a2573d6000803e3d6000fd5b505050505b5b5b8080620013b69062001aed565b91505062000d24565b50505050565b604051806101200160405280600073ffffffffffffffffffffffffffffffffffffffff168152602001600073ffffffffffffffffffffffffffffffffffffffff168152602001600073ffffffffffffffffffffffffffffffffffffffff1681526020016000815260200160008152602001600073ffffffffffffffffffffffffffffffffffffffff168152602001600073ffffffffffffffffffffffffffffffffffffffff168152602001600073ffffffffffffffffffffffffffffffffffffffff1681526020016000151581525090565b611bc38062001cae83390190565b6000604051905090565b600080fd5b600080fd5b600073ffffffffffffffffffffffffffffffffffffffff82169050919050565b6000620014e682620014b9565b9050919050565b620014f881620014d9565b81146200150457600080fd5b50565b6000813590506200151881620014ed565b92915050565b6000819050919050565b62001533816200151e565b81146200153f57600080fd5b50565b600081359050620015538162001528565b92915050565b600080fd5b600080fd5b600080fd5b60008083601f84011262001581576200158062001559565b5b8235905067ffffffffffffffff811115620015a157620015a06200155e565b5b602083019150836001820283011115620015c057620015bf62001563565b5b9250929050565b600080600080600060808688031215620015e657620015e5620014af565b5b6000620015f68882890162001507565b9550506020620016098882890162001507565b94505060406200161c8882890162001542565b935050606086013567ffffffffffffffff81111562001640576200163f620014b4565b5b6200164e8882890162001568565b92509250509295509295909350565b60007fffffffff0000000000000000000000000000000000000000000000000000000082169050919050565b62001694816200165d565b82525050565b6000602082019050620016b1600083018462001689565b92915050565b620016c2816200151e565b82525050565b6000602082019050620016df6000830184620016b7565b92915050565b600060208284031215620016fe57620016fd620014af565b5b60006200170e8482850162001542565b91505092915050565b6200172281620014d9565b82525050565b60006020820190506200173f600083018462001717565b92915050565b600080604083850312156200175f576200175e620014af565b5b60006200176f8582860162001507565b9250506020620017828582860162001542565b9150509250929050565b600080fd5b6000601f19601f8301169050919050565b7f4e487b7100000000000000000000000000000000000000000000000000000000600052604160045260246000fd5b620017dc8262001791565b810181811067ffffffffffffffff82111715620017fe57620017fd620017a2565b5b80604052505050565b600062001813620014a5565b9050620018218282620017d1565b919050565b600067ffffffffffffffff821115620018445762001843620017a2565b5b6200184f8262001791565b9050602081019050919050565b82818337600083830152505050565b6000620018826200187c8462001826565b62001807565b905082815260208101848484011115620018a157620018a06200178c565b5b620018ae8482856200185c565b509392505050565b600082601f830112620018ce57620018cd62001559565b5b8135620018e08482602086016200186b565b91505092915050565b60008060008060008060c08789031215620019095762001908620014af565b5b60006200191989828a0162001507565b96505060206200192c89828a0162001542565b95505060406200193f89828a0162001542565b94505060606200195289828a0162001542565b935050608087013567ffffffffffffffff811115620019765762001975620014b4565b5b6200198489828a01620018b6565b92505060a087013567ffffffffffffffff811115620019a857620019a7620014b4565b5b620019b689828a01620018b6565b9150509295509295509295565b7f4e487b7100000000000000000000000000000000000000000000000000000000600052603260045260246000fd5b60008151905062001a0381620014ed565b92915050565b60006020828403121562001a225762001a21620014af565b5b600062001a3284828501620019f2565b91505092915050565b600082825260208201905092915050565b7f596f7520646f206e6f74206f776e2074686973204e4654000000000000000000600082015250565b600062001a8460178362001a3b565b915062001a918262001a4c565b602082019050919050565b6000602082019050818103600083015262001ab78162001a75565b9050919050565b7f4e487b7100000000000000000000000000000000000000000000000000000000600052601160045260246000fd5b600062001afa826200151e565b91507fffffffffffffffffffffffffffffffffffffffffffffffffffffffffffffffff820362001b2f5762001b2e62001abe565b5b600182019050919050565b600060608201905062001b51600083018662001717565b62001b60602083018562001717565b62001b6f6040830184620016b7565b949350505050565b600081519050919050565b60005b8381101562001ba257808201518184015260208101905062001b85565b8381111562001bb2576000848401525b50505050565b600062001bc58262001b77565b62001bd1818562001a3b565b935062001be381856020860162001b82565b62001bee8162001791565b840191505092915050565b600060a08201905062001c10600083018862001717565b62001c1f6020830187620016b7565b62001c2e6040830186620016b7565b818103606083015262001c42818562001bb8565b9050818103608083015262001c58818462001bb8565b90509695505050505050565b60008151905062001c758162001528565b92915050565b60006020828403121562001c945762001c93620014af565b5b600062001ca48482850162001c64565b9150509291505056fe60806040523480156200001157600080fd5b5060405162001bc338038062001bc3833981810160405281019062000037919062000541565b818181600390805190602001906200005192919062000254565b5080600490805190602001906200006a92919062000254565b50505084600560006101000a81548173ffffffffffffffffffffffffffffffffffffffff021916908373ffffffffffffffffffffffffffffffffffffffff16021790555083600681905550620000c78584620000d260201b60201c565b5050505050620007a8565b600073ffffffffffffffffffffffffffffffffffffffff168273ffffffffffffffffffffffffffffffffffffffff160362000144576040517f08c379a00000000000000000000000000000000000000000000000000000000081526004016200013b9062000668565b60405180910390fd5b62000158600083836200024a60201b60201c565b80600260008282546200016c9190620006b9565b92505081905550806000808473ffffffffffffffffffffffffffffffffffffffff1673ffffffffffffffffffffffffffffffffffffffff1681526020019081526020016000206000828254620001c39190620006b9565b925050819055508173ffffffffffffffffffffffffffffffffffffffff16600073ffffffffffffffffffffffffffffffffffffffff167fddf252ad1be2c89b69c2b068fc378daa952ba7f163c4a11628f55a4df523b3ef836040516200022a919062000727565b60405180910390a362000246600083836200024f60201b60201c565b5050565b505050565b505050565b828054620002629062000773565b90600052602060002090601f016020900481019282620002865760008555620002d2565b82601f10620002a157805160ff1916838001178555620002d2565b82800160010185558215620002d2579182015b82811115620002d1578251825591602001919060010190620002b4565b5b509050620002e19190620002e5565b5090565b5b8082111562000300576000816000905550600101620002e6565b5090565b6000604051905090565b600080fd5b600080fd5b600073ffffffffffffffffffffffffffffffffffffffff82169050919050565b6000620003458262000318565b9050919050565b620003578162000338565b81146200036357600080fd5b50565b60008151905062000377816200034c565b92915050565b6000819050919050565b62000392816200037d565b81146200039e57600080fd5b50565b600081519050620003b28162000387565b92915050565b600080fd5b600080fd5b6000601f19601f8301169050919050565b7f4e487b7100000000000000000000000000000000000000000000000000000000600052604160045260246000fd5b6200040d82620003c2565b810181811067ffffffffffffffff821117156200042f576200042e620003d3565b5b80604052505050565b60006200044462000304565b905062000452828262000402565b919050565b600067ffffffffffffffff821115620004755762000474620003d3565b5b6200048082620003c2565b9050602081019050919050565b60005b83811015620004ad57808201518184015260208101905062000490565b83811115620004bd576000848401525b50505050565b6000620004da620004d48462000457565b62000438565b905082815260208101848484011115620004f957620004f8620003bd565b5b620005068482856200048d565b509392505050565b600082601f830112620005265762000525620003b8565b5b815162000538848260208601620004c3565b91505092915050565b600080600080600060a0868803121562000560576200055f6200030e565b5b6000620005708882890162000366565b95505060206200058388828901620003a1565b94505060406200059688828901620003a1565b935050606086015167ffffffffffffffff811115620005ba57620005b962000313565b5b620005c8888289016200050e565b925050608086015167ffffffffffffffff811115620005ec57620005eb62000313565b5b620005fa888289016200050e565b9150509295509295909350565b600082825260208201905092915050565b7f45524332303a206d696e7420746f20746865207a65726f206164647265737300600082015250565b600062000650601f8362000607565b91506200065d8262000618565b602082019050919050565b60006020820190508181036000830152620006838162000641565b9050919050565b7f4e487b7100000000000000000000000000000000000000000000000000000000600052601160045260246000fd5b6000620006c6826200037d565b9150620006d3836200037d565b9250827fffffffffffffffffffffffffffffffffffffffffffffffffffffffffffffffff038211156200070b576200070a6200068a565b5b828201905092915050565b62000721816200037d565b82525050565b60006020820190506200073e600083018462000716565b92915050565b7f4e487b7100000000000000000000000000000000000000000000000000000000600052602260045260246000fd5b600060028204905060018216806200078c57607f821691505b602082108103620007a257620007a162000744565b5b50919050565b61140b80620007b86000396000f3fe608060405234801561001057600080fd5b50600436106100a95760003560e01c80633950935111610071578063395093511461016857806370a082311461019857806395d89b41146101c8578063a457c2d7146101e6578063a9059cbb14610216578063dd62ed3e14610246576100a9565b806306fdde03146100ae578063095ea7b3146100cc57806318160ddd146100fc57806323b872dd1461011a578063313ce5671461014a575b600080fd5b6100b6610276565b6040516100c39190610bd8565b60405180910390f35b6100e660048036038101906100e19190610c93565b610308565b6040516100f39190610cee565b60405180910390f35b61010461032b565b6040516101119190610d18565b60405180910390f35b610134600480360381019061012f9190610d33565b610335565b6040516101419190610cee565b60405180910390f35b6101526103c1565b60405161015f9190610da2565b60405180910390f35b610182600480360381019061017d9190610c93565b6103ca565b60405161018f9190610cee565b60405180910390f35b6101b260048036038101906101ad9190610dbd565b610401565b6040516101bf9190610d18565b60405180910390f35b6101d0610449565b6040516101dd9190610bd8565b60405180910390f35b61020060048036038101906101fb9190610c93565b6104db565b60405161020d9190610cee565b60405180910390f35b610230600480360381019061022b9190610c93565b610552565b60405161023d9190610cee565b60405180910390f35b610260600480360381019061025b9190610dea565b6105d2565b60405161026d9190610d18565b60405180910390f35b60606003805461028590610e59565b80601f01602080910402602001604051908101604052809291908181526020018280546102b190610e59565b80156102fe5780601f106102d3576101008083540402835291602001916102fe565b820191906000526020600020905b8154815290600101906020018083116102e157829003601f168201915b5050505050905090565b600080610313610659565b9050610320818585610661565b600191505092915050565b6000600254905090565b600080610340610659565b905061034d85828561082a565b600060646006548561035f9190610eb9565b6103699190610f42565b9050600081856103799190610f73565b90506103a887600560009054906101000a900473ffffffffffffffffffffffffffffffffffffffff16846108b6565b6103b38787836108b6565b600193505050509392505050565b60006012905090565b6000806103d5610659565b90506103f68185856103e785896105d2565b6103f19190610fa7565b610661565b600191505092915050565b60008060008373ffffffffffffffffffffffffffffffffffffffff1673ffffffffffffffffffffffffffffffffffffffff168152602001908152602001600020549050919050565b60606004805461045890610e59565b80601f016020809104026020016040519081016040528092919081815260200182805461048490610e59565b80156104d15780601f106104a6576101008083540402835291602001916104d1565b820191906000526020600020905b8154815290600101906020018083116104b457829003601f168201915b5050505050905090565b6000806104e6610659565b905060006104f482866105d2565b905083811015610539576040517f08c379a00000000000000000000000000000000000000000000000000000000081526004016105309061106f565b60405180910390fd5b6105468286868403610661565b60019250505092915050565b6000806064600654846105659190610eb9565b61056f9190610f42565b90506000818461057f9190610f73565b9050600061058b610659565b90506105ba81600560009054906101000a900473ffffffffffffffffffffffffffffffffffffffff16856108b6565b6105c58187846108b6565b6001935050505092915050565b6000600160008473ffffffffffffffffffffffffffffffffffffffff1673ffffffffffffffffffffffffffffffffffffffff16815260200190815260200160002060008373ffffffffffffffffffffffffffffffffffffffff1673ffffffffffffffffffffffffffffffffffffffff16815260200190815260200160002054905092915050565b600033905090565b600073ffffffffffffffffffffffffffffffffffffffff168373ffffffffffffffffffffffffffffffffffffffff16036106d0576040517f08c379a00000000000000000000000000000000000000000000000000000000081526004016106c790611101565b60405180910390fd5b600073ffffffffffffffffffffffffffffffffffffffff168273ffffffffffffffffffffffffffffffffffffffff160361073f576040517f08c379a000000000000000000000000000000000000000000000000000000000815260040161073690611193565b60405180910390fd5b80600160008573ffffffffffffffffffffffffffffffffffffffff1673ffffffffffffffffffffffffffffffffffffffff16815260200190815260200160002060008473ffffffffffffffffffffffffffffffffffffffff1673ffffffffffffffffffffffffffffffffffffffff168152602001908152602001600020819055508173ffffffffffffffffffffffffffffffffffffffff168373ffffffffffffffffffffffffffffffffffffffff167f8c5be1e5ebec7d5bd14f71427d1e84f3dd0314c0f7b2291e5b200ac8c7c3b9258360405161081d9190610d18565b60405180910390a3505050565b600061083684846105d2565b90507fffffffffffffffffffffffffffffffffffffffffffffffffffffffffffffffff81146108b057818110156108a2576040517f08c379a0000000000000000000000000000000000000000000000000000000008152600401610899906111ff565b60405180910390fd5b6108af8484848403610661565b5b50505050565b600073ffffffffffffffffffffffffffffffffffffffff168373ffffffffffffffffffffffffffffffffffffffff1603610925576040517f08c379a000000000000000000000000000000000000000000000000000000000815260040161091c90611291565b60405180910390fd5b600073ffffffffffffffffffffffffffffffffffffffff168273ffffffffffffffffffffffffffffffffffffffff1603610994576040517f08c379a000000000000000000000000000000000000000000000000000000000815260040161098b90611323565b60405180910390fd5b61099f838383610b35565b60008060008573ffffffffffffffffffffffffffffffffffffffff1673ffffffffffffffffffffffffffffffffffffffff16815260200190815260200160002054905081811015610a25576040517f08c379a0000000000000000000000000000000000000000000000000000000008152600401610a1c906113b5565b60405180910390fd5b8181036000808673ffffffffffffffffffffffffffffffffffffffff1673ffffffffffffffffffffffffffffffffffffffff16815260200190815260200160002081905550816000808573ffffffffffffffffffffffffffffffffffffffff1673ffffffffffffffffffffffffffffffffffffffff1681526020019081526020016000206000828254610ab89190610fa7565b925050819055508273ffffffffffffffffffffffffffffffffffffffff168473ffffffffffffffffffffffffffffffffffffffff167fddf252ad1be2c89b69c2b068fc378daa952ba7f163c4a11628f55a4df523b3ef84604051610b1c9190610d18565b60405180910390a3610b2f848484610b3a565b50505050565b505050565b505050565b600081519050919050565b600082825260208201905092915050565b60005b83811015610b79578082015181840152602081019050610b5e565b83811115610b88576000848401525b50505050565b6000601f19601f8301169050919050565b6000610baa82610b3f565b610bb48185610b4a565b9350610bc4818560208601610b5b565b610bcd81610b8e565b840191505092915050565b60006020820190508181036000830152610bf28184610b9f565b905092915050565b600080fd5b600073ffffffffffffffffffffffffffffffffffffffff82169050919050565b6000610c2a82610bff565b9050919050565b610c3a81610c1f565b8114610c4557600080fd5b50565b600081359050610c5781610c31565b92915050565b6000819050919050565b610c7081610c5d565b8114610c7b57600080fd5b50565b600081359050610c8d81610c67565b92915050565b60008060408385031215610caa57610ca9610bfa565b5b6000610cb885828601610c48565b9250506020610cc985828601610c7e565b9150509250929050565b60008115159050919050565b610ce881610cd3565b82525050565b6000602082019050610d036000830184610cdf565b92915050565b610d1281610c5d565b82525050565b6000602082019050610d2d6000830184610d09565b92915050565b600080600060608486031215610d4c57610d4b610bfa565b5b6000610d5a86828701610c48565b9350506020610d6b86828701610c48565b9250506040610d7c86828701610c7e565b9150509250925092565b600060ff82169050919050565b610d9c81610d86565b82525050565b6000602082019050610db76000830184610d93565b92915050565b600060208284031215610dd357610dd2610bfa565b5b6000610de184828501610c48565b91505092915050565b60008060408385031215610e0157610e00610bfa565b5b6000610e0f85828601610c48565b9250506020610e2085828601610c48565b9150509250929050565b7f4e487b7100000000000000000000000000000000000000000000000000000000600052602260045260246000fd5b60006002820490506001821680610e7157607f821691505b602082108103610e8457610e83610e2a565b5b50919050565b7f4e487b7100000000000000000000000000000000000000000000000000000000600052601160045260246000fd5b6000610ec482610c5d565b9150610ecf83610c5d565b9250817fffffffffffffffffffffffffffffffffffffffffffffffffffffffffffffffff0483118215151615610f0857610f07610e8a565b5b828202905092915050565b7f4e487b7100000000000000000000000000000000000000000000000000000000600052601260045260246000fd5b6000610f4d82610c5d565b9150610f5883610c5d565b925082610f6857610f67610f13565b5b828204905092915050565b6000610f7e82610c5d565b9150610f8983610c5d565b925082821015610f9c57610f9b610e8a565b5b828203905092915050565b6000610fb282610c5d565b9150610fbd83610c5d565b9250827fffffffffffffffffffffffffffffffffffffffffffffffffffffffffffffffff03821115610ff257610ff1610e8a565b5b828201905092915050565b7f45524332303a2064656372656173656420616c6c6f77616e63652062656c6f7760008201527f207a65726f000000000000000000000000000000000000000000000000000000602082015250565b6000611059602583610b4a565b915061106482610ffd565b604082019050919050565b600060208201905081810360008301526110888161104c565b9050919050565b7f45524332303a20617070726f76652066726f6d20746865207a65726f2061646460008201527f7265737300000000000000000000000000000000000000000000000000000000602082015250565b60006110eb602483610b4a565b91506110f68261108f565b604082019050919050565b6000602082019050818103600083015261111a816110de565b9050919050565b7f45524332303a20617070726f766520746f20746865207a65726f20616464726560008201527f7373000000000000000000000000000000000000000000000000000000000000602082015250565b600061117d602283610b4a565b915061118882611121565b604082019050919050565b600060208201905081810360008301526111ac81611170565b9050919050565b7f45524332303a20696e73756666696369656e7420616c6c6f77616e6365000000600082015250565b60006111e9601d83610b4a565b91506111f4826111b3565b602082019050919050565b60006020820190508181036000830152611218816111dc565b9050919050565b7f45524332303a207472616e736665722066726f6d20746865207a65726f20616460008201527f6472657373000000000000000000000000000000000000000000000000000000602082015250565b600061127b602583610b4a565b91506112868261121f565b604082019050919050565b600060208201905081810360008301526112aa8161126e565b9050919050565b7f45524332303a207472616e7366657220746f20746865207a65726f206164647260008201527f6573730000000000000000000000000000000000000000000000000000000000602082015250565b600061130d602383610b4a565b9150611318826112b1565b604082019050919050565b6000602082019050818103600083015261133c81611300565b9050919050565b7f45524332303a207472616e7366657220616d6f756e742065786365656473206260008201527f616c616e63650000000000000000000000000000000000000000000000000000602082015250565b600061139f602683610b4a565b91506113aa82611343565b604082019050919050565b600060208201905081810360008301526113ce81611392565b905091905056fea2646970667358221220e0a51cc9f4b4c492be83a93cb2e46f4ea4bd0dc8f59a13920acc1dc4f6b7061d64736f6c634300080e0033a26469706673582212204618919e379cbf65f747693bfd587d1c433aed85ad4850d2a65fdf83e89619cf64736f6c634300080e0033",
  "immutableReferences": {},
  "source": "pragma solidity 0.8.14;\r\nimport \"@openzeppelin/contracts/token/ERC721/IERC721Receiver.sol\";\r\nimport \"@openzeppelin/contracts/token/ERC721/ERC721.sol\";\r\nimport \"@openzeppelin/contracts/token/ERC721/utils/ERC721Holder.sol\";\r\nimport './FractionToken.sol';\r\n\r\n//import \"@openzeppelin/contracts/token/ERC20/ERC20.sol\";\r\n\r\ncontract MainContract is IERC721Receiver {\r\n    mapping(address => CurrentDepositedNFTs) nftDeposits;\r\n    uint depositsMade;\r\n\r\n    constructor() {\r\n        depositsMade = 0;\r\n    }\r\n\r\n    struct NFTDeposit {\r\n        address owner;\r\n        address NFTContractAddress;\r\n        ERC721 NFT;\r\n        uint256 tokenId;\r\n        uint256 depositTimestamp;\r\n        baseFractionToken fractionContract;\r\n        address fractionContractAddress;\r\n        ERC20 fractionToken;\r\n        bool hasFractionalised;\r\n    }\r\n\r\n    struct CurrentDepositedNFTs {\r\n        NFTDeposit[] deposits;\r\n    }\r\n\r\n    // mapping nft idenifier => address (owner of nft)\r\n    function updateDepositValue() public {\r\n        depositsMade++;\r\n    }\r\n    function depositNft(address _NFTContractAddress, uint256 _tokenId) public {\r\n\r\n        NFTDeposit memory newInfo;\r\n        newInfo.NFT = ERC721(_NFTContractAddress);\r\n        require( newInfo.NFT.ownerOf(_tokenId) == msg.sender, \"You do not own this NFT\");\r\n        \r\n    depositsMade++;\r\n        //can this be reentrency\r\n        newInfo.NFT.safeTransferFrom(msg.sender, address(this), _tokenId);\r\n        newInfo.NFTContractAddress = _NFTContractAddress;\r\n        newInfo.owner = msg.sender;\r\n        newInfo.tokenId = _tokenId;\r\n        newInfo.depositTimestamp = block.timestamp;\r\n        newInfo.hasFractionalised = false;\r\n        nftDeposits[msg.sender].deposits.push(newInfo);\r\n    }\r\n\r\n    function createFraction(\r\n        address _NFTContractAddress,\r\n        uint256 _tokenId,\r\n        uint256 _royaltyPercentage,\r\n        uint256 _supply,\r\n        string memory _tokenName,\r\n        string memory _tokenTicker\r\n    ) public {\r\n        for (uint256 i = 0; i < nftDeposits[msg.sender].deposits.length; i++) {\r\n            //if correct nft to createFraction and we are the owner\r\n            if (nftDeposits[msg.sender].deposits[i].NFTContractAddress ==\r\n                _NFTContractAddress &&\r\n                nftDeposits[msg.sender].deposits[i].tokenId == _tokenId &&\r\n                nftDeposits[msg.sender].deposits[i].owner == msg.sender\r\n            ) {\r\n\r\n                baseFractionToken fractToken = new baseFractionToken(\r\n                    msg.sender,\r\n                    //nftDeposits[msg.sender].deposits[i].NFTContractAddress,\r\n                    //nftDeposits[msg.sender].deposits[i].tokenId,\r\n                    _royaltyPercentage,\r\n                    _supply,\r\n                    _tokenName,\r\n                    _tokenTicker\r\n                );\r\n                nftDeposits[msg.sender].deposits[i].hasFractionalised = true;\r\n                nftDeposits[msg.sender].deposits[i].fractionContract = fractToken;\r\n                nftDeposits[msg.sender].deposits[i].fractionContractAddress = address(fractToken);\r\n                nftDeposits[msg.sender].deposits[i].fractionToken = ERC20(nftDeposits[msg.sender].deposits[i].fractionContractAddress);\r\n                //newTokenAddress = address(newFraction);\r\n                break;\r\n            }\r\n        }\r\n    }\r\n\r\n    function withdrawNft(address _NFTContractAddress, uint256 _tokenId) public {\r\n        ERC721 NFTContract = ERC721(_NFTContractAddress);\r\n\r\n        //delete withdrawing nft from vault\r\n        for (uint256 i = 0; i < nftDeposits[msg.sender].deposits.length; i++) {\r\n            if (nftDeposits[msg.sender].deposits[i].NFT == NFTContract && \r\n                nftDeposits[msg.sender].deposits[i].tokenId == _tokenId)\r\n            {\r\n                if(nftDeposits[msg.sender].deposits[_tokenId].hasFractionalised == false) {\r\n                    nftDeposits[msg.sender].deposits[_tokenId].NFT.safeTransferFrom(address(this), msg.sender, _tokenId);\r\n                }\r\n                // if nft owner owns all fractions of NFT\r\n                else if (nftDeposits[msg.sender].deposits[_tokenId].hasFractionalised == true &&\r\n                nftDeposits[msg.sender].deposits[_tokenId].fractionToken.balanceOf(msg.sender) == \r\n                nftDeposits[msg.sender].deposits[_tokenId].fractionToken.totalSupply()) {\r\n                nftDeposits[msg.sender].deposits[_tokenId].NFT.safeTransferFrom(address(this), msg.sender, _tokenId);\r\n                }\r\n            }\r\n        }\r\n//\r\n        //parentContract.safeTransferFrom(address(this), msg.sender, _tokenId);\r\n    }\r\n\r\n   //function getNftDepositsMapping(address _inputAddress) public view returns (CurrentDepositedNFTs memory) {\r\n   //    return nftDeposits[_inputAddress];\r\n   //}\r\n\r\n   //function getCertainNftDeposits(address _inputAddress, uint _index) public view returns (NFTDeposit memory) {\r\n   //    return nftDeposits[_inputAddress].deposits[_index];\r\n   //}\r\n\r\n   function getFractionContractAddress(uint _index) public view returns(address) {\r\n       return nftDeposits[msg.sender].deposits[_index].fractionContractAddress;\r\n   }\r\n\r\n   function getArraySize() public view returns(uint) {\r\n       return nftDeposits[msg.sender].deposits.length;\r\n   }\r\n\r\n   function getDepositsMade() public view returns(uint) {\r\n       return depositsMade;\r\n   }\r\n\r\n   //function getFraction(uint _index) public view returns (baseFractionToken) {\r\n   //    return nftDeposits[msg.sender].deposits[_index].fractionContract;\r\n   //}\r\n\r\n   //function getFractionNFTOwner(uint _index) public view returns (address) {\r\n   //    return nftDeposits[msg.sender].deposits[_index].fractionContract.getNFTOwner();\r\n   //}\r\n\r\n    \r\n\r\n    //function mintNewFractionTokens() public {\r\n    //    new baseFractionToken(msg.sender, 10, 8000, \"yesToken\", \"YT\");\r\n    //}\r\n\r\n    function onERC721Received(\r\n        address,\r\n        address from,\r\n        uint256,\r\n        bytes calldata\r\n    ) external pure override returns (bytes4) {\r\n        // require(from == address(), \"Cannot send nfts to Vault dirrectly\");\r\n\r\n        return IERC721Receiver.onERC721Received.selector;\r\n    }\r\n}\r\n",
  "sourcePath": "D:\\Libraries\\Desktop\\Truffle\\fractionaliseNFT2\\contracts\\MainContact.sol",
  "compiler": {
    "name": "solc",
    "version": "0.8.14+commit.80d49f37.Emscripten.clang"
  },
  "schemaVersion": "3.4.6",
  "updatedAt": "2022-05-22T05:09:00.838Z",
  "networkType": "ethereum",
  "devdoc": {
    "kind": "dev",
    "methods": {},
    "version": 1
  },
  "userdoc": {
    "kind": "user",
    "methods": {},
    "version": 1
  }
}