{
  "contractName": "MainContract",
  "abi": [
    {
      "inputs": [],
      "stateMutability": "nonpayable",
      "type": "constructor"
    },
    {
      "inputs": [
        {
          "internalType": "address",
          "name": "_NFTContractAddress",
          "type": "address"
        },
        {
          "internalType": "uint256",
          "name": "_tokenId",
          "type": "uint256"
        }
      ],
      "name": "depositNft",
      "outputs": [],
      "stateMutability": "nonpayable",
      "type": "function"
    },
    {
      "inputs": [
        {
          "internalType": "address",
          "name": "_NFTContractAddress",
          "type": "address"
        },
        {
          "internalType": "uint256",
          "name": "_tokenId",
          "type": "uint256"
        },
        {
          "internalType": "uint256",
          "name": "_royaltyPercentage",
          "type": "uint256"
        },
        {
          "internalType": "uint256",
          "name": "_supply",
          "type": "uint256"
        },
        {
          "internalType": "string",
          "name": "_tokenName",
          "type": "string"
        },
        {
          "internalType": "string",
          "name": "_tokenTicker",
          "type": "string"
        }
      ],
      "name": "createFraction",
      "outputs": [],
      "stateMutability": "nonpayable",
      "type": "function"
    },
    {
      "inputs": [
        {
          "internalType": "address",
          "name": "_NFTContractAddress",
          "type": "address"
        },
        {
          "internalType": "uint256",
          "name": "_tokenId",
          "type": "uint256"
        },
        {
          "internalType": "address",
          "name": "_TokenContractAddress",
          "type": "address"
        }
      ],
      "name": "withdrawNft",
      "outputs": [],
      "stateMutability": "nonpayable",
      "type": "function"
    },
    {
      "inputs": [
        {
          "internalType": "address",
          "name": "_address",
          "type": "address"
        },
        {
          "internalType": "uint256",
          "name": "_depositIndex",
          "type": "uint256"
        }
      ],
      "name": "getFractionContractAddress",
      "outputs": [
        {
          "internalType": "address",
          "name": "",
          "type": "address"
        }
      ],
      "stateMutability": "view",
      "type": "function"
    },
    {
      "inputs": [
        {
          "internalType": "address",
          "name": "_address",
          "type": "address"
        }
      ],
      "name": "getNftDeposit",
      "outputs": [
        {
          "components": [
            {
              "internalType": "address",
              "name": "owner",
              "type": "address"
            },
            {
              "internalType": "address",
              "name": "NFTContractAddress",
              "type": "address"
            },
            {
              "internalType": "contract ERC721",
              "name": "NFT",
              "type": "address"
            },
            {
              "internalType": "uint256",
              "name": "supply",
              "type": "uint256"
            },
            {
              "internalType": "uint256",
              "name": "tokenId",
              "type": "uint256"
            },
            {
              "internalType": "uint256",
              "name": "depositTimestamp",
              "type": "uint256"
            },
            {
              "internalType": "address",
              "name": "fractionContractAddress",
              "type": "address"
            },
            {
              "internalType": "contract baseFractionToken",
              "name": "fractionToken",
              "type": "address"
            },
            {
              "internalType": "bool",
              "name": "hasFractionalised",
              "type": "bool"
            },
            {
              "internalType": "bool",
              "name": "canWithdraw",
              "type": "bool"
            },
            {
              "internalType": "bool",
              "name": "isChangingOwnership",
              "type": "bool"
            }
          ],
          "internalType": "struct MainContract.NFTDeposit[]",
          "name": "",
          "type": "tuple[]"
        }
      ],
      "stateMutability": "view",
      "type": "function"
    },
    {
      "inputs": [
        {
          "internalType": "address",
          "name": "_address",
          "type": "address"
        }
      ],
      "name": "getLastFractionId",
      "outputs": [
        {
          "internalType": "uint256",
          "name": "",
          "type": "uint256"
        }
      ],
      "stateMutability": "view",
      "type": "function"
    },
    {
      "inputs": [
        {
          "internalType": "address",
          "name": "",
          "type": "address"
        },
        {
          "internalType": "address",
          "name": "from",
          "type": "address"
        },
        {
          "internalType": "uint256",
          "name": "",
          "type": "uint256"
        },
        {
          "internalType": "bytes",
          "name": "",
          "type": "bytes"
        }
      ],
      "name": "onERC721Received",
      "outputs": [
        {
          "internalType": "bytes4",
          "name": "",
          "type": "bytes4"
        }
      ],
      "stateMutability": "pure",
      "type": "function"
    }
  ],
  "bytecode": "0x608060405234801561001057600080fd5b50600060018190555033600260006101000a81548173ffffffffffffffffffffffffffffffffffffffff021916908373ffffffffffffffffffffffffffffffffffffffff160217905550614392806100696000396000f3fe60806040523480156200001157600080fd5b5060043610620000885760003560e01c806370143dea116200006357806370143dea146200012f578063a72e2cd6146200014f578063afabcf7d146200016f578063c999bcc9146200018f5762000088565b806303896d10146200008d578063150b7a0214620000c35780633b4356ba14620000f9575b600080fd5b620000ab6004803603810190620000a5919062001397565b620001c5565b604051620000ba9190620013ef565b60405180910390f35b620000e16004803603810190620000db91906200147a565b62000257565b604051620000f091906200154d565b60405180910390f35b6200011760048036038101906200011191906200156a565b6200026c565b60405162000126919062001820565b60405180910390f35b6200014d600480360381019062000147919062001844565b6200052c565b005b6200016d600480360381019062000167919062001397565b6200094a565b005b6200018d6004803603810190620001879190620019fd565b62000d42565b005b620001ad6004803603810190620001a791906200156a565b620011b9565b604051620001bc919062001ae8565b60405180910390f35b60008060008473ffffffffffffffffffffffffffffffffffffffff1673ffffffffffffffffffffffffffffffffffffffff16815260200190815260200160002060000182815481106200021d576200021c62001b05565b5b906000526020600020906008020160060160009054906101000a900473ffffffffffffffffffffffffffffffffffffffff16905092915050565b600063150b7a0260e01b905095945050505050565b60606000808373ffffffffffffffffffffffffffffffffffffffff1673ffffffffffffffffffffffffffffffffffffffff168152602001908152602001600020600001805480602002602001604051908101604052809291908181526020016000905b82821015620005215783829060005260206000209060080201604051806101600160405290816000820160009054906101000a900473ffffffffffffffffffffffffffffffffffffffff1673ffffffffffffffffffffffffffffffffffffffff1673ffffffffffffffffffffffffffffffffffffffff1681526020016001820160009054906101000a900473ffffffffffffffffffffffffffffffffffffffff1673ffffffffffffffffffffffffffffffffffffffff1673ffffffffffffffffffffffffffffffffffffffff1681526020016002820160009054906101000a900473ffffffffffffffffffffffffffffffffffffffff1673ffffffffffffffffffffffffffffffffffffffff1673ffffffffffffffffffffffffffffffffffffffff1681526020016003820154815260200160048201548152602001600582015481526020016006820160009054906101000a900473ffffffffffffffffffffffffffffffffffffffff1673ffffffffffffffffffffffffffffffffffffffff1673ffffffffffffffffffffffffffffffffffffffff1681526020016007820160009054906101000a900473ffffffffffffffffffffffffffffffffffffffff1673ffffffffffffffffffffffffffffffffffffffff1673ffffffffffffffffffffffffffffffffffffffff1681526020016007820160149054906101000a900460ff161515151581526020016007820160159054906101000a900460ff161515151581526020016007820160169054906101000a900460ff16151515158152505081526020019060010190620002cf565b505050509050919050565b600081905060005b6000803373ffffffffffffffffffffffffffffffffffffffff1673ffffffffffffffffffffffffffffffffffffffff1681526020019081526020016000206000018054905081101562000943578473ffffffffffffffffffffffffffffffffffffffff166000803373ffffffffffffffffffffffffffffffffffffffff1673ffffffffffffffffffffffffffffffffffffffff1681526020019081526020016000206000018281548110620005ee57620005ed62001b05565b5b906000526020600020906008020160010160009054906101000a900473ffffffffffffffffffffffffffffffffffffffff1673ffffffffffffffffffffffffffffffffffffffff16148015620006aa5750836000803373ffffffffffffffffffffffffffffffffffffffff1673ffffffffffffffffffffffffffffffffffffffff168152602001908152602001600020600001828154811062000696576200069562001b05565b5b906000526020600020906008020160040154145b156200092d57600015156000803373ffffffffffffffffffffffffffffffffffffffff1673ffffffffffffffffffffffffffffffffffffffff16815260200190815260200160002060000182815481106200070a576200070962001b05565b5b906000526020600020906008020160070160149054906101000a900460ff16151514806200082657508173ffffffffffffffffffffffffffffffffffffffff166318160ddd6040518163ffffffff1660e01b8152600401602060405180830381865afa1580156200077f573d6000803e3d6000fd5b505050506040513d601f19601f82011682018060405250810190620007a5919062001b4b565b8273ffffffffffffffffffffffffffffffffffffffff166370a08231336040518263ffffffff1660e01b8152600401620007e09190620013ef565b602060405180830381865afa158015620007fe573d6000803e3d6000fd5b505050506040513d601f19601f8201168201806040525081019062000824919062001b4b565b145b156200092c576000803373ffffffffffffffffffffffffffffffffffffffff1673ffffffffffffffffffffffffffffffffffffffff168152602001908152602001600020600001848154811062000882576200088162001b05565b5b906000526020600020906008020160020160009054906101000a900473ffffffffffffffffffffffffffffffffffffffff1673ffffffffffffffffffffffffffffffffffffffff166342842e0e3033876040518463ffffffff1660e01b8152600401620008f29392919062001b7d565b600060405180830381600087803b1580156200090d57600080fd5b505af115801562000922573d6000803e3d6000fd5b5050505062000943565b5b80806200093a9062001be9565b91505062000534565b5050505050565b6200095462001207565b82816040019073ffffffffffffffffffffffffffffffffffffffff16908173ffffffffffffffffffffffffffffffffffffffff1681525050806040015173ffffffffffffffffffffffffffffffffffffffff166342842e0e3330856040518463ffffffff1660e01b8152600401620009cf9392919062001b7d565b600060405180830381600087803b158015620009ea57600080fd5b505af1158015620009ff573d6000803e3d6000fd5b5050505082816020019073ffffffffffffffffffffffffffffffffffffffff16908173ffffffffffffffffffffffffffffffffffffffff168152505033816000019073ffffffffffffffffffffffffffffffffffffffff16908173ffffffffffffffffffffffffffffffffffffffff168152505081816080018181525050428160a00181815250506000816101000190151590811515815250506001816101200190151590811515815250506000803373ffffffffffffffffffffffffffffffffffffffff1673ffffffffffffffffffffffffffffffffffffffff16815260200190815260200160002060000181908060018154018082558091505060019003906000526020600020906008020160009091909190915060008201518160000160006101000a81548173ffffffffffffffffffffffffffffffffffffffff021916908373ffffffffffffffffffffffffffffffffffffffff16021790555060208201518160010160006101000a81548173ffffffffffffffffffffffffffffffffffffffff021916908373ffffffffffffffffffffffffffffffffffffffff16021790555060408201518160020160006101000a81548173ffffffffffffffffffffffffffffffffffffffff021916908373ffffffffffffffffffffffffffffffffffffffff160217905550606082015181600301556080820151816004015560a0820151816005015560c08201518160060160006101000a81548173ffffffffffffffffffffffffffffffffffffffff021916908373ffffffffffffffffffffffffffffffffffffffff16021790555060e08201518160070160006101000a81548173ffffffffffffffffffffffffffffffffffffffff021916908373ffffffffffffffffffffffffffffffffffffffff1602179055506101008201518160070160146101000a81548160ff0219169083151502179055506101208201518160070160156101000a81548160ff0219169083151502179055506101408201518160070160166101000a81548160ff021916908315150217905550505033600360006101000a81548173ffffffffffffffffffffffffffffffffffffffff021916908373ffffffffffffffffffffffffffffffffffffffff160217905550505050565b60005b6000803373ffffffffffffffffffffffffffffffffffffffff1673ffffffffffffffffffffffffffffffffffffffff16815260200190815260200160002060000180549050811015620011b0578673ffffffffffffffffffffffffffffffffffffffff166000803373ffffffffffffffffffffffffffffffffffffffff1673ffffffffffffffffffffffffffffffffffffffff168152602001908152602001600020600001828154811062000dff5762000dfe62001b05565b5b906000526020600020906008020160010160009054906101000a900473ffffffffffffffffffffffffffffffffffffffff1673ffffffffffffffffffffffffffffffffffffffff1614801562000ebb5750856000803373ffffffffffffffffffffffffffffffffffffffff1673ffffffffffffffffffffffffffffffffffffffff168152602001908152602001600020600001828154811062000ea75762000ea662001b05565b5b906000526020600020906008020160040154145b801562000f7a57503373ffffffffffffffffffffffffffffffffffffffff166000803373ffffffffffffffffffffffffffffffffffffffff1673ffffffffffffffffffffffffffffffffffffffff168152602001908152602001600020600001828154811062000f305762000f2f62001b05565b5b906000526020600020906008020160000160009054906101000a900473ffffffffffffffffffffffffffffffffffffffff1673ffffffffffffffffffffffffffffffffffffffff16145b156200119a57600033868686863060405162000f9690620012d5565b62000fa79695949392919062001cc9565b604051809103906000f08015801562000fc4573d6000803e3d6000fd5b50905060016000803373ffffffffffffffffffffffffffffffffffffffff1673ffffffffffffffffffffffffffffffffffffffff16815260200190815260200160002060000183815481106200101f576200101e62001b05565b5b906000526020600020906008020160070160146101000a81548160ff021916908315150217905550806000803373ffffffffffffffffffffffffffffffffffffffff1673ffffffffffffffffffffffffffffffffffffffff16815260200190815260200160002060000183815481106200109e576200109d62001b05565b5b906000526020600020906008020160070160006101000a81548173ffffffffffffffffffffffffffffffffffffffff021916908373ffffffffffffffffffffffffffffffffffffffff160217905550806000803373ffffffffffffffffffffffffffffffffffffffff1673ffffffffffffffffffffffffffffffffffffffff168152602001908152602001600020600001838154811062001144576200114362001b05565b5b906000526020600020906008020160060160006101000a81548173ffffffffffffffffffffffffffffffffffffffff021916908373ffffffffffffffffffffffffffffffffffffffff16021790555050620011b0565b8080620011a79062001be9565b91505062000d45565b50505050505050565b60008060008373ffffffffffffffffffffffffffffffffffffffff1673ffffffffffffffffffffffffffffffffffffffff168152602001908152602001600020600001805490509050919050565b604051806101600160405280600073ffffffffffffffffffffffffffffffffffffffff168152602001600073ffffffffffffffffffffffffffffffffffffffff168152602001600073ffffffffffffffffffffffffffffffffffffffff168152602001600081526020016000815260200160008152602001600073ffffffffffffffffffffffffffffffffffffffff168152602001600073ffffffffffffffffffffffffffffffffffffffff1681526020016000151581526020016000151581526020016000151581525090565b6126188062001d4583390190565b6000604051905090565b600080fd5b600080fd5b600073ffffffffffffffffffffffffffffffffffffffff82169050919050565b60006200132482620012f7565b9050919050565b620013368162001317565b81146200134257600080fd5b50565b60008135905062001356816200132b565b92915050565b6000819050919050565b62001371816200135c565b81146200137d57600080fd5b50565b600081359050620013918162001366565b92915050565b60008060408385031215620013b157620013b0620012ed565b5b6000620013c18582860162001345565b9250506020620013d48582860162001380565b9150509250929050565b620013e98162001317565b82525050565b6000602082019050620014066000830184620013de565b92915050565b600080fd5b600080fd5b600080fd5b60008083601f8401126200143457620014336200140c565b5b8235905067ffffffffffffffff81111562001454576200145362001411565b5b60208301915083600182028301111562001473576200147262001416565b5b9250929050565b600080600080600060808688031215620014995762001498620012ed565b5b6000620014a98882890162001345565b9550506020620014bc8882890162001345565b9450506040620014cf8882890162001380565b935050606086013567ffffffffffffffff811115620014f357620014f2620012f2565b5b62001501888289016200141b565b92509250509295509295909350565b60007fffffffff0000000000000000000000000000000000000000000000000000000082169050919050565b620015478162001510565b82525050565b60006020820190506200156460008301846200153c565b92915050565b600060208284031215620015835762001582620012ed565b5b6000620015938482850162001345565b91505092915050565b600081519050919050565b600082825260208201905092915050565b6000819050602082019050919050565b620015d38162001317565b82525050565b6000819050919050565b600062001604620015fe620015f884620012f7565b620015d9565b620012f7565b9050919050565b60006200161882620015e3565b9050919050565b60006200162c826200160b565b9050919050565b6200163e816200161f565b82525050565b6200164f816200135c565b82525050565b600062001662826200160b565b9050919050565b620016748162001655565b82525050565b60008115159050919050565b62001691816200167a565b82525050565b61016082016000820151620016b06000850182620015c8565b506020820151620016c56020850182620015c8565b506040820151620016da604085018262001633565b506060820151620016ef606085018262001644565b50608082015162001704608085018262001644565b5060a08201516200171960a085018262001644565b5060c08201516200172e60c0850182620015c8565b5060e08201516200174360e085018262001669565b506101008201516200175a61010085018262001686565b506101208201516200177161012085018262001686565b506101408201516200178861014085018262001686565b50505050565b60006200179c838362001697565b6101608301905092915050565b6000602082019050919050565b6000620017c3826200159c565b620017cf8185620015a7565b9350620017dc83620015b8565b8060005b8381101562001813578151620017f788826200178e565b97506200180483620017a9565b925050600181019050620017e0565b5085935050505092915050565b600060208201905081810360008301526200183c8184620017b6565b905092915050565b60008060006060848603121562001860576200185f620012ed565b5b6000620018708682870162001345565b9350506020620018838682870162001380565b9250506040620018968682870162001345565b9150509250925092565b600080fd5b6000601f19601f8301169050919050565b7f4e487b7100000000000000000000000000000000000000000000000000000000600052604160045260246000fd5b620018f082620018a5565b810181811067ffffffffffffffff82111715620019125762001911620018b6565b5b80604052505050565b600062001927620012e3565b9050620019358282620018e5565b919050565b600067ffffffffffffffff821115620019585762001957620018b6565b5b6200196382620018a5565b9050602081019050919050565b82818337600083830152505050565b60006200199662001990846200193a565b6200191b565b905082815260208101848484011115620019b557620019b4620018a0565b5b620019c284828562001970565b509392505050565b600082601f830112620019e257620019e16200140c565b5b8135620019f48482602086016200197f565b91505092915050565b60008060008060008060c0878903121562001a1d5762001a1c620012ed565b5b600062001a2d89828a0162001345565b965050602062001a4089828a0162001380565b955050604062001a5389828a0162001380565b945050606062001a6689828a0162001380565b935050608087013567ffffffffffffffff81111562001a8a5762001a89620012f2565b5b62001a9889828a01620019ca565b92505060a087013567ffffffffffffffff81111562001abc5762001abb620012f2565b5b62001aca89828a01620019ca565b9150509295509295509295565b62001ae2816200135c565b82525050565b600060208201905062001aff600083018462001ad7565b92915050565b7f4e487b7100000000000000000000000000000000000000000000000000000000600052603260045260246000fd5b60008151905062001b458162001366565b92915050565b60006020828403121562001b645762001b63620012ed565b5b600062001b748482850162001b34565b91505092915050565b600060608201905062001b946000830186620013de565b62001ba36020830185620013de565b62001bb2604083018462001ad7565b949350505050565b7f4e487b7100000000000000000000000000000000000000000000000000000000600052601160045260246000fd5b600062001bf6826200135c565b91507fffffffffffffffffffffffffffffffffffffffffffffffffffffffffffffffff820362001c2b5762001c2a62001bba565b5b600182019050919050565b600081519050919050565b600082825260208201905092915050565b60005b8381101562001c7257808201518184015260208101905062001c55565b8381111562001c82576000848401525b50505050565b600062001c958262001c36565b62001ca1818562001c41565b935062001cb381856020860162001c52565b62001cbe81620018a5565b840191505092915050565b600060c08201905062001ce06000830189620013de565b62001cef602083018862001ad7565b62001cfe604083018762001ad7565b818103606083015262001d12818662001c88565b9050818103608083015262001d28818562001c88565b905062001d3960a0830184620013de565b97965050505050505056fe60806040523480156200001157600080fd5b506040516200261838038062002618833981810160405281019062000037919062000583565b828281600390805190602001906200005192919062000296565b5080600490805190602001906200006a92919062000296565b50505085600560006101000a81548173ffffffffffffffffffffffffffffffffffffffff021916908373ffffffffffffffffffffffffffffffffffffffff16021790555084600781905550620000c786856200011460201b60201c565b80600660006101000a81548173ffffffffffffffffffffffffffffffffffffffff021916908373ffffffffffffffffffffffffffffffffffffffff160217905550505050505050620007fe565b600073ffffffffffffffffffffffffffffffffffffffff168273ffffffffffffffffffffffffffffffffffffffff160362000186576040517f08c379a00000000000000000000000000000000000000000000000000000000081526004016200017d90620006be565b60405180910390fd5b6200019a600083836200028c60201b60201c565b8060026000828254620001ae91906200070f565b92505081905550806000808473ffffffffffffffffffffffffffffffffffffffff1673ffffffffffffffffffffffffffffffffffffffff16815260200190815260200160002060008282546200020591906200070f565b925050819055508173ffffffffffffffffffffffffffffffffffffffff16600073ffffffffffffffffffffffffffffffffffffffff167fddf252ad1be2c89b69c2b068fc378daa952ba7f163c4a11628f55a4df523b3ef836040516200026c91906200077d565b60405180910390a362000288600083836200029160201b60201c565b5050565b505050565b505050565b828054620002a490620007c9565b90600052602060002090601f016020900481019282620002c8576000855562000314565b82601f10620002e357805160ff191683800117855562000314565b8280016001018555821562000314579182015b8281111562000313578251825591602001919060010190620002f6565b5b50905062000323919062000327565b5090565b5b808211156200034257600081600090555060010162000328565b5090565b6000604051905090565b600080fd5b600080fd5b600073ffffffffffffffffffffffffffffffffffffffff82169050919050565b600062000387826200035a565b9050919050565b62000399816200037a565b8114620003a557600080fd5b50565b600081519050620003b9816200038e565b92915050565b6000819050919050565b620003d481620003bf565b8114620003e057600080fd5b50565b600081519050620003f481620003c9565b92915050565b600080fd5b600080fd5b6000601f19601f8301169050919050565b7f4e487b7100000000000000000000000000000000000000000000000000000000600052604160045260246000fd5b6200044f8262000404565b810181811067ffffffffffffffff8211171562000471576200047062000415565b5b80604052505050565b60006200048662000346565b905062000494828262000444565b919050565b600067ffffffffffffffff821115620004b757620004b662000415565b5b620004c28262000404565b9050602081019050919050565b60005b83811015620004ef578082015181840152602081019050620004d2565b83811115620004ff576000848401525b50505050565b60006200051c620005168462000499565b6200047a565b9050828152602081018484840111156200053b576200053a620003ff565b5b62000548848285620004cf565b509392505050565b600082601f830112620005685762000567620003fa565b5b81516200057a84826020860162000505565b91505092915050565b60008060008060008060c08789031215620005a357620005a262000350565b5b6000620005b389828a01620003a8565b9650506020620005c689828a01620003e3565b9550506040620005d989828a01620003e3565b945050606087015167ffffffffffffffff811115620005fd57620005fc62000355565b5b6200060b89828a0162000550565b935050608087015167ffffffffffffffff8111156200062f576200062e62000355565b5b6200063d89828a0162000550565b92505060a06200065089828a01620003a8565b9150509295509295509295565b600082825260208201905092915050565b7f45524332303a206d696e7420746f20746865207a65726f206164647265737300600082015250565b6000620006a6601f836200065d565b9150620006b3826200066e565b602082019050919050565b60006020820190508181036000830152620006d98162000697565b9050919050565b7f4e487b7100000000000000000000000000000000000000000000000000000000600052601160045260246000fd5b60006200071c82620003bf565b91506200072983620003bf565b9250827fffffffffffffffffffffffffffffffffffffffffffffffffffffffffffffffff03821115620007615762000760620006e0565b5b828201905092915050565b6200077781620003bf565b82525050565b60006020820190506200079460008301846200076c565b92915050565b7f4e487b7100000000000000000000000000000000000000000000000000000000600052602260045260246000fd5b60006002820490506001821680620007e257607f821691505b602082108103620007f857620007f76200079a565b5b50919050565b611e0a806200080e6000396000f3fe608060405234801561001057600080fd5b50600436106101005760003560e01c8063765012211161009757806395d89b411161006657806395d89b41146102ad578063a457c2d7146102cb578063a9059cbb146102fb578063dd62ed3e1461032b57610100565b8063765012211461023b57806379cc6790146102575780639385e55a1461027357806394ee29d91461028f57610100565b8063313ce567116100d3578063313ce567146101a157806339509351146101bf57806342966c68146101ef57806370a082311461020b57610100565b806306fdde0314610105578063095ea7b31461012357806318160ddd1461015357806323b872dd14610171575b600080fd5b61010d61035b565b60405161011a919061129d565b60405180910390f35b61013d60048036038101906101389190611358565b6103ed565b60405161014a91906113b3565b60405180910390f35b61015b610410565b60405161016891906113dd565b60405180910390f35b61018b600480360381019061018691906113f8565b61041a565b60405161019891906113b3565b60405180910390f35b6101a96104b0565b6040516101b69190611467565b60405180910390f35b6101d960048036038101906101d49190611358565b6104b9565b6040516101e691906113b3565b60405180910390f35b61020960048036038101906102049190611482565b6104f0565b005b610225600480360381019061022091906114af565b610504565b60405161023291906113dd565b60405180910390f35b610255600480360381019061025091906114af565b61054c565b005b610271600480360381019061026c9190611358565b610620565b005b61028d600480360381019061028891906114dc565b610640565b005b6102976108a0565b6040516102a491906115da565b60405180910390f35b6102b561092e565b6040516102c2919061129d565b60405180910390f35b6102e560048036038101906102e09190611358565b6109c0565b6040516102f291906113b3565b60405180910390f35b61031560048036038101906103109190611358565b610a37565b60405161032291906113b3565b60405180910390f35b610345600480360381019061034091906114dc565b610ac1565b60405161035291906113dd565b60405180910390f35b60606003805461036a9061162b565b80601f01602080910402602001604051908101604052809291908181526020018280546103969061162b565b80156103e35780601f106103b8576101008083540402835291602001916103e3565b820191906000526020600020905b8154815290600101906020018083116103c657829003601f168201915b5050505050905090565b6000806103f8610b48565b9050610405818585610b50565b600191505092915050565b6000600254905090565b600080610425610b48565b9050610432858285610d19565b6000606460075485610444919061168b565b61044e9190611714565b90506000818561045e9190611745565b905061048d87600560009054906101000a900473ffffffffffffffffffffffffffffffffffffffff1684610da5565b610498878783610da5565b6104a28688610640565b600193505050509392505050565b60006012905090565b6000806104c4610b48565b90506104e58185856104d68589610ac1565b6104e09190611779565b610b50565b600191505092915050565b6105016104fb610b48565b82611024565b50565b60008060008373ffffffffffffffffffffffffffffffffffffffff1673ffffffffffffffffffffffffffffffffffffffff168152602001908152602001600020549050919050565b600660009054906101000a900473ffffffffffffffffffffffffffffffffffffffff1673ffffffffffffffffffffffffffffffffffffffff163373ffffffffffffffffffffffffffffffffffffffff16146105dc576040517f08c379a00000000000000000000000000000000000000000000000000000000081526004016105d390611841565b60405180910390fd5b80600560006101000a81548173ffffffffffffffffffffffffffffffffffffffff021916908373ffffffffffffffffffffffffffffffffffffffff16021790555050565b6106328261062c610b48565b83610d19565b61063c8282611024565b5050565b6009829080600181540180825580915050600190039060005260206000200160009091909190916101000a81548173ffffffffffffffffffffffffffffffffffffffff021916908373ffffffffffffffffffffffffffffffffffffffff1602179055506001600a60008473ffffffffffffffffffffffffffffffffffffffff1673ffffffffffffffffffffffffffffffffffffffff16815260200190815260200160002060006101000a81548160ff02191690831515021790555060011515600a60008373ffffffffffffffffffffffffffffffffffffffff1673ffffffffffffffffffffffffffffffffffffffff16815260200190815260200160002060009054906101000a900460ff1615151480156107635750600061076182610504565b145b1561089c5760005b60098054905081101561089a578173ffffffffffffffffffffffffffffffffffffffff16600982815481106107a3576107a2611861565b5b9060005260206000200160009054906101000a900473ffffffffffffffffffffffffffffffffffffffff1673ffffffffffffffffffffffffffffffffffffffff160361088757600981815481106107fd576107fc611861565b5b9060005260206000200160006101000a81549073ffffffffffffffffffffffffffffffffffffffff02191690556000600a60008473ffffffffffffffffffffffffffffffffffffffff1673ffffffffffffffffffffffffffffffffffffffff16815260200190815260200160002060006101000a81548160ff02191690831515021790555061089a565b808061089290611890565b91505061076b565b505b5050565b6060600980548060200260200160405190810160405280929190818152602001828054801561092457602002820191906000526020600020905b8160009054906101000a900473ffffffffffffffffffffffffffffffffffffffff1673ffffffffffffffffffffffffffffffffffffffff16815260200190600101908083116108da575b5050505050905090565b60606004805461093d9061162b565b80601f01602080910402602001604051908101604052809291908181526020018280546109699061162b565b80156109b65780601f1061098b576101008083540402835291602001916109b6565b820191906000526020600020905b81548152906001019060200180831161099957829003601f168201915b5050505050905090565b6000806109cb610b48565b905060006109d98286610ac1565b905083811015610a1e576040517f08c379a0000000000000000000000000000000000000000000000000000000008152600401610a159061194a565b60405180910390fd5b610a2b8286868403610b50565b60019250505092915050565b600080606460075484610a4a919061168b565b610a549190611714565b905060008184610a649190611745565b90506000610a70610b48565b9050610a9f81600560009054906101000a900473ffffffffffffffffffffffffffffffffffffffff1685610da5565b610aaa818784610da5565b610ab48682610640565b6001935050505092915050565b6000600160008473ffffffffffffffffffffffffffffffffffffffff1673ffffffffffffffffffffffffffffffffffffffff16815260200190815260200160002060008373ffffffffffffffffffffffffffffffffffffffff1673ffffffffffffffffffffffffffffffffffffffff16815260200190815260200160002054905092915050565b600033905090565b600073ffffffffffffffffffffffffffffffffffffffff168373ffffffffffffffffffffffffffffffffffffffff1603610bbf576040517f08c379a0000000000000000000000000000000000000000000000000000000008152600401610bb6906119dc565b60405180910390fd5b600073ffffffffffffffffffffffffffffffffffffffff168273ffffffffffffffffffffffffffffffffffffffff1603610c2e576040517f08c379a0000000000000000000000000000000000000000000000000000000008152600401610c2590611a6e565b60405180910390fd5b80600160008573ffffffffffffffffffffffffffffffffffffffff1673ffffffffffffffffffffffffffffffffffffffff16815260200190815260200160002060008473ffffffffffffffffffffffffffffffffffffffff1673ffffffffffffffffffffffffffffffffffffffff168152602001908152602001600020819055508173ffffffffffffffffffffffffffffffffffffffff168373ffffffffffffffffffffffffffffffffffffffff167f8c5be1e5ebec7d5bd14f71427d1e84f3dd0314c0f7b2291e5b200ac8c7c3b92583604051610d0c91906113dd565b60405180910390a3505050565b6000610d258484610ac1565b90507fffffffffffffffffffffffffffffffffffffffffffffffffffffffffffffffff8114610d9f5781811015610d91576040517f08c379a0000000000000000000000000000000000000000000000000000000008152600401610d8890611ada565b60405180910390fd5b610d9e8484848403610b50565b5b50505050565b600073ffffffffffffffffffffffffffffffffffffffff168373ffffffffffffffffffffffffffffffffffffffff1603610e14576040517f08c379a0000000000000000000000000000000000000000000000000000000008152600401610e0b90611b6c565b60405180910390fd5b600073ffffffffffffffffffffffffffffffffffffffff168273ffffffffffffffffffffffffffffffffffffffff1603610e83576040517f08c379a0000000000000000000000000000000000000000000000000000000008152600401610e7a90611bfe565b60405180910390fd5b610e8e8383836111fa565b60008060008573ffffffffffffffffffffffffffffffffffffffff1673ffffffffffffffffffffffffffffffffffffffff16815260200190815260200160002054905081811015610f14576040517f08c379a0000000000000000000000000000000000000000000000000000000008152600401610f0b90611c90565b60405180910390fd5b8181036000808673ffffffffffffffffffffffffffffffffffffffff1673ffffffffffffffffffffffffffffffffffffffff16815260200190815260200160002081905550816000808573ffffffffffffffffffffffffffffffffffffffff1673ffffffffffffffffffffffffffffffffffffffff1681526020019081526020016000206000828254610fa79190611779565b925050819055508273ffffffffffffffffffffffffffffffffffffffff168473ffffffffffffffffffffffffffffffffffffffff167fddf252ad1be2c89b69c2b068fc378daa952ba7f163c4a11628f55a4df523b3ef8460405161100b91906113dd565b60405180910390a361101e8484846111ff565b50505050565b600073ffffffffffffffffffffffffffffffffffffffff168273ffffffffffffffffffffffffffffffffffffffff1603611093576040517f08c379a000000000000000000000000000000000000000000000000000000000815260040161108a90611d22565b60405180910390fd5b61109f826000836111fa565b60008060008473ffffffffffffffffffffffffffffffffffffffff1673ffffffffffffffffffffffffffffffffffffffff16815260200190815260200160002054905081811015611125576040517f08c379a000000000000000000000000000000000000000000000000000000000815260040161111c90611db4565b60405180910390fd5b8181036000808573ffffffffffffffffffffffffffffffffffffffff1673ffffffffffffffffffffffffffffffffffffffff16815260200190815260200160002081905550816002600082825461117c9190611745565b92505081905550600073ffffffffffffffffffffffffffffffffffffffff168373ffffffffffffffffffffffffffffffffffffffff167fddf252ad1be2c89b69c2b068fc378daa952ba7f163c4a11628f55a4df523b3ef846040516111e191906113dd565b60405180910390a36111f5836000846111ff565b505050565b505050565b505050565b600081519050919050565b600082825260208201905092915050565b60005b8381101561123e578082015181840152602081019050611223565b8381111561124d576000848401525b50505050565b6000601f19601f8301169050919050565b600061126f82611204565b611279818561120f565b9350611289818560208601611220565b61129281611253565b840191505092915050565b600060208201905081810360008301526112b78184611264565b905092915050565b600080fd5b600073ffffffffffffffffffffffffffffffffffffffff82169050919050565b60006112ef826112c4565b9050919050565b6112ff816112e4565b811461130a57600080fd5b50565b60008135905061131c816112f6565b92915050565b6000819050919050565b61133581611322565b811461134057600080fd5b50565b6000813590506113528161132c565b92915050565b6000806040838503121561136f5761136e6112bf565b5b600061137d8582860161130d565b925050602061138e85828601611343565b9150509250929050565b60008115159050919050565b6113ad81611398565b82525050565b60006020820190506113c860008301846113a4565b92915050565b6113d781611322565b82525050565b60006020820190506113f260008301846113ce565b92915050565b600080600060608486031215611411576114106112bf565b5b600061141f8682870161130d565b93505060206114308682870161130d565b925050604061144186828701611343565b9150509250925092565b600060ff82169050919050565b6114618161144b565b82525050565b600060208201905061147c6000830184611458565b92915050565b600060208284031215611498576114976112bf565b5b60006114a684828501611343565b91505092915050565b6000602082840312156114c5576114c46112bf565b5b60006114d38482850161130d565b91505092915050565b600080604083850312156114f3576114f26112bf565b5b60006115018582860161130d565b92505060206115128582860161130d565b9150509250929050565b600081519050919050565b600082825260208201905092915050565b6000819050602082019050919050565b611551816112e4565b82525050565b60006115638383611548565b60208301905092915050565b6000602082019050919050565b60006115878261151c565b6115918185611527565b935061159c83611538565b8060005b838110156115cd5781516115b48882611557565b97506115bf8361156f565b9250506001810190506115a0565b5085935050505092915050565b600060208201905081810360008301526115f4818461157c565b905092915050565b7f4e487b7100000000000000000000000000000000000000000000000000000000600052602260045260246000fd5b6000600282049050600182168061164357607f821691505b602082108103611656576116556115fc565b5b50919050565b7f4e487b7100000000000000000000000000000000000000000000000000000000600052601160045260246000fd5b600061169682611322565b91506116a183611322565b9250817fffffffffffffffffffffffffffffffffffffffffffffffffffffffffffffffff04831182151516156116da576116d961165c565b5b828202905092915050565b7f4e487b7100000000000000000000000000000000000000000000000000000000600052601260045260246000fd5b600061171f82611322565b915061172a83611322565b92508261173a576117396116e5565b5b828204905092915050565b600061175082611322565b915061175b83611322565b92508282101561176e5761176d61165c565b5b828203905092915050565b600061178482611322565b915061178f83611322565b9250827fffffffffffffffffffffffffffffffffffffffffffffffffffffffffffffffff038211156117c4576117c361165c565b5b828201905092915050565b7f4f6e6c79207661756c7420636f6e74726163742063616e20757064617465207460008201527f686973206e6674206f776e657200000000000000000000000000000000000000602082015250565b600061182b602d8361120f565b9150611836826117cf565b604082019050919050565b6000602082019050818103600083015261185a8161181e565b9050919050565b7f4e487b7100000000000000000000000000000000000000000000000000000000600052603260045260246000fd5b600061189b82611322565b91507fffffffffffffffffffffffffffffffffffffffffffffffffffffffffffffffff82036118cd576118cc61165c565b5b600182019050919050565b7f45524332303a2064656372656173656420616c6c6f77616e63652062656c6f7760008201527f207a65726f000000000000000000000000000000000000000000000000000000602082015250565b600061193460258361120f565b915061193f826118d8565b604082019050919050565b6000602082019050818103600083015261196381611927565b9050919050565b7f45524332303a20617070726f76652066726f6d20746865207a65726f2061646460008201527f7265737300000000000000000000000000000000000000000000000000000000602082015250565b60006119c660248361120f565b91506119d18261196a565b604082019050919050565b600060208201905081810360008301526119f5816119b9565b9050919050565b7f45524332303a20617070726f766520746f20746865207a65726f20616464726560008201527f7373000000000000000000000000000000000000000000000000000000000000602082015250565b6000611a5860228361120f565b9150611a63826119fc565b604082019050919050565b60006020820190508181036000830152611a8781611a4b565b9050919050565b7f45524332303a20696e73756666696369656e7420616c6c6f77616e6365000000600082015250565b6000611ac4601d8361120f565b9150611acf82611a8e565b602082019050919050565b60006020820190508181036000830152611af381611ab7565b9050919050565b7f45524332303a207472616e736665722066726f6d20746865207a65726f20616460008201527f6472657373000000000000000000000000000000000000000000000000000000602082015250565b6000611b5660258361120f565b9150611b6182611afa565b604082019050919050565b60006020820190508181036000830152611b8581611b49565b9050919050565b7f45524332303a207472616e7366657220746f20746865207a65726f206164647260008201527f6573730000000000000000000000000000000000000000000000000000000000602082015250565b6000611be860238361120f565b9150611bf382611b8c565b604082019050919050565b60006020820190508181036000830152611c1781611bdb565b9050919050565b7f45524332303a207472616e7366657220616d6f756e742065786365656473206260008201527f616c616e63650000000000000000000000000000000000000000000000000000602082015250565b6000611c7a60268361120f565b9150611c8582611c1e565b604082019050919050565b60006020820190508181036000830152611ca981611c6d565b9050919050565b7f45524332303a206275726e2066726f6d20746865207a65726f2061646472657360008201527f7300000000000000000000000000000000000000000000000000000000000000602082015250565b6000611d0c60218361120f565b9150611d1782611cb0565b604082019050919050565b60006020820190508181036000830152611d3b81611cff565b9050919050565b7f45524332303a206275726e20616d6f756e7420657863656564732062616c616e60008201527f6365000000000000000000000000000000000000000000000000000000000000602082015250565b6000611d9e60228361120f565b9150611da982611d42565b604082019050919050565b60006020820190508181036000830152611dcd81611d91565b905091905056fea26469706673582212205af967afe292986e3a8809b550c64790e0be8768e5c4f18dbb8b228ea4a3db9f64736f6c634300080e0033a2646970667358221220cf824cd9d28aa8274808d82314f393675c34fefebeb522a5886f15898d0612e564736f6c634300080e0033",
  "immutableReferences": {},
  "source": "pragma solidity 0.8.14;\r\nimport \"@openzeppelin/contracts/token/ERC721/IERC721Receiver.sol\";\r\nimport \"@openzeppelin/contracts/token/ERC721/ERC721.sol\";\r\nimport \"@openzeppelin/contracts/token/ERC721/utils/ERC721Holder.sol\";\r\nimport './FractionToken.sol';\r\n\r\n//import \"@openzeppelin/contracts/token/ERC20/ERC20.sol\";\r\n\r\ncontract MainContract is IERC721Receiver {\r\n    mapping(address => CurrentDepositedNFTs) nftDeposits;\r\n\r\n    uint depositsMade;\r\n    address contractDeployer;\r\n    address lastAddress;\r\n\r\n    constructor() {\r\n        depositsMade = 0;\r\n        contractDeployer = msg.sender;\r\n    }\r\n\r\n    struct NFTDeposit {\r\n        address owner;\r\n        address NFTContractAddress;\r\n        ERC721 NFT;\r\n        uint256 supply;\r\n        uint256 tokenId;\r\n        uint256 depositTimestamp;\r\n        address fractionContractAddress;\r\n        baseFractionToken fractionToken;\r\n        //check safe to easily check if the deposited nft has been fractionalised\r\n        bool hasFractionalised;\r\n        bool canWithdraw;\r\n        bool isChangingOwnership;\r\n    }\r\n\r\n    struct CurrentDepositedNFTs {\r\n        NFTDeposit[] deposits;\r\n    }\r\n\r\n    modifier contractDeployerOnly {\r\n        require (msg.sender == contractDeployer, \"Only contract deployer can call this function\");\r\n        _;\r\n    }\r\n\r\n    function depositNft(address _NFTContractAddress, uint256 _tokenId) public {\r\n        //address must approve this contract to transfer the nft they own before calling this function\r\n\r\n        //create a new struct object with the relevent deposit info\r\n        NFTDeposit memory newDeposit;\r\n        newDeposit.NFT = ERC721(_NFTContractAddress);\r\n\r\n        //this contract needs to hold the nft so it can be fractionalise\r\n        newDeposit.NFT.safeTransferFrom(msg.sender, address(this), _tokenId);\r\n\r\n        newDeposit.NFTContractAddress = _NFTContractAddress;\r\n        newDeposit.owner = msg.sender;\r\n        newDeposit.tokenId = _tokenId;\r\n\r\n        //current time of deposit\r\n        newDeposit.depositTimestamp = block.timestamp;\r\n\r\n        newDeposit.hasFractionalised = false;\r\n        newDeposit.canWithdraw = true;\r\n\r\n        //save the new infomation into the smart contract\r\n        nftDeposits[msg.sender].deposits.push(newDeposit);\r\n        lastAddress = msg.sender;\r\n    }\r\n\r\n    function createFraction(\r\n        address _NFTContractAddress,\r\n        uint256 _tokenId,\r\n        uint256 _royaltyPercentage,\r\n        uint256 _supply,\r\n        string memory _tokenName,\r\n        string memory _tokenTicker\r\n    ) public {\r\n\r\n        //loop over saved data (NFTDeposit struct) under the address that send that sent this transaction\r\n        for (uint256 i = 0; i < nftDeposits[msg.sender].deposits.length; i++) {\r\n\r\n            //if function arguments match\r\n            if (nftDeposits[msg.sender].deposits[i].NFTContractAddress ==\r\n                _NFTContractAddress &&\r\n                nftDeposits[msg.sender].deposits[i].tokenId == _tokenId &&\r\n                nftDeposits[msg.sender].deposits[i].owner == msg.sender) \r\n            {\r\n                //instantiate a new fraction token & set the correct data\r\n                baseFractionToken fractionToken = new baseFractionToken(\r\n                    msg.sender,\r\n                    _royaltyPercentage,\r\n                    _supply,\r\n                    _tokenName,\r\n                    _tokenTicker,\r\n                    address (this)\r\n                );\r\n                nftDeposits[msg.sender].deposits[i].hasFractionalised = true;\r\n                nftDeposits[msg.sender].deposits[i].fractionToken = fractionToken;\r\n                nftDeposits[msg.sender].deposits[i].fractionContractAddress = address(fractionToken);\r\n                break;\r\n            }\r\n        }\r\n    }\r\n\r\n\r\n    //if the sender of this transaction has the total supply of fraction tokens or the nft has not be fractionalise, allow withdraw\r\n    function withdrawNft(address _NFTContractAddress, uint256 _tokenId, address _TokenContractAddress) public {\r\n        baseFractionToken FractionToken = baseFractionToken(_TokenContractAddress);\r\n        \r\n        //loop over saved data (NFTDeposit struct) under the address that send that sent this transaction\r\n        for (uint256 i = 0; i < nftDeposits[msg.sender].deposits.length; i++) {\r\n            \r\n            //if function arguments match\r\n            if (nftDeposits[msg.sender].deposits[i].NFTContractAddress == _NFTContractAddress &&\r\n                nftDeposits[msg.sender].deposits[i].tokenId == _tokenId) {\r\n\r\n                    if (nftDeposits[msg.sender].deposits[i].hasFractionalised == false||\r\n                        FractionToken.balanceOf(msg.sender) == FractionToken.totalSupply())\r\n                        {\r\n                            nftDeposits[msg.sender].deposits[_tokenId].NFT.safeTransferFrom(address(this), msg.sender, _tokenId);\r\n                            break;\r\n                        }\r\n                }\r\n        }\r\n    }\r\n\r\n    //for testing\r\n    function getFractionContractAddress(address _address, uint _depositIndex) public view returns (address) {\r\n        return nftDeposits[_address].deposits[_depositIndex].fractionContractAddress;\r\n    }\r\n\r\n    //for testing\r\n    function getNftDeposit(address _address) public view returns (NFTDeposit[] memory) {\r\n        return nftDeposits[_address].deposits;\r\n    }\r\n\r\n    //for testing\r\n    function getLastFractionId(address _address) public view returns(uint) {\r\n        return nftDeposits[_address].deposits.length;\r\n    }\r\n\r\n    //function searchForFractionToken(address _NFTContractAddress, uint256 _tokenId) public view returns(baseFractionToken) {\r\n    //     for (uint256 i = 0; i < nftDeposits[msg.sender].deposits.length; i++) {\r\n    //        if (nftDeposits[msg.sender].deposits[i].NFTContractAddress == _NFTContractAddress &&\r\n    //            nftDeposits[msg.sender].deposits[i].tokenId == _tokenId) {\r\n    //                return nftDeposits[msg.sender].deposits[i].fractionToken;\r\n    //            }\r\n    //     }\r\n    //}\r\n\r\n    function onERC721Received(\r\n        address,\r\n        address from,\r\n        uint256,\r\n        bytes calldata\r\n    ) external pure override returns (bytes4) {\r\n        // require(from == address(), \"Cannot send nfts to Vault dirrectly\");\r\n        \r\n        return IERC721Receiver.onERC721Received.selector;\r\n    }\r\n}",
  "sourcePath": "C:\\Users\\benhi\\Desktop\\Solidity\\Fractionalise-NFT\\contracts\\MainContract.sol",
  "compiler": {
    "name": "solc",
    "version": "0.8.14+commit.80d49f37.Emscripten.clang"
  },
  "schemaVersion": "3.4.9",
  "updatedAt": "2022-08-26T05:18:16.448Z",
  "devdoc": {
    "kind": "dev",
    "methods": {},
    "version": 1
  },
  "userdoc": {
    "kind": "user",
    "methods": {},
    "version": 1
  }
}