{
  "contractName": "MainContract",
  "abi": [
    {
      "inputs": [],
      "stateMutability": "nonpayable",
      "type": "constructor"
    },
    {
      "inputs": [
        {
          "internalType": "address",
          "name": "_NFTContractAddress",
          "type": "address"
        },
        {
          "internalType": "uint256",
          "name": "_tokenId",
          "type": "uint256"
        }
      ],
      "name": "depositNft",
      "outputs": [],
      "stateMutability": "nonpayable",
      "type": "function"
    },
    {
      "inputs": [
        {
          "internalType": "address",
          "name": "_NFTContractAddress",
          "type": "address"
        },
        {
          "internalType": "uint256",
          "name": "_tokenId",
          "type": "uint256"
        },
        {
          "internalType": "uint256",
          "name": "_royaltyPercentage",
          "type": "uint256"
        },
        {
          "internalType": "uint256",
          "name": "_supply",
          "type": "uint256"
        },
        {
          "internalType": "string",
          "name": "_tokenName",
          "type": "string"
        },
        {
          "internalType": "string",
          "name": "_tokenTicker",
          "type": "string"
        }
      ],
      "name": "createFraction",
      "outputs": [],
      "stateMutability": "nonpayable",
      "type": "function"
    },
    {
      "inputs": [
        {
          "internalType": "address",
          "name": "_NFTContractAddress",
          "type": "address"
        },
        {
          "internalType": "uint256",
          "name": "_tokenId",
          "type": "uint256"
        }
      ],
      "name": "withdrawNft",
      "outputs": [],
      "stateMutability": "nonpayable",
      "type": "function"
    },
    {
      "inputs": [
        {
          "internalType": "address",
          "name": "",
          "type": "address"
        },
        {
          "internalType": "address",
          "name": "from",
          "type": "address"
        },
        {
          "internalType": "uint256",
          "name": "",
          "type": "uint256"
        },
        {
          "internalType": "bytes",
          "name": "",
          "type": "bytes"
        }
      ],
      "name": "onERC721Received",
      "outputs": [
        {
          "internalType": "bytes4",
          "name": "",
          "type": "bytes4"
        }
      ],
      "stateMutability": "pure",
      "type": "function",
      "constant": true
    }
  ],
  "bytecode": "0x608060405234801561001057600080fd5b50600060018190555033600260006101000a81548173ffffffffffffffffffffffffffffffffffffffff021916908373ffffffffffffffffffffffffffffffffffffffff160217905550613fde806100696000396000f3fe60806040523480156200001157600080fd5b5060043610620000525760003560e01c8063150b7a021462000057578063a72e2cd6146200008d578063afabcf7d14620000ad578063d8fc651914620000cd575b600080fd5b6200007560048036038101906200006f9190620012cc565b620000ed565b6040516200008491906200139f565b60405180910390f35b620000ab6004803603810190620000a59190620013bc565b62000102565b005b620000cb6004803603810190620000c5919062001560565b620005b4565b005b620000eb6004803603810190620000e59190620013bc565b62000a2b565b005b600063150b7a0260e01b905095945050505050565b6200010c620010ce565b82816040019073ffffffffffffffffffffffffffffffffffffffff16908173ffffffffffffffffffffffffffffffffffffffff16815250503373ffffffffffffffffffffffffffffffffffffffff16816040015173ffffffffffffffffffffffffffffffffffffffff16636352211e846040518263ffffffff1660e01b81526004016200019a91906200164b565b602060405180830381865afa158015620001b8573d6000803e3d6000fd5b505050506040513d601f19601f82011682018060405250810190620001de91906200167f565b73ffffffffffffffffffffffffffffffffffffffff161462000237576040517f08c379a00000000000000000000000000000000000000000000000000000000081526004016200022e9062001712565b60405180910390fd5b600160008154809291906200024c9062001763565b9190505550806040015173ffffffffffffffffffffffffffffffffffffffff166342842e0e3330856040518463ffffffff1660e01b81526004016200029493929190620017c1565b600060405180830381600087803b158015620002af57600080fd5b505af1158015620002c4573d6000803e3d6000fd5b5050505082816020019073ffffffffffffffffffffffffffffffffffffffff16908173ffffffffffffffffffffffffffffffffffffffff168152505033816000019073ffffffffffffffffffffffffffffffffffffffff16908173ffffffffffffffffffffffffffffffffffffffff168152505081816080018181525050428160a00181815250506000816101000190151590811515815250506000803373ffffffffffffffffffffffffffffffffffffffff1673ffffffffffffffffffffffffffffffffffffffff16815260200190815260200160002060000181908060018154018082558091505060019003906000526020600020906008020160009091909190915060008201518160000160006101000a81548173ffffffffffffffffffffffffffffffffffffffff021916908373ffffffffffffffffffffffffffffffffffffffff16021790555060208201518160010160006101000a81548173ffffffffffffffffffffffffffffffffffffffff021916908373ffffffffffffffffffffffffffffffffffffffff16021790555060408201518160020160006101000a81548173ffffffffffffffffffffffffffffffffffffffff021916908373ffffffffffffffffffffffffffffffffffffffff160217905550606082015181600301556080820151816004015560a0820151816005015560c08201518160060160006101000a81548173ffffffffffffffffffffffffffffffffffffffff021916908373ffffffffffffffffffffffffffffffffffffffff16021790555060e08201518160070160006101000a81548173ffffffffffffffffffffffffffffffffffffffff021916908373ffffffffffffffffffffffffffffffffffffffff1602179055506101008201518160070160146101000a81548160ff0219169083151502179055506101208201518160070160156101000a81548160ff0219169083151502179055506101408201518160070160166101000a81548160ff0219169083151502179055505050505050565b60005b6000803373ffffffffffffffffffffffffffffffffffffffff1673ffffffffffffffffffffffffffffffffffffffff1681526020019081526020016000206000018054905081101562000a22578673ffffffffffffffffffffffffffffffffffffffff166000803373ffffffffffffffffffffffffffffffffffffffff1673ffffffffffffffffffffffffffffffffffffffff1681526020019081526020016000206000018281548110620006715762000670620017fe565b5b906000526020600020906008020160010160009054906101000a900473ffffffffffffffffffffffffffffffffffffffff1673ffffffffffffffffffffffffffffffffffffffff161480156200072d5750856000803373ffffffffffffffffffffffffffffffffffffffff1673ffffffffffffffffffffffffffffffffffffffff1681526020019081526020016000206000018281548110620007195762000718620017fe565b5b906000526020600020906008020160040154145b8015620007ec57503373ffffffffffffffffffffffffffffffffffffffff166000803373ffffffffffffffffffffffffffffffffffffffff1673ffffffffffffffffffffffffffffffffffffffff1681526020019081526020016000206000018281548110620007a257620007a1620017fe565b5b906000526020600020906008020160000160009054906101000a900473ffffffffffffffffffffffffffffffffffffffff1673ffffffffffffffffffffffffffffffffffffffff16145b1562000a0c57600033868686863060405162000808906200119c565b6200081996959493929190620018af565b604051809103906000f08015801562000836573d6000803e3d6000fd5b50905060016000803373ffffffffffffffffffffffffffffffffffffffff1673ffffffffffffffffffffffffffffffffffffffff1681526020019081526020016000206000018381548110620008915762000890620017fe565b5b906000526020600020906008020160070160146101000a81548160ff021916908315150217905550806000803373ffffffffffffffffffffffffffffffffffffffff1673ffffffffffffffffffffffffffffffffffffffff168152602001908152602001600020600001838154811062000910576200090f620017fe565b5b906000526020600020906008020160070160006101000a81548173ffffffffffffffffffffffffffffffffffffffff021916908373ffffffffffffffffffffffffffffffffffffffff160217905550806000803373ffffffffffffffffffffffffffffffffffffffff1673ffffffffffffffffffffffffffffffffffffffff1681526020019081526020016000206000018381548110620009b657620009b5620017fe565b5b906000526020600020906008020160060160006101000a81548173ffffffffffffffffffffffffffffffffffffffff021916908373ffffffffffffffffffffffffffffffffffffffff1602179055505062000a22565b808062000a199062001763565b915050620005b7565b50505050505050565b600082905060005b6000803373ffffffffffffffffffffffffffffffffffffffff1673ffffffffffffffffffffffffffffffffffffffff16815260200190815260200160002060000180549050811015620010c8578173ffffffffffffffffffffffffffffffffffffffff166000803373ffffffffffffffffffffffffffffffffffffffff1673ffffffffffffffffffffffffffffffffffffffff168152602001908152602001600020600001828154811062000aed5762000aec620017fe565b5b906000526020600020906008020160020160009054906101000a900473ffffffffffffffffffffffffffffffffffffffff1673ffffffffffffffffffffffffffffffffffffffff1614801562000ba95750826000803373ffffffffffffffffffffffffffffffffffffffff1673ffffffffffffffffffffffffffffffffffffffff168152602001908152602001600020600001828154811062000b955762000b94620017fe565b5b906000526020600020906008020160040154145b15620010b2576000803373ffffffffffffffffffffffffffffffffffffffff1673ffffffffffffffffffffffffffffffffffffffff168152602001908152602001600020600001838154811062000c055762000c04620017fe565b5b906000526020600020906008020160070160159054906101000a900460ff161562000d2a576000803373ffffffffffffffffffffffffffffffffffffffff1673ffffffffffffffffffffffffffffffffffffffff168152602001908152602001600020600001838154811062000c805762000c7f620017fe565b5b906000526020600020906008020160020160009054906101000a900473ffffffffffffffffffffffffffffffffffffffff1673ffffffffffffffffffffffffffffffffffffffff166342842e0e3033866040518463ffffffff1660e01b815260040162000cf093929190620017c1565b600060405180830381600087803b15801562000d0b57600080fd5b505af115801562000d20573d6000803e3d6000fd5b50505050620010b1565b600115156000803373ffffffffffffffffffffffffffffffffffffffff1673ffffffffffffffffffffffffffffffffffffffff168152602001908152602001600020600001848154811062000d845762000d83620017fe565b5b906000526020600020906008020160070160149054906101000a900460ff16151514801562000faf57506000803373ffffffffffffffffffffffffffffffffffffffff1673ffffffffffffffffffffffffffffffffffffffff168152602001908152602001600020600001838154811062000e045762000e03620017fe565b5b906000526020600020906008020160070160009054906101000a900473ffffffffffffffffffffffffffffffffffffffff1673ffffffffffffffffffffffffffffffffffffffff166318160ddd6040518163ffffffff1660e01b8152600401602060405180830381865afa15801562000e81573d6000803e3d6000fd5b505050506040513d601f19601f8201168201806040525081019062000ea7919062001941565b6000803373ffffffffffffffffffffffffffffffffffffffff1673ffffffffffffffffffffffffffffffffffffffff168152602001908152602001600020600001848154811062000efd5762000efc620017fe565b5b906000526020600020906008020160070160009054906101000a900473ffffffffffffffffffffffffffffffffffffffff1673ffffffffffffffffffffffffffffffffffffffff166370a08231336040518263ffffffff1660e01b815260040162000f69919062001973565b602060405180830381865afa15801562000f87573d6000803e3d6000fd5b505050506040513d601f19601f8201168201806040525081019062000fad919062001941565b145b15620010b0576000803373ffffffffffffffffffffffffffffffffffffffff1673ffffffffffffffffffffffffffffffffffffffff16815260200190815260200160002060000183815481106200100b576200100a620017fe565b5b906000526020600020906008020160020160009054906101000a900473ffffffffffffffffffffffffffffffffffffffff1673ffffffffffffffffffffffffffffffffffffffff166342842e0e3033866040518463ffffffff1660e01b81526004016200107b93929190620017c1565b600060405180830381600087803b1580156200109657600080fd5b505af1158015620010ab573d6000803e3d6000fd5b505050505b5b5b8080620010bf9062001763565b91505062000a33565b50505050565b604051806101600160405280600073ffffffffffffffffffffffffffffffffffffffff168152602001600073ffffffffffffffffffffffffffffffffffffffff168152602001600073ffffffffffffffffffffffffffffffffffffffff168152602001600081526020016000815260200160008152602001600073ffffffffffffffffffffffffffffffffffffffff168152602001600073ffffffffffffffffffffffffffffffffffffffff1681526020016000151581526020016000151581526020016000151581525090565b612618806200199183390190565b6000604051905090565b600080fd5b600080fd5b600073ffffffffffffffffffffffffffffffffffffffff82169050919050565b6000620011eb82620011be565b9050919050565b620011fd81620011de565b81146200120957600080fd5b50565b6000813590506200121d81620011f2565b92915050565b6000819050919050565b620012388162001223565b81146200124457600080fd5b50565b60008135905062001258816200122d565b92915050565b600080fd5b600080fd5b600080fd5b60008083601f8401126200128657620012856200125e565b5b8235905067ffffffffffffffff811115620012a657620012a562001263565b5b602083019150836001820283011115620012c557620012c462001268565b5b9250929050565b600080600080600060808688031215620012eb57620012ea620011b4565b5b6000620012fb888289016200120c565b95505060206200130e888289016200120c565b9450506040620013218882890162001247565b935050606086013567ffffffffffffffff811115620013455762001344620011b9565b5b62001353888289016200126d565b92509250509295509295909350565b60007fffffffff0000000000000000000000000000000000000000000000000000000082169050919050565b620013998162001362565b82525050565b6000602082019050620013b660008301846200138e565b92915050565b60008060408385031215620013d657620013d5620011b4565b5b6000620013e6858286016200120c565b9250506020620013f98582860162001247565b9150509250929050565b600080fd5b6000601f19601f8301169050919050565b7f4e487b7100000000000000000000000000000000000000000000000000000000600052604160045260246000fd5b620014538262001408565b810181811067ffffffffffffffff8211171562001475576200147462001419565b5b80604052505050565b60006200148a620011aa565b905062001498828262001448565b919050565b600067ffffffffffffffff821115620014bb57620014ba62001419565b5b620014c68262001408565b9050602081019050919050565b82818337600083830152505050565b6000620014f9620014f3846200149d565b6200147e565b90508281526020810184848401111562001518576200151762001403565b5b62001525848285620014d3565b509392505050565b600082601f8301126200154557620015446200125e565b5b813562001557848260208601620014e2565b91505092915050565b60008060008060008060c0878903121562001580576200157f620011b4565b5b60006200159089828a016200120c565b9650506020620015a389828a0162001247565b9550506040620015b689828a0162001247565b9450506060620015c989828a0162001247565b935050608087013567ffffffffffffffff811115620015ed57620015ec620011b9565b5b620015fb89828a016200152d565b92505060a087013567ffffffffffffffff8111156200161f576200161e620011b9565b5b6200162d89828a016200152d565b9150509295509295509295565b620016458162001223565b82525050565b60006020820190506200166260008301846200163a565b92915050565b6000815190506200167981620011f2565b92915050565b600060208284031215620016985762001697620011b4565b5b6000620016a88482850162001668565b91505092915050565b600082825260208201905092915050565b7f596f7520646f206e6f74206f776e2074686973204e4654000000000000000000600082015250565b6000620016fa601783620016b1565b91506200170782620016c2565b602082019050919050565b600060208201905081810360008301526200172d81620016eb565b9050919050565b7f4e487b7100000000000000000000000000000000000000000000000000000000600052601160045260246000fd5b6000620017708262001223565b91507fffffffffffffffffffffffffffffffffffffffffffffffffffffffffffffffff8203620017a557620017a462001734565b5b600182019050919050565b620017bb81620011de565b82525050565b6000606082019050620017d86000830186620017b0565b620017e76020830185620017b0565b620017f660408301846200163a565b949350505050565b7f4e487b7100000000000000000000000000000000000000000000000000000000600052603260045260246000fd5b600081519050919050565b60005b83811015620018585780820151818401526020810190506200183b565b8381111562001868576000848401525b50505050565b60006200187b826200182d565b620018878185620016b1565b93506200189981856020860162001838565b620018a48162001408565b840191505092915050565b600060c082019050620018c66000830189620017b0565b620018d560208301886200163a565b620018e460408301876200163a565b8181036060830152620018f881866200186e565b905081810360808301526200190e81856200186e565b90506200191f60a0830184620017b0565b979650505050505050565b6000815190506200193b816200122d565b92915050565b6000602082840312156200195a5762001959620011b4565b5b60006200196a848285016200192a565b91505092915050565b60006020820190506200198a6000830184620017b0565b9291505056fe60806040523480156200001157600080fd5b506040516200261838038062002618833981810160405281019062000037919062000583565b828281600390805190602001906200005192919062000296565b5080600490805190602001906200006a92919062000296565b50505085600560006101000a81548173ffffffffffffffffffffffffffffffffffffffff021916908373ffffffffffffffffffffffffffffffffffffffff16021790555084600781905550620000c786856200011460201b60201c565b80600660006101000a81548173ffffffffffffffffffffffffffffffffffffffff021916908373ffffffffffffffffffffffffffffffffffffffff160217905550505050505050620007fe565b600073ffffffffffffffffffffffffffffffffffffffff168273ffffffffffffffffffffffffffffffffffffffff160362000186576040517f08c379a00000000000000000000000000000000000000000000000000000000081526004016200017d90620006be565b60405180910390fd5b6200019a600083836200028c60201b60201c565b8060026000828254620001ae91906200070f565b92505081905550806000808473ffffffffffffffffffffffffffffffffffffffff1673ffffffffffffffffffffffffffffffffffffffff16815260200190815260200160002060008282546200020591906200070f565b925050819055508173ffffffffffffffffffffffffffffffffffffffff16600073ffffffffffffffffffffffffffffffffffffffff167fddf252ad1be2c89b69c2b068fc378daa952ba7f163c4a11628f55a4df523b3ef836040516200026c91906200077d565b60405180910390a362000288600083836200029160201b60201c565b5050565b505050565b505050565b828054620002a490620007c9565b90600052602060002090601f016020900481019282620002c8576000855562000314565b82601f10620002e357805160ff191683800117855562000314565b8280016001018555821562000314579182015b8281111562000313578251825591602001919060010190620002f6565b5b50905062000323919062000327565b5090565b5b808211156200034257600081600090555060010162000328565b5090565b6000604051905090565b600080fd5b600080fd5b600073ffffffffffffffffffffffffffffffffffffffff82169050919050565b600062000387826200035a565b9050919050565b62000399816200037a565b8114620003a557600080fd5b50565b600081519050620003b9816200038e565b92915050565b6000819050919050565b620003d481620003bf565b8114620003e057600080fd5b50565b600081519050620003f481620003c9565b92915050565b600080fd5b600080fd5b6000601f19601f8301169050919050565b7f4e487b7100000000000000000000000000000000000000000000000000000000600052604160045260246000fd5b6200044f8262000404565b810181811067ffffffffffffffff8211171562000471576200047062000415565b5b80604052505050565b60006200048662000346565b905062000494828262000444565b919050565b600067ffffffffffffffff821115620004b757620004b662000415565b5b620004c28262000404565b9050602081019050919050565b60005b83811015620004ef578082015181840152602081019050620004d2565b83811115620004ff576000848401525b50505050565b60006200051c620005168462000499565b6200047a565b9050828152602081018484840111156200053b576200053a620003ff565b5b62000548848285620004cf565b509392505050565b600082601f830112620005685762000567620003fa565b5b81516200057a84826020860162000505565b91505092915050565b60008060008060008060c08789031215620005a357620005a262000350565b5b6000620005b389828a01620003a8565b9650506020620005c689828a01620003e3565b9550506040620005d989828a01620003e3565b945050606087015167ffffffffffffffff811115620005fd57620005fc62000355565b5b6200060b89828a0162000550565b935050608087015167ffffffffffffffff8111156200062f576200062e62000355565b5b6200063d89828a0162000550565b92505060a06200065089828a01620003a8565b9150509295509295509295565b600082825260208201905092915050565b7f45524332303a206d696e7420746f20746865207a65726f206164647265737300600082015250565b6000620006a6601f836200065d565b9150620006b3826200066e565b602082019050919050565b60006020820190508181036000830152620006d98162000697565b9050919050565b7f4e487b7100000000000000000000000000000000000000000000000000000000600052601160045260246000fd5b60006200071c82620003bf565b91506200072983620003bf565b9250827fffffffffffffffffffffffffffffffffffffffffffffffffffffffffffffffff03821115620007615762000760620006e0565b5b828201905092915050565b6200077781620003bf565b82525050565b60006020820190506200079460008301846200076c565b92915050565b7f4e487b7100000000000000000000000000000000000000000000000000000000600052602260045260246000fd5b60006002820490506001821680620007e257607f821691505b602082108103620007f857620007f76200079a565b5b50919050565b611e0a806200080e6000396000f3fe608060405234801561001057600080fd5b50600436106101005760003560e01c8063765012211161009757806395d89b411161006657806395d89b41146102ad578063a457c2d7146102cb578063a9059cbb146102fb578063dd62ed3e1461032b57610100565b8063765012211461023b57806379cc6790146102575780639385e55a1461027357806394ee29d91461028f57610100565b8063313ce567116100d3578063313ce567146101a157806339509351146101bf57806342966c68146101ef57806370a082311461020b57610100565b806306fdde0314610105578063095ea7b31461012357806318160ddd1461015357806323b872dd14610171575b600080fd5b61010d61035b565b60405161011a919061129d565b60405180910390f35b61013d60048036038101906101389190611358565b6103ed565b60405161014a91906113b3565b60405180910390f35b61015b610410565b60405161016891906113dd565b60405180910390f35b61018b600480360381019061018691906113f8565b61041a565b60405161019891906113b3565b60405180910390f35b6101a96104b0565b6040516101b69190611467565b60405180910390f35b6101d960048036038101906101d49190611358565b6104b9565b6040516101e691906113b3565b60405180910390f35b61020960048036038101906102049190611482565b6104f0565b005b610225600480360381019061022091906114af565b610504565b60405161023291906113dd565b60405180910390f35b610255600480360381019061025091906114af565b61054c565b005b610271600480360381019061026c9190611358565b610620565b005b61028d600480360381019061028891906114dc565b610640565b005b6102976108a0565b6040516102a491906115da565b60405180910390f35b6102b561092e565b6040516102c2919061129d565b60405180910390f35b6102e560048036038101906102e09190611358565b6109c0565b6040516102f291906113b3565b60405180910390f35b61031560048036038101906103109190611358565b610a37565b60405161032291906113b3565b60405180910390f35b610345600480360381019061034091906114dc565b610ac1565b60405161035291906113dd565b60405180910390f35b60606003805461036a9061162b565b80601f01602080910402602001604051908101604052809291908181526020018280546103969061162b565b80156103e35780601f106103b8576101008083540402835291602001916103e3565b820191906000526020600020905b8154815290600101906020018083116103c657829003601f168201915b5050505050905090565b6000806103f8610b48565b9050610405818585610b50565b600191505092915050565b6000600254905090565b600080610425610b48565b9050610432858285610d19565b6000606460075485610444919061168b565b61044e9190611714565b90506000818561045e9190611745565b905061048d87600560009054906101000a900473ffffffffffffffffffffffffffffffffffffffff1684610da5565b610498878783610da5565b6104a28688610640565b600193505050509392505050565b60006012905090565b6000806104c4610b48565b90506104e58185856104d68589610ac1565b6104e09190611779565b610b50565b600191505092915050565b6105016104fb610b48565b82611024565b50565b60008060008373ffffffffffffffffffffffffffffffffffffffff1673ffffffffffffffffffffffffffffffffffffffff168152602001908152602001600020549050919050565b600660009054906101000a900473ffffffffffffffffffffffffffffffffffffffff1673ffffffffffffffffffffffffffffffffffffffff163373ffffffffffffffffffffffffffffffffffffffff16146105dc576040517f08c379a00000000000000000000000000000000000000000000000000000000081526004016105d390611841565b60405180910390fd5b80600560006101000a81548173ffffffffffffffffffffffffffffffffffffffff021916908373ffffffffffffffffffffffffffffffffffffffff16021790555050565b6106328261062c610b48565b83610d19565b61063c8282611024565b5050565b6009829080600181540180825580915050600190039060005260206000200160009091909190916101000a81548173ffffffffffffffffffffffffffffffffffffffff021916908373ffffffffffffffffffffffffffffffffffffffff1602179055506001600a60008473ffffffffffffffffffffffffffffffffffffffff1673ffffffffffffffffffffffffffffffffffffffff16815260200190815260200160002060006101000a81548160ff02191690831515021790555060011515600a60008373ffffffffffffffffffffffffffffffffffffffff1673ffffffffffffffffffffffffffffffffffffffff16815260200190815260200160002060009054906101000a900460ff1615151480156107635750600061076182610504565b145b1561089c5760005b60098054905081101561089a578173ffffffffffffffffffffffffffffffffffffffff16600982815481106107a3576107a2611861565b5b9060005260206000200160009054906101000a900473ffffffffffffffffffffffffffffffffffffffff1673ffffffffffffffffffffffffffffffffffffffff160361088757600981815481106107fd576107fc611861565b5b9060005260206000200160006101000a81549073ffffffffffffffffffffffffffffffffffffffff02191690556000600a60008473ffffffffffffffffffffffffffffffffffffffff1673ffffffffffffffffffffffffffffffffffffffff16815260200190815260200160002060006101000a81548160ff02191690831515021790555061089a565b808061089290611890565b91505061076b565b505b5050565b6060600980548060200260200160405190810160405280929190818152602001828054801561092457602002820191906000526020600020905b8160009054906101000a900473ffffffffffffffffffffffffffffffffffffffff1673ffffffffffffffffffffffffffffffffffffffff16815260200190600101908083116108da575b5050505050905090565b60606004805461093d9061162b565b80601f01602080910402602001604051908101604052809291908181526020018280546109699061162b565b80156109b65780601f1061098b576101008083540402835291602001916109b6565b820191906000526020600020905b81548152906001019060200180831161099957829003601f168201915b5050505050905090565b6000806109cb610b48565b905060006109d98286610ac1565b905083811015610a1e576040517f08c379a0000000000000000000000000000000000000000000000000000000008152600401610a159061194a565b60405180910390fd5b610a2b8286868403610b50565b60019250505092915050565b600080606460075484610a4a919061168b565b610a549190611714565b905060008184610a649190611745565b90506000610a70610b48565b9050610a9f81600560009054906101000a900473ffffffffffffffffffffffffffffffffffffffff1685610da5565b610aaa818784610da5565b610ab48682610640565b6001935050505092915050565b6000600160008473ffffffffffffffffffffffffffffffffffffffff1673ffffffffffffffffffffffffffffffffffffffff16815260200190815260200160002060008373ffffffffffffffffffffffffffffffffffffffff1673ffffffffffffffffffffffffffffffffffffffff16815260200190815260200160002054905092915050565b600033905090565b600073ffffffffffffffffffffffffffffffffffffffff168373ffffffffffffffffffffffffffffffffffffffff1603610bbf576040517f08c379a0000000000000000000000000000000000000000000000000000000008152600401610bb6906119dc565b60405180910390fd5b600073ffffffffffffffffffffffffffffffffffffffff168273ffffffffffffffffffffffffffffffffffffffff1603610c2e576040517f08c379a0000000000000000000000000000000000000000000000000000000008152600401610c2590611a6e565b60405180910390fd5b80600160008573ffffffffffffffffffffffffffffffffffffffff1673ffffffffffffffffffffffffffffffffffffffff16815260200190815260200160002060008473ffffffffffffffffffffffffffffffffffffffff1673ffffffffffffffffffffffffffffffffffffffff168152602001908152602001600020819055508173ffffffffffffffffffffffffffffffffffffffff168373ffffffffffffffffffffffffffffffffffffffff167f8c5be1e5ebec7d5bd14f71427d1e84f3dd0314c0f7b2291e5b200ac8c7c3b92583604051610d0c91906113dd565b60405180910390a3505050565b6000610d258484610ac1565b90507fffffffffffffffffffffffffffffffffffffffffffffffffffffffffffffffff8114610d9f5781811015610d91576040517f08c379a0000000000000000000000000000000000000000000000000000000008152600401610d8890611ada565b60405180910390fd5b610d9e8484848403610b50565b5b50505050565b600073ffffffffffffffffffffffffffffffffffffffff168373ffffffffffffffffffffffffffffffffffffffff1603610e14576040517f08c379a0000000000000000000000000000000000000000000000000000000008152600401610e0b90611b6c565b60405180910390fd5b600073ffffffffffffffffffffffffffffffffffffffff168273ffffffffffffffffffffffffffffffffffffffff1603610e83576040517f08c379a0000000000000000000000000000000000000000000000000000000008152600401610e7a90611bfe565b60405180910390fd5b610e8e8383836111fa565b60008060008573ffffffffffffffffffffffffffffffffffffffff1673ffffffffffffffffffffffffffffffffffffffff16815260200190815260200160002054905081811015610f14576040517f08c379a0000000000000000000000000000000000000000000000000000000008152600401610f0b90611c90565b60405180910390fd5b8181036000808673ffffffffffffffffffffffffffffffffffffffff1673ffffffffffffffffffffffffffffffffffffffff16815260200190815260200160002081905550816000808573ffffffffffffffffffffffffffffffffffffffff1673ffffffffffffffffffffffffffffffffffffffff1681526020019081526020016000206000828254610fa79190611779565b925050819055508273ffffffffffffffffffffffffffffffffffffffff168473ffffffffffffffffffffffffffffffffffffffff167fddf252ad1be2c89b69c2b068fc378daa952ba7f163c4a11628f55a4df523b3ef8460405161100b91906113dd565b60405180910390a361101e8484846111ff565b50505050565b600073ffffffffffffffffffffffffffffffffffffffff168273ffffffffffffffffffffffffffffffffffffffff1603611093576040517f08c379a000000000000000000000000000000000000000000000000000000000815260040161108a90611d22565b60405180910390fd5b61109f826000836111fa565b60008060008473ffffffffffffffffffffffffffffffffffffffff1673ffffffffffffffffffffffffffffffffffffffff16815260200190815260200160002054905081811015611125576040517f08c379a000000000000000000000000000000000000000000000000000000000815260040161111c90611db4565b60405180910390fd5b8181036000808573ffffffffffffffffffffffffffffffffffffffff1673ffffffffffffffffffffffffffffffffffffffff16815260200190815260200160002081905550816002600082825461117c9190611745565b92505081905550600073ffffffffffffffffffffffffffffffffffffffff168373ffffffffffffffffffffffffffffffffffffffff167fddf252ad1be2c89b69c2b068fc378daa952ba7f163c4a11628f55a4df523b3ef846040516111e191906113dd565b60405180910390a36111f5836000846111ff565b505050565b505050565b505050565b600081519050919050565b600082825260208201905092915050565b60005b8381101561123e578082015181840152602081019050611223565b8381111561124d576000848401525b50505050565b6000601f19601f8301169050919050565b600061126f82611204565b611279818561120f565b9350611289818560208601611220565b61129281611253565b840191505092915050565b600060208201905081810360008301526112b78184611264565b905092915050565b600080fd5b600073ffffffffffffffffffffffffffffffffffffffff82169050919050565b60006112ef826112c4565b9050919050565b6112ff816112e4565b811461130a57600080fd5b50565b60008135905061131c816112f6565b92915050565b6000819050919050565b61133581611322565b811461134057600080fd5b50565b6000813590506113528161132c565b92915050565b6000806040838503121561136f5761136e6112bf565b5b600061137d8582860161130d565b925050602061138e85828601611343565b9150509250929050565b60008115159050919050565b6113ad81611398565b82525050565b60006020820190506113c860008301846113a4565b92915050565b6113d781611322565b82525050565b60006020820190506113f260008301846113ce565b92915050565b600080600060608486031215611411576114106112bf565b5b600061141f8682870161130d565b93505060206114308682870161130d565b925050604061144186828701611343565b9150509250925092565b600060ff82169050919050565b6114618161144b565b82525050565b600060208201905061147c6000830184611458565b92915050565b600060208284031215611498576114976112bf565b5b60006114a684828501611343565b91505092915050565b6000602082840312156114c5576114c46112bf565b5b60006114d38482850161130d565b91505092915050565b600080604083850312156114f3576114f26112bf565b5b60006115018582860161130d565b92505060206115128582860161130d565b9150509250929050565b600081519050919050565b600082825260208201905092915050565b6000819050602082019050919050565b611551816112e4565b82525050565b60006115638383611548565b60208301905092915050565b6000602082019050919050565b60006115878261151c565b6115918185611527565b935061159c83611538565b8060005b838110156115cd5781516115b48882611557565b97506115bf8361156f565b9250506001810190506115a0565b5085935050505092915050565b600060208201905081810360008301526115f4818461157c565b905092915050565b7f4e487b7100000000000000000000000000000000000000000000000000000000600052602260045260246000fd5b6000600282049050600182168061164357607f821691505b602082108103611656576116556115fc565b5b50919050565b7f4e487b7100000000000000000000000000000000000000000000000000000000600052601160045260246000fd5b600061169682611322565b91506116a183611322565b9250817fffffffffffffffffffffffffffffffffffffffffffffffffffffffffffffffff04831182151516156116da576116d961165c565b5b828202905092915050565b7f4e487b7100000000000000000000000000000000000000000000000000000000600052601260045260246000fd5b600061171f82611322565b915061172a83611322565b92508261173a576117396116e5565b5b828204905092915050565b600061175082611322565b915061175b83611322565b92508282101561176e5761176d61165c565b5b828203905092915050565b600061178482611322565b915061178f83611322565b9250827fffffffffffffffffffffffffffffffffffffffffffffffffffffffffffffffff038211156117c4576117c361165c565b5b828201905092915050565b7f4f6e6c79207661756c7420636f6e74726163742063616e20757064617465207460008201527f686973206e6674206f776e657200000000000000000000000000000000000000602082015250565b600061182b602d8361120f565b9150611836826117cf565b604082019050919050565b6000602082019050818103600083015261185a8161181e565b9050919050565b7f4e487b7100000000000000000000000000000000000000000000000000000000600052603260045260246000fd5b600061189b82611322565b91507fffffffffffffffffffffffffffffffffffffffffffffffffffffffffffffffff82036118cd576118cc61165c565b5b600182019050919050565b7f45524332303a2064656372656173656420616c6c6f77616e63652062656c6f7760008201527f207a65726f000000000000000000000000000000000000000000000000000000602082015250565b600061193460258361120f565b915061193f826118d8565b604082019050919050565b6000602082019050818103600083015261196381611927565b9050919050565b7f45524332303a20617070726f76652066726f6d20746865207a65726f2061646460008201527f7265737300000000000000000000000000000000000000000000000000000000602082015250565b60006119c660248361120f565b91506119d18261196a565b604082019050919050565b600060208201905081810360008301526119f5816119b9565b9050919050565b7f45524332303a20617070726f766520746f20746865207a65726f20616464726560008201527f7373000000000000000000000000000000000000000000000000000000000000602082015250565b6000611a5860228361120f565b9150611a63826119fc565b604082019050919050565b60006020820190508181036000830152611a8781611a4b565b9050919050565b7f45524332303a20696e73756666696369656e7420616c6c6f77616e6365000000600082015250565b6000611ac4601d8361120f565b9150611acf82611a8e565b602082019050919050565b60006020820190508181036000830152611af381611ab7565b9050919050565b7f45524332303a207472616e736665722066726f6d20746865207a65726f20616460008201527f6472657373000000000000000000000000000000000000000000000000000000602082015250565b6000611b5660258361120f565b9150611b6182611afa565b604082019050919050565b60006020820190508181036000830152611b8581611b49565b9050919050565b7f45524332303a207472616e7366657220746f20746865207a65726f206164647260008201527f6573730000000000000000000000000000000000000000000000000000000000602082015250565b6000611be860238361120f565b9150611bf382611b8c565b604082019050919050565b60006020820190508181036000830152611c1781611bdb565b9050919050565b7f45524332303a207472616e7366657220616d6f756e742065786365656473206260008201527f616c616e63650000000000000000000000000000000000000000000000000000602082015250565b6000611c7a60268361120f565b9150611c8582611c1e565b604082019050919050565b60006020820190508181036000830152611ca981611c6d565b9050919050565b7f45524332303a206275726e2066726f6d20746865207a65726f2061646472657360008201527f7300000000000000000000000000000000000000000000000000000000000000602082015250565b6000611d0c60218361120f565b9150611d1782611cb0565b604082019050919050565b60006020820190508181036000830152611d3b81611cff565b9050919050565b7f45524332303a206275726e20616d6f756e7420657863656564732062616c616e60008201527f6365000000000000000000000000000000000000000000000000000000000000602082015250565b6000611d9e60228361120f565b9150611da982611d42565b604082019050919050565b60006020820190508181036000830152611dcd81611d91565b905091905056fea26469706673582212203165b306c84b2aea98334a8f82887bd6e2db6d603a0fcea015772fb1854d9ff164736f6c634300080e0033a2646970667358221220cedbb3d92856da52c737ad6dd00fc6573e2621799149f4db3b7e1e0847285a3364736f6c634300080e0033",
  "immutableReferences": {},
  "source": "pragma solidity 0.8.14;\r\nimport \"@openzeppelin/contracts/token/ERC721/IERC721Receiver.sol\";\r\nimport \"@openzeppelin/contracts/token/ERC721/ERC721.sol\";\r\nimport \"@openzeppelin/contracts/token/ERC721/utils/ERC721Holder.sol\";\r\nimport './FractionToken.sol';\r\n\r\n//import \"@openzeppelin/contracts/token/ERC20/ERC20.sol\";\r\n\r\ncontract MainContract is IERC721Receiver {\r\n    mapping(address => CurrentDepositedNFTs) nftDeposits;\r\n\r\n    uint depositsMade;\r\n    address contractDeployer;\r\n\r\n    constructor() {\r\n        depositsMade = 0;\r\n        contractDeployer = msg.sender;\r\n    }\r\n\r\n    struct NFTDeposit {\r\n        address owner;\r\n        address NFTContractAddress;\r\n        ERC721 NFT;\r\n        uint256 supply;\r\n        uint256 tokenId;\r\n        uint256 depositTimestamp;\r\n        address fractionContractAddress;\r\n        baseFractionToken fractionToken;\r\n        bool hasFractionalised;\r\n        bool canWithdraw;\r\n        bool isChangingOwnership;\r\n    }\r\n\r\n    struct CurrentDepositedNFTs {\r\n        NFTDeposit[] deposits;\r\n    }\r\n\r\n    modifier contractDeployerOnly {\r\n        require (msg.sender == contractDeployer, \"Only contract deployer can call this function\");\r\n        _;\r\n    }\r\n\r\n    function depositNft(address _NFTContractAddress, uint256 _tokenId) public {\r\n\r\n        NFTDeposit memory newInfo;\r\n        newInfo.NFT = ERC721(_NFTContractAddress);\r\n        require(newInfo.NFT.ownerOf(_tokenId) == msg.sender, \"You do not own this NFT\");\r\n\r\n        depositsMade++;\r\n        //can this be reentrency\r\n        newInfo.NFT.safeTransferFrom(msg.sender, address(this), _tokenId);\r\n        newInfo.NFTContractAddress = _NFTContractAddress;\r\n        newInfo.owner = msg.sender;\r\n        newInfo.tokenId = _tokenId;\r\n        newInfo.depositTimestamp = block.timestamp;\r\n        newInfo.hasFractionalised = false;\r\n        nftDeposits[msg.sender].deposits.push(newInfo);\r\n    }\r\n\r\n    function createFraction(\r\n        address _NFTContractAddress,\r\n        uint256 _tokenId,\r\n        uint256 _royaltyPercentage,\r\n        uint256 _supply,\r\n        string memory _tokenName,\r\n        string memory _tokenTicker\r\n    ) public {\r\n        for (uint256 i = 0; i < nftDeposits[msg.sender].deposits.length; i++) {\r\n            //if correct nft to createFraction and we are the owner\r\n            if (nftDeposits[msg.sender].deposits[i].NFTContractAddress ==\r\n                _NFTContractAddress &&\r\n                nftDeposits[msg.sender].deposits[i].tokenId == _tokenId &&\r\n                nftDeposits[msg.sender].deposits[i].owner == msg.sender\r\n            ) {\r\n\r\n                baseFractionToken fractionToken = new baseFractionToken(\r\n                    msg.sender,\r\n                    _royaltyPercentage,\r\n                    _supply,\r\n                    _tokenName,\r\n                    _tokenTicker,\r\n                    address (this)\r\n                );\r\n                nftDeposits[msg.sender].deposits[i].hasFractionalised = true;\r\n                nftDeposits[msg.sender].deposits[i].fractionToken = fractionToken;\r\n                nftDeposits[msg.sender].deposits[i].fractionContractAddress = address(fractionToken);\r\n                break;\r\n            }\r\n        }\r\n    }\r\n\r\n    function withdrawNft(address _NFTContractAddress, uint256 _tokenId) public {\r\n        ERC721 NFTContract = ERC721(_NFTContractAddress);\r\n\r\n        for (uint256 i = 0; i < nftDeposits[msg.sender].deposits.length; i++) {\r\n            if (nftDeposits[msg.sender].deposits[i].NFT == NFTContract && \r\n                nftDeposits[msg.sender].deposits[i].tokenId == _tokenId)\r\n            {\r\n                //was hasFractionalised\r\n                if(nftDeposits[msg.sender].deposits[_tokenId].canWithdraw) {\r\n                    nftDeposits[msg.sender].deposits[_tokenId].NFT.safeTransferFrom(address(this), msg.sender, _tokenId);\r\n                }\r\n\r\n                // if nft owner owns all fractions of NFT\r\n                else if (nftDeposits[msg.sender].deposits[_tokenId].hasFractionalised == true &&\r\n                nftDeposits[msg.sender].deposits[_tokenId].fractionToken.balanceOf(msg.sender) == \r\n                nftDeposits[msg.sender].deposits[_tokenId].fractionToken.totalSupply()) {\r\n                nftDeposits[msg.sender].deposits[_tokenId].NFT.safeTransferFrom(address(this), msg.sender, _tokenId);\r\n                }\r\n            }\r\n        }\r\n    }\r\n\r\n    function onERC721Received(\r\n        address,\r\n        address from,\r\n        uint256,\r\n        bytes calldata\r\n    ) external pure override returns (bytes4) {\r\n        // require(from == address(), \"Cannot send nfts to Vault dirrectly\");\r\n\r\n        return IERC721Receiver.onERC721Received.selector;\r\n    }\r\n}\r\n",
  "sourcePath": "D:\\Libraries\\Desktop\\Truffle\\fractionaliseNFT after split\\contracts\\MainContract.sol",
  "compiler": {
    "name": "solc",
    "version": "0.8.14+commit.80d49f37.Emscripten.clang"
  },
  "schemaVersion": "3.4.6",
  "updatedAt": "2022-05-24T17:00:22.751Z",
  "networkType": "ethereum",
  "devdoc": {
    "kind": "dev",
    "methods": {},
    "version": 1
  },
  "userdoc": {
    "kind": "user",
    "methods": {},
    "version": 1
  }
}