{
  "contractName": "MainContract",
  "abi": [
    {
      "inputs": [],
      "stateMutability": "nonpayable",
      "type": "constructor"
    },
    {
      "inputs": [],
      "name": "updateDepositValue",
      "outputs": [],
      "stateMutability": "nonpayable",
      "type": "function"
    },
    {
      "inputs": [
        {
          "internalType": "contract baseFractionToken",
          "name": "_tokens",
          "type": "address"
        },
        {
          "internalType": "uint256",
          "name": "_amount",
          "type": "uint256"
        }
      ],
      "name": "stakeTokens",
      "outputs": [],
      "stateMutability": "nonpayable",
      "type": "function"
    },
    {
      "inputs": [
        {
          "internalType": "contract baseFractionToken",
          "name": "_tokens",
          "type": "address"
        },
        {
          "internalType": "uint256",
          "name": "_amount",
          "type": "uint256"
        }
      ],
      "name": "unstakeTokens",
      "outputs": [],
      "stateMutability": "nonpayable",
      "type": "function"
    },
    {
      "inputs": [
        {
          "internalType": "address",
          "name": "_NFTContractAddress",
          "type": "address"
        },
        {
          "internalType": "uint256",
          "name": "_tokenId",
          "type": "uint256"
        }
      ],
      "name": "depositNft",
      "outputs": [],
      "stateMutability": "nonpayable",
      "type": "function"
    },
    {
      "inputs": [
        {
          "internalType": "address",
          "name": "_NFTContractAddress",
          "type": "address"
        },
        {
          "internalType": "uint256",
          "name": "_tokenId",
          "type": "uint256"
        },
        {
          "internalType": "uint256",
          "name": "_royaltyPercentage",
          "type": "uint256"
        },
        {
          "internalType": "uint256",
          "name": "_supply",
          "type": "uint256"
        },
        {
          "internalType": "string",
          "name": "_tokenName",
          "type": "string"
        },
        {
          "internalType": "string",
          "name": "_tokenTicker",
          "type": "string"
        }
      ],
      "name": "createFraction",
      "outputs": [],
      "stateMutability": "nonpayable",
      "type": "function"
    },
    {
      "inputs": [
        {
          "internalType": "address",
          "name": "_NFTContractAddress",
          "type": "address"
        },
        {
          "internalType": "uint256",
          "name": "_tokenId",
          "type": "uint256"
        }
      ],
      "name": "withdrawNft",
      "outputs": [],
      "stateMutability": "nonpayable",
      "type": "function"
    },
    {
      "inputs": [
        {
          "internalType": "address",
          "name": "_oldOwner",
          "type": "address"
        },
        {
          "internalType": "address",
          "name": "_newOwner",
          "type": "address"
        },
        {
          "components": [
            {
              "internalType": "address",
              "name": "owner",
              "type": "address"
            },
            {
              "internalType": "address",
              "name": "NFTContractAddress",
              "type": "address"
            },
            {
              "internalType": "contract ERC721",
              "name": "NFT",
              "type": "address"
            },
            {
              "internalType": "uint256",
              "name": "supply",
              "type": "uint256"
            },
            {
              "internalType": "uint256",
              "name": "tokenId",
              "type": "uint256"
            },
            {
              "internalType": "uint256",
              "name": "depositTimestamp",
              "type": "uint256"
            },
            {
              "internalType": "address",
              "name": "fractionContractAddress",
              "type": "address"
            },
            {
              "internalType": "contract baseFractionToken",
              "name": "fractionToken",
              "type": "address"
            },
            {
              "internalType": "bool",
              "name": "hasFractionalised",
              "type": "bool"
            },
            {
              "internalType": "bool",
              "name": "canWithdraw",
              "type": "bool"
            },
            {
              "internalType": "bool",
              "name": "isChangingOwnership",
              "type": "bool"
            }
          ],
          "internalType": "struct MainContract.NFTDeposit",
          "name": "_nftDeposit",
          "type": "tuple"
        }
      ],
      "name": "updateNftOwner",
      "outputs": [],
      "stateMutability": "nonpayable",
      "type": "function"
    },
    {
      "inputs": [
        {
          "internalType": "address",
          "name": "_NFTContractAddress",
          "type": "address"
        },
        {
          "internalType": "uint256",
          "name": "_tokenId",
          "type": "uint256"
        }
      ],
      "name": "buyoutAllTokens",
      "outputs": [],
      "stateMutability": "nonpayable",
      "type": "function"
    },
    {
      "inputs": [
        {
          "internalType": "contract baseFractionToken",
          "name": "_token",
          "type": "address"
        },
        {
          "components": [
            {
              "internalType": "address",
              "name": "owner",
              "type": "address"
            },
            {
              "internalType": "address",
              "name": "NFTContractAddress",
              "type": "address"
            },
            {
              "internalType": "contract ERC721",
              "name": "NFT",
              "type": "address"
            },
            {
              "internalType": "uint256",
              "name": "supply",
              "type": "uint256"
            },
            {
              "internalType": "uint256",
              "name": "tokenId",
              "type": "uint256"
            },
            {
              "internalType": "uint256",
              "name": "depositTimestamp",
              "type": "uint256"
            },
            {
              "internalType": "address",
              "name": "fractionContractAddress",
              "type": "address"
            },
            {
              "internalType": "contract baseFractionToken",
              "name": "fractionToken",
              "type": "address"
            },
            {
              "internalType": "bool",
              "name": "hasFractionalised",
              "type": "bool"
            },
            {
              "internalType": "bool",
              "name": "canWithdraw",
              "type": "bool"
            },
            {
              "internalType": "bool",
              "name": "isChangingOwnership",
              "type": "bool"
            }
          ],
          "internalType": "struct MainContract.NFTDeposit",
          "name": "_nftDeposit",
          "type": "tuple"
        }
      ],
      "name": "startBuyoutProposal",
      "outputs": [],
      "stateMutability": "payable",
      "type": "function"
    },
    {
      "inputs": [
        {
          "components": [
            {
              "internalType": "address",
              "name": "owner",
              "type": "address"
            },
            {
              "internalType": "address",
              "name": "NFTContractAddress",
              "type": "address"
            },
            {
              "internalType": "contract ERC721",
              "name": "NFT",
              "type": "address"
            },
            {
              "internalType": "uint256",
              "name": "supply",
              "type": "uint256"
            },
            {
              "internalType": "uint256",
              "name": "tokenId",
              "type": "uint256"
            },
            {
              "internalType": "uint256",
              "name": "depositTimestamp",
              "type": "uint256"
            },
            {
              "internalType": "address",
              "name": "fractionContractAddress",
              "type": "address"
            },
            {
              "internalType": "contract baseFractionToken",
              "name": "fractionToken",
              "type": "address"
            },
            {
              "internalType": "bool",
              "name": "hasFractionalised",
              "type": "bool"
            },
            {
              "internalType": "bool",
              "name": "canWithdraw",
              "type": "bool"
            },
            {
              "internalType": "bool",
              "name": "isChangingOwnership",
              "type": "bool"
            }
          ],
          "internalType": "struct MainContract.NFTDeposit",
          "name": "_NFTDeposit",
          "type": "tuple"
        },
        {
          "internalType": "bool",
          "name": "_voteValue",
          "type": "bool"
        },
        {
          "internalType": "uint256",
          "name": "_voteAmount",
          "type": "uint256"
        }
      ],
      "name": "voteOnProposal",
      "outputs": [],
      "stateMutability": "nonpayable",
      "type": "function"
    },
    {
      "inputs": [
        {
          "internalType": "contract baseFractionToken",
          "name": "_token",
          "type": "address"
        },
        {
          "components": [
            {
              "internalType": "bool",
              "name": "active",
              "type": "bool"
            },
            {
              "components": [
                {
                  "internalType": "address",
                  "name": "owner",
                  "type": "address"
                },
                {
                  "internalType": "address",
                  "name": "NFTContractAddress",
                  "type": "address"
                },
                {
                  "internalType": "contract ERC721",
                  "name": "NFT",
                  "type": "address"
                },
                {
                  "internalType": "uint256",
                  "name": "supply",
                  "type": "uint256"
                },
                {
                  "internalType": "uint256",
                  "name": "tokenId",
                  "type": "uint256"
                },
                {
                  "internalType": "uint256",
                  "name": "depositTimestamp",
                  "type": "uint256"
                },
                {
                  "internalType": "address",
                  "name": "fractionContractAddress",
                  "type": "address"
                },
                {
                  "internalType": "contract baseFractionToken",
                  "name": "fractionToken",
                  "type": "address"
                },
                {
                  "internalType": "bool",
                  "name": "hasFractionalised",
                  "type": "bool"
                },
                {
                  "internalType": "bool",
                  "name": "canWithdraw",
                  "type": "bool"
                },
                {
                  "internalType": "bool",
                  "name": "isChangingOwnership",
                  "type": "bool"
                }
              ],
              "internalType": "struct MainContract.NFTDeposit",
              "name": "nftDeposit",
              "type": "tuple"
            },
            {
              "internalType": "address",
              "name": "proposalInitiator",
              "type": "address"
            },
            {
              "internalType": "uint256",
              "name": "id",
              "type": "uint256"
            },
            {
              "internalType": "uint256",
              "name": "buyoutPriceStart",
              "type": "uint256"
            },
            {
              "internalType": "uint256",
              "name": "totalVoted",
              "type": "uint256"
            },
            {
              "internalType": "uint256",
              "name": "totalAmountAgree",
              "type": "uint256"
            },
            {
              "internalType": "uint256",
              "name": "totalAmountDisagree",
              "type": "uint256"
            },
            {
              "internalType": "uint256",
              "name": "finishTime",
              "type": "uint256"
            }
          ],
          "internalType": "struct MainContract.buyoutProposal",
          "name": "proposal",
          "type": "tuple"
        }
      ],
      "name": "startBuyoutAuction",
      "outputs": [],
      "stateMutability": "nonpayable",
      "type": "function"
    },
    {
      "inputs": [
        {
          "internalType": "contract baseFractionToken",
          "name": "_token",
          "type": "address"
        },
        {
          "internalType": "bool",
          "name": "_voteValue",
          "type": "bool"
        }
      ],
      "name": "bidOnAuction",
      "outputs": [],
      "stateMutability": "payable",
      "type": "function"
    },
    {
      "inputs": [
        {
          "internalType": "contract baseFractionToken",
          "name": "_token",
          "type": "address"
        },
        {
          "internalType": "uint256",
          "name": "_amount",
          "type": "uint256"
        }
      ],
      "name": "claimFromBuyoutTokens",
      "outputs": [],
      "stateMutability": "nonpayable",
      "type": "function"
    },
    {
      "inputs": [
        {
          "internalType": "uint256",
          "name": "_index",
          "type": "uint256"
        }
      ],
      "name": "getFractionContractAddress",
      "outputs": [
        {
          "internalType": "address",
          "name": "",
          "type": "address"
        }
      ],
      "stateMutability": "view",
      "type": "function"
    },
    {
      "inputs": [],
      "name": "getArraySize",
      "outputs": [
        {
          "internalType": "uint256",
          "name": "",
          "type": "uint256"
        }
      ],
      "stateMutability": "view",
      "type": "function"
    },
    {
      "inputs": [],
      "name": "getDepositsMade",
      "outputs": [
        {
          "internalType": "uint256",
          "name": "",
          "type": "uint256"
        }
      ],
      "stateMutability": "view",
      "type": "function"
    },
    {
      "inputs": [
        {
          "internalType": "address",
          "name": "",
          "type": "address"
        },
        {
          "internalType": "address",
          "name": "from",
          "type": "address"
        },
        {
          "internalType": "uint256",
          "name": "",
          "type": "uint256"
        },
        {
          "internalType": "bytes",
          "name": "",
          "type": "bytes"
        }
      ],
      "name": "onERC721Received",
      "outputs": [
        {
          "internalType": "bytes4",
          "name": "",
          "type": "bytes4"
        }
      ],
      "stateMutability": "pure",
      "type": "function"
    }
  ],
  "bytecode": "0x60806040526203f480600055603260015534801561001c57600080fd5b50600060068190555033600760006101000a81548173ffffffffffffffffffffffffffffffffffffffff021916908373ffffffffffffffffffffffffffffffffffffffff160217905550618bae80620000766000396000f3fe608060405260043610620001165760003560e01c8063a72e2cd611620000a3578063b83a75e5116200006d578063b83a75e51462000343578063d8fc65191462000371578063e0cf2b61146200039f578063e89a173e14620003cd578063f4164f5714620003fb5762000116565b8063a72e2cd6146200029f578063a7525b3b14620002cd578063ae03f22d14620002fb578063afabcf7d14620003155762000116565b80634ae7ed0911620000e55780634ae7ed0914620001dd57806358860502146200020d57806379a83f5a14620002515780637f042b8b146200027f5762000116565b80630de4fd49146200011b578063150b7a02146200013b5780633ac6ec99146200017f5780633b1cbad814620001ad575b600080fd5b62000139600480360381019062000133919062005507565b62000429565b005b3480156200014857600080fd5b50620001676004803603810190620001619190620055bd565b62000b71565b60405162000176919062005690565b60405180910390f35b3480156200018c57600080fd5b50620001ab6004803603810190620001a59190620056ad565b62000b86565b005b348015620001ba57600080fd5b50620001c562000e52565b604051620001d4919062005705565b60405180910390f35b348015620001ea57600080fd5b50620001f562000e9f565b60405162000204919062005705565b60405180910390f35b3480156200021a57600080fd5b5062000239600480360381019062000233919062005722565b62000ea9565b60405162000248919062005765565b60405180910390f35b3480156200025e57600080fd5b506200027d600480360381019062000277919062005782565b62000f3b565b005b6200029d6004803603810190620002979190620057c9565b620010e1565b005b348015620002ac57600080fd5b50620002cb6004803603810190620002c59190620056ad565b62002223565b005b348015620002da57600080fd5b50620002f96004803603810190620002f3919062005782565b620026d6565b005b3480156200030857600080fd5b506200031362002996565b005b3480156200032257600080fd5b506200034160048036038101906200033b9190620058d8565b620029b2565b005b3480156200035057600080fd5b506200036f6004803603810190620003699190620059b2565b62002f5f565b005b3480156200037e57600080fd5b506200039d6004803603810190620003979190620056ad565b62002fb3565b005b348015620003ac57600080fd5b50620003cb6004803603810190620003c5919062005a0f565b6200365f565b005b348015620003da57600080fd5b50620003f96004803603810190620003f3919062005782565b62004412565b005b3480156200040857600080fd5b5062000427600480360381019062000421919062005b6b565b62004577565b005b816000600c60008373ffffffffffffffffffffffffffffffffffffffff1673ffffffffffffffffffffffffffffffffffffffff1681526020019081526020016000206000018054905090506000600c60008473ffffffffffffffffffffffffffffffffffffffff1673ffffffffffffffffffffffffffffffffffffffff16815260200190815260200160002060010180549050905060001515600c60008573ffffffffffffffffffffffffffffffffffffffff1673ffffffffffffffffffffffffffffffffffffffff168152602001908152602001600020600001838154811062000519576200051862005bb3565b5b906000526020600020906010020160000160009054906101000a900460ff161515146200057d576040517f08c379a0000000000000000000000000000000000000000000000000000000008152600401620005749062005c43565b60405180910390fd5b60001515600c60008573ffffffffffffffffffffffffffffffffffffffff1673ffffffffffffffffffffffffffffffffffffffff1681526020019081526020016000206001018281548110620005d857620005d762005bb3565b5b90600052602060002090601e020160000160009054906101000a900460ff161515146200063c576040517f08c379a0000000000000000000000000000000000000000000000000000000008152600401620006339062005cb5565b60405180910390fd5b6200064662005016565b6000544262000656919062005d06565b816101000181815250503481608001818152505033816040019073ffffffffffffffffffffffffffffffffffffffff16908173ffffffffffffffffffffffffffffffffffffffff16815250506001600860003373ffffffffffffffffffffffffffffffffffffffff1673ffffffffffffffffffffffffffffffffffffffff1681526020019081526020016000206000600254815260200190815260200160002060006101000a81548160ff0219169083151502179055508573ffffffffffffffffffffffffffffffffffffffff166370a08231336040518263ffffffff1660e01b815260040162000748919062005765565b602060405180830381865afa15801562000766573d6000803e3d6000fd5b505050506040513d601f19601f820116820180604052508101906200078c919062005d7a565b8160c001818152505060008160e00181815250508573ffffffffffffffffffffffffffffffffffffffff166370a08231336040518263ffffffff1660e01b8152600401620007db919062005765565b602060405180830381865afa158015620007f9573d6000803e3d6000fd5b505050506040513d601f19601f820116820180604052508101906200081f919062005d7a565b8160a00181815250506001816000019015159081151581525050848160200181905250600254816060018181525050600c60008773ffffffffffffffffffffffffffffffffffffffff1673ffffffffffffffffffffffffffffffffffffffff16815260200190815260200160002060000181908060018154018082558091505060019003906000526020600020906010020160009091909190915060008201518160000160006101000a81548160ff02191690831515021790555060208201518160010160008201518160000160006101000a81548173ffffffffffffffffffffffffffffffffffffffff021916908373ffffffffffffffffffffffffffffffffffffffff16021790555060208201518160010160006101000a81548173ffffffffffffffffffffffffffffffffffffffff021916908373ffffffffffffffffffffffffffffffffffffffff16021790555060408201518160020160006101000a81548173ffffffffffffffffffffffffffffffffffffffff021916908373ffffffffffffffffffffffffffffffffffffffff160217905550606082015181600301556080820151816004015560a0820151816005015560c08201518160060160006101000a81548173ffffffffffffffffffffffffffffffffffffffff021916908373ffffffffffffffffffffffffffffffffffffffff16021790555060e08201518160070160006101000a81548173ffffffffffffffffffffffffffffffffffffffff021916908373ffffffffffffffffffffffffffffffffffffffff1602179055506101008201518160070160146101000a81548160ff0219169083151502179055506101208201518160070160156101000a81548160ff0219169083151502179055506101408201518160070160166101000a81548160ff021916908315150217905550505060408201518160090160006101000a81548173ffffffffffffffffffffffffffffffffffffffff021916908373ffffffffffffffffffffffffffffffffffffffff160217905550606082015181600a0155608082015181600b015560a082015181600c015560c082015181600d015560e082015181600e015561010082015181600f015550506002600081548092919062000b649062005dac565b9190505550505050505050565b600063150b7a0260e01b905095945050505050565b600082905060005b600460003373ffffffffffffffffffffffffffffffffffffffff1673ffffffffffffffffffffffffffffffffffffffff1681526020019081526020016000206000018054905081101562000e4c578173ffffffffffffffffffffffffffffffffffffffff16600460003373ffffffffffffffffffffffffffffffffffffffff1673ffffffffffffffffffffffffffffffffffffffff168152602001908152602001600020600001828154811062000c4a5762000c4962005bb3565b5b906000526020600020906008020160020160009054906101000a900473ffffffffffffffffffffffffffffffffffffffff1673ffffffffffffffffffffffffffffffffffffffff1614801562000d07575082600460003373ffffffffffffffffffffffffffffffffffffffff1673ffffffffffffffffffffffffffffffffffffffff168152602001908152602001600020600001828154811062000cf35762000cf262005bb3565b5b906000526020600020906008020160040154145b1562000e36576000600460003373ffffffffffffffffffffffffffffffffffffffff1673ffffffffffffffffffffffffffffffffffffffff168152602001908152602001600020600001828154811062000d665762000d6562005bb3565b5b906000526020600020906008020160070160009054906101000a900473ffffffffffffffffffffffffffffffffffffffff16905060005b8173ffffffffffffffffffffffffffffffffffffffff166394ee29d96040518163ffffffff1660e01b8152600401600060405180830381865afa15801562000de9573d6000803e3d6000fd5b505050506040513d6000823e3d601f19601f8201168201806040525081019062000e14919062005ee6565b5181101562000e3357808062000e2a9062005dac565b91505062000d9d565b50505b808062000e439062005dac565b91505062000b8e565b50505050565b6000600460003373ffffffffffffffffffffffffffffffffffffffff1673ffffffffffffffffffffffffffffffffffffffff16815260200190815260200160002060000180549050905090565b6000600654905090565b6000600460003373ffffffffffffffffffffffffffffffffffffffff1673ffffffffffffffffffffffffffffffffffffffff168152602001908152602001600020600001828154811062000f025762000f0162005bb3565b5b906000526020600020906008020160060160009054906101000a900473ffffffffffffffffffffffffffffffffffffffff169050919050565b808273ffffffffffffffffffffffffffffffffffffffff166370a08231336040518263ffffffff1660e01b815260040162000f77919062005765565b602060405180830381865afa15801562000f95573d6000803e3d6000fd5b505050506040513d601f19601f8201168201806040525081019062000fbb919062005d7a565b111562000fff576040517f08c379a000000000000000000000000000000000000000000000000000000000815260040162000ff69062005f87565b60405180910390fd5b8173ffffffffffffffffffffffffffffffffffffffff166323b872dd3330846040518463ffffffff1660e01b81526004016200103e9392919062005fa9565b6020604051808303816000875af11580156200105e573d6000803e3d6000fd5b505050506040513d601f19601f8201168201806040525081019062001084919062005ffd565b5080600560003373ffffffffffffffffffffffffffffffffffffffff1673ffffffffffffffffffffffffffffffffffffffff1681526020019081526020016000206000828254620010d6919062005d06565b925050819055505050565b6000600c60008473ffffffffffffffffffffffffffffffffffffffff1673ffffffffffffffffffffffffffffffffffffffff1681526020019081526020016000206000018054905090506000600c60008573ffffffffffffffffffffffffffffffffffffffff1673ffffffffffffffffffffffffffffffffffffffff168152602001908152602001600020600101805490509050600c60008573ffffffffffffffffffffffffffffffffffffffff1673ffffffffffffffffffffffffffffffffffffffff1681526020019081526020016000206001018181548110620011cc57620011cb62005bb3565b5b90600052602060002090601e0201601b0154341162001233573373ffffffffffffffffffffffffffffffffffffffff166108fc349081150290604051600060405180830381858888f193505050501580156200122c573d6000803e3d6000fd5b50620018d1565b600c60008573ffffffffffffffffffffffffffffffffffffffff1673ffffffffffffffffffffffffffffffffffffffff16815260200190815260200160002060010181815481106200128a576200128962005bb3565b5b90600052602060002090601e0201601c0154421015620016805760011515600c60008673ffffffffffffffffffffffffffffffffffffffff1673ffffffffffffffffffffffffffffffffffffffff1681526020019081526020016000206001018281548110620012ff57620012fe62005bb3565b5b90600052602060002090601e020160000160009054906101000a900460ff1615151462001363576040517f08c379a00000000000000000000000000000000000000000000000000000000081526004016200135a906200607f565b60405180910390fd5b60001515600c60008673ffffffffffffffffffffffffffffffffffffffff1673ffffffffffffffffffffffffffffffffffffffff1681526020019081526020016000206000018381548110620013be57620013bd62005bb3565b5b906000526020600020906010020160000160009054906101000a900460ff1615151462001422576040517f08c379a0000000000000000000000000000000000000000000000000000000008152600401620014199062006117565b60405180910390fd5b6000600c60008673ffffffffffffffffffffffffffffffffffffffff1673ffffffffffffffffffffffffffffffffffffffff16815260200190815260200160002060010182815481106200147b576200147a62005bb3565b5b90600052602060002090601e0201601b015490506000600c60008773ffffffffffffffffffffffffffffffffffffffff1673ffffffffffffffffffffffffffffffffffffffff1681526020019081526020016000206001018381548110620014e857620014e762005bb3565b5b90600052602060002090601e020160190160009054906101000a900473ffffffffffffffffffffffffffffffffffffffff16905034600c60008873ffffffffffffffffffffffffffffffffffffffff1673ffffffffffffffffffffffffffffffffffffffff168152602001908152602001600020600101848154811062001574576200157362005bb3565b5b90600052602060002090601e0201601b018190555033600c60008873ffffffffffffffffffffffffffffffffffffffff1673ffffffffffffffffffffffffffffffffffffffff1681526020019081526020016000206001018481548110620015e157620015e062005bb3565b5b90600052602060002090601e020160190160006101000a81548173ffffffffffffffffffffffffffffffffffffffff021916908373ffffffffffffffffffffffffffffffffffffffff1602179055508073ffffffffffffffffffffffffffffffffffffffff166108fc839081150290604051600060405180830381858888f1935050505015801562001677573d6000803e3d6000fd5b5050506200177d565b60011515600c60008673ffffffffffffffffffffffffffffffffffffffff1673ffffffffffffffffffffffffffffffffffffffff1681526020019081526020016000206001018281548110620016db57620016da62005bb3565b5b90600052602060002090601e020160000160009054906101000a900460ff161515036200177c5760001515600c60008673ffffffffffffffffffffffffffffffffffffffff1673ffffffffffffffffffffffffffffffffffffffff16815260200190815260200160002060010182815481106200175d576200175c62005bb3565b5b90600052602060002090601e020160000160009054906101000a905050505b5b8373ffffffffffffffffffffffffffffffffffffffff166318160ddd6040518163ffffffff1660e01b8152600401602060405180830381865afa158015620017c9573d6000803e3d6000fd5b505050506040513d601f19601f82011682018060405250810190620017ef919062005d7a565b600c60008673ffffffffffffffffffffffffffffffffffffffff1673ffffffffffffffffffffffffffffffffffffffff168152602001908152602001600020600101828154811062001846576200184562005bb3565b5b90600052602060002090601e0201601b015462001864919062006168565b600c60008673ffffffffffffffffffffffffffffffffffffffff1673ffffffffffffffffffffffffffffffffffffffff1681526020019081526020016000206001018281548110620018bb57620018ba62005bb3565b5b90600052602060002090601e0201601d01819055505b6200219c600c60008673ffffffffffffffffffffffffffffffffffffffff1673ffffffffffffffffffffffffffffffffffffffff16815260200190815260200160002060010182815481106200192c576200192b62005bb3565b5b90600052602060002090601e0201604051806101000160405290816000820160009054906101000a900460ff1615151515815260200160018201604051806101600160405290816000820160009054906101000a900473ffffffffffffffffffffffffffffffffffffffff1673ffffffffffffffffffffffffffffffffffffffff1673ffffffffffffffffffffffffffffffffffffffff1681526020016001820160009054906101000a900473ffffffffffffffffffffffffffffffffffffffff1673ffffffffffffffffffffffffffffffffffffffff1673ffffffffffffffffffffffffffffffffffffffff1681526020016002820160009054906101000a900473ffffffffffffffffffffffffffffffffffffffff1673ffffffffffffffffffffffffffffffffffffffff1673ffffffffffffffffffffffffffffffffffffffff1681526020016003820154815260200160048201548152602001600582015481526020016006820160009054906101000a900473ffffffffffffffffffffffffffffffffffffffff1673ffffffffffffffffffffffffffffffffffffffff1673ffffffffffffffffffffffffffffffffffffffff1681526020016007820160009054906101000a900473ffffffffffffffffffffffffffffffffffffffff1673ffffffffffffffffffffffffffffffffffffffff1673ffffffffffffffffffffffffffffffffffffffff1681526020016007820160149054906101000a900460ff161515151581526020016007820160159054906101000a900460ff161515151581526020016007820160169054906101000a900460ff161515151581525050815260200160098201604051806101200160405290816000820160009054906101000a900460ff1615151515815260200160018201604051806101600160405290816000820160009054906101000a900473ffffffffffffffffffffffffffffffffffffffff1673ffffffffffffffffffffffffffffffffffffffff1673ffffffffffffffffffffffffffffffffffffffff1681526020016001820160009054906101000a900473ffffffffffffffffffffffffffffffffffffffff1673ffffffffffffffffffffffffffffffffffffffff1673ffffffffffffffffffffffffffffffffffffffff1681526020016002820160009054906101000a900473ffffffffffffffffffffffffffffffffffffffff1673ffffffffffffffffffffffffffffffffffffffff1673ffffffffffffffffffffffffffffffffffffffff1681526020016003820154815260200160048201548152602001600582015481526020016006820160009054906101000a900473ffffffffffffffffffffffffffffffffffffffff1673ffffffffffffffffffffffffffffffffffffffff1673ffffffffffffffffffffffffffffffffffffffff1681526020016007820160009054906101000a900473ffffffffffffffffffffffffffffffffffffffff1673ffffffffffffffffffffffffffffffffffffffff1673ffffffffffffffffffffffffffffffffffffffff1681526020016007820160149054906101000a900460ff161515151581526020016007820160159054906101000a900460ff161515151581526020016007820160169054906101000a900460ff16151515158152505081526020016009820160009054906101000a900473ffffffffffffffffffffffffffffffffffffffff1673ffffffffffffffffffffffffffffffffffffffff1673ffffffffffffffffffffffffffffffffffffffff168152602001600a8201548152602001600b8201548152602001600c8201548152602001600d8201548152602001600e8201548152602001600f8201548152505081526020016019820160009054906101000a900473ffffffffffffffffffffffffffffffffffffffff1673ffffffffffffffffffffffffffffffffffffffff1673ffffffffffffffffffffffffffffffffffffffff168152602001601a8201548152602001601b8201548152602001601c8201548152602001601d82015481525050600c60008773ffffffffffffffffffffffffffffffffffffffff1673ffffffffffffffffffffffffffffffffffffffff168152602001908152602001600020600101838154811062001f5c5762001f5b62005bb3565b5b90600052602060002090601e0201600101604051806101600160405290816000820160009054906101000a900473ffffffffffffffffffffffffffffffffffffffff1673ffffffffffffffffffffffffffffffffffffffff1673ffffffffffffffffffffffffffffffffffffffff1681526020016001820160009054906101000a900473ffffffffffffffffffffffffffffffffffffffff1673ffffffffffffffffffffffffffffffffffffffff1673ffffffffffffffffffffffffffffffffffffffff1681526020016002820160009054906101000a900473ffffffffffffffffffffffffffffffffffffffff1673ffffffffffffffffffffffffffffffffffffffff1673ffffffffffffffffffffffffffffffffffffffff1681526020016003820154815260200160048201548152602001600582015481526020016006820160009054906101000a900473ffffffffffffffffffffffffffffffffffffffff1673ffffffffffffffffffffffffffffffffffffffff1673ffffffffffffffffffffffffffffffffffffffff1681526020016007820160009054906101000a900473ffffffffffffffffffffffffffffffffffffffff1673ffffffffffffffffffffffffffffffffffffffff1673ffffffffffffffffffffffffffffffffffffffff1681526020016007820160149054906101000a900460ff161515151581526020016007820160159054906101000a900460ff161515151581526020016007820160169054906101000a900460ff16151515158152505062004f62565b6000600c60008673ffffffffffffffffffffffffffffffffffffffff1673ffffffffffffffffffffffffffffffffffffffff1681526020019081526020016000206001018281548110620021f557620021f462005bb3565b5b90600052602060002090601e020160000160006101000a81548160ff02191690831515021790555050505050565b6200222d62005082565b82816040019073ffffffffffffffffffffffffffffffffffffffff16908173ffffffffffffffffffffffffffffffffffffffff16815250503373ffffffffffffffffffffffffffffffffffffffff16816040015173ffffffffffffffffffffffffffffffffffffffff16636352211e846040518263ffffffff1660e01b8152600401620022bb919062005705565b602060405180830381865afa158015620022d9573d6000803e3d6000fd5b505050506040513d601f19601f82011682018060405250810190620022ff9190620061a0565b73ffffffffffffffffffffffffffffffffffffffff161462002358576040517f08c379a00000000000000000000000000000000000000000000000000000000081526004016200234f9062006222565b60405180910390fd5b600660008154809291906200236d9062005dac565b9190505550806040015173ffffffffffffffffffffffffffffffffffffffff166342842e0e3330856040518463ffffffff1660e01b8152600401620023b59392919062005fa9565b600060405180830381600087803b158015620023d057600080fd5b505af1158015620023e5573d6000803e3d6000fd5b5050505082816020019073ffffffffffffffffffffffffffffffffffffffff16908173ffffffffffffffffffffffffffffffffffffffff168152505033816000019073ffffffffffffffffffffffffffffffffffffffff16908173ffffffffffffffffffffffffffffffffffffffff168152505081816080018181525050428160a0018181525050600081610100019015159081151581525050600460003373ffffffffffffffffffffffffffffffffffffffff1673ffffffffffffffffffffffffffffffffffffffff16815260200190815260200160002060000181908060018154018082558091505060019003906000526020600020906008020160009091909190915060008201518160000160006101000a81548173ffffffffffffffffffffffffffffffffffffffff021916908373ffffffffffffffffffffffffffffffffffffffff16021790555060208201518160010160006101000a81548173ffffffffffffffffffffffffffffffffffffffff021916908373ffffffffffffffffffffffffffffffffffffffff16021790555060408201518160020160006101000a81548173ffffffffffffffffffffffffffffffffffffffff021916908373ffffffffffffffffffffffffffffffffffffffff160217905550606082015181600301556080820151816004015560a0820151816005015560c08201518160060160006101000a81548173ffffffffffffffffffffffffffffffffffffffff021916908373ffffffffffffffffffffffffffffffffffffffff16021790555060e08201518160070160006101000a81548173ffffffffffffffffffffffffffffffffffffffff021916908373ffffffffffffffffffffffffffffffffffffffff1602179055506101008201518160070160146101000a81548160ff0219169083151502179055506101208201518160070160156101000a81548160ff0219169083151502179055506101408201518160070160166101000a81548160ff0219169083151502179055505050505050565b6000600c60008473ffffffffffffffffffffffffffffffffffffffff1673ffffffffffffffffffffffffffffffffffffffff16815260200190815260200160002060010180549050905060001515600c60008573ffffffffffffffffffffffffffffffffffffffff1673ffffffffffffffffffffffffffffffffffffffff16815260200190815260200160002060010182815481106200277b576200277a62005bb3565b5b90600052602060002090601e020160000160009054906101000a900460ff16151514620027df576040517f08c379a0000000000000000000000000000000000000000000000000000000008152600401620027d69062006294565b60405180910390fd5b8273ffffffffffffffffffffffffffffffffffffffff166323b872dd3330856040518463ffffffff1660e01b81526004016200281e9392919062005fa9565b6020604051808303816000875af11580156200283e573d6000803e3d6000fd5b505050506040513d601f19601f8201168201806040525081019062002864919062005ffd565b508273ffffffffffffffffffffffffffffffffffffffff166342966c68836040518263ffffffff1660e01b8152600401620028a0919062005705565b600060405180830381600087803b158015620028bb57600080fd5b505af1158015620028d0573d6000803e3d6000fd5b505050503373ffffffffffffffffffffffffffffffffffffffff166108fc83600c60008773ffffffffffffffffffffffffffffffffffffffff1673ffffffffffffffffffffffffffffffffffffffff168152602001908152602001600020600101848154811062002946576200294562005bb3565b5b90600052602060002090601e0201601d0154620029649190620062b6565b9081150290604051600060405180830381858888f1935050505015801562002990573d6000803e3d6000fd5b50505050565b60066000815480929190620029ab9062005dac565b9190505550565b60005b600460003373ffffffffffffffffffffffffffffffffffffffff1673ffffffffffffffffffffffffffffffffffffffff1681526020019081526020016000206000018054905081101562002f56578673ffffffffffffffffffffffffffffffffffffffff16600460003373ffffffffffffffffffffffffffffffffffffffff1673ffffffffffffffffffffffffffffffffffffffff168152602001908152602001600020600001828154811062002a715762002a7062005bb3565b5b906000526020600020906008020160010160009054906101000a900473ffffffffffffffffffffffffffffffffffffffff1673ffffffffffffffffffffffffffffffffffffffff1614801562002b2e575085600460003373ffffffffffffffffffffffffffffffffffffffff1673ffffffffffffffffffffffffffffffffffffffff168152602001908152602001600020600001828154811062002b1a5762002b1962005bb3565b5b906000526020600020906008020160040154145b801562002bee57503373ffffffffffffffffffffffffffffffffffffffff16600460003373ffffffffffffffffffffffffffffffffffffffff1673ffffffffffffffffffffffffffffffffffffffff168152602001908152602001600020600001828154811062002ba45762002ba362005bb3565b5b906000526020600020906008020160000160009054906101000a900473ffffffffffffffffffffffffffffffffffffffff1673ffffffffffffffffffffffffffffffffffffffff16145b1562002f4057600033868686863060405162002c0a9062005150565b62002c1b9695949392919062006399565b604051809103906000f08015801562002c38573d6000803e3d6000fd5b5090506001600460003373ffffffffffffffffffffffffffffffffffffffff1673ffffffffffffffffffffffffffffffffffffffff168152602001908152602001600020600001838154811062002c945762002c9362005bb3565b5b906000526020600020906008020160070160146101000a81548160ff02191690831515021790555080600460003373ffffffffffffffffffffffffffffffffffffffff1673ffffffffffffffffffffffffffffffffffffffff168152602001908152602001600020600001838154811062002d145762002d1362005bb3565b5b906000526020600020906008020160070160006101000a81548173ffffffffffffffffffffffffffffffffffffffff021916908373ffffffffffffffffffffffffffffffffffffffff16021790555080600460003373ffffffffffffffffffffffffffffffffffffffff1673ffffffffffffffffffffffffffffffffffffffff168152602001908152602001600020600001838154811062002dbb5762002dba62005bb3565b5b906000526020600020906008020160060160006101000a81548173ffffffffffffffffffffffffffffffffffffffff021916908373ffffffffffffffffffffffffffffffffffffffff160217905550600460003373ffffffffffffffffffffffffffffffffffffffff1673ffffffffffffffffffffffffffffffffffffffff168152602001908152602001600020600001828154811062002e615762002e6062005bb3565b5b906000526020600020906008020160060160009054906101000a900473ffffffffffffffffffffffffffffffffffffffff16600460003373ffffffffffffffffffffffffffffffffffffffff1673ffffffffffffffffffffffffffffffffffffffff168152602001908152602001600020600001838154811062002eea5762002ee962005bb3565b5b906000526020600020906008020160070160006101000a81548173ffffffffffffffffffffffffffffffffffffffff021916908373ffffffffffffffffffffffffffffffffffffffff1602179055505062002f56565b808062002f4d9062005dac565b915050620029b5565b50505050505050565b6001151581610140015115151462002fae576040517f08c379a000000000000000000000000000000000000000000000000000000000815260040162002fa59062006464565b60405180910390fd5b505050565b600082905060005b600460003373ffffffffffffffffffffffffffffffffffffffff1673ffffffffffffffffffffffffffffffffffffffff1681526020019081526020016000206000018054905081101562003659578173ffffffffffffffffffffffffffffffffffffffff16600460003373ffffffffffffffffffffffffffffffffffffffff1673ffffffffffffffffffffffffffffffffffffffff168152602001908152602001600020600001828154811062003077576200307662005bb3565b5b906000526020600020906008020160020160009054906101000a900473ffffffffffffffffffffffffffffffffffffffff1673ffffffffffffffffffffffffffffffffffffffff1614801562003134575082600460003373ffffffffffffffffffffffffffffffffffffffff1673ffffffffffffffffffffffffffffffffffffffff168152602001908152602001600020600001828154811062003120576200311f62005bb3565b5b906000526020600020906008020160040154145b156200364357600460003373ffffffffffffffffffffffffffffffffffffffff1673ffffffffffffffffffffffffffffffffffffffff168152602001908152602001600020600001838154811062003191576200319062005bb3565b5b906000526020600020906008020160070160159054906101000a900460ff1615620032b757600460003373ffffffffffffffffffffffffffffffffffffffff1673ffffffffffffffffffffffffffffffffffffffff16815260200190815260200160002060000183815481106200320d576200320c62005bb3565b5b906000526020600020906008020160020160009054906101000a900473ffffffffffffffffffffffffffffffffffffffff1673ffffffffffffffffffffffffffffffffffffffff166342842e0e3033866040518463ffffffff1660e01b81526004016200327d9392919062005fa9565b600060405180830381600087803b1580156200329857600080fd5b505af1158015620032ad573d6000803e3d6000fd5b5050505062003642565b60011515600460003373ffffffffffffffffffffffffffffffffffffffff1673ffffffffffffffffffffffffffffffffffffffff168152602001908152602001600020600001848154811062003312576200331162005bb3565b5b906000526020600020906008020160070160149054906101000a900460ff1615151480156200353f5750600460003373ffffffffffffffffffffffffffffffffffffffff1673ffffffffffffffffffffffffffffffffffffffff168152602001908152602001600020600001838154811062003393576200339262005bb3565b5b906000526020600020906008020160070160009054906101000a900473ffffffffffffffffffffffffffffffffffffffff1673ffffffffffffffffffffffffffffffffffffffff166318160ddd6040518163ffffffff1660e01b8152600401602060405180830381865afa15801562003410573d6000803e3d6000fd5b505050506040513d601f19601f8201168201806040525081019062003436919062005d7a565b600460003373ffffffffffffffffffffffffffffffffffffffff1673ffffffffffffffffffffffffffffffffffffffff16815260200190815260200160002060000184815481106200348d576200348c62005bb3565b5b906000526020600020906008020160070160009054906101000a900473ffffffffffffffffffffffffffffffffffffffff1673ffffffffffffffffffffffffffffffffffffffff166370a08231336040518263ffffffff1660e01b8152600401620034f9919062005765565b602060405180830381865afa15801562003517573d6000803e3d6000fd5b505050506040513d601f19601f820116820180604052508101906200353d919062005d7a565b145b156200364157600460003373ffffffffffffffffffffffffffffffffffffffff1673ffffffffffffffffffffffffffffffffffffffff16815260200190815260200160002060000183815481106200359c576200359b62005bb3565b5b906000526020600020906008020160020160009054906101000a900473ffffffffffffffffffffffffffffffffffffffff1673ffffffffffffffffffffffffffffffffffffffff166342842e0e3033866040518463ffffffff1660e01b81526004016200360c9392919062005fa9565b600060405180830381600087803b1580156200362757600080fd5b505af11580156200363c573d6000803e3d6000fd5b505050505b5b5b8080620036509062005dac565b91505062002fbb565b50505050565b60008360e0015190506000600c60008373ffffffffffffffffffffffffffffffffffffffff1673ffffffffffffffffffffffffffffffffffffffff1681526020019081526020016000206000018054905090506000600c60008473ffffffffffffffffffffffffffffffffffffffff1673ffffffffffffffffffffffffffffffffffffffff1681526020019081526020016000206001018054905090506000600c60008573ffffffffffffffffffffffffffffffffffffffff1673ffffffffffffffffffffffffffffffffffffffff168152602001908152602001600020600001838154811062003755576200375462005bb3565b5b9060005260206000209060100201600a0154905060011515600c60008673ffffffffffffffffffffffffffffffffffffffff1673ffffffffffffffffffffffffffffffffffffffff1681526020019081526020016000206000018481548110620037c457620037c362005bb3565b5b906000526020600020906010020160000160009054906101000a900460ff1615151462003828576040517f08c379a00000000000000000000000000000000000000000000000000000000081526004016200381f906200607f565b60405180910390fd5b60001515600860003373ffffffffffffffffffffffffffffffffffffffff1673ffffffffffffffffffffffffffffffffffffffff168152602001908152602001600020600083815260200190815260200160002060009054906101000a900460ff16151514620038cf576040517f08c379a0000000000000000000000000000000000000000000000000000000008152600401620038c690620064d6565b60405180910390fd5b600c60008573ffffffffffffffffffffffffffffffffffffffff1673ffffffffffffffffffffffffffffffffffffffff168152602001908152602001600020600001838154811062003926576200392562005bb3565b5b9060005260206000209060100201600f01544210156200430457620039d7600c60008673ffffffffffffffffffffffffffffffffffffffff1673ffffffffffffffffffffffffffffffffffffffff16815260200190815260200160002060000184815481106200399b576200399a62005bb3565b5b906000526020600020906010020160010160070160009054906101000a900473ffffffffffffffffffffffffffffffffffffffff168662000f3b565b6001600860003373ffffffffffffffffffffffffffffffffffffffff1673ffffffffffffffffffffffffffffffffffffffff168152602001908152602001600020600083815260200190815260200160002060006101000a81548160ff02191690831515021790555085600960003373ffffffffffffffffffffffffffffffffffffffff1673ffffffffffffffffffffffffffffffffffffffff168152602001908152602001600020600083815260200190815260200160002060006101000a81548160ff02191690831515021790555084600c60008673ffffffffffffffffffffffffffffffffffffffff1673ffffffffffffffffffffffffffffffffffffffff168152602001908152602001600020600001848154811062003b005762003aff62005bb3565b5b9060005260206000209060100201600c01600082825462003b22919062005d06565b92505081905550600115158615150362003bbd5784600c60008673ffffffffffffffffffffffffffffffffffffffff1673ffffffffffffffffffffffffffffffffffffffff168152602001908152602001600020600001848154811062003b8e5762003b8d62005bb3565b5b9060005260206000209060100201600d01600082825462003bb0919062005d06565b9250508190555062003c3f565b84600c60008673ffffffffffffffffffffffffffffffffffffffff1673ffffffffffffffffffffffffffffffffffffffff168152602001908152602001600020600001848154811062003c155762003c1462005bb3565b5b9060005260206000209060100201600e01600082825462003c37919062005d06565b925050819055505b6001546064600c60008773ffffffffffffffffffffffffffffffffffffffff1673ffffffffffffffffffffffffffffffffffffffff168152602001908152602001600020600001858154811062003c9b5762003c9a62005bb3565b5b9060005260206000209060100201600d0154896060015162003cbe9190620062b6565b62003cca919062006168565b10620040b2576000600c60008673ffffffffffffffffffffffffffffffffffffffff1673ffffffffffffffffffffffffffffffffffffffff168152602001908152602001600020600001848154811062003d295762003d2862005bb3565b5b906000526020600020906010020160000160006101000a81548160ff021916908315150217905550620040ac84600c60008773ffffffffffffffffffffffffffffffffffffffff1673ffffffffffffffffffffffffffffffffffffffff168152602001908152602001600020600001858154811062003dad5762003dac62005bb3565b5b9060005260206000209060100201604051806101200160405290816000820160009054906101000a900460ff1615151515815260200160018201604051806101600160405290816000820160009054906101000a900473ffffffffffffffffffffffffffffffffffffffff1673ffffffffffffffffffffffffffffffffffffffff1673ffffffffffffffffffffffffffffffffffffffff1681526020016001820160009054906101000a900473ffffffffffffffffffffffffffffffffffffffff1673ffffffffffffffffffffffffffffffffffffffff1673ffffffffffffffffffffffffffffffffffffffff1681526020016002820160009054906101000a900473ffffffffffffffffffffffffffffffffffffffff1673ffffffffffffffffffffffffffffffffffffffff1673ffffffffffffffffffffffffffffffffffffffff1681526020016003820154815260200160048201548152602001600582015481526020016006820160009054906101000a900473ffffffffffffffffffffffffffffffffffffffff1673ffffffffffffffffffffffffffffffffffffffff1673ffffffffffffffffffffffffffffffffffffffff1681526020016007820160009054906101000a900473ffffffffffffffffffffffffffffffffffffffff1673ffffffffffffffffffffffffffffffffffffffff1673ffffffffffffffffffffffffffffffffffffffff1681526020016007820160149054906101000a900460ff161515151581526020016007820160159054906101000a900460ff161515151581526020016007820160169054906101000a900460ff16151515158152505081526020016009820160009054906101000a900473ffffffffffffffffffffffffffffffffffffffff1673ffffffffffffffffffffffffffffffffffffffff1673ffffffffffffffffffffffffffffffffffffffff168152602001600a8201548152602001600b8201548152602001600c8201548152602001600d8201548152602001600e8201548152602001600f8201548152505062004577565b620042fe565b6001546064600c60008773ffffffffffffffffffffffffffffffffffffffff1673ffffffffffffffffffffffffffffffffffffffff16815260200190815260200160002060000185815481106200410e576200410d62005bb3565b5b9060005260206000209060100201600e01548960600151620041319190620062b6565b6200413d919062006168565b10620042fd576000600c60008673ffffffffffffffffffffffffffffffffffffffff1673ffffffffffffffffffffffffffffffffffffffff16815260200190815260200160002060000184815481106200419c576200419b62005bb3565b5b906000526020600020906010020160000160006101000a81548160ff021916908315150217905550600c60008573ffffffffffffffffffffffffffffffffffffffff1673ffffffffffffffffffffffffffffffffffffffff16815260200190815260200160002060000183815481106200421b576200421a62005bb3565b5b906000526020600020906010020160090160009054906101000a900473ffffffffffffffffffffffffffffffffffffffff1673ffffffffffffffffffffffffffffffffffffffff166108fc600c60008773ffffffffffffffffffffffffffffffffffffffff1673ffffffffffffffffffffffffffffffffffffffff1681526020019081526020016000206000018581548110620042bd57620042bc62005bb3565b5b9060005260206000209060100201600b01549081150290604051600060405180830381858888f19350505050158015620042fb573d6000803e3d6000fd5b505b5b62004409565b60011515600c60008673ffffffffffffffffffffffffffffffffffffffff1673ffffffffffffffffffffffffffffffffffffffff16815260200190815260200160002060000184815481106200435f576200435e62005bb3565b5b906000526020600020906010020160000160009054906101000a900460ff1615150362004408576000600c60008673ffffffffffffffffffffffffffffffffffffffff1673ffffffffffffffffffffffffffffffffffffffff1681526020019081526020016000206000018481548110620043df57620043de62005bb3565b5b906000526020600020906010020160000160006101000a81548160ff0219169083151502179055505b5b50505050505050565b80600560003373ffffffffffffffffffffffffffffffffffffffff1673ffffffffffffffffffffffffffffffffffffffff16815260200190815260200160002054111562004497576040517f08c379a00000000000000000000000000000000000000000000000000000000081526004016200448e9062005f87565b60405180910390fd5b80600560003373ffffffffffffffffffffffffffffffffffffffff1673ffffffffffffffffffffffffffffffffffffffff1681526020019081526020016000206000828254620044e89190620064f8565b925050819055508173ffffffffffffffffffffffffffffffffffffffff1663a9059cbb33836040518363ffffffff1660e01b81526004016200452c92919062006533565b6020604051808303816000875af11580156200454c573d6000803e3d6000fd5b505050506040513d601f19601f8201168201806040525081019062004572919062005ffd565b505050565b600360008154809291906200458c9062005dac565b91905055506000600c60008473ffffffffffffffffffffffffffffffffffffffff1673ffffffffffffffffffffffffffffffffffffffff168152602001908152602001600020600001805490509050620045e56200515e565b600c60008573ffffffffffffffffffffffffffffffffffffffff1673ffffffffffffffffffffffffffffffffffffffff16815260200190815260200160002060000182815481106200463c576200463b62005bb3565b5b9060005260206000209060100201604051806101200160405290816000820160009054906101000a900460ff1615151515815260200160018201604051806101600160405290816000820160009054906101000a900473ffffffffffffffffffffffffffffffffffffffff1673ffffffffffffffffffffffffffffffffffffffff1673ffffffffffffffffffffffffffffffffffffffff1681526020016001820160009054906101000a900473ffffffffffffffffffffffffffffffffffffffff1673ffffffffffffffffffffffffffffffffffffffff1673ffffffffffffffffffffffffffffffffffffffff1681526020016002820160009054906101000a900473ffffffffffffffffffffffffffffffffffffffff1673ffffffffffffffffffffffffffffffffffffffff1673ffffffffffffffffffffffffffffffffffffffff1681526020016003820154815260200160048201548152602001600582015481526020016006820160009054906101000a900473ffffffffffffffffffffffffffffffffffffffff1673ffffffffffffffffffffffffffffffffffffffff1673ffffffffffffffffffffffffffffffffffffffff1681526020016007820160009054906101000a900473ffffffffffffffffffffffffffffffffffffffff1673ffffffffffffffffffffffffffffffffffffffff1673ffffffffffffffffffffffffffffffffffffffff1681526020016007820160149054906101000a900460ff161515151581526020016007820160159054906101000a900460ff161515151581526020016007820160169054906101000a900460ff16151515158152505081526020016009820160009054906101000a900473ffffffffffffffffffffffffffffffffffffffff1673ffffffffffffffffffffffffffffffffffffffff1673ffffffffffffffffffffffffffffffffffffffff168152602001600a8201548152602001600b8201548152602001600c8201548152602001600d8201548152602001600e8201548152602001600f820154815250508160400181905250600054426200494d919062005d06565b8160c00181815250508060400151608001518160a0018181525050806040015160400151816060019073ffffffffffffffffffffffffffffffffffffffff16908173ffffffffffffffffffffffffffffffffffffffff1681525050600181600001901515908115158152505082602001518160200181905250600354816080018181525050600c60008573ffffffffffffffffffffffffffffffffffffffff1673ffffffffffffffffffffffffffffffffffffffff1681526020019081526020016000206001018190806001815401808255809150506001900390600052602060002090601e020160009091909190915060008201518160000160006101000a81548160ff02191690831515021790555060208201518160010160008201518160000160006101000a81548173ffffffffffffffffffffffffffffffffffffffff021916908373ffffffffffffffffffffffffffffffffffffffff16021790555060208201518160010160006101000a81548173ffffffffffffffffffffffffffffffffffffffff021916908373ffffffffffffffffffffffffffffffffffffffff16021790555060408201518160020160006101000a81548173ffffffffffffffffffffffffffffffffffffffff021916908373ffffffffffffffffffffffffffffffffffffffff160217905550606082015181600301556080820151816004015560a0820151816005015560c08201518160060160006101000a81548173ffffffffffffffffffffffffffffffffffffffff021916908373ffffffffffffffffffffffffffffffffffffffff16021790555060e08201518160070160006101000a81548173ffffffffffffffffffffffffffffffffffffffff021916908373ffffffffffffffffffffffffffffffffffffffff1602179055506101008201518160070160146101000a81548160ff0219169083151502179055506101208201518160070160156101000a81548160ff0219169083151502179055506101408201518160070160166101000a81548160ff021916908315150217905550505060408201518160090160008201518160000160006101000a81548160ff02191690831515021790555060208201518160010160008201518160000160006101000a81548173ffffffffffffffffffffffffffffffffffffffff021916908373ffffffffffffffffffffffffffffffffffffffff16021790555060208201518160010160006101000a81548173ffffffffffffffffffffffffffffffffffffffff021916908373ffffffffffffffffffffffffffffffffffffffff16021790555060408201518160020160006101000a81548173ffffffffffffffffffffffffffffffffffffffff021916908373ffffffffffffffffffffffffffffffffffffffff160217905550606082015181600301556080820151816004015560a0820151816005015560c08201518160060160006101000a81548173ffffffffffffffffffffffffffffffffffffffff021916908373ffffffffffffffffffffffffffffffffffffffff16021790555060e08201518160070160006101000a81548173ffffffffffffffffffffffffffffffffffffffff021916908373ffffffffffffffffffffffffffffffffffffffff1602179055506101008201518160070160146101000a81548160ff0219169083151502179055506101208201518160070160156101000a81548160ff0219169083151502179055506101408201518160070160166101000a81548160ff021916908315150217905550505060408201518160090160006101000a81548173ffffffffffffffffffffffffffffffffffffffff021916908373ffffffffffffffffffffffffffffffffffffffff160217905550606082015181600a0155608082015181600b015560a082015181600c015560c082015181600d015560e082015181600e015561010082015181600f0155505060608201518160190160006101000a81548173ffffffffffffffffffffffffffffffffffffffff021916908373ffffffffffffffffffffffffffffffffffffffff160217905550608082015181601a015560a082015181601b015560c082015181601c015560e082015181601d0155505050505050565b60018161014001901515908115158152505062004f89816000015183606001518362002f5f565b6000816101400190151590811515815250508060e0015173ffffffffffffffffffffffffffffffffffffffff16637650122183606001516040518263ffffffff1660e01b815260040162004fde919062005765565b600060405180830381600087803b15801562004ff957600080fd5b505af11580156200500e573d6000803e3d6000fd5b505050505050565b6040518061012001604052806000151581526020016200503562005082565b8152602001600073ffffffffffffffffffffffffffffffffffffffff1681526020016000815260200160008152602001600081526020016000815260200160008152602001600081525090565b604051806101600160405280600073ffffffffffffffffffffffffffffffffffffffff168152602001600073ffffffffffffffffffffffffffffffffffffffff168152602001600073ffffffffffffffffffffffffffffffffffffffff168152602001600081526020016000815260200160008152602001600073ffffffffffffffffffffffffffffffffffffffff168152602001600073ffffffffffffffffffffffffffffffffffffffff1681526020016000151581526020016000151581526020016000151581525090565b612618806200656183390190565b6040518061010001604052806000151581526020016200517d62005082565b81526020016200518c62005016565b8152602001600073ffffffffffffffffffffffffffffffffffffffff168152602001600081526020016000815260200160008152602001600081525090565b6000604051905090565b600080fd5b600080fd5b600073ffffffffffffffffffffffffffffffffffffffff82169050919050565b60006200520c82620051df565b9050919050565b60006200522082620051ff565b9050919050565b620052328162005213565b81146200523e57600080fd5b50565b600081359050620052528162005227565b92915050565b600080fd5b6000601f19601f8301169050919050565b7f4e487b7100000000000000000000000000000000000000000000000000000000600052604160045260246000fd5b620052a8826200525d565b810181811067ffffffffffffffff82111715620052ca57620052c96200526e565b5b80604052505050565b6000620052df620051cb565b9050620052ed82826200529d565b919050565b620052fd81620051ff565b81146200530957600080fd5b50565b6000813590506200531d81620052f2565b92915050565b60006200533082620051ff565b9050919050565b620053428162005323565b81146200534e57600080fd5b50565b600081359050620053628162005337565b92915050565b6000819050919050565b6200537d8162005368565b81146200538957600080fd5b50565b6000813590506200539d8162005372565b92915050565b60008115159050919050565b620053ba81620053a3565b8114620053c657600080fd5b50565b600081359050620053da81620053af565b92915050565b60006101608284031215620053fa57620053f962005258565b5b62005407610160620052d3565b9050600062005419848285016200530c565b60008301525060206200542f848285016200530c565b6020830152506040620054458482850162005351565b60408301525060606200545b848285016200538c565b606083015250608062005471848285016200538c565b60808301525060a062005487848285016200538c565b60a08301525060c06200549d848285016200530c565b60c08301525060e0620054b38482850162005241565b60e083015250610100620054ca84828501620053c9565b61010083015250610120620054e284828501620053c9565b61012083015250610140620054fa84828501620053c9565b6101408301525092915050565b6000806101808385031215620055225762005521620051d5565b5b6000620055328582860162005241565b92505060206200554585828601620053e0565b9150509250929050565b600080fd5b600080fd5b600080fd5b60008083601f8401126200557757620055766200554f565b5b8235905067ffffffffffffffff81111562005597576200559662005554565b5b602083019150836001820283011115620055b657620055b562005559565b5b9250929050565b600080600080600060808688031215620055dc57620055db620051d5565b5b6000620055ec888289016200530c565b9550506020620055ff888289016200530c565b945050604062005612888289016200538c565b935050606086013567ffffffffffffffff811115620056365762005635620051da565b5b62005644888289016200555e565b92509250509295509295909350565b60007fffffffff0000000000000000000000000000000000000000000000000000000082169050919050565b6200568a8162005653565b82525050565b6000602082019050620056a760008301846200567f565b92915050565b60008060408385031215620056c757620056c6620051d5565b5b6000620056d7858286016200530c565b9250506020620056ea858286016200538c565b9150509250929050565b620056ff8162005368565b82525050565b60006020820190506200571c6000830184620056f4565b92915050565b6000602082840312156200573b576200573a620051d5565b5b60006200574b848285016200538c565b91505092915050565b6200575f81620051ff565b82525050565b60006020820190506200577c600083018462005754565b92915050565b600080604083850312156200579c576200579b620051d5565b5b6000620057ac8582860162005241565b9250506020620057bf858286016200538c565b9150509250929050565b60008060408385031215620057e357620057e2620051d5565b5b6000620057f38582860162005241565b92505060206200580685828601620053c9565b9150509250929050565b600080fd5b600067ffffffffffffffff8211156200583357620058326200526e565b5b6200583e826200525d565b9050602081019050919050565b82818337600083830152505050565b6000620058716200586b8462005815565b620052d3565b90508281526020810184848401111562005890576200588f62005810565b5b6200589d8482856200584b565b509392505050565b600082601f830112620058bd57620058bc6200554f565b5b8135620058cf8482602086016200585a565b91505092915050565b60008060008060008060c08789031215620058f857620058f7620051d5565b5b60006200590889828a016200530c565b96505060206200591b89828a016200538c565b95505060406200592e89828a016200538c565b94505060606200594189828a016200538c565b935050608087013567ffffffffffffffff811115620059655762005964620051da565b5b6200597389828a01620058a5565b92505060a087013567ffffffffffffffff811115620059975762005996620051da565b5b620059a589828a01620058a5565b9150509295509295509295565b60008060006101a08486031215620059cf57620059ce620051d5565b5b6000620059df868287016200530c565b9350506020620059f2868287016200530c565b925050604062005a0586828701620053e0565b9150509250925092565b60008060006101a0848603121562005a2c5762005a2b620051d5565b5b600062005a3c86828701620053e0565b93505061016062005a5086828701620053c9565b92505061018062005a64868287016200538c565b9150509250925092565b6000610260828403121562005a885762005a8762005258565b5b62005a95610120620052d3565b9050600062005aa784828501620053c9565b600083015250602062005abd84828501620053e0565b60208301525061018062005ad4848285016200530c565b6040830152506101a062005aeb848285016200538c565b6060830152506101c062005b02848285016200538c565b6080830152506101e062005b19848285016200538c565b60a08301525061020062005b30848285016200538c565b60c08301525061022062005b47848285016200538c565b60e08301525061024062005b5e848285016200538c565b6101008301525092915050565b600080610280838503121562005b865762005b85620051d5565b5b600062005b968582860162005241565b925050602062005ba98582860162005a6e565b9150509250929050565b7f4e487b7100000000000000000000000000000000000000000000000000000000600052603260045260246000fd5b600082825260208201905092915050565b7f546f6b656e20616c726561647920696e2070726f706f73616c00000000000000600082015250565b600062005c2b60198362005be2565b915062005c388262005bf3565b602082019050919050565b6000602082019050818103600083015262005c5e8162005c1c565b9050919050565b7f546f6b656e20616c726561647920696e2061756374696f6e0000000000000000600082015250565b600062005c9d60188362005be2565b915062005caa8262005c65565b602082019050919050565b6000602082019050818103600083015262005cd08162005c8e565b9050919050565b7f4e487b7100000000000000000000000000000000000000000000000000000000600052601160045260246000fd5b600062005d138262005368565b915062005d208362005368565b9250827fffffffffffffffffffffffffffffffffffffffffffffffffffffffffffffffff0382111562005d585762005d5762005cd7565b5b828201905092915050565b60008151905062005d748162005372565b92915050565b60006020828403121562005d935762005d92620051d5565b5b600062005da38482850162005d63565b91505092915050565b600062005db98262005368565b91507fffffffffffffffffffffffffffffffffffffffffffffffffffffffffffffffff820362005dee5762005ded62005cd7565b5b600182019050919050565b600067ffffffffffffffff82111562005e175762005e166200526e565b5b602082029050602081019050919050565b60008151905062005e3981620052f2565b92915050565b600062005e5662005e508462005df9565b620052d3565b9050808382526020820190506020840283018581111562005e7c5762005e7b62005559565b5b835b8181101562005ea9578062005e94888262005e28565b84526020840193505060208101905062005e7e565b5050509392505050565b600082601f83011262005ecb5762005eca6200554f565b5b815162005edd84826020860162005e3f565b91505092915050565b60006020828403121562005eff5762005efe620051d5565b5b600082015167ffffffffffffffff81111562005f205762005f1f620051da565b5b62005f2e8482850162005eb3565b91505092915050565b7f796f7520646f6e74206861766520656e6f75676820746f6b656e730000000000600082015250565b600062005f6f601b8362005be2565b915062005f7c8262005f37565b602082019050919050565b6000602082019050818103600083015262005fa28162005f60565b9050919050565b600060608201905062005fc0600083018662005754565b62005fcf602083018562005754565b62005fde6040830184620056f4565b949350505050565b60008151905062005ff781620053af565b92915050565b600060208284031215620060165762006015620051d5565b5b6000620060268482850162005fe6565b91505092915050565b7f70726f706f73616c206973206e6f742061637469766500000000000000000000600082015250565b60006200606760168362005be2565b915062006074826200602f565b602082019050919050565b600060208201905081810360008301526200609a8162006058565b9050919050565b7f7468697320746f6b656e206e6565647320746f206c656176652074686520707260008201527f6f706f73616c2066697273740000000000000000000000000000000000000000602082015250565b6000620060ff602c8362005be2565b91506200610c82620060a1565b604082019050919050565b600060208201905081810360008301526200613281620060f0565b9050919050565b7f4e487b7100000000000000000000000000000000000000000000000000000000600052601260045260246000fd5b6000620061758262005368565b9150620061828362005368565b92508262006195576200619462006139565b5b828204905092915050565b600060208284031215620061b957620061b8620051d5565b5b6000620061c98482850162005e28565b91505092915050565b7f596f7520646f206e6f74206f776e2074686973204e4654000000000000000000600082015250565b60006200620a60178362005be2565b91506200621782620061d2565b602082019050919050565b600060208201905081810360008301526200623d81620061fb565b9050919050565b7f61756374696f6e207374696c6c20616374697665000000000000000000000000600082015250565b60006200627c60148362005be2565b9150620062898262006244565b602082019050919050565b60006020820190508181036000830152620062af816200626d565b9050919050565b6000620062c38262005368565b9150620062d08362005368565b9250817fffffffffffffffffffffffffffffffffffffffffffffffffffffffffffffffff04831182151516156200630c576200630b62005cd7565b5b828202905092915050565b600081519050919050565b60005b838110156200634257808201518184015260208101905062006325565b8381111562006352576000848401525b50505050565b6000620063658262006317565b62006371818562005be2565b93506200638381856020860162006322565b6200638e816200525d565b840191505092915050565b600060c082019050620063b0600083018962005754565b620063bf6020830188620056f4565b620063ce6040830187620056f4565b8181036060830152620063e2818662006358565b90508181036080830152620063f8818562006358565b90506200640960a083018462005754565b979650505050505050565b7f4e4654206973206e6f74206368616e67696e67206f776e657273686970000000600082015250565b60006200644c601d8362005be2565b9150620064598262006414565b602082019050919050565b600060208201905081810360008301526200647f816200643d565b9050919050565b7f7468697320757365722068617320616c726561647920766f7465640000000000600082015250565b6000620064be601b8362005be2565b9150620064cb8262006486565b602082019050919050565b60006020820190508181036000830152620064f181620064af565b9050919050565b6000620065058262005368565b9150620065128362005368565b92508282101562006528576200652762005cd7565b5b828203905092915050565b60006040820190506200654a600083018562005754565b620065596020830184620056f4565b939250505056fe60806040523480156200001157600080fd5b506040516200261838038062002618833981810160405281019062000037919062000583565b828281600390805190602001906200005192919062000296565b5080600490805190602001906200006a92919062000296565b50505085600560006101000a81548173ffffffffffffffffffffffffffffffffffffffff021916908373ffffffffffffffffffffffffffffffffffffffff16021790555084600781905550620000c786856200011460201b60201c565b80600660006101000a81548173ffffffffffffffffffffffffffffffffffffffff021916908373ffffffffffffffffffffffffffffffffffffffff160217905550505050505050620007fe565b600073ffffffffffffffffffffffffffffffffffffffff168273ffffffffffffffffffffffffffffffffffffffff160362000186576040517f08c379a00000000000000000000000000000000000000000000000000000000081526004016200017d90620006be565b60405180910390fd5b6200019a600083836200028c60201b60201c565b8060026000828254620001ae91906200070f565b92505081905550806000808473ffffffffffffffffffffffffffffffffffffffff1673ffffffffffffffffffffffffffffffffffffffff16815260200190815260200160002060008282546200020591906200070f565b925050819055508173ffffffffffffffffffffffffffffffffffffffff16600073ffffffffffffffffffffffffffffffffffffffff167fddf252ad1be2c89b69c2b068fc378daa952ba7f163c4a11628f55a4df523b3ef836040516200026c91906200077d565b60405180910390a362000288600083836200029160201b60201c565b5050565b505050565b505050565b828054620002a490620007c9565b90600052602060002090601f016020900481019282620002c8576000855562000314565b82601f10620002e357805160ff191683800117855562000314565b8280016001018555821562000314579182015b8281111562000313578251825591602001919060010190620002f6565b5b50905062000323919062000327565b5090565b5b808211156200034257600081600090555060010162000328565b5090565b6000604051905090565b600080fd5b600080fd5b600073ffffffffffffffffffffffffffffffffffffffff82169050919050565b600062000387826200035a565b9050919050565b62000399816200037a565b8114620003a557600080fd5b50565b600081519050620003b9816200038e565b92915050565b6000819050919050565b620003d481620003bf565b8114620003e057600080fd5b50565b600081519050620003f481620003c9565b92915050565b600080fd5b600080fd5b6000601f19601f8301169050919050565b7f4e487b7100000000000000000000000000000000000000000000000000000000600052604160045260246000fd5b6200044f8262000404565b810181811067ffffffffffffffff8211171562000471576200047062000415565b5b80604052505050565b60006200048662000346565b905062000494828262000444565b919050565b600067ffffffffffffffff821115620004b757620004b662000415565b5b620004c28262000404565b9050602081019050919050565b60005b83811015620004ef578082015181840152602081019050620004d2565b83811115620004ff576000848401525b50505050565b60006200051c620005168462000499565b6200047a565b9050828152602081018484840111156200053b576200053a620003ff565b5b62000548848285620004cf565b509392505050565b600082601f830112620005685762000567620003fa565b5b81516200057a84826020860162000505565b91505092915050565b60008060008060008060c08789031215620005a357620005a262000350565b5b6000620005b389828a01620003a8565b9650506020620005c689828a01620003e3565b9550506040620005d989828a01620003e3565b945050606087015167ffffffffffffffff811115620005fd57620005fc62000355565b5b6200060b89828a0162000550565b935050608087015167ffffffffffffffff8111156200062f576200062e62000355565b5b6200063d89828a0162000550565b92505060a06200065089828a01620003a8565b9150509295509295509295565b600082825260208201905092915050565b7f45524332303a206d696e7420746f20746865207a65726f206164647265737300600082015250565b6000620006a6601f836200065d565b9150620006b3826200066e565b602082019050919050565b60006020820190508181036000830152620006d98162000697565b9050919050565b7f4e487b7100000000000000000000000000000000000000000000000000000000600052601160045260246000fd5b60006200071c82620003bf565b91506200072983620003bf565b9250827fffffffffffffffffffffffffffffffffffffffffffffffffffffffffffffffff03821115620007615762000760620006e0565b5b828201905092915050565b6200077781620003bf565b82525050565b60006020820190506200079460008301846200076c565b92915050565b7f4e487b7100000000000000000000000000000000000000000000000000000000600052602260045260246000fd5b60006002820490506001821680620007e257607f821691505b602082108103620007f857620007f76200079a565b5b50919050565b611e0a806200080e6000396000f3fe608060405234801561001057600080fd5b50600436106101005760003560e01c8063765012211161009757806395d89b411161006657806395d89b41146102ad578063a457c2d7146102cb578063a9059cbb146102fb578063dd62ed3e1461032b57610100565b8063765012211461023b57806379cc6790146102575780639385e55a1461027357806394ee29d91461028f57610100565b8063313ce567116100d3578063313ce567146101a157806339509351146101bf57806342966c68146101ef57806370a082311461020b57610100565b806306fdde0314610105578063095ea7b31461012357806318160ddd1461015357806323b872dd14610171575b600080fd5b61010d61035b565b60405161011a919061129d565b60405180910390f35b61013d60048036038101906101389190611358565b6103ed565b60405161014a91906113b3565b60405180910390f35b61015b610410565b60405161016891906113dd565b60405180910390f35b61018b600480360381019061018691906113f8565b61041a565b60405161019891906113b3565b60405180910390f35b6101a96104b0565b6040516101b69190611467565b60405180910390f35b6101d960048036038101906101d49190611358565b6104b9565b6040516101e691906113b3565b60405180910390f35b61020960048036038101906102049190611482565b6104f0565b005b610225600480360381019061022091906114af565b610504565b60405161023291906113dd565b60405180910390f35b610255600480360381019061025091906114af565b61054c565b005b610271600480360381019061026c9190611358565b610620565b005b61028d600480360381019061028891906114dc565b610640565b005b6102976108a0565b6040516102a491906115da565b60405180910390f35b6102b561092e565b6040516102c2919061129d565b60405180910390f35b6102e560048036038101906102e09190611358565b6109c0565b6040516102f291906113b3565b60405180910390f35b61031560048036038101906103109190611358565b610a37565b60405161032291906113b3565b60405180910390f35b610345600480360381019061034091906114dc565b610ac1565b60405161035291906113dd565b60405180910390f35b60606003805461036a9061162b565b80601f01602080910402602001604051908101604052809291908181526020018280546103969061162b565b80156103e35780601f106103b8576101008083540402835291602001916103e3565b820191906000526020600020905b8154815290600101906020018083116103c657829003601f168201915b5050505050905090565b6000806103f8610b48565b9050610405818585610b50565b600191505092915050565b6000600254905090565b600080610425610b48565b9050610432858285610d19565b6000606460075485610444919061168b565b61044e9190611714565b90506000818561045e9190611745565b905061048d87600560009054906101000a900473ffffffffffffffffffffffffffffffffffffffff1684610da5565b610498878783610da5565b6104a28688610640565b600193505050509392505050565b60006012905090565b6000806104c4610b48565b90506104e58185856104d68589610ac1565b6104e09190611779565b610b50565b600191505092915050565b6105016104fb610b48565b82611024565b50565b60008060008373ffffffffffffffffffffffffffffffffffffffff1673ffffffffffffffffffffffffffffffffffffffff168152602001908152602001600020549050919050565b600660009054906101000a900473ffffffffffffffffffffffffffffffffffffffff1673ffffffffffffffffffffffffffffffffffffffff163373ffffffffffffffffffffffffffffffffffffffff16146105dc576040517f08c379a00000000000000000000000000000000000000000000000000000000081526004016105d390611841565b60405180910390fd5b80600560006101000a81548173ffffffffffffffffffffffffffffffffffffffff021916908373ffffffffffffffffffffffffffffffffffffffff16021790555050565b6106328261062c610b48565b83610d19565b61063c8282611024565b5050565b6009829080600181540180825580915050600190039060005260206000200160009091909190916101000a81548173ffffffffffffffffffffffffffffffffffffffff021916908373ffffffffffffffffffffffffffffffffffffffff1602179055506001600a60008473ffffffffffffffffffffffffffffffffffffffff1673ffffffffffffffffffffffffffffffffffffffff16815260200190815260200160002060006101000a81548160ff02191690831515021790555060011515600a60008373ffffffffffffffffffffffffffffffffffffffff1673ffffffffffffffffffffffffffffffffffffffff16815260200190815260200160002060009054906101000a900460ff1615151480156107635750600061076182610504565b145b1561089c5760005b60098054905081101561089a578173ffffffffffffffffffffffffffffffffffffffff16600982815481106107a3576107a2611861565b5b9060005260206000200160009054906101000a900473ffffffffffffffffffffffffffffffffffffffff1673ffffffffffffffffffffffffffffffffffffffff160361088757600981815481106107fd576107fc611861565b5b9060005260206000200160006101000a81549073ffffffffffffffffffffffffffffffffffffffff02191690556000600a60008473ffffffffffffffffffffffffffffffffffffffff1673ffffffffffffffffffffffffffffffffffffffff16815260200190815260200160002060006101000a81548160ff02191690831515021790555061089a565b808061089290611890565b91505061076b565b505b5050565b6060600980548060200260200160405190810160405280929190818152602001828054801561092457602002820191906000526020600020905b8160009054906101000a900473ffffffffffffffffffffffffffffffffffffffff1673ffffffffffffffffffffffffffffffffffffffff16815260200190600101908083116108da575b5050505050905090565b60606004805461093d9061162b565b80601f01602080910402602001604051908101604052809291908181526020018280546109699061162b565b80156109b65780601f1061098b576101008083540402835291602001916109b6565b820191906000526020600020905b81548152906001019060200180831161099957829003601f168201915b5050505050905090565b6000806109cb610b48565b905060006109d98286610ac1565b905083811015610a1e576040517f08c379a0000000000000000000000000000000000000000000000000000000008152600401610a159061194a565b60405180910390fd5b610a2b8286868403610b50565b60019250505092915050565b600080606460075484610a4a919061168b565b610a549190611714565b905060008184610a649190611745565b90506000610a70610b48565b9050610a9f81600560009054906101000a900473ffffffffffffffffffffffffffffffffffffffff1685610da5565b610aaa818784610da5565b610ab48682610640565b6001935050505092915050565b6000600160008473ffffffffffffffffffffffffffffffffffffffff1673ffffffffffffffffffffffffffffffffffffffff16815260200190815260200160002060008373ffffffffffffffffffffffffffffffffffffffff1673ffffffffffffffffffffffffffffffffffffffff16815260200190815260200160002054905092915050565b600033905090565b600073ffffffffffffffffffffffffffffffffffffffff168373ffffffffffffffffffffffffffffffffffffffff1603610bbf576040517f08c379a0000000000000000000000000000000000000000000000000000000008152600401610bb6906119dc565b60405180910390fd5b600073ffffffffffffffffffffffffffffffffffffffff168273ffffffffffffffffffffffffffffffffffffffff1603610c2e576040517f08c379a0000000000000000000000000000000000000000000000000000000008152600401610c2590611a6e565b60405180910390fd5b80600160008573ffffffffffffffffffffffffffffffffffffffff1673ffffffffffffffffffffffffffffffffffffffff16815260200190815260200160002060008473ffffffffffffffffffffffffffffffffffffffff1673ffffffffffffffffffffffffffffffffffffffff168152602001908152602001600020819055508173ffffffffffffffffffffffffffffffffffffffff168373ffffffffffffffffffffffffffffffffffffffff167f8c5be1e5ebec7d5bd14f71427d1e84f3dd0314c0f7b2291e5b200ac8c7c3b92583604051610d0c91906113dd565b60405180910390a3505050565b6000610d258484610ac1565b90507fffffffffffffffffffffffffffffffffffffffffffffffffffffffffffffffff8114610d9f5781811015610d91576040517f08c379a0000000000000000000000000000000000000000000000000000000008152600401610d8890611ada565b60405180910390fd5b610d9e8484848403610b50565b5b50505050565b600073ffffffffffffffffffffffffffffffffffffffff168373ffffffffffffffffffffffffffffffffffffffff1603610e14576040517f08c379a0000000000000000000000000000000000000000000000000000000008152600401610e0b90611b6c565b60405180910390fd5b600073ffffffffffffffffffffffffffffffffffffffff168273ffffffffffffffffffffffffffffffffffffffff1603610e83576040517f08c379a0000000000000000000000000000000000000000000000000000000008152600401610e7a90611bfe565b60405180910390fd5b610e8e8383836111fa565b60008060008573ffffffffffffffffffffffffffffffffffffffff1673ffffffffffffffffffffffffffffffffffffffff16815260200190815260200160002054905081811015610f14576040517f08c379a0000000000000000000000000000000000000000000000000000000008152600401610f0b90611c90565b60405180910390fd5b8181036000808673ffffffffffffffffffffffffffffffffffffffff1673ffffffffffffffffffffffffffffffffffffffff16815260200190815260200160002081905550816000808573ffffffffffffffffffffffffffffffffffffffff1673ffffffffffffffffffffffffffffffffffffffff1681526020019081526020016000206000828254610fa79190611779565b925050819055508273ffffffffffffffffffffffffffffffffffffffff168473ffffffffffffffffffffffffffffffffffffffff167fddf252ad1be2c89b69c2b068fc378daa952ba7f163c4a11628f55a4df523b3ef8460405161100b91906113dd565b60405180910390a361101e8484846111ff565b50505050565b600073ffffffffffffffffffffffffffffffffffffffff168273ffffffffffffffffffffffffffffffffffffffff1603611093576040517f08c379a000000000000000000000000000000000000000000000000000000000815260040161108a90611d22565b60405180910390fd5b61109f826000836111fa565b60008060008473ffffffffffffffffffffffffffffffffffffffff1673ffffffffffffffffffffffffffffffffffffffff16815260200190815260200160002054905081811015611125576040517f08c379a000000000000000000000000000000000000000000000000000000000815260040161111c90611db4565b60405180910390fd5b8181036000808573ffffffffffffffffffffffffffffffffffffffff1673ffffffffffffffffffffffffffffffffffffffff16815260200190815260200160002081905550816002600082825461117c9190611745565b92505081905550600073ffffffffffffffffffffffffffffffffffffffff168373ffffffffffffffffffffffffffffffffffffffff167fddf252ad1be2c89b69c2b068fc378daa952ba7f163c4a11628f55a4df523b3ef846040516111e191906113dd565b60405180910390a36111f5836000846111ff565b505050565b505050565b505050565b600081519050919050565b600082825260208201905092915050565b60005b8381101561123e578082015181840152602081019050611223565b8381111561124d576000848401525b50505050565b6000601f19601f8301169050919050565b600061126f82611204565b611279818561120f565b9350611289818560208601611220565b61129281611253565b840191505092915050565b600060208201905081810360008301526112b78184611264565b905092915050565b600080fd5b600073ffffffffffffffffffffffffffffffffffffffff82169050919050565b60006112ef826112c4565b9050919050565b6112ff816112e4565b811461130a57600080fd5b50565b60008135905061131c816112f6565b92915050565b6000819050919050565b61133581611322565b811461134057600080fd5b50565b6000813590506113528161132c565b92915050565b6000806040838503121561136f5761136e6112bf565b5b600061137d8582860161130d565b925050602061138e85828601611343565b9150509250929050565b60008115159050919050565b6113ad81611398565b82525050565b60006020820190506113c860008301846113a4565b92915050565b6113d781611322565b82525050565b60006020820190506113f260008301846113ce565b92915050565b600080600060608486031215611411576114106112bf565b5b600061141f8682870161130d565b93505060206114308682870161130d565b925050604061144186828701611343565b9150509250925092565b600060ff82169050919050565b6114618161144b565b82525050565b600060208201905061147c6000830184611458565b92915050565b600060208284031215611498576114976112bf565b5b60006114a684828501611343565b91505092915050565b6000602082840312156114c5576114c46112bf565b5b60006114d38482850161130d565b91505092915050565b600080604083850312156114f3576114f26112bf565b5b60006115018582860161130d565b92505060206115128582860161130d565b9150509250929050565b600081519050919050565b600082825260208201905092915050565b6000819050602082019050919050565b611551816112e4565b82525050565b60006115638383611548565b60208301905092915050565b6000602082019050919050565b60006115878261151c565b6115918185611527565b935061159c83611538565b8060005b838110156115cd5781516115b48882611557565b97506115bf8361156f565b9250506001810190506115a0565b5085935050505092915050565b600060208201905081810360008301526115f4818461157c565b905092915050565b7f4e487b7100000000000000000000000000000000000000000000000000000000600052602260045260246000fd5b6000600282049050600182168061164357607f821691505b602082108103611656576116556115fc565b5b50919050565b7f4e487b7100000000000000000000000000000000000000000000000000000000600052601160045260246000fd5b600061169682611322565b91506116a183611322565b9250817fffffffffffffffffffffffffffffffffffffffffffffffffffffffffffffffff04831182151516156116da576116d961165c565b5b828202905092915050565b7f4e487b7100000000000000000000000000000000000000000000000000000000600052601260045260246000fd5b600061171f82611322565b915061172a83611322565b92508261173a576117396116e5565b5b828204905092915050565b600061175082611322565b915061175b83611322565b92508282101561176e5761176d61165c565b5b828203905092915050565b600061178482611322565b915061178f83611322565b9250827fffffffffffffffffffffffffffffffffffffffffffffffffffffffffffffffff038211156117c4576117c361165c565b5b828201905092915050565b7f4f6e6c79207661756c7420636f6e74726163742063616e20757064617465207460008201527f686973206e6674206f776e657200000000000000000000000000000000000000602082015250565b600061182b602d8361120f565b9150611836826117cf565b604082019050919050565b6000602082019050818103600083015261185a8161181e565b9050919050565b7f4e487b7100000000000000000000000000000000000000000000000000000000600052603260045260246000fd5b600061189b82611322565b91507fffffffffffffffffffffffffffffffffffffffffffffffffffffffffffffffff82036118cd576118cc61165c565b5b600182019050919050565b7f45524332303a2064656372656173656420616c6c6f77616e63652062656c6f7760008201527f207a65726f000000000000000000000000000000000000000000000000000000602082015250565b600061193460258361120f565b915061193f826118d8565b604082019050919050565b6000602082019050818103600083015261196381611927565b9050919050565b7f45524332303a20617070726f76652066726f6d20746865207a65726f2061646460008201527f7265737300000000000000000000000000000000000000000000000000000000602082015250565b60006119c660248361120f565b91506119d18261196a565b604082019050919050565b600060208201905081810360008301526119f5816119b9565b9050919050565b7f45524332303a20617070726f766520746f20746865207a65726f20616464726560008201527f7373000000000000000000000000000000000000000000000000000000000000602082015250565b6000611a5860228361120f565b9150611a63826119fc565b604082019050919050565b60006020820190508181036000830152611a8781611a4b565b9050919050565b7f45524332303a20696e73756666696369656e7420616c6c6f77616e6365000000600082015250565b6000611ac4601d8361120f565b9150611acf82611a8e565b602082019050919050565b60006020820190508181036000830152611af381611ab7565b9050919050565b7f45524332303a207472616e736665722066726f6d20746865207a65726f20616460008201527f6472657373000000000000000000000000000000000000000000000000000000602082015250565b6000611b5660258361120f565b9150611b6182611afa565b604082019050919050565b60006020820190508181036000830152611b8581611b49565b9050919050565b7f45524332303a207472616e7366657220746f20746865207a65726f206164647260008201527f6573730000000000000000000000000000000000000000000000000000000000602082015250565b6000611be860238361120f565b9150611bf382611b8c565b604082019050919050565b60006020820190508181036000830152611c1781611bdb565b9050919050565b7f45524332303a207472616e7366657220616d6f756e742065786365656473206260008201527f616c616e63650000000000000000000000000000000000000000000000000000602082015250565b6000611c7a60268361120f565b9150611c8582611c1e565b604082019050919050565b60006020820190508181036000830152611ca981611c6d565b9050919050565b7f45524332303a206275726e2066726f6d20746865207a65726f2061646472657360008201527f7300000000000000000000000000000000000000000000000000000000000000602082015250565b6000611d0c60218361120f565b9150611d1782611cb0565b604082019050919050565b60006020820190508181036000830152611d3b81611cff565b9050919050565b7f45524332303a206275726e20616d6f756e7420657863656564732062616c616e60008201527f6365000000000000000000000000000000000000000000000000000000000000602082015250565b6000611d9e60228361120f565b9150611da982611d42565b604082019050919050565b60006020820190508181036000830152611dcd81611d91565b905091905056fea26469706673582212203165b306c84b2aea98334a8f82887bd6e2db6d603a0fcea015772fb1854d9ff164736f6c634300080e0033a26469706673582212202be1a9582ed1cfbed36d78d6e0a6d42ee63615440ed296ec02bfb473b1f6bd0664736f6c634300080e0033",
  "immutableReferences": {},
  "source": "pragma solidity 0.8.14;\r\nimport \"@openzeppelin/contracts/token/ERC721/IERC721Receiver.sol\";\r\nimport \"@openzeppelin/contracts/token/ERC721/ERC721.sol\";\r\nimport \"@openzeppelin/contracts/token/ERC721/utils/ERC721Holder.sol\";\r\nimport './FractionToken.sol';\r\n\r\n//import \"@openzeppelin/contracts/token/ERC20/ERC20.sol\";\r\n\r\ncontract MainContract is IERC721Receiver {\r\n    uint DEFAULT_WAIT_TIME = 259200; // 3 days;\r\n    uint DEFAULT_PROPOSAL_TO_PASS = 50; //50%\r\n\r\n    uint currentLastProposalId;\r\n    uint currentLastAuctionId;\r\n\r\n    mapping(address => CurrentDepositedNFTs) nftDeposits;\r\n    mapping(address => uint) tokenBalances;\r\n    uint depositsMade;\r\n    address contractDeployer;\r\n\r\n    constructor() {\r\n        depositsMade = 0;\r\n        contractDeployer = msg.sender;\r\n    }\r\n\r\n    struct NFTDeposit {\r\n        address owner;\r\n        address NFTContractAddress;\r\n        ERC721 NFT;\r\n        uint256 supply;\r\n        uint256 tokenId;\r\n        uint256 depositTimestamp;\r\n        address fractionContractAddress;\r\n        baseFractionToken fractionToken;\r\n        bool hasFractionalised;\r\n        bool canWithdraw;\r\n        bool isChangingOwnership;\r\n    }\r\n\r\n    struct CurrentDepositedNFTs {\r\n        NFTDeposit[] deposits;\r\n    }\r\n\r\n    struct allVotingInfo {\r\n        buyoutProposal[] proposals;\r\n        buyoutAuction[] auctions;\r\n    }\r\n\r\n    struct buyoutProposal {\r\n        \r\n        bool active;\r\n\r\n        NFTDeposit nftDeposit;\r\n\r\n        address proposalInitiator;\r\n\r\n        uint id;\r\n        uint buyoutPriceStart;\r\n        uint totalVoted;\r\n        uint totalAmountAgree;\r\n        uint totalAmountDisagree;\r\n        uint finishTime;\r\n        \r\n    }\r\n    mapping (address => mapping(uint => bool)) hasVotedInProposal;\r\n    mapping (address => mapping(uint  => bool)) voteValueInProposal;\r\n\r\n    struct buyoutAuction {\r\n        bool active;\r\n\r\n        NFTDeposit nftDeposit;\r\n\r\n        buyoutProposal initialProposal;\r\n        \r\n        address currentBidLeader;\r\n\r\n        uint id;\r\n        uint currentBid;\r\n        uint finishTime;\r\n        uint pricePerToken;\r\n    }\r\n\r\n    mapping (address => mapping(uint => bool)) hasVotedInAuction;\r\n    mapping (address => mapping(uint => bool)) voteValueInAuction;\r\n\r\n    mapping(baseFractionToken => allVotingInfo) AllVotingInfo;\r\n    //mapping(address => mapping(ERC20 => uint)) tokenBalances;\r\n\r\n    modifier isInProposalOrAuction(baseFractionToken token) {\r\n        uint latestProposal = AllVotingInfo[token].proposals.length;\r\n        uint latestAuction = AllVotingInfo[token].auctions.length;\r\n\r\n        require(AllVotingInfo[token].proposals[latestProposal].active == false, \"Token already in proposal\");\r\n        require(AllVotingInfo[token].auctions[latestAuction].active == false, \"Token already in auction\");\r\n        _;\r\n    }\r\n\r\n    modifier contractDeployerOnly {\r\n        require (msg.sender == contractDeployer, \"Only contract deployer can call this function\");\r\n        _;\r\n    }\r\n    // mapping nft idenifier => address (owner of nft)\r\n    function updateDepositValue() public {\r\n        depositsMade++;\r\n    }\r\n\r\n    function stakeTokens(baseFractionToken _tokens, uint _amount) public {\r\n        require(_tokens.balanceOf(msg.sender) <= _amount, \"you dont have enough tokens\");\r\n\r\n        //user needs to approve first\r\n\r\n        _tokens.transferFrom(msg.sender, address(this), _amount);\r\n        tokenBalances[msg.sender] += _amount;\r\n    }\r\n\r\n    function unstakeTokens(baseFractionToken _tokens, uint _amount) public {\r\n        require(tokenBalances[msg.sender] <= _amount, \"you dont have enough tokens\");\r\n\r\n        tokenBalances[msg.sender] -= _amount;\r\n        _tokens.transfer(msg.sender, _amount);\r\n    }\r\n\r\n    function depositNft(address _NFTContractAddress, uint256 _tokenId) public {\r\n\r\n        NFTDeposit memory newInfo;\r\n        newInfo.NFT = ERC721(_NFTContractAddress);\r\n        require(newInfo.NFT.ownerOf(_tokenId) == msg.sender, \"You do not own this NFT\");\r\n        \r\n        depositsMade++;\r\n        //can this be reentrency\r\n        newInfo.NFT.safeTransferFrom(msg.sender, address(this), _tokenId);\r\n        newInfo.NFTContractAddress = _NFTContractAddress;\r\n        newInfo.owner = msg.sender;\r\n        newInfo.tokenId = _tokenId;\r\n        newInfo.depositTimestamp = block.timestamp;\r\n        newInfo.hasFractionalised = false;\r\n        nftDeposits[msg.sender].deposits.push(newInfo);\r\n    }\r\n\r\n    function createFraction(\r\n        address _NFTContractAddress,\r\n        uint256 _tokenId,\r\n        uint256 _royaltyPercentage,\r\n        uint256 _supply,\r\n        string memory _tokenName,\r\n        string memory _tokenTicker\r\n    ) public {\r\n        for (uint256 i = 0; i < nftDeposits[msg.sender].deposits.length; i++) {\r\n            //if correct nft to createFraction and we are the owner\r\n            if (nftDeposits[msg.sender].deposits[i].NFTContractAddress ==\r\n                _NFTContractAddress &&\r\n                nftDeposits[msg.sender].deposits[i].tokenId == _tokenId &&\r\n                nftDeposits[msg.sender].deposits[i].owner == msg.sender\r\n            ) {\r\n\r\n                baseFractionToken fractionToken = new baseFractionToken(\r\n                    msg.sender,\r\n                    //nftDeposits[msg.sender].deposits[i].NFTContractAddress,\r\n                    //nftDeposits[msg.sender].deposits[i].tokenId,\r\n                    _royaltyPercentage,\r\n                    _supply,\r\n                    _tokenName,\r\n                    _tokenTicker,\r\n                    address (this)\r\n                );\r\n                nftDeposits[msg.sender].deposits[i].hasFractionalised = true;\r\n                nftDeposits[msg.sender].deposits[i].fractionToken = fractionToken;\r\n                nftDeposits[msg.sender].deposits[i].fractionContractAddress = address(fractionToken);\r\n                nftDeposits[msg.sender].deposits[i].fractionToken = baseFractionToken(nftDeposits[msg.sender].deposits[i].fractionContractAddress);\r\n                //newTokenAddress = address(newFraction);\r\n                break;\r\n            }\r\n        }\r\n    }\r\n\r\n    function withdrawNft(address _NFTContractAddress, uint256 _tokenId) public {\r\n        ERC721 NFTContract = ERC721(_NFTContractAddress);\r\n\r\n        for (uint256 i = 0; i < nftDeposits[msg.sender].deposits.length; i++) {\r\n            if (nftDeposits[msg.sender].deposits[i].NFT == NFTContract && \r\n                nftDeposits[msg.sender].deposits[i].tokenId == _tokenId)\r\n            {\r\n                //was hasFractionalised\r\n                if(nftDeposits[msg.sender].deposits[_tokenId].canWithdraw) {\r\n                    nftDeposits[msg.sender].deposits[_tokenId].NFT.safeTransferFrom(address(this), msg.sender, _tokenId);\r\n                }\r\n\r\n                // if nft owner owns all fractions of NFT\r\n                else if (nftDeposits[msg.sender].deposits[_tokenId].hasFractionalised == true &&\r\n                nftDeposits[msg.sender].deposits[_tokenId].fractionToken.balanceOf(msg.sender) == \r\n                nftDeposits[msg.sender].deposits[_tokenId].fractionToken.totalSupply()) {\r\n                nftDeposits[msg.sender].deposits[_tokenId].NFT.safeTransferFrom(address(this), msg.sender, _tokenId);\r\n                }\r\n            }\r\n        }\r\n        //parentContract.safeTransferFrom(address(this), msg.sender, _tokenId);\r\n    }\r\n\r\n    function updateNftOwner(address _oldOwner, address _newOwner, NFTDeposit memory _nftDeposit) public {\r\n        //add require statement\r\n        require(_nftDeposit.isChangingOwnership == true, \"NFT is not changing ownership\");\r\n\r\n        //for (uint i = 0; i < nftDeposits[_oldOwner].length; i++) {\r\n        //    if (nftDeposits[_oldOwner].deposits[i].NFT == ERC721) {\r\n        //        nftDeposits[_oldOwner].deposits[i].owner = _newOwner;\r\n        //        nftDeposits[_oldOwner].deposits[i].fractionToken.updateNFTOwner(_newOwner);\r\n        //    }\r\n        //}\r\n    }\r\n\r\n    function buyoutAllTokens(address _NFTContractAddress, uint256 _tokenId) public {\r\n        ERC721 NFTContract = ERC721(_NFTContractAddress);\r\n\r\n       //access tokens\r\n        for (uint256 i = 0; i < nftDeposits[msg.sender].deposits.length; i++) {\r\n            if (nftDeposits[msg.sender].deposits[i].NFT == NFTContract && \r\n                nftDeposits[msg.sender].deposits[i].tokenId == _tokenId) {\r\n\r\n                    baseFractionToken nftFraction = nftDeposits[msg.sender].deposits[i].fractionToken;\r\n                    for (uint j = 0; j < nftFraction.returnTokenOwners().length; j++) {\r\n\r\n                    }\r\n                }\r\n            }\r\n    }\r\n\r\n    function startBuyoutProposal(baseFractionToken _token, NFTDeposit memory _nftDeposit) isInProposalOrAuction(_token) public payable{\r\n\r\n        buyoutProposal memory newProposal; \r\n        \r\n        newProposal.finishTime = block.timestamp + DEFAULT_WAIT_TIME;\r\n        newProposal.buyoutPriceStart = msg.value;\r\n        newProposal.proposalInitiator = msg.sender;\r\n        hasVotedInProposal[msg.sender][currentLastProposalId] = true;\r\n        newProposal.totalAmountAgree = _token.balanceOf(msg.sender);\r\n        newProposal.totalAmountDisagree = 0;\r\n        newProposal.totalVoted = _token.balanceOf(msg.sender);\r\n        newProposal.active = true;\r\n        newProposal.nftDeposit = _nftDeposit;\r\n        newProposal.id = currentLastProposalId; \r\n        AllVotingInfo[_token].proposals.push(newProposal);\r\n        currentLastProposalId++;\r\n    }\r\n\r\n    function voteOnProposal(NFTDeposit memory _NFTDeposit, bool _voteValue, uint _voteAmount) public {\r\n        baseFractionToken Token = _NFTDeposit.fractionToken;\r\n        uint latestProposal = AllVotingInfo[Token].proposals.length;\r\n        uint latestAuction = AllVotingInfo[Token].auctions.length;\r\n\r\n        uint id = AllVotingInfo[Token].proposals[latestProposal].id;\r\n\r\n        require (AllVotingInfo[Token].proposals[latestProposal].active == true, \"proposal is not active\");\r\n        require (hasVotedInProposal[msg.sender][id] == false, \"this user has already voted\");\r\n\r\n        if (block.timestamp < AllVotingInfo[Token].proposals[latestProposal].finishTime) {\r\n            stakeTokens(AllVotingInfo[Token].proposals[latestProposal].nftDeposit.fractionToken, _voteAmount);\r\n            hasVotedInProposal[msg.sender][id] = true;\r\n            voteValueInProposal[msg.sender][id] = _voteValue;\r\n           \r\n            AllVotingInfo[Token].proposals[latestProposal].totalVoted += _voteAmount;\r\n\r\n            if (_voteValue == true) {\r\n                AllVotingInfo[Token].proposals[latestProposal].totalAmountAgree += _voteAmount;\r\n            } else {\r\n                AllVotingInfo[Token].proposals[latestProposal].totalAmountDisagree += _voteAmount;\r\n            }\r\n\r\n            // percentage agree\r\n            if(_NFTDeposit.supply * AllVotingInfo[Token].proposals[latestProposal].totalAmountAgree / 100 \r\n                >= DEFAULT_PROPOSAL_TO_PASS) {\r\n                AllVotingInfo[Token].proposals[latestProposal].active = false;\r\n                startBuyoutAuction(Token, AllVotingInfo[Token].proposals[latestProposal]);\r\n            }\r\n            //percentage disagree\r\n            else if (_NFTDeposit.supply * AllVotingInfo[Token].proposals[latestProposal].totalAmountDisagree / 100 \r\n                    >= DEFAULT_PROPOSAL_TO_PASS) {\r\n                    AllVotingInfo[Token].proposals[latestProposal].active = false;\r\n                    payable(AllVotingInfo[Token].proposals[latestProposal].proposalInitiator).transfer(AllVotingInfo[Token].proposals[latestProposal].buyoutPriceStart);\r\n\r\n            }\r\n        } else {\r\n            if (AllVotingInfo[Token].proposals[latestProposal].active == true) {\r\n                AllVotingInfo[Token].proposals[latestProposal].active = false;\r\n            }\r\n        }\r\n    }\r\n\r\n    function startBuyoutAuction(baseFractionToken _token, buyoutProposal memory proposal) public {\r\n        currentLastAuctionId++;\r\n        uint latestProposal = AllVotingInfo[_token].proposals.length;\r\n\r\n        buyoutAuction memory newAuction;\r\n        newAuction.initialProposal = AllVotingInfo[_token].proposals[latestProposal];\r\n        newAuction.finishTime = block.timestamp + DEFAULT_WAIT_TIME;\r\n        newAuction.currentBid = newAuction.initialProposal.buyoutPriceStart;\r\n        newAuction.currentBidLeader = newAuction.initialProposal.proposalInitiator;\r\n        newAuction.active = true;\r\n        newAuction.nftDeposit = proposal.nftDeposit;\r\n        newAuction.id = currentLastAuctionId;\r\n\r\n        AllVotingInfo[_token].auctions.push(newAuction);\r\n    }\r\n\r\n    function bidOnAuction(baseFractionToken _token, bool _voteValue) public payable{\r\n        uint latestProposal = AllVotingInfo[_token].proposals.length;\r\n        uint latestAuction = AllVotingInfo[_token].auctions.length;\r\n\r\n        if (msg.value <= AllVotingInfo[_token].auctions[latestAuction].currentBid) {\r\n            payable(msg.sender).transfer(msg.value);\r\n        } else { \r\n\r\n            if (block.timestamp < AllVotingInfo[_token].auctions[latestAuction].finishTime) { \r\n\r\n            require (AllVotingInfo[_token].auctions[latestAuction].active == true, \"proposal is not active\");\r\n            require (AllVotingInfo[_token].proposals[latestProposal].active == false, \"this token needs to leave the proposal first\");\r\n\r\n            uint oldBid = AllVotingInfo[_token].auctions[latestAuction].currentBid;\r\n            address oldLeader = AllVotingInfo[_token].auctions[latestAuction].currentBidLeader;\r\n            AllVotingInfo[_token].auctions[latestAuction].currentBid = msg.value;\r\n            AllVotingInfo[_token].auctions[latestAuction].currentBidLeader = msg.sender;\r\n            payable(oldLeader).transfer(oldBid);\r\n\r\n            } else if (AllVotingInfo[_token].auctions[latestAuction].active == true) {\r\n                AllVotingInfo[_token].auctions[latestAuction].active == false;\r\n            }\r\n            \r\n            AllVotingInfo[_token].auctions[latestAuction].pricePerToken = AllVotingInfo[_token].auctions[latestAuction].currentBid / _token.totalSupply();\r\n            }\r\n\r\n            determineAuctionWinner(AllVotingInfo[_token].auctions[latestAuction], AllVotingInfo[_token].auctions[latestAuction].nftDeposit);\r\n            AllVotingInfo[_token].auctions[latestAuction].active = false; \r\n    }\r\n\r\n    function determineAuctionWinner(buyoutAuction memory _auction, NFTDeposit memory _nftDeposit) private {\r\n        _nftDeposit.isChangingOwnership = true;\r\n        updateNftOwner(_nftDeposit.owner, _auction.currentBidLeader, _nftDeposit);\r\n        _nftDeposit.isChangingOwnership = false;\r\n\r\n        _nftDeposit.fractionToken.updateNFTOwner(_auction.currentBidLeader);\r\n    }\r\n\r\n    //add non reentract modifier\r\n    function claimFromBuyoutTokens(baseFractionToken _token, uint _amount) public  {\r\n        uint latestAuction = AllVotingInfo[_token].auctions.length;\r\n    \r\n        require(AllVotingInfo[_token].auctions[latestAuction].active == false, \"auction still active\");\r\n\r\n        _token.transferFrom(msg.sender, address(this), _amount);\r\n        _token.burn(_amount);\r\n        payable(msg.sender).transfer(AllVotingInfo[_token].auctions[latestAuction].pricePerToken * _amount);\r\n    }\r\n\r\n    //function changeVoteOnProposalOrAuction(baseFractionToken _token, bool _newVoteValue) public {\r\n    //    uint latestProposal = AllVotingInfo[_token].proposals.length;\r\n    //    uint latestAuction = AllVotingInfo[_token].auctions.length;\r\n//\r\n    //    require(AllVotingInfo[_token].proposals[latestProposal].active == true || \r\n    //    AllVotingInfo[_token].auctions[latestAuction].active == true, \"ERC20 needs to be in proposal or auction first\");\r\n    //    \r\n    //    //require (isInProposal[_token] == true || isInAuction[_token] == true, \r\n    //    //\"ERC20 needs to be in proposal or auction first\");\r\n    //    \r\n    //    if (AllVotingInfo[_token].proposals[latestProposal].active == true ) {\r\n    //        //require (AllVotingInfo[_token].proposals[latestProposal][msg.sender] == true, \r\n    //        require(hasVotedInProposal[msg.sender])\r\n    //        \"this user needs to vote first\");\r\n//\r\n    //        require (AllVotingInfo[_token].proposals[latestProposal].voteValue[msg.sender] == true && _newVoteValue == false ||\r\n    //                 AllVotingInfo[_token].proposals[latestProposal].voteValue[msg.sender] == false && _newVoteValue == true,\r\n    //        \"this user is not changing their current vote\");\r\n//\r\n    //        if (_newVoteValue == true ) {\r\n    //            AllVotingInfo[_token].proposals[latestProposal].totalAmountDisagree -= _token.balanceOf(msg.sender);\r\n    //            AllVotingInfo[_token].proposals[latestProposal].totalAmountAgree += _token.balanceOf(msg.sender);\r\n    //        }\r\n    //        else {\r\n    //            AllVotingInfo[_token].proposals[latestProposal].totalAmountAgree -= _token.balanceOf(msg.sender);\r\n    //            AllVotingInfo[_token].proposals[latestProposal].totalAmountDisagree += _token.balanceOf(msg.sender);\r\n    //        }\r\n    //    } else {\r\n//\r\n    //        require (AllVotingInfo[_token].auction[latestAuction].hasVoted[msg.sender] == true, \r\n    //        \"this user needs to vote first\");\r\n    //        \r\n    //        require (AllVotingInfo[_token].auction[latestAuction].voteValue[msg.sender] == true && _newVoteValue == false ||\r\n    //                 AllVotingInfo[_token].auction[latestAuction].voteValue[msg.sender] == false && _newVoteValue == true,\r\n    //        \"this user is not changing their current vote\");\r\n//\r\n    //        //if (_newVoteValue == true ) {\r\n    //        //    buyoutAuctions[_token].totalAmountDisagree -= _token.balanceOf(msg.sender);\r\n    //        //    buyoutAuctions[_token].totalAmountAgree += _token.balanceOf(msg.sender);\r\n    //        //}\r\n    //        //else {\r\n    //        //    buyoutAuctions[_token].totalAmountAgree -= _token.balanceOf(msg.sender);\r\n    //        //    buyoutAuctions[_token].totalAmountDisagree += _token.balanceOf(msg.sender);\r\n    //        //}\r\n    //    }\r\n    //}\r\n\r\n\r\n\r\n    \r\n\r\n  // function getNftDepositsMapping(address _inputAddress) public view returns (CurrentDepositedNFTs memory) {\r\n   //    return nftDeposits[_inputAddress];\r\n   //}\r\n\r\n   //function getCertainNftDeposits(address _inputAddress, uint _index) public view returns (NFTDeposit memory) {\r\n   //    return nftDeposits[_inputAddress].deposits[_index];\r\n   //}\r\n\r\n   function getFractionContractAddress(uint _index) public view returns(address) {\r\n       return nftDeposits[msg.sender].deposits[_index].fractionContractAddress;\r\n   }\r\n\r\n   function getArraySize() public view returns(uint) {\r\n       return nftDeposits[msg.sender].deposits.length;\r\n   }\r\n\r\n   function getDepositsMade() public view returns(uint) {\r\n       return depositsMade;\r\n   }\r\n\r\n   //function getFraction(uint _index) public view returns (baseFractionToken) {\r\n   //    return nftDeposits[msg.sender].deposits[_index].fractionContract;\r\n   //}\r\n\r\n   //function getFractionNFTOwner(uint _index) public view returns (address) {\r\n   //    return nftDeposits[msg.sender].deposits[_index].fractionContract.getNFTOwner();\r\n   //}\r\n\r\n    \r\n\r\n    //function mintNewFractionTokens() public {\r\n    //    new baseFractionToken(msg.sender, 10, 8000, \"yesToken\", \"YT\");\r\n    //}\r\n\r\n    function onERC721Received(\r\n        address,\r\n        address from,\r\n        uint256,\r\n        bytes calldata\r\n    ) external pure override returns (bytes4) {\r\n        // require(from == address(), \"Cannot send nfts to Vault dirrectly\");\r\n\r\n        return IERC721Receiver.onERC721Received.selector;\r\n    }\r\n}\r\n",
  "sourcePath": "D:\\Libraries\\Desktop\\Truffle\\fractionaliseNFT2\\contracts\\MainContact.sol",
  "compiler": {
    "name": "solc",
    "version": "0.8.14+commit.80d49f37.Emscripten.clang"
  },
  "schemaVersion": "3.4.6",
  "updatedAt": "2022-05-24T02:03:19.159Z",
  "devdoc": {
    "kind": "dev",
    "methods": {},
    "version": 1
  },
  "userdoc": {
    "kind": "user",
    "methods": {},
    "version": 1
  }
}