{
  "contractName": "MainContract",
  "abi": [
    {
      "inputs": [],
      "stateMutability": "nonpayable",
      "type": "constructor"
    },
    {
      "inputs": [
        {
          "internalType": "contract baseFractionToken",
          "name": "_tokens",
          "type": "address"
        },
        {
          "internalType": "uint256",
          "name": "_amount",
          "type": "uint256"
        }
      ],
      "name": "stakeTokens",
      "outputs": [],
      "stateMutability": "nonpayable",
      "type": "function"
    },
    {
      "inputs": [
        {
          "internalType": "contract baseFractionToken",
          "name": "_tokens",
          "type": "address"
        },
        {
          "internalType": "uint256",
          "name": "_amount",
          "type": "uint256"
        }
      ],
      "name": "unstakeTokens",
      "outputs": [],
      "stateMutability": "nonpayable",
      "type": "function"
    },
    {
      "inputs": [
        {
          "internalType": "address",
          "name": "_NFTContractAddress",
          "type": "address"
        },
        {
          "internalType": "uint256",
          "name": "_tokenId",
          "type": "uint256"
        }
      ],
      "name": "depositNft",
      "outputs": [],
      "stateMutability": "nonpayable",
      "type": "function"
    },
    {
      "inputs": [
        {
          "internalType": "address",
          "name": "_NFTContractAddress",
          "type": "address"
        },
        {
          "internalType": "uint256",
          "name": "_tokenId",
          "type": "uint256"
        },
        {
          "internalType": "uint256",
          "name": "_royaltyPercentage",
          "type": "uint256"
        },
        {
          "internalType": "uint256",
          "name": "_supply",
          "type": "uint256"
        },
        {
          "internalType": "string",
          "name": "_tokenName",
          "type": "string"
        },
        {
          "internalType": "string",
          "name": "_tokenTicker",
          "type": "string"
        }
      ],
      "name": "createFraction",
      "outputs": [],
      "stateMutability": "nonpayable",
      "type": "function"
    },
    {
      "inputs": [
        {
          "internalType": "address",
          "name": "_NFTContractAddress",
          "type": "address"
        },
        {
          "internalType": "uint256",
          "name": "_tokenId",
          "type": "uint256"
        }
      ],
      "name": "withdrawNft",
      "outputs": [],
      "stateMutability": "nonpayable",
      "type": "function"
    },
    {
      "inputs": [
        {
          "internalType": "address",
          "name": "_oldOwner",
          "type": "address"
        },
        {
          "internalType": "address",
          "name": "_newOwner",
          "type": "address"
        },
        {
          "components": [
            {
              "internalType": "address",
              "name": "owner",
              "type": "address"
            },
            {
              "internalType": "address",
              "name": "NFTContractAddress",
              "type": "address"
            },
            {
              "internalType": "contract ERC721",
              "name": "NFT",
              "type": "address"
            },
            {
              "internalType": "uint256",
              "name": "supply",
              "type": "uint256"
            },
            {
              "internalType": "uint256",
              "name": "tokenId",
              "type": "uint256"
            },
            {
              "internalType": "uint256",
              "name": "depositTimestamp",
              "type": "uint256"
            },
            {
              "internalType": "address",
              "name": "fractionContractAddress",
              "type": "address"
            },
            {
              "internalType": "contract baseFractionToken",
              "name": "fractionToken",
              "type": "address"
            },
            {
              "internalType": "bool",
              "name": "hasFractionalised",
              "type": "bool"
            },
            {
              "internalType": "bool",
              "name": "canWithdraw",
              "type": "bool"
            },
            {
              "internalType": "bool",
              "name": "isChangingOwnership",
              "type": "bool"
            }
          ],
          "internalType": "struct MainContract.NFTDeposit",
          "name": "_nftDeposit",
          "type": "tuple"
        }
      ],
      "name": "updateNftOwner",
      "outputs": [],
      "stateMutability": "nonpayable",
      "type": "function"
    },
    {
      "inputs": [
        {
          "internalType": "address",
          "name": "_NFTContractAddress",
          "type": "address"
        },
        {
          "internalType": "uint256",
          "name": "_tokenId",
          "type": "uint256"
        }
      ],
      "name": "buyoutAllTokens",
      "outputs": [],
      "stateMutability": "nonpayable",
      "type": "function"
    },
    {
      "inputs": [
        {
          "internalType": "contract baseFractionToken",
          "name": "_token",
          "type": "address"
        },
        {
          "components": [
            {
              "internalType": "address",
              "name": "owner",
              "type": "address"
            },
            {
              "internalType": "address",
              "name": "NFTContractAddress",
              "type": "address"
            },
            {
              "internalType": "contract ERC721",
              "name": "NFT",
              "type": "address"
            },
            {
              "internalType": "uint256",
              "name": "supply",
              "type": "uint256"
            },
            {
              "internalType": "uint256",
              "name": "tokenId",
              "type": "uint256"
            },
            {
              "internalType": "uint256",
              "name": "depositTimestamp",
              "type": "uint256"
            },
            {
              "internalType": "address",
              "name": "fractionContractAddress",
              "type": "address"
            },
            {
              "internalType": "contract baseFractionToken",
              "name": "fractionToken",
              "type": "address"
            },
            {
              "internalType": "bool",
              "name": "hasFractionalised",
              "type": "bool"
            },
            {
              "internalType": "bool",
              "name": "canWithdraw",
              "type": "bool"
            },
            {
              "internalType": "bool",
              "name": "isChangingOwnership",
              "type": "bool"
            }
          ],
          "internalType": "struct MainContract.NFTDeposit",
          "name": "_nftDeposit",
          "type": "tuple"
        }
      ],
      "name": "startBuyoutProposal",
      "outputs": [],
      "stateMutability": "payable",
      "type": "function"
    },
    {
      "inputs": [
        {
          "components": [
            {
              "internalType": "address",
              "name": "owner",
              "type": "address"
            },
            {
              "internalType": "address",
              "name": "NFTContractAddress",
              "type": "address"
            },
            {
              "internalType": "contract ERC721",
              "name": "NFT",
              "type": "address"
            },
            {
              "internalType": "uint256",
              "name": "supply",
              "type": "uint256"
            },
            {
              "internalType": "uint256",
              "name": "tokenId",
              "type": "uint256"
            },
            {
              "internalType": "uint256",
              "name": "depositTimestamp",
              "type": "uint256"
            },
            {
              "internalType": "address",
              "name": "fractionContractAddress",
              "type": "address"
            },
            {
              "internalType": "contract baseFractionToken",
              "name": "fractionToken",
              "type": "address"
            },
            {
              "internalType": "bool",
              "name": "hasFractionalised",
              "type": "bool"
            },
            {
              "internalType": "bool",
              "name": "canWithdraw",
              "type": "bool"
            },
            {
              "internalType": "bool",
              "name": "isChangingOwnership",
              "type": "bool"
            }
          ],
          "internalType": "struct MainContract.NFTDeposit",
          "name": "_NFTDeposit",
          "type": "tuple"
        },
        {
          "internalType": "bool",
          "name": "_voteValue",
          "type": "bool"
        },
        {
          "internalType": "uint256",
          "name": "_voteAmount",
          "type": "uint256"
        }
      ],
      "name": "voteOnProposal",
      "outputs": [],
      "stateMutability": "nonpayable",
      "type": "function"
    },
    {
      "inputs": [
        {
          "internalType": "contract baseFractionToken",
          "name": "_token",
          "type": "address"
        },
        {
          "components": [
            {
              "internalType": "bool",
              "name": "active",
              "type": "bool"
            },
            {
              "components": [
                {
                  "internalType": "address",
                  "name": "owner",
                  "type": "address"
                },
                {
                  "internalType": "address",
                  "name": "NFTContractAddress",
                  "type": "address"
                },
                {
                  "internalType": "contract ERC721",
                  "name": "NFT",
                  "type": "address"
                },
                {
                  "internalType": "uint256",
                  "name": "supply",
                  "type": "uint256"
                },
                {
                  "internalType": "uint256",
                  "name": "tokenId",
                  "type": "uint256"
                },
                {
                  "internalType": "uint256",
                  "name": "depositTimestamp",
                  "type": "uint256"
                },
                {
                  "internalType": "address",
                  "name": "fractionContractAddress",
                  "type": "address"
                },
                {
                  "internalType": "contract baseFractionToken",
                  "name": "fractionToken",
                  "type": "address"
                },
                {
                  "internalType": "bool",
                  "name": "hasFractionalised",
                  "type": "bool"
                },
                {
                  "internalType": "bool",
                  "name": "canWithdraw",
                  "type": "bool"
                },
                {
                  "internalType": "bool",
                  "name": "isChangingOwnership",
                  "type": "bool"
                }
              ],
              "internalType": "struct MainContract.NFTDeposit",
              "name": "nftDeposit",
              "type": "tuple"
            },
            {
              "internalType": "address",
              "name": "proposalInitiator",
              "type": "address"
            },
            {
              "internalType": "uint256",
              "name": "id",
              "type": "uint256"
            },
            {
              "internalType": "uint256",
              "name": "buyoutPriceStart",
              "type": "uint256"
            },
            {
              "internalType": "uint256",
              "name": "totalVoted",
              "type": "uint256"
            },
            {
              "internalType": "uint256",
              "name": "totalAmountAgree",
              "type": "uint256"
            },
            {
              "internalType": "uint256",
              "name": "totalAmountDisagree",
              "type": "uint256"
            },
            {
              "internalType": "uint256",
              "name": "finishTime",
              "type": "uint256"
            }
          ],
          "internalType": "struct MainContract.buyoutProposal",
          "name": "proposal",
          "type": "tuple"
        }
      ],
      "name": "startBuyoutAuction",
      "outputs": [],
      "stateMutability": "nonpayable",
      "type": "function"
    },
    {
      "inputs": [
        {
          "internalType": "contract baseFractionToken",
          "name": "_token",
          "type": "address"
        },
        {
          "internalType": "bool",
          "name": "_voteValue",
          "type": "bool"
        }
      ],
      "name": "bidOnAuction",
      "outputs": [],
      "stateMutability": "payable",
      "type": "function"
    },
    {
      "inputs": [
        {
          "internalType": "contract baseFractionToken",
          "name": "_token",
          "type": "address"
        },
        {
          "internalType": "uint256",
          "name": "_amount",
          "type": "uint256"
        }
      ],
      "name": "claimFromBuyoutTokens",
      "outputs": [],
      "stateMutability": "nonpayable",
      "type": "function"
    },
    {
      "inputs": [
        {
          "internalType": "address",
          "name": "",
          "type": "address"
        },
        {
          "internalType": "address",
          "name": "from",
          "type": "address"
        },
        {
          "internalType": "uint256",
          "name": "",
          "type": "uint256"
        },
        {
          "internalType": "bytes",
          "name": "",
          "type": "bytes"
        }
      ],
      "name": "onERC721Received",
      "outputs": [
        {
          "internalType": "bytes4",
          "name": "",
          "type": "bytes4"
        }
      ],
      "stateMutability": "pure",
      "type": "function"
    }
  ],
  "bytecode": "0x60806040526203f480600055603260015534801561001c57600080fd5b50600060068190555033600760006101000a81548173ffffffffffffffffffffffffffffffffffffffff021916908373ffffffffffffffffffffffffffffffffffffffff16021790555061889280620000766000396000f3fe608060405260043610620000d45760003560e01c8063a7525b3b116200008b578063d8fc65191162000061578063d8fc65191462000271578063e0cf2b61146200029f578063e89a173e14620002cd578063f4164f5714620002fb57620000d4565b8063a7525b3b14620001e7578063afabcf7d1462000215578063b83a75e5146200024357620000d4565b80630de4fd4914620000d9578063150b7a0214620000f95780633ac6ec99146200013d57806379a83f5a146200016b5780637f042b8b1462000199578063a72e2cd614620001b9575b600080fd5b620000f76004803603810190620000f191906200521d565b62000329565b005b3480156200010657600080fd5b506200012560048036038101906200011f9190620052d3565b62000a71565b604051620001349190620053a6565b60405180910390f35b3480156200014a57600080fd5b50620001696004803603810190620001639190620053c3565b62000a86565b005b3480156200017857600080fd5b506200019760048036038101906200019191906200540a565b62000d52565b005b620001b76004803603810190620001b1919062005451565b62000ef8565b005b348015620001c657600080fd5b50620001e56004803603810190620001df9190620053c3565b6200203a565b005b348015620001f457600080fd5b506200021360048036038101906200020d91906200540a565b620024ed565b005b3480156200022257600080fd5b506200024160048036038101906200023b919062005560565b620027ad565b005b3480156200025057600080fd5b506200026f60048036038101906200026991906200563a565b62002c2b565b005b3480156200027e57600080fd5b506200029d6004803603810190620002979190620053c3565b62002cc9565b005b348015620002ac57600080fd5b50620002cb6004803603810190620002c5919062005697565b62003375565b005b348015620002da57600080fd5b50620002f96004803603810190620002f391906200540a565b62004128565b005b3480156200030857600080fd5b50620003276004803603810190620003219190620057f3565b6200428d565b005b816000600c60008373ffffffffffffffffffffffffffffffffffffffff1673ffffffffffffffffffffffffffffffffffffffff1681526020019081526020016000206000018054905090506000600c60008473ffffffffffffffffffffffffffffffffffffffff1673ffffffffffffffffffffffffffffffffffffffff16815260200190815260200160002060010180549050905060001515600c60008573ffffffffffffffffffffffffffffffffffffffff1673ffffffffffffffffffffffffffffffffffffffff16815260200190815260200160002060000183815481106200041957620004186200583b565b5b906000526020600020906010020160000160009054906101000a900460ff161515146200047d576040517f08c379a00000000000000000000000000000000000000000000000000000000081526004016200047490620058cb565b60405180910390fd5b60001515600c60008573ffffffffffffffffffffffffffffffffffffffff1673ffffffffffffffffffffffffffffffffffffffff1681526020019081526020016000206001018281548110620004d857620004d76200583b565b5b90600052602060002090601e020160000160009054906101000a900460ff161515146200053c576040517f08c379a000000000000000000000000000000000000000000000000000000000815260040162000533906200593d565b60405180910390fd5b6200054662004d2c565b600054426200055691906200598e565b816101000181815250503481608001818152505033816040019073ffffffffffffffffffffffffffffffffffffffff16908173ffffffffffffffffffffffffffffffffffffffff16815250506001600860003373ffffffffffffffffffffffffffffffffffffffff1673ffffffffffffffffffffffffffffffffffffffff1681526020019081526020016000206000600254815260200190815260200160002060006101000a81548160ff0219169083151502179055508573ffffffffffffffffffffffffffffffffffffffff166370a08231336040518263ffffffff1660e01b8152600401620006489190620059fc565b602060405180830381865afa15801562000666573d6000803e3d6000fd5b505050506040513d601f19601f820116820180604052508101906200068c919062005a30565b8160c001818152505060008160e00181815250508573ffffffffffffffffffffffffffffffffffffffff166370a08231336040518263ffffffff1660e01b8152600401620006db9190620059fc565b602060405180830381865afa158015620006f9573d6000803e3d6000fd5b505050506040513d601f19601f820116820180604052508101906200071f919062005a30565b8160a00181815250506001816000019015159081151581525050848160200181905250600254816060018181525050600c60008773ffffffffffffffffffffffffffffffffffffffff1673ffffffffffffffffffffffffffffffffffffffff16815260200190815260200160002060000181908060018154018082558091505060019003906000526020600020906010020160009091909190915060008201518160000160006101000a81548160ff02191690831515021790555060208201518160010160008201518160000160006101000a81548173ffffffffffffffffffffffffffffffffffffffff021916908373ffffffffffffffffffffffffffffffffffffffff16021790555060208201518160010160006101000a81548173ffffffffffffffffffffffffffffffffffffffff021916908373ffffffffffffffffffffffffffffffffffffffff16021790555060408201518160020160006101000a81548173ffffffffffffffffffffffffffffffffffffffff021916908373ffffffffffffffffffffffffffffffffffffffff160217905550606082015181600301556080820151816004015560a0820151816005015560c08201518160060160006101000a81548173ffffffffffffffffffffffffffffffffffffffff021916908373ffffffffffffffffffffffffffffffffffffffff16021790555060e08201518160070160006101000a81548173ffffffffffffffffffffffffffffffffffffffff021916908373ffffffffffffffffffffffffffffffffffffffff1602179055506101008201518160070160146101000a81548160ff0219169083151502179055506101208201518160070160156101000a81548160ff0219169083151502179055506101408201518160070160166101000a81548160ff021916908315150217905550505060408201518160090160006101000a81548173ffffffffffffffffffffffffffffffffffffffff021916908373ffffffffffffffffffffffffffffffffffffffff160217905550606082015181600a0155608082015181600b015560a082015181600c015560c082015181600d015560e082015181600e015561010082015181600f015550506002600081548092919062000a649062005a62565b9190505550505050505050565b600063150b7a0260e01b905095945050505050565b600082905060005b600460003373ffffffffffffffffffffffffffffffffffffffff1673ffffffffffffffffffffffffffffffffffffffff1681526020019081526020016000206000018054905081101562000d4c578173ffffffffffffffffffffffffffffffffffffffff16600460003373ffffffffffffffffffffffffffffffffffffffff1673ffffffffffffffffffffffffffffffffffffffff168152602001908152602001600020600001828154811062000b4a5762000b496200583b565b5b906000526020600020906008020160020160009054906101000a900473ffffffffffffffffffffffffffffffffffffffff1673ffffffffffffffffffffffffffffffffffffffff1614801562000c07575082600460003373ffffffffffffffffffffffffffffffffffffffff1673ffffffffffffffffffffffffffffffffffffffff168152602001908152602001600020600001828154811062000bf35762000bf26200583b565b5b906000526020600020906008020160040154145b1562000d36576000600460003373ffffffffffffffffffffffffffffffffffffffff1673ffffffffffffffffffffffffffffffffffffffff168152602001908152602001600020600001828154811062000c665762000c656200583b565b5b906000526020600020906008020160070160009054906101000a900473ffffffffffffffffffffffffffffffffffffffff16905060005b8173ffffffffffffffffffffffffffffffffffffffff166394ee29d96040518163ffffffff1660e01b8152600401600060405180830381865afa15801562000ce9573d6000803e3d6000fd5b505050506040513d6000823e3d601f19601f8201168201806040525081019062000d14919062005b9c565b5181101562000d3357808062000d2a9062005a62565b91505062000c9d565b50505b808062000d439062005a62565b91505062000a8e565b50505050565b808273ffffffffffffffffffffffffffffffffffffffff166370a08231336040518263ffffffff1660e01b815260040162000d8e9190620059fc565b602060405180830381865afa15801562000dac573d6000803e3d6000fd5b505050506040513d601f19601f8201168201806040525081019062000dd2919062005a30565b111562000e16576040517f08c379a000000000000000000000000000000000000000000000000000000000815260040162000e0d9062005c3d565b60405180910390fd5b8173ffffffffffffffffffffffffffffffffffffffff166323b872dd3330846040518463ffffffff1660e01b815260040162000e559392919062005c70565b6020604051808303816000875af115801562000e75573d6000803e3d6000fd5b505050506040513d601f19601f8201168201806040525081019062000e9b919062005cc4565b5080600560003373ffffffffffffffffffffffffffffffffffffffff1673ffffffffffffffffffffffffffffffffffffffff168152602001908152602001600020600082825462000eed91906200598e565b925050819055505050565b6000600c60008473ffffffffffffffffffffffffffffffffffffffff1673ffffffffffffffffffffffffffffffffffffffff1681526020019081526020016000206000018054905090506000600c60008573ffffffffffffffffffffffffffffffffffffffff1673ffffffffffffffffffffffffffffffffffffffff168152602001908152602001600020600101805490509050600c60008573ffffffffffffffffffffffffffffffffffffffff1673ffffffffffffffffffffffffffffffffffffffff168152602001908152602001600020600101818154811062000fe35762000fe26200583b565b5b90600052602060002090601e0201601b015434116200104a573373ffffffffffffffffffffffffffffffffffffffff166108fc349081150290604051600060405180830381858888f1935050505015801562001043573d6000803e3d6000fd5b50620016e8565b600c60008573ffffffffffffffffffffffffffffffffffffffff1673ffffffffffffffffffffffffffffffffffffffff1681526020019081526020016000206001018181548110620010a157620010a06200583b565b5b90600052602060002090601e0201601c0154421015620014975760011515600c60008673ffffffffffffffffffffffffffffffffffffffff1673ffffffffffffffffffffffffffffffffffffffff16815260200190815260200160002060010182815481106200111657620011156200583b565b5b90600052602060002090601e020160000160009054906101000a900460ff161515146200117a576040517f08c379a0000000000000000000000000000000000000000000000000000000008152600401620011719062005d46565b60405180910390fd5b60001515600c60008673ffffffffffffffffffffffffffffffffffffffff1673ffffffffffffffffffffffffffffffffffffffff1681526020019081526020016000206000018381548110620011d557620011d46200583b565b5b906000526020600020906010020160000160009054906101000a900460ff1615151462001239576040517f08c379a0000000000000000000000000000000000000000000000000000000008152600401620012309062005dde565b60405180910390fd5b6000600c60008673ffffffffffffffffffffffffffffffffffffffff1673ffffffffffffffffffffffffffffffffffffffff16815260200190815260200160002060010182815481106200129257620012916200583b565b5b90600052602060002090601e0201601b015490506000600c60008773ffffffffffffffffffffffffffffffffffffffff1673ffffffffffffffffffffffffffffffffffffffff1681526020019081526020016000206001018381548110620012ff57620012fe6200583b565b5b90600052602060002090601e020160190160009054906101000a900473ffffffffffffffffffffffffffffffffffffffff16905034600c60008873ffffffffffffffffffffffffffffffffffffffff1673ffffffffffffffffffffffffffffffffffffffff16815260200190815260200160002060010184815481106200138b576200138a6200583b565b5b90600052602060002090601e0201601b018190555033600c60008873ffffffffffffffffffffffffffffffffffffffff1673ffffffffffffffffffffffffffffffffffffffff1681526020019081526020016000206001018481548110620013f857620013f76200583b565b5b90600052602060002090601e020160190160006101000a81548173ffffffffffffffffffffffffffffffffffffffff021916908373ffffffffffffffffffffffffffffffffffffffff1602179055508073ffffffffffffffffffffffffffffffffffffffff166108fc839081150290604051600060405180830381858888f193505050501580156200148e573d6000803e3d6000fd5b50505062001594565b60011515600c60008673ffffffffffffffffffffffffffffffffffffffff1673ffffffffffffffffffffffffffffffffffffffff1681526020019081526020016000206001018281548110620014f257620014f16200583b565b5b90600052602060002090601e020160000160009054906101000a900460ff16151503620015935760001515600c60008673ffffffffffffffffffffffffffffffffffffffff1673ffffffffffffffffffffffffffffffffffffffff16815260200190815260200160002060010182815481106200157457620015736200583b565b5b90600052602060002090601e020160000160009054906101000a905050505b5b8373ffffffffffffffffffffffffffffffffffffffff166318160ddd6040518163ffffffff1660e01b8152600401602060405180830381865afa158015620015e0573d6000803e3d6000fd5b505050506040513d601f19601f8201168201806040525081019062001606919062005a30565b600c60008673ffffffffffffffffffffffffffffffffffffffff1673ffffffffffffffffffffffffffffffffffffffff16815260200190815260200160002060010182815481106200165d576200165c6200583b565b5b90600052602060002090601e0201601b01546200167b919062005e2f565b600c60008673ffffffffffffffffffffffffffffffffffffffff1673ffffffffffffffffffffffffffffffffffffffff1681526020019081526020016000206001018281548110620016d257620016d16200583b565b5b90600052602060002090601e0201601d01819055505b62001fb3600c60008673ffffffffffffffffffffffffffffffffffffffff1673ffffffffffffffffffffffffffffffffffffffff16815260200190815260200160002060010182815481106200174357620017426200583b565b5b90600052602060002090601e0201604051806101000160405290816000820160009054906101000a900460ff1615151515815260200160018201604051806101600160405290816000820160009054906101000a900473ffffffffffffffffffffffffffffffffffffffff1673ffffffffffffffffffffffffffffffffffffffff1673ffffffffffffffffffffffffffffffffffffffff1681526020016001820160009054906101000a900473ffffffffffffffffffffffffffffffffffffffff1673ffffffffffffffffffffffffffffffffffffffff1673ffffffffffffffffffffffffffffffffffffffff1681526020016002820160009054906101000a900473ffffffffffffffffffffffffffffffffffffffff1673ffffffffffffffffffffffffffffffffffffffff1673ffffffffffffffffffffffffffffffffffffffff1681526020016003820154815260200160048201548152602001600582015481526020016006820160009054906101000a900473ffffffffffffffffffffffffffffffffffffffff1673ffffffffffffffffffffffffffffffffffffffff1673ffffffffffffffffffffffffffffffffffffffff1681526020016007820160009054906101000a900473ffffffffffffffffffffffffffffffffffffffff1673ffffffffffffffffffffffffffffffffffffffff1673ffffffffffffffffffffffffffffffffffffffff1681526020016007820160149054906101000a900460ff161515151581526020016007820160159054906101000a900460ff161515151581526020016007820160169054906101000a900460ff161515151581525050815260200160098201604051806101200160405290816000820160009054906101000a900460ff1615151515815260200160018201604051806101600160405290816000820160009054906101000a900473ffffffffffffffffffffffffffffffffffffffff1673ffffffffffffffffffffffffffffffffffffffff1673ffffffffffffffffffffffffffffffffffffffff1681526020016001820160009054906101000a900473ffffffffffffffffffffffffffffffffffffffff1673ffffffffffffffffffffffffffffffffffffffff1673ffffffffffffffffffffffffffffffffffffffff1681526020016002820160009054906101000a900473ffffffffffffffffffffffffffffffffffffffff1673ffffffffffffffffffffffffffffffffffffffff1673ffffffffffffffffffffffffffffffffffffffff1681526020016003820154815260200160048201548152602001600582015481526020016006820160009054906101000a900473ffffffffffffffffffffffffffffffffffffffff1673ffffffffffffffffffffffffffffffffffffffff1673ffffffffffffffffffffffffffffffffffffffff1681526020016007820160009054906101000a900473ffffffffffffffffffffffffffffffffffffffff1673ffffffffffffffffffffffffffffffffffffffff1673ffffffffffffffffffffffffffffffffffffffff1681526020016007820160149054906101000a900460ff161515151581526020016007820160159054906101000a900460ff161515151581526020016007820160169054906101000a900460ff16151515158152505081526020016009820160009054906101000a900473ffffffffffffffffffffffffffffffffffffffff1673ffffffffffffffffffffffffffffffffffffffff1673ffffffffffffffffffffffffffffffffffffffff168152602001600a8201548152602001600b8201548152602001600c8201548152602001600d8201548152602001600e8201548152602001600f8201548152505081526020016019820160009054906101000a900473ffffffffffffffffffffffffffffffffffffffff1673ffffffffffffffffffffffffffffffffffffffff1673ffffffffffffffffffffffffffffffffffffffff168152602001601a8201548152602001601b8201548152602001601c8201548152602001601d82015481525050600c60008773ffffffffffffffffffffffffffffffffffffffff1673ffffffffffffffffffffffffffffffffffffffff168152602001908152602001600020600101838154811062001d735762001d726200583b565b5b90600052602060002090601e0201600101604051806101600160405290816000820160009054906101000a900473ffffffffffffffffffffffffffffffffffffffff1673ffffffffffffffffffffffffffffffffffffffff1673ffffffffffffffffffffffffffffffffffffffff1681526020016001820160009054906101000a900473ffffffffffffffffffffffffffffffffffffffff1673ffffffffffffffffffffffffffffffffffffffff1673ffffffffffffffffffffffffffffffffffffffff1681526020016002820160009054906101000a900473ffffffffffffffffffffffffffffffffffffffff1673ffffffffffffffffffffffffffffffffffffffff1673ffffffffffffffffffffffffffffffffffffffff1681526020016003820154815260200160048201548152602001600582015481526020016006820160009054906101000a900473ffffffffffffffffffffffffffffffffffffffff1673ffffffffffffffffffffffffffffffffffffffff1673ffffffffffffffffffffffffffffffffffffffff1681526020016007820160009054906101000a900473ffffffffffffffffffffffffffffffffffffffff1673ffffffffffffffffffffffffffffffffffffffff1673ffffffffffffffffffffffffffffffffffffffff1681526020016007820160149054906101000a900460ff161515151581526020016007820160159054906101000a900460ff161515151581526020016007820160169054906101000a900460ff16151515158152505062004c78565b6000600c60008673ffffffffffffffffffffffffffffffffffffffff1673ffffffffffffffffffffffffffffffffffffffff16815260200190815260200160002060010182815481106200200c576200200b6200583b565b5b90600052602060002090601e020160000160006101000a81548160ff02191690831515021790555050505050565b6200204462004d98565b82816040019073ffffffffffffffffffffffffffffffffffffffff16908173ffffffffffffffffffffffffffffffffffffffff16815250503373ffffffffffffffffffffffffffffffffffffffff16816040015173ffffffffffffffffffffffffffffffffffffffff16636352211e846040518263ffffffff1660e01b8152600401620020d2919062005e67565b602060405180830381865afa158015620020f0573d6000803e3d6000fd5b505050506040513d601f19601f8201168201806040525081019062002116919062005e84565b73ffffffffffffffffffffffffffffffffffffffff16146200216f576040517f08c379a0000000000000000000000000000000000000000000000000000000008152600401620021669062005f06565b60405180910390fd5b60066000815480929190620021849062005a62565b9190505550806040015173ffffffffffffffffffffffffffffffffffffffff166342842e0e3330856040518463ffffffff1660e01b8152600401620021cc9392919062005c70565b600060405180830381600087803b158015620021e757600080fd5b505af1158015620021fc573d6000803e3d6000fd5b5050505082816020019073ffffffffffffffffffffffffffffffffffffffff16908173ffffffffffffffffffffffffffffffffffffffff168152505033816000019073ffffffffffffffffffffffffffffffffffffffff16908173ffffffffffffffffffffffffffffffffffffffff168152505081816080018181525050428160a0018181525050600081610100019015159081151581525050600460003373ffffffffffffffffffffffffffffffffffffffff1673ffffffffffffffffffffffffffffffffffffffff16815260200190815260200160002060000181908060018154018082558091505060019003906000526020600020906008020160009091909190915060008201518160000160006101000a81548173ffffffffffffffffffffffffffffffffffffffff021916908373ffffffffffffffffffffffffffffffffffffffff16021790555060208201518160010160006101000a81548173ffffffffffffffffffffffffffffffffffffffff021916908373ffffffffffffffffffffffffffffffffffffffff16021790555060408201518160020160006101000a81548173ffffffffffffffffffffffffffffffffffffffff021916908373ffffffffffffffffffffffffffffffffffffffff160217905550606082015181600301556080820151816004015560a0820151816005015560c08201518160060160006101000a81548173ffffffffffffffffffffffffffffffffffffffff021916908373ffffffffffffffffffffffffffffffffffffffff16021790555060e08201518160070160006101000a81548173ffffffffffffffffffffffffffffffffffffffff021916908373ffffffffffffffffffffffffffffffffffffffff1602179055506101008201518160070160146101000a81548160ff0219169083151502179055506101208201518160070160156101000a81548160ff0219169083151502179055506101408201518160070160166101000a81548160ff0219169083151502179055505050505050565b6000600c60008473ffffffffffffffffffffffffffffffffffffffff1673ffffffffffffffffffffffffffffffffffffffff16815260200190815260200160002060010180549050905060001515600c60008573ffffffffffffffffffffffffffffffffffffffff1673ffffffffffffffffffffffffffffffffffffffff16815260200190815260200160002060010182815481106200259257620025916200583b565b5b90600052602060002090601e020160000160009054906101000a900460ff16151514620025f6576040517f08c379a0000000000000000000000000000000000000000000000000000000008152600401620025ed9062005f78565b60405180910390fd5b8273ffffffffffffffffffffffffffffffffffffffff166323b872dd3330856040518463ffffffff1660e01b8152600401620026359392919062005c70565b6020604051808303816000875af115801562002655573d6000803e3d6000fd5b505050506040513d601f19601f820116820180604052508101906200267b919062005cc4565b508273ffffffffffffffffffffffffffffffffffffffff166342966c68836040518263ffffffff1660e01b8152600401620026b7919062005e67565b600060405180830381600087803b158015620026d257600080fd5b505af1158015620026e7573d6000803e3d6000fd5b505050503373ffffffffffffffffffffffffffffffffffffffff166108fc83600c60008773ffffffffffffffffffffffffffffffffffffffff1673ffffffffffffffffffffffffffffffffffffffff16815260200190815260200160002060010184815481106200275d576200275c6200583b565b5b90600052602060002090601e0201601d01546200277b919062005f9a565b9081150290604051600060405180830381858888f19350505050158015620027a7573d6000803e3d6000fd5b50505050565b60005b600460003373ffffffffffffffffffffffffffffffffffffffff1673ffffffffffffffffffffffffffffffffffffffff1681526020019081526020016000206000018054905081101562002c22578673ffffffffffffffffffffffffffffffffffffffff16600460003373ffffffffffffffffffffffffffffffffffffffff1673ffffffffffffffffffffffffffffffffffffffff16815260200190815260200160002060000182815481106200286c576200286b6200583b565b5b906000526020600020906008020160010160009054906101000a900473ffffffffffffffffffffffffffffffffffffffff1673ffffffffffffffffffffffffffffffffffffffff1614801562002929575085600460003373ffffffffffffffffffffffffffffffffffffffff1673ffffffffffffffffffffffffffffffffffffffff16815260200190815260200160002060000182815481106200291557620029146200583b565b5b906000526020600020906008020160040154145b8015620029e957503373ffffffffffffffffffffffffffffffffffffffff16600460003373ffffffffffffffffffffffffffffffffffffffff1673ffffffffffffffffffffffffffffffffffffffff16815260200190815260200160002060000182815481106200299f576200299e6200583b565b5b906000526020600020906008020160000160009054906101000a900473ffffffffffffffffffffffffffffffffffffffff1673ffffffffffffffffffffffffffffffffffffffff16145b1562002c0c57600033868686863060405162002a059062004e66565b62002a16969594939291906200607d565b604051809103906000f08015801562002a33573d6000803e3d6000fd5b5090506001600460003373ffffffffffffffffffffffffffffffffffffffff1673ffffffffffffffffffffffffffffffffffffffff168152602001908152602001600020600001838154811062002a8f5762002a8e6200583b565b5b906000526020600020906008020160070160146101000a81548160ff02191690831515021790555080600460003373ffffffffffffffffffffffffffffffffffffffff1673ffffffffffffffffffffffffffffffffffffffff168152602001908152602001600020600001838154811062002b0f5762002b0e6200583b565b5b906000526020600020906008020160070160006101000a81548173ffffffffffffffffffffffffffffffffffffffff021916908373ffffffffffffffffffffffffffffffffffffffff16021790555080600460003373ffffffffffffffffffffffffffffffffffffffff1673ffffffffffffffffffffffffffffffffffffffff168152602001908152602001600020600001838154811062002bb65762002bb56200583b565b5b906000526020600020906008020160060160006101000a81548173ffffffffffffffffffffffffffffffffffffffff021916908373ffffffffffffffffffffffffffffffffffffffff1602179055505062002c22565b808062002c199062005a62565b915050620027b0565b50505050505050565b6001151581610140015115151462002c7a576040517f08c379a000000000000000000000000000000000000000000000000000000000815260040162002c719062006148565b60405180910390fd5b81816000019073ffffffffffffffffffffffffffffffffffffffff16908173ffffffffffffffffffffffffffffffffffffffff1681525050600081610140019015159081151581525050505050565b600082905060005b600460003373ffffffffffffffffffffffffffffffffffffffff1673ffffffffffffffffffffffffffffffffffffffff168152602001908152602001600020600001805490508110156200336f578173ffffffffffffffffffffffffffffffffffffffff16600460003373ffffffffffffffffffffffffffffffffffffffff1673ffffffffffffffffffffffffffffffffffffffff168152602001908152602001600020600001828154811062002d8d5762002d8c6200583b565b5b906000526020600020906008020160020160009054906101000a900473ffffffffffffffffffffffffffffffffffffffff1673ffffffffffffffffffffffffffffffffffffffff1614801562002e4a575082600460003373ffffffffffffffffffffffffffffffffffffffff1673ffffffffffffffffffffffffffffffffffffffff168152602001908152602001600020600001828154811062002e365762002e356200583b565b5b906000526020600020906008020160040154145b156200335957600460003373ffffffffffffffffffffffffffffffffffffffff1673ffffffffffffffffffffffffffffffffffffffff168152602001908152602001600020600001838154811062002ea75762002ea66200583b565b5b906000526020600020906008020160070160159054906101000a900460ff161562002fcd57600460003373ffffffffffffffffffffffffffffffffffffffff1673ffffffffffffffffffffffffffffffffffffffff168152602001908152602001600020600001838154811062002f235762002f226200583b565b5b906000526020600020906008020160020160009054906101000a900473ffffffffffffffffffffffffffffffffffffffff1673ffffffffffffffffffffffffffffffffffffffff166342842e0e3033866040518463ffffffff1660e01b815260040162002f939392919062005c70565b600060405180830381600087803b15801562002fae57600080fd5b505af115801562002fc3573d6000803e3d6000fd5b5050505062003358565b60011515600460003373ffffffffffffffffffffffffffffffffffffffff1673ffffffffffffffffffffffffffffffffffffffff16815260200190815260200160002060000184815481106200302857620030276200583b565b5b906000526020600020906008020160070160149054906101000a900460ff161515148015620032555750600460003373ffffffffffffffffffffffffffffffffffffffff1673ffffffffffffffffffffffffffffffffffffffff1681526020019081526020016000206000018381548110620030a957620030a86200583b565b5b906000526020600020906008020160070160009054906101000a900473ffffffffffffffffffffffffffffffffffffffff1673ffffffffffffffffffffffffffffffffffffffff166318160ddd6040518163ffffffff1660e01b8152600401602060405180830381865afa15801562003126573d6000803e3d6000fd5b505050506040513d601f19601f820116820180604052508101906200314c919062005a30565b600460003373ffffffffffffffffffffffffffffffffffffffff1673ffffffffffffffffffffffffffffffffffffffff1681526020019081526020016000206000018481548110620031a357620031a26200583b565b5b906000526020600020906008020160070160009054906101000a900473ffffffffffffffffffffffffffffffffffffffff1673ffffffffffffffffffffffffffffffffffffffff166370a08231336040518263ffffffff1660e01b81526004016200320f9190620059fc565b602060405180830381865afa1580156200322d573d6000803e3d6000fd5b505050506040513d601f19601f8201168201806040525081019062003253919062005a30565b145b156200335757600460003373ffffffffffffffffffffffffffffffffffffffff1673ffffffffffffffffffffffffffffffffffffffff1681526020019081526020016000206000018381548110620032b257620032b16200583b565b5b906000526020600020906008020160020160009054906101000a900473ffffffffffffffffffffffffffffffffffffffff1673ffffffffffffffffffffffffffffffffffffffff166342842e0e3033866040518463ffffffff1660e01b8152600401620033229392919062005c70565b600060405180830381600087803b1580156200333d57600080fd5b505af115801562003352573d6000803e3d6000fd5b505050505b5b5b8080620033669062005a62565b91505062002cd1565b50505050565b60008360e0015190506000600c60008373ffffffffffffffffffffffffffffffffffffffff1673ffffffffffffffffffffffffffffffffffffffff1681526020019081526020016000206000018054905090506000600c60008473ffffffffffffffffffffffffffffffffffffffff1673ffffffffffffffffffffffffffffffffffffffff1681526020019081526020016000206001018054905090506000600c60008573ffffffffffffffffffffffffffffffffffffffff1673ffffffffffffffffffffffffffffffffffffffff16815260200190815260200160002060000183815481106200346b576200346a6200583b565b5b9060005260206000209060100201600a0154905060011515600c60008673ffffffffffffffffffffffffffffffffffffffff1673ffffffffffffffffffffffffffffffffffffffff1681526020019081526020016000206000018481548110620034da57620034d96200583b565b5b906000526020600020906010020160000160009054906101000a900460ff161515146200353e576040517f08c379a0000000000000000000000000000000000000000000000000000000008152600401620035359062005d46565b60405180910390fd5b60001515600860003373ffffffffffffffffffffffffffffffffffffffff1673ffffffffffffffffffffffffffffffffffffffff168152602001908152602001600020600083815260200190815260200160002060009054906101000a900460ff16151514620035e5576040517f08c379a0000000000000000000000000000000000000000000000000000000008152600401620035dc90620061ba565b60405180910390fd5b600c60008573ffffffffffffffffffffffffffffffffffffffff1673ffffffffffffffffffffffffffffffffffffffff16815260200190815260200160002060000183815481106200363c576200363b6200583b565b5b9060005260206000209060100201600f01544210156200401a57620036ed600c60008673ffffffffffffffffffffffffffffffffffffffff1673ffffffffffffffffffffffffffffffffffffffff1681526020019081526020016000206000018481548110620036b157620036b06200583b565b5b906000526020600020906010020160010160070160009054906101000a900473ffffffffffffffffffffffffffffffffffffffff168662000d52565b6001600860003373ffffffffffffffffffffffffffffffffffffffff1673ffffffffffffffffffffffffffffffffffffffff168152602001908152602001600020600083815260200190815260200160002060006101000a81548160ff02191690831515021790555085600960003373ffffffffffffffffffffffffffffffffffffffff1673ffffffffffffffffffffffffffffffffffffffff168152602001908152602001600020600083815260200190815260200160002060006101000a81548160ff02191690831515021790555084600c60008673ffffffffffffffffffffffffffffffffffffffff1673ffffffffffffffffffffffffffffffffffffffff16815260200190815260200160002060000184815481106200381657620038156200583b565b5b9060005260206000209060100201600c0160008282546200383891906200598e565b925050819055506001151586151503620038d35784600c60008673ffffffffffffffffffffffffffffffffffffffff1673ffffffffffffffffffffffffffffffffffffffff1681526020019081526020016000206000018481548110620038a457620038a36200583b565b5b9060005260206000209060100201600d016000828254620038c691906200598e565b9250508190555062003955565b84600c60008673ffffffffffffffffffffffffffffffffffffffff1673ffffffffffffffffffffffffffffffffffffffff16815260200190815260200160002060000184815481106200392b576200392a6200583b565b5b9060005260206000209060100201600e0160008282546200394d91906200598e565b925050819055505b6001546064600c60008773ffffffffffffffffffffffffffffffffffffffff1673ffffffffffffffffffffffffffffffffffffffff1681526020019081526020016000206000018581548110620039b157620039b06200583b565b5b9060005260206000209060100201600d01548960600151620039d4919062005f9a565b620039e0919062005e2f565b1062003dc8576000600c60008673ffffffffffffffffffffffffffffffffffffffff1673ffffffffffffffffffffffffffffffffffffffff168152602001908152602001600020600001848154811062003a3f5762003a3e6200583b565b5b906000526020600020906010020160000160006101000a81548160ff02191690831515021790555062003dc284600c60008773ffffffffffffffffffffffffffffffffffffffff1673ffffffffffffffffffffffffffffffffffffffff168152602001908152602001600020600001858154811062003ac35762003ac26200583b565b5b9060005260206000209060100201604051806101200160405290816000820160009054906101000a900460ff1615151515815260200160018201604051806101600160405290816000820160009054906101000a900473ffffffffffffffffffffffffffffffffffffffff1673ffffffffffffffffffffffffffffffffffffffff1673ffffffffffffffffffffffffffffffffffffffff1681526020016001820160009054906101000a900473ffffffffffffffffffffffffffffffffffffffff1673ffffffffffffffffffffffffffffffffffffffff1673ffffffffffffffffffffffffffffffffffffffff1681526020016002820160009054906101000a900473ffffffffffffffffffffffffffffffffffffffff1673ffffffffffffffffffffffffffffffffffffffff1673ffffffffffffffffffffffffffffffffffffffff1681526020016003820154815260200160048201548152602001600582015481526020016006820160009054906101000a900473ffffffffffffffffffffffffffffffffffffffff1673ffffffffffffffffffffffffffffffffffffffff1673ffffffffffffffffffffffffffffffffffffffff1681526020016007820160009054906101000a900473ffffffffffffffffffffffffffffffffffffffff1673ffffffffffffffffffffffffffffffffffffffff1673ffffffffffffffffffffffffffffffffffffffff1681526020016007820160149054906101000a900460ff161515151581526020016007820160159054906101000a900460ff161515151581526020016007820160169054906101000a900460ff16151515158152505081526020016009820160009054906101000a900473ffffffffffffffffffffffffffffffffffffffff1673ffffffffffffffffffffffffffffffffffffffff1673ffffffffffffffffffffffffffffffffffffffff168152602001600a8201548152602001600b8201548152602001600c8201548152602001600d8201548152602001600e8201548152602001600f820154815250506200428d565b62004014565b6001546064600c60008773ffffffffffffffffffffffffffffffffffffffff1673ffffffffffffffffffffffffffffffffffffffff168152602001908152602001600020600001858154811062003e245762003e236200583b565b5b9060005260206000209060100201600e0154896060015162003e47919062005f9a565b62003e53919062005e2f565b1062004013576000600c60008673ffffffffffffffffffffffffffffffffffffffff1673ffffffffffffffffffffffffffffffffffffffff168152602001908152602001600020600001848154811062003eb25762003eb16200583b565b5b906000526020600020906010020160000160006101000a81548160ff021916908315150217905550600c60008573ffffffffffffffffffffffffffffffffffffffff1673ffffffffffffffffffffffffffffffffffffffff168152602001908152602001600020600001838154811062003f315762003f306200583b565b5b906000526020600020906010020160090160009054906101000a900473ffffffffffffffffffffffffffffffffffffffff1673ffffffffffffffffffffffffffffffffffffffff166108fc600c60008773ffffffffffffffffffffffffffffffffffffffff1673ffffffffffffffffffffffffffffffffffffffff168152602001908152602001600020600001858154811062003fd35762003fd26200583b565b5b9060005260206000209060100201600b01549081150290604051600060405180830381858888f1935050505015801562004011573d6000803e3d6000fd5b505b5b6200411f565b60011515600c60008673ffffffffffffffffffffffffffffffffffffffff1673ffffffffffffffffffffffffffffffffffffffff16815260200190815260200160002060000184815481106200407557620040746200583b565b5b906000526020600020906010020160000160009054906101000a900460ff161515036200411e576000600c60008673ffffffffffffffffffffffffffffffffffffffff1673ffffffffffffffffffffffffffffffffffffffff1681526020019081526020016000206000018481548110620040f557620040f46200583b565b5b906000526020600020906010020160000160006101000a81548160ff0219169083151502179055505b5b50505050505050565b80600560003373ffffffffffffffffffffffffffffffffffffffff1673ffffffffffffffffffffffffffffffffffffffff168152602001908152602001600020541115620041ad576040517f08c379a0000000000000000000000000000000000000000000000000000000008152600401620041a49062005c3d565b60405180910390fd5b80600560003373ffffffffffffffffffffffffffffffffffffffff1673ffffffffffffffffffffffffffffffffffffffff1681526020019081526020016000206000828254620041fe9190620061dc565b925050819055508173ffffffffffffffffffffffffffffffffffffffff1663a9059cbb33836040518363ffffffff1660e01b81526004016200424292919062006217565b6020604051808303816000875af115801562004262573d6000803e3d6000fd5b505050506040513d601f19601f8201168201806040525081019062004288919062005cc4565b505050565b60036000815480929190620042a29062005a62565b91905055506000600c60008473ffffffffffffffffffffffffffffffffffffffff1673ffffffffffffffffffffffffffffffffffffffff168152602001908152602001600020600001805490509050620042fb62004e74565b600c60008573ffffffffffffffffffffffffffffffffffffffff1673ffffffffffffffffffffffffffffffffffffffff16815260200190815260200160002060000182815481106200435257620043516200583b565b5b9060005260206000209060100201604051806101200160405290816000820160009054906101000a900460ff1615151515815260200160018201604051806101600160405290816000820160009054906101000a900473ffffffffffffffffffffffffffffffffffffffff1673ffffffffffffffffffffffffffffffffffffffff1673ffffffffffffffffffffffffffffffffffffffff1681526020016001820160009054906101000a900473ffffffffffffffffffffffffffffffffffffffff1673ffffffffffffffffffffffffffffffffffffffff1673ffffffffffffffffffffffffffffffffffffffff1681526020016002820160009054906101000a900473ffffffffffffffffffffffffffffffffffffffff1673ffffffffffffffffffffffffffffffffffffffff1673ffffffffffffffffffffffffffffffffffffffff1681526020016003820154815260200160048201548152602001600582015481526020016006820160009054906101000a900473ffffffffffffffffffffffffffffffffffffffff1673ffffffffffffffffffffffffffffffffffffffff1673ffffffffffffffffffffffffffffffffffffffff1681526020016007820160009054906101000a900473ffffffffffffffffffffffffffffffffffffffff1673ffffffffffffffffffffffffffffffffffffffff1673ffffffffffffffffffffffffffffffffffffffff1681526020016007820160149054906101000a900460ff161515151581526020016007820160159054906101000a900460ff161515151581526020016007820160169054906101000a900460ff16151515158152505081526020016009820160009054906101000a900473ffffffffffffffffffffffffffffffffffffffff1673ffffffffffffffffffffffffffffffffffffffff1673ffffffffffffffffffffffffffffffffffffffff168152602001600a8201548152602001600b8201548152602001600c8201548152602001600d8201548152602001600e8201548152602001600f820154815250508160400181905250600054426200466391906200598e565b8160c00181815250508060400151608001518160a0018181525050806040015160400151816060019073ffffffffffffffffffffffffffffffffffffffff16908173ffffffffffffffffffffffffffffffffffffffff1681525050600181600001901515908115158152505082602001518160200181905250600354816080018181525050600c60008573ffffffffffffffffffffffffffffffffffffffff1673ffffffffffffffffffffffffffffffffffffffff1681526020019081526020016000206001018190806001815401808255809150506001900390600052602060002090601e020160009091909190915060008201518160000160006101000a81548160ff02191690831515021790555060208201518160010160008201518160000160006101000a81548173ffffffffffffffffffffffffffffffffffffffff021916908373ffffffffffffffffffffffffffffffffffffffff16021790555060208201518160010160006101000a81548173ffffffffffffffffffffffffffffffffffffffff021916908373ffffffffffffffffffffffffffffffffffffffff16021790555060408201518160020160006101000a81548173ffffffffffffffffffffffffffffffffffffffff021916908373ffffffffffffffffffffffffffffffffffffffff160217905550606082015181600301556080820151816004015560a0820151816005015560c08201518160060160006101000a81548173ffffffffffffffffffffffffffffffffffffffff021916908373ffffffffffffffffffffffffffffffffffffffff16021790555060e08201518160070160006101000a81548173ffffffffffffffffffffffffffffffffffffffff021916908373ffffffffffffffffffffffffffffffffffffffff1602179055506101008201518160070160146101000a81548160ff0219169083151502179055506101208201518160070160156101000a81548160ff0219169083151502179055506101408201518160070160166101000a81548160ff021916908315150217905550505060408201518160090160008201518160000160006101000a81548160ff02191690831515021790555060208201518160010160008201518160000160006101000a81548173ffffffffffffffffffffffffffffffffffffffff021916908373ffffffffffffffffffffffffffffffffffffffff16021790555060208201518160010160006101000a81548173ffffffffffffffffffffffffffffffffffffffff021916908373ffffffffffffffffffffffffffffffffffffffff16021790555060408201518160020160006101000a81548173ffffffffffffffffffffffffffffffffffffffff021916908373ffffffffffffffffffffffffffffffffffffffff160217905550606082015181600301556080820151816004015560a0820151816005015560c08201518160060160006101000a81548173ffffffffffffffffffffffffffffffffffffffff021916908373ffffffffffffffffffffffffffffffffffffffff16021790555060e08201518160070160006101000a81548173ffffffffffffffffffffffffffffffffffffffff021916908373ffffffffffffffffffffffffffffffffffffffff1602179055506101008201518160070160146101000a81548160ff0219169083151502179055506101208201518160070160156101000a81548160ff0219169083151502179055506101408201518160070160166101000a81548160ff021916908315150217905550505060408201518160090160006101000a81548173ffffffffffffffffffffffffffffffffffffffff021916908373ffffffffffffffffffffffffffffffffffffffff160217905550606082015181600a0155608082015181600b015560a082015181600c015560c082015181600d015560e082015181600e015561010082015181600f0155505060608201518160190160006101000a81548173ffffffffffffffffffffffffffffffffffffffff021916908373ffffffffffffffffffffffffffffffffffffffff160217905550608082015181601a015560a082015181601b015560c082015181601c015560e082015181601d0155505050505050565b60018161014001901515908115158152505062004c9f816000015183606001518362002c2b565b6000816101400190151590811515815250508060e0015173ffffffffffffffffffffffffffffffffffffffff16637650122183606001516040518263ffffffff1660e01b815260040162004cf49190620059fc565b600060405180830381600087803b15801562004d0f57600080fd5b505af115801562004d24573d6000803e3d6000fd5b505050505050565b60405180610120016040528060001515815260200162004d4b62004d98565b8152602001600073ffffffffffffffffffffffffffffffffffffffff1681526020016000815260200160008152602001600081526020016000815260200160008152602001600081525090565b604051806101600160405280600073ffffffffffffffffffffffffffffffffffffffff168152602001600073ffffffffffffffffffffffffffffffffffffffff168152602001600073ffffffffffffffffffffffffffffffffffffffff168152602001600081526020016000815260200160008152602001600073ffffffffffffffffffffffffffffffffffffffff168152602001600073ffffffffffffffffffffffffffffffffffffffff1681526020016000151581526020016000151581526020016000151581525090565b612618806200624583390190565b60405180610100016040528060001515815260200162004e9362004d98565b815260200162004ea262004d2c565b8152602001600073ffffffffffffffffffffffffffffffffffffffff168152602001600081526020016000815260200160008152602001600081525090565b6000604051905090565b600080fd5b600080fd5b600073ffffffffffffffffffffffffffffffffffffffff82169050919050565b600062004f228262004ef5565b9050919050565b600062004f368262004f15565b9050919050565b62004f488162004f29565b811462004f5457600080fd5b50565b60008135905062004f688162004f3d565b92915050565b600080fd5b6000601f19601f8301169050919050565b7f4e487b7100000000000000000000000000000000000000000000000000000000600052604160045260246000fd5b62004fbe8262004f73565b810181811067ffffffffffffffff8211171562004fe05762004fdf62004f84565b5b80604052505050565b600062004ff562004ee1565b905062005003828262004fb3565b919050565b620050138162004f15565b81146200501f57600080fd5b50565b600081359050620050338162005008565b92915050565b6000620050468262004f15565b9050919050565b620050588162005039565b81146200506457600080fd5b50565b60008135905062005078816200504d565b92915050565b6000819050919050565b62005093816200507e565b81146200509f57600080fd5b50565b600081359050620050b38162005088565b92915050565b60008115159050919050565b620050d081620050b9565b8114620050dc57600080fd5b50565b600081359050620050f081620050c5565b92915050565b6000610160828403121562005110576200510f62004f6e565b5b6200511d61016062004fe9565b905060006200512f8482850162005022565b6000830152506020620051458482850162005022565b60208301525060406200515b8482850162005067565b60408301525060606200517184828501620050a2565b60608301525060806200518784828501620050a2565b60808301525060a06200519d84828501620050a2565b60a08301525060c0620051b38482850162005022565b60c08301525060e0620051c98482850162004f57565b60e083015250610100620051e084828501620050df565b61010083015250610120620051f884828501620050df565b610120830152506101406200521084828501620050df565b6101408301525092915050565b600080610180838503121562005238576200523762004eeb565b5b6000620052488582860162004f57565b92505060206200525b85828601620050f6565b9150509250929050565b600080fd5b600080fd5b600080fd5b60008083601f8401126200528d576200528c62005265565b5b8235905067ffffffffffffffff811115620052ad57620052ac6200526a565b5b602083019150836001820283011115620052cc57620052cb6200526f565b5b9250929050565b600080600080600060808688031215620052f257620052f162004eeb565b5b6000620053028882890162005022565b9550506020620053158882890162005022565b94505060406200532888828901620050a2565b935050606086013567ffffffffffffffff8111156200534c576200534b62004ef0565b5b6200535a8882890162005274565b92509250509295509295909350565b60007fffffffff0000000000000000000000000000000000000000000000000000000082169050919050565b620053a08162005369565b82525050565b6000602082019050620053bd600083018462005395565b92915050565b60008060408385031215620053dd57620053dc62004eeb565b5b6000620053ed8582860162005022565b92505060206200540085828601620050a2565b9150509250929050565b6000806040838503121562005424576200542362004eeb565b5b6000620054348582860162004f57565b92505060206200544785828601620050a2565b9150509250929050565b600080604083850312156200546b576200546a62004eeb565b5b60006200547b8582860162004f57565b92505060206200548e85828601620050df565b9150509250929050565b600080fd5b600067ffffffffffffffff821115620054bb57620054ba62004f84565b5b620054c68262004f73565b9050602081019050919050565b82818337600083830152505050565b6000620054f9620054f3846200549d565b62004fe9565b90508281526020810184848401111562005518576200551762005498565b5b62005525848285620054d3565b509392505050565b600082601f83011262005545576200554462005265565b5b813562005557848260208601620054e2565b91505092915050565b60008060008060008060c0878903121562005580576200557f62004eeb565b5b60006200559089828a0162005022565b9650506020620055a389828a01620050a2565b9550506040620055b689828a01620050a2565b9450506060620055c989828a01620050a2565b935050608087013567ffffffffffffffff811115620055ed57620055ec62004ef0565b5b620055fb89828a016200552d565b92505060a087013567ffffffffffffffff8111156200561f576200561e62004ef0565b5b6200562d89828a016200552d565b9150509295509295509295565b60008060006101a0848603121562005657576200565662004eeb565b5b6000620056678682870162005022565b93505060206200567a8682870162005022565b92505060406200568d86828701620050f6565b9150509250925092565b60008060006101a08486031215620056b457620056b362004eeb565b5b6000620056c486828701620050f6565b935050610160620056d886828701620050df565b925050610180620056ec86828701620050a2565b9150509250925092565b6000610260828403121562005710576200570f62004f6e565b5b6200571d61012062004fe9565b905060006200572f84828501620050df565b60008301525060206200574584828501620050f6565b6020830152506101806200575c8482850162005022565b6040830152506101a06200577384828501620050a2565b6060830152506101c06200578a84828501620050a2565b6080830152506101e0620057a184828501620050a2565b60a083015250610200620057b884828501620050a2565b60c083015250610220620057cf84828501620050a2565b60e083015250610240620057e684828501620050a2565b6101008301525092915050565b60008061028083850312156200580e576200580d62004eeb565b5b60006200581e8582860162004f57565b92505060206200583185828601620056f6565b9150509250929050565b7f4e487b7100000000000000000000000000000000000000000000000000000000600052603260045260246000fd5b600082825260208201905092915050565b7f546f6b656e20616c726561647920696e2070726f706f73616c00000000000000600082015250565b6000620058b36019836200586a565b9150620058c0826200587b565b602082019050919050565b60006020820190508181036000830152620058e681620058a4565b9050919050565b7f546f6b656e20616c726561647920696e2061756374696f6e0000000000000000600082015250565b6000620059256018836200586a565b91506200593282620058ed565b602082019050919050565b60006020820190508181036000830152620059588162005916565b9050919050565b7f4e487b7100000000000000000000000000000000000000000000000000000000600052601160045260246000fd5b60006200599b826200507e565b9150620059a8836200507e565b9250827fffffffffffffffffffffffffffffffffffffffffffffffffffffffffffffffff03821115620059e057620059df6200595f565b5b828201905092915050565b620059f68162004f15565b82525050565b600060208201905062005a136000830184620059eb565b92915050565b60008151905062005a2a8162005088565b92915050565b60006020828403121562005a495762005a4862004eeb565b5b600062005a598482850162005a19565b91505092915050565b600062005a6f826200507e565b91507fffffffffffffffffffffffffffffffffffffffffffffffffffffffffffffffff820362005aa45762005aa36200595f565b5b600182019050919050565b600067ffffffffffffffff82111562005acd5762005acc62004f84565b5b602082029050602081019050919050565b60008151905062005aef8162005008565b92915050565b600062005b0c62005b068462005aaf565b62004fe9565b9050808382526020820190506020840283018581111562005b325762005b316200526f565b5b835b8181101562005b5f578062005b4a888262005ade565b84526020840193505060208101905062005b34565b5050509392505050565b600082601f83011262005b815762005b8062005265565b5b815162005b9384826020860162005af5565b91505092915050565b60006020828403121562005bb55762005bb462004eeb565b5b600082015167ffffffffffffffff81111562005bd65762005bd562004ef0565b5b62005be48482850162005b69565b91505092915050565b7f796f7520646f6e74206861766520656e6f75676820746f6b656e730000000000600082015250565b600062005c25601b836200586a565b915062005c328262005bed565b602082019050919050565b6000602082019050818103600083015262005c588162005c16565b9050919050565b62005c6a816200507e565b82525050565b600060608201905062005c876000830186620059eb565b62005c966020830185620059eb565b62005ca5604083018462005c5f565b949350505050565b60008151905062005cbe81620050c5565b92915050565b60006020828403121562005cdd5762005cdc62004eeb565b5b600062005ced8482850162005cad565b91505092915050565b7f70726f706f73616c206973206e6f742061637469766500000000000000000000600082015250565b600062005d2e6016836200586a565b915062005d3b8262005cf6565b602082019050919050565b6000602082019050818103600083015262005d618162005d1f565b9050919050565b7f7468697320746f6b656e206e6565647320746f206c656176652074686520707260008201527f6f706f73616c2066697273740000000000000000000000000000000000000000602082015250565b600062005dc6602c836200586a565b915062005dd38262005d68565b604082019050919050565b6000602082019050818103600083015262005df98162005db7565b9050919050565b7f4e487b7100000000000000000000000000000000000000000000000000000000600052601260045260246000fd5b600062005e3c826200507e565b915062005e49836200507e565b92508262005e5c5762005e5b62005e00565b5b828204905092915050565b600060208201905062005e7e600083018462005c5f565b92915050565b60006020828403121562005e9d5762005e9c62004eeb565b5b600062005ead8482850162005ade565b91505092915050565b7f596f7520646f206e6f74206f776e2074686973204e4654000000000000000000600082015250565b600062005eee6017836200586a565b915062005efb8262005eb6565b602082019050919050565b6000602082019050818103600083015262005f218162005edf565b9050919050565b7f61756374696f6e207374696c6c20616374697665000000000000000000000000600082015250565b600062005f606014836200586a565b915062005f6d8262005f28565b602082019050919050565b6000602082019050818103600083015262005f938162005f51565b9050919050565b600062005fa7826200507e565b915062005fb4836200507e565b9250817fffffffffffffffffffffffffffffffffffffffffffffffffffffffffffffffff048311821515161562005ff05762005fef6200595f565b5b828202905092915050565b600081519050919050565b60005b838110156200602657808201518184015260208101905062006009565b8381111562006036576000848401525b50505050565b6000620060498262005ffb565b6200605581856200586a565b93506200606781856020860162006006565b620060728162004f73565b840191505092915050565b600060c082019050620060946000830189620059eb565b620060a3602083018862005c5f565b620060b2604083018762005c5f565b8181036060830152620060c681866200603c565b90508181036080830152620060dc81856200603c565b9050620060ed60a0830184620059eb565b979650505050505050565b7f4e4654206973206e6f74206368616e67696e67206f776e657273686970000000600082015250565b600062006130601d836200586a565b91506200613d82620060f8565b602082019050919050565b60006020820190508181036000830152620061638162006121565b9050919050565b7f7468697320757365722068617320616c726561647920766f7465640000000000600082015250565b6000620061a2601b836200586a565b9150620061af826200616a565b602082019050919050565b60006020820190508181036000830152620061d58162006193565b9050919050565b6000620061e9826200507e565b9150620061f6836200507e565b9250828210156200620c576200620b6200595f565b5b828203905092915050565b60006040820190506200622e6000830185620059eb565b6200623d602083018462005c5f565b939250505056fe60806040523480156200001157600080fd5b506040516200261838038062002618833981810160405281019062000037919062000583565b828281600390805190602001906200005192919062000296565b5080600490805190602001906200006a92919062000296565b50505085600560006101000a81548173ffffffffffffffffffffffffffffffffffffffff021916908373ffffffffffffffffffffffffffffffffffffffff16021790555084600781905550620000c786856200011460201b60201c565b80600660006101000a81548173ffffffffffffffffffffffffffffffffffffffff021916908373ffffffffffffffffffffffffffffffffffffffff160217905550505050505050620007fe565b600073ffffffffffffffffffffffffffffffffffffffff168273ffffffffffffffffffffffffffffffffffffffff160362000186576040517f08c379a00000000000000000000000000000000000000000000000000000000081526004016200017d90620006be565b60405180910390fd5b6200019a600083836200028c60201b60201c565b8060026000828254620001ae91906200070f565b92505081905550806000808473ffffffffffffffffffffffffffffffffffffffff1673ffffffffffffffffffffffffffffffffffffffff16815260200190815260200160002060008282546200020591906200070f565b925050819055508173ffffffffffffffffffffffffffffffffffffffff16600073ffffffffffffffffffffffffffffffffffffffff167fddf252ad1be2c89b69c2b068fc378daa952ba7f163c4a11628f55a4df523b3ef836040516200026c91906200077d565b60405180910390a362000288600083836200029160201b60201c565b5050565b505050565b505050565b828054620002a490620007c9565b90600052602060002090601f016020900481019282620002c8576000855562000314565b82601f10620002e357805160ff191683800117855562000314565b8280016001018555821562000314579182015b8281111562000313578251825591602001919060010190620002f6565b5b50905062000323919062000327565b5090565b5b808211156200034257600081600090555060010162000328565b5090565b6000604051905090565b600080fd5b600080fd5b600073ffffffffffffffffffffffffffffffffffffffff82169050919050565b600062000387826200035a565b9050919050565b62000399816200037a565b8114620003a557600080fd5b50565b600081519050620003b9816200038e565b92915050565b6000819050919050565b620003d481620003bf565b8114620003e057600080fd5b50565b600081519050620003f481620003c9565b92915050565b600080fd5b600080fd5b6000601f19601f8301169050919050565b7f4e487b7100000000000000000000000000000000000000000000000000000000600052604160045260246000fd5b6200044f8262000404565b810181811067ffffffffffffffff8211171562000471576200047062000415565b5b80604052505050565b60006200048662000346565b905062000494828262000444565b919050565b600067ffffffffffffffff821115620004b757620004b662000415565b5b620004c28262000404565b9050602081019050919050565b60005b83811015620004ef578082015181840152602081019050620004d2565b83811115620004ff576000848401525b50505050565b60006200051c620005168462000499565b6200047a565b9050828152602081018484840111156200053b576200053a620003ff565b5b62000548848285620004cf565b509392505050565b600082601f830112620005685762000567620003fa565b5b81516200057a84826020860162000505565b91505092915050565b60008060008060008060c08789031215620005a357620005a262000350565b5b6000620005b389828a01620003a8565b9650506020620005c689828a01620003e3565b9550506040620005d989828a01620003e3565b945050606087015167ffffffffffffffff811115620005fd57620005fc62000355565b5b6200060b89828a0162000550565b935050608087015167ffffffffffffffff8111156200062f576200062e62000355565b5b6200063d89828a0162000550565b92505060a06200065089828a01620003a8565b9150509295509295509295565b600082825260208201905092915050565b7f45524332303a206d696e7420746f20746865207a65726f206164647265737300600082015250565b6000620006a6601f836200065d565b9150620006b3826200066e565b602082019050919050565b60006020820190508181036000830152620006d98162000697565b9050919050565b7f4e487b7100000000000000000000000000000000000000000000000000000000600052601160045260246000fd5b60006200071c82620003bf565b91506200072983620003bf565b9250827fffffffffffffffffffffffffffffffffffffffffffffffffffffffffffffffff03821115620007615762000760620006e0565b5b828201905092915050565b6200077781620003bf565b82525050565b60006020820190506200079460008301846200076c565b92915050565b7f4e487b7100000000000000000000000000000000000000000000000000000000600052602260045260246000fd5b60006002820490506001821680620007e257607f821691505b602082108103620007f857620007f76200079a565b5b50919050565b611e0a806200080e6000396000f3fe608060405234801561001057600080fd5b50600436106101005760003560e01c8063765012211161009757806395d89b411161006657806395d89b41146102ad578063a457c2d7146102cb578063a9059cbb146102fb578063dd62ed3e1461032b57610100565b8063765012211461023b57806379cc6790146102575780639385e55a1461027357806394ee29d91461028f57610100565b8063313ce567116100d3578063313ce567146101a157806339509351146101bf57806342966c68146101ef57806370a082311461020b57610100565b806306fdde0314610105578063095ea7b31461012357806318160ddd1461015357806323b872dd14610171575b600080fd5b61010d61035b565b60405161011a919061129d565b60405180910390f35b61013d60048036038101906101389190611358565b6103ed565b60405161014a91906113b3565b60405180910390f35b61015b610410565b60405161016891906113dd565b60405180910390f35b61018b600480360381019061018691906113f8565b61041a565b60405161019891906113b3565b60405180910390f35b6101a96104b0565b6040516101b69190611467565b60405180910390f35b6101d960048036038101906101d49190611358565b6104b9565b6040516101e691906113b3565b60405180910390f35b61020960048036038101906102049190611482565b6104f0565b005b610225600480360381019061022091906114af565b610504565b60405161023291906113dd565b60405180910390f35b610255600480360381019061025091906114af565b61054c565b005b610271600480360381019061026c9190611358565b610620565b005b61028d600480360381019061028891906114dc565b610640565b005b6102976108a0565b6040516102a491906115da565b60405180910390f35b6102b561092e565b6040516102c2919061129d565b60405180910390f35b6102e560048036038101906102e09190611358565b6109c0565b6040516102f291906113b3565b60405180910390f35b61031560048036038101906103109190611358565b610a37565b60405161032291906113b3565b60405180910390f35b610345600480360381019061034091906114dc565b610ac1565b60405161035291906113dd565b60405180910390f35b60606003805461036a9061162b565b80601f01602080910402602001604051908101604052809291908181526020018280546103969061162b565b80156103e35780601f106103b8576101008083540402835291602001916103e3565b820191906000526020600020905b8154815290600101906020018083116103c657829003601f168201915b5050505050905090565b6000806103f8610b48565b9050610405818585610b50565b600191505092915050565b6000600254905090565b600080610425610b48565b9050610432858285610d19565b6000606460075485610444919061168b565b61044e9190611714565b90506000818561045e9190611745565b905061048d87600560009054906101000a900473ffffffffffffffffffffffffffffffffffffffff1684610da5565b610498878783610da5565b6104a28688610640565b600193505050509392505050565b60006012905090565b6000806104c4610b48565b90506104e58185856104d68589610ac1565b6104e09190611779565b610b50565b600191505092915050565b6105016104fb610b48565b82611024565b50565b60008060008373ffffffffffffffffffffffffffffffffffffffff1673ffffffffffffffffffffffffffffffffffffffff168152602001908152602001600020549050919050565b600660009054906101000a900473ffffffffffffffffffffffffffffffffffffffff1673ffffffffffffffffffffffffffffffffffffffff163373ffffffffffffffffffffffffffffffffffffffff16146105dc576040517f08c379a00000000000000000000000000000000000000000000000000000000081526004016105d390611841565b60405180910390fd5b80600560006101000a81548173ffffffffffffffffffffffffffffffffffffffff021916908373ffffffffffffffffffffffffffffffffffffffff16021790555050565b6106328261062c610b48565b83610d19565b61063c8282611024565b5050565b6009829080600181540180825580915050600190039060005260206000200160009091909190916101000a81548173ffffffffffffffffffffffffffffffffffffffff021916908373ffffffffffffffffffffffffffffffffffffffff1602179055506001600a60008473ffffffffffffffffffffffffffffffffffffffff1673ffffffffffffffffffffffffffffffffffffffff16815260200190815260200160002060006101000a81548160ff02191690831515021790555060011515600a60008373ffffffffffffffffffffffffffffffffffffffff1673ffffffffffffffffffffffffffffffffffffffff16815260200190815260200160002060009054906101000a900460ff1615151480156107635750600061076182610504565b145b1561089c5760005b60098054905081101561089a578173ffffffffffffffffffffffffffffffffffffffff16600982815481106107a3576107a2611861565b5b9060005260206000200160009054906101000a900473ffffffffffffffffffffffffffffffffffffffff1673ffffffffffffffffffffffffffffffffffffffff160361088757600981815481106107fd576107fc611861565b5b9060005260206000200160006101000a81549073ffffffffffffffffffffffffffffffffffffffff02191690556000600a60008473ffffffffffffffffffffffffffffffffffffffff1673ffffffffffffffffffffffffffffffffffffffff16815260200190815260200160002060006101000a81548160ff02191690831515021790555061089a565b808061089290611890565b91505061076b565b505b5050565b6060600980548060200260200160405190810160405280929190818152602001828054801561092457602002820191906000526020600020905b8160009054906101000a900473ffffffffffffffffffffffffffffffffffffffff1673ffffffffffffffffffffffffffffffffffffffff16815260200190600101908083116108da575b5050505050905090565b60606004805461093d9061162b565b80601f01602080910402602001604051908101604052809291908181526020018280546109699061162b565b80156109b65780601f1061098b576101008083540402835291602001916109b6565b820191906000526020600020905b81548152906001019060200180831161099957829003601f168201915b5050505050905090565b6000806109cb610b48565b905060006109d98286610ac1565b905083811015610a1e576040517f08c379a0000000000000000000000000000000000000000000000000000000008152600401610a159061194a565b60405180910390fd5b610a2b8286868403610b50565b60019250505092915050565b600080606460075484610a4a919061168b565b610a549190611714565b905060008184610a649190611745565b90506000610a70610b48565b9050610a9f81600560009054906101000a900473ffffffffffffffffffffffffffffffffffffffff1685610da5565b610aaa818784610da5565b610ab48682610640565b6001935050505092915050565b6000600160008473ffffffffffffffffffffffffffffffffffffffff1673ffffffffffffffffffffffffffffffffffffffff16815260200190815260200160002060008373ffffffffffffffffffffffffffffffffffffffff1673ffffffffffffffffffffffffffffffffffffffff16815260200190815260200160002054905092915050565b600033905090565b600073ffffffffffffffffffffffffffffffffffffffff168373ffffffffffffffffffffffffffffffffffffffff1603610bbf576040517f08c379a0000000000000000000000000000000000000000000000000000000008152600401610bb6906119dc565b60405180910390fd5b600073ffffffffffffffffffffffffffffffffffffffff168273ffffffffffffffffffffffffffffffffffffffff1603610c2e576040517f08c379a0000000000000000000000000000000000000000000000000000000008152600401610c2590611a6e565b60405180910390fd5b80600160008573ffffffffffffffffffffffffffffffffffffffff1673ffffffffffffffffffffffffffffffffffffffff16815260200190815260200160002060008473ffffffffffffffffffffffffffffffffffffffff1673ffffffffffffffffffffffffffffffffffffffff168152602001908152602001600020819055508173ffffffffffffffffffffffffffffffffffffffff168373ffffffffffffffffffffffffffffffffffffffff167f8c5be1e5ebec7d5bd14f71427d1e84f3dd0314c0f7b2291e5b200ac8c7c3b92583604051610d0c91906113dd565b60405180910390a3505050565b6000610d258484610ac1565b90507fffffffffffffffffffffffffffffffffffffffffffffffffffffffffffffffff8114610d9f5781811015610d91576040517f08c379a0000000000000000000000000000000000000000000000000000000008152600401610d8890611ada565b60405180910390fd5b610d9e8484848403610b50565b5b50505050565b600073ffffffffffffffffffffffffffffffffffffffff168373ffffffffffffffffffffffffffffffffffffffff1603610e14576040517f08c379a0000000000000000000000000000000000000000000000000000000008152600401610e0b90611b6c565b60405180910390fd5b600073ffffffffffffffffffffffffffffffffffffffff168273ffffffffffffffffffffffffffffffffffffffff1603610e83576040517f08c379a0000000000000000000000000000000000000000000000000000000008152600401610e7a90611bfe565b60405180910390fd5b610e8e8383836111fa565b60008060008573ffffffffffffffffffffffffffffffffffffffff1673ffffffffffffffffffffffffffffffffffffffff16815260200190815260200160002054905081811015610f14576040517f08c379a0000000000000000000000000000000000000000000000000000000008152600401610f0b90611c90565b60405180910390fd5b8181036000808673ffffffffffffffffffffffffffffffffffffffff1673ffffffffffffffffffffffffffffffffffffffff16815260200190815260200160002081905550816000808573ffffffffffffffffffffffffffffffffffffffff1673ffffffffffffffffffffffffffffffffffffffff1681526020019081526020016000206000828254610fa79190611779565b925050819055508273ffffffffffffffffffffffffffffffffffffffff168473ffffffffffffffffffffffffffffffffffffffff167fddf252ad1be2c89b69c2b068fc378daa952ba7f163c4a11628f55a4df523b3ef8460405161100b91906113dd565b60405180910390a361101e8484846111ff565b50505050565b600073ffffffffffffffffffffffffffffffffffffffff168273ffffffffffffffffffffffffffffffffffffffff1603611093576040517f08c379a000000000000000000000000000000000000000000000000000000000815260040161108a90611d22565b60405180910390fd5b61109f826000836111fa565b60008060008473ffffffffffffffffffffffffffffffffffffffff1673ffffffffffffffffffffffffffffffffffffffff16815260200190815260200160002054905081811015611125576040517f08c379a000000000000000000000000000000000000000000000000000000000815260040161111c90611db4565b60405180910390fd5b8181036000808573ffffffffffffffffffffffffffffffffffffffff1673ffffffffffffffffffffffffffffffffffffffff16815260200190815260200160002081905550816002600082825461117c9190611745565b92505081905550600073ffffffffffffffffffffffffffffffffffffffff168373ffffffffffffffffffffffffffffffffffffffff167fddf252ad1be2c89b69c2b068fc378daa952ba7f163c4a11628f55a4df523b3ef846040516111e191906113dd565b60405180910390a36111f5836000846111ff565b505050565b505050565b505050565b600081519050919050565b600082825260208201905092915050565b60005b8381101561123e578082015181840152602081019050611223565b8381111561124d576000848401525b50505050565b6000601f19601f8301169050919050565b600061126f82611204565b611279818561120f565b9350611289818560208601611220565b61129281611253565b840191505092915050565b600060208201905081810360008301526112b78184611264565b905092915050565b600080fd5b600073ffffffffffffffffffffffffffffffffffffffff82169050919050565b60006112ef826112c4565b9050919050565b6112ff816112e4565b811461130a57600080fd5b50565b60008135905061131c816112f6565b92915050565b6000819050919050565b61133581611322565b811461134057600080fd5b50565b6000813590506113528161132c565b92915050565b6000806040838503121561136f5761136e6112bf565b5b600061137d8582860161130d565b925050602061138e85828601611343565b9150509250929050565b60008115159050919050565b6113ad81611398565b82525050565b60006020820190506113c860008301846113a4565b92915050565b6113d781611322565b82525050565b60006020820190506113f260008301846113ce565b92915050565b600080600060608486031215611411576114106112bf565b5b600061141f8682870161130d565b93505060206114308682870161130d565b925050604061144186828701611343565b9150509250925092565b600060ff82169050919050565b6114618161144b565b82525050565b600060208201905061147c6000830184611458565b92915050565b600060208284031215611498576114976112bf565b5b60006114a684828501611343565b91505092915050565b6000602082840312156114c5576114c46112bf565b5b60006114d38482850161130d565b91505092915050565b600080604083850312156114f3576114f26112bf565b5b60006115018582860161130d565b92505060206115128582860161130d565b9150509250929050565b600081519050919050565b600082825260208201905092915050565b6000819050602082019050919050565b611551816112e4565b82525050565b60006115638383611548565b60208301905092915050565b6000602082019050919050565b60006115878261151c565b6115918185611527565b935061159c83611538565b8060005b838110156115cd5781516115b48882611557565b97506115bf8361156f565b9250506001810190506115a0565b5085935050505092915050565b600060208201905081810360008301526115f4818461157c565b905092915050565b7f4e487b7100000000000000000000000000000000000000000000000000000000600052602260045260246000fd5b6000600282049050600182168061164357607f821691505b602082108103611656576116556115fc565b5b50919050565b7f4e487b7100000000000000000000000000000000000000000000000000000000600052601160045260246000fd5b600061169682611322565b91506116a183611322565b9250817fffffffffffffffffffffffffffffffffffffffffffffffffffffffffffffffff04831182151516156116da576116d961165c565b5b828202905092915050565b7f4e487b7100000000000000000000000000000000000000000000000000000000600052601260045260246000fd5b600061171f82611322565b915061172a83611322565b92508261173a576117396116e5565b5b828204905092915050565b600061175082611322565b915061175b83611322565b92508282101561176e5761176d61165c565b5b828203905092915050565b600061178482611322565b915061178f83611322565b9250827fffffffffffffffffffffffffffffffffffffffffffffffffffffffffffffffff038211156117c4576117c361165c565b5b828201905092915050565b7f4f6e6c79207661756c7420636f6e74726163742063616e20757064617465207460008201527f686973206e6674206f776e657200000000000000000000000000000000000000602082015250565b600061182b602d8361120f565b9150611836826117cf565b604082019050919050565b6000602082019050818103600083015261185a8161181e565b9050919050565b7f4e487b7100000000000000000000000000000000000000000000000000000000600052603260045260246000fd5b600061189b82611322565b91507fffffffffffffffffffffffffffffffffffffffffffffffffffffffffffffffff82036118cd576118cc61165c565b5b600182019050919050565b7f45524332303a2064656372656173656420616c6c6f77616e63652062656c6f7760008201527f207a65726f000000000000000000000000000000000000000000000000000000602082015250565b600061193460258361120f565b915061193f826118d8565b604082019050919050565b6000602082019050818103600083015261196381611927565b9050919050565b7f45524332303a20617070726f76652066726f6d20746865207a65726f2061646460008201527f7265737300000000000000000000000000000000000000000000000000000000602082015250565b60006119c660248361120f565b91506119d18261196a565b604082019050919050565b600060208201905081810360008301526119f5816119b9565b9050919050565b7f45524332303a20617070726f766520746f20746865207a65726f20616464726560008201527f7373000000000000000000000000000000000000000000000000000000000000602082015250565b6000611a5860228361120f565b9150611a63826119fc565b604082019050919050565b60006020820190508181036000830152611a8781611a4b565b9050919050565b7f45524332303a20696e73756666696369656e7420616c6c6f77616e6365000000600082015250565b6000611ac4601d8361120f565b9150611acf82611a8e565b602082019050919050565b60006020820190508181036000830152611af381611ab7565b9050919050565b7f45524332303a207472616e736665722066726f6d20746865207a65726f20616460008201527f6472657373000000000000000000000000000000000000000000000000000000602082015250565b6000611b5660258361120f565b9150611b6182611afa565b604082019050919050565b60006020820190508181036000830152611b8581611b49565b9050919050565b7f45524332303a207472616e7366657220746f20746865207a65726f206164647260008201527f6573730000000000000000000000000000000000000000000000000000000000602082015250565b6000611be860238361120f565b9150611bf382611b8c565b604082019050919050565b60006020820190508181036000830152611c1781611bdb565b9050919050565b7f45524332303a207472616e7366657220616d6f756e742065786365656473206260008201527f616c616e63650000000000000000000000000000000000000000000000000000602082015250565b6000611c7a60268361120f565b9150611c8582611c1e565b604082019050919050565b60006020820190508181036000830152611ca981611c6d565b9050919050565b7f45524332303a206275726e2066726f6d20746865207a65726f2061646472657360008201527f7300000000000000000000000000000000000000000000000000000000000000602082015250565b6000611d0c60218361120f565b9150611d1782611cb0565b604082019050919050565b60006020820190508181036000830152611d3b81611cff565b9050919050565b7f45524332303a206275726e20616d6f756e7420657863656564732062616c616e60008201527f6365000000000000000000000000000000000000000000000000000000000000602082015250565b6000611d9e60228361120f565b9150611da982611d42565b604082019050919050565b60006020820190508181036000830152611dcd81611d91565b905091905056fea26469706673582212203165b306c84b2aea98334a8f82887bd6e2db6d603a0fcea015772fb1854d9ff164736f6c634300080e0033a26469706673582212207c677dd58882a867daa597d1da918b188eb535b67f1690d42828120b54da177664736f6c634300080e0033",
  "immutableReferences": {},
  "source": "pragma solidity 0.8.14;\r\nimport \"@openzeppelin/contracts/token/ERC721/IERC721Receiver.sol\";\r\nimport \"@openzeppelin/contracts/token/ERC721/ERC721.sol\";\r\nimport \"@openzeppelin/contracts/token/ERC721/utils/ERC721Holder.sol\";\r\nimport './FractionToken.sol';\r\n\r\n//import \"@openzeppelin/contracts/token/ERC20/ERC20.sol\";\r\n\r\ncontract MainContract is IERC721Receiver {\r\n    uint DEFAULT_WAIT_TIME = 259200; // 3 days;\r\n    uint DEFAULT_PROPOSAL_TO_PASS = 50; //50%\r\n\r\n    uint currentLastProposalId;\r\n    uint currentLastAuctionId;\r\n\r\n    mapping(address => CurrentDepositedNFTs) nftDeposits;\r\n    mapping(address => uint) tokenBalances;\r\n    uint depositsMade;\r\n    address contractDeployer;\r\n\r\n    constructor() {\r\n        depositsMade = 0;\r\n        contractDeployer = msg.sender;\r\n    }\r\n\r\n    struct NFTDeposit {\r\n        address owner;\r\n        address NFTContractAddress;\r\n        ERC721 NFT;\r\n        uint256 supply;\r\n        uint256 tokenId;\r\n        uint256 depositTimestamp;\r\n        address fractionContractAddress;\r\n        baseFractionToken fractionToken;\r\n        bool hasFractionalised;\r\n        bool canWithdraw;\r\n        bool isChangingOwnership;\r\n    }\r\n\r\n    struct CurrentDepositedNFTs {\r\n        NFTDeposit[] deposits;\r\n    }\r\n\r\n    struct allVotingInfo {\r\n        buyoutProposal[] proposals;\r\n        buyoutAuction[] auctions;\r\n    }\r\n\r\n    struct buyoutProposal {\r\n        \r\n        bool active;\r\n\r\n        NFTDeposit nftDeposit;\r\n\r\n        address proposalInitiator;\r\n\r\n        uint id;\r\n        uint buyoutPriceStart;\r\n        uint totalVoted;\r\n        uint totalAmountAgree;\r\n        uint totalAmountDisagree;\r\n        uint finishTime;\r\n        \r\n    }\r\n    mapping (address => mapping(uint => bool)) hasVotedInProposal;\r\n    mapping (address => mapping(uint  => bool)) voteValueInProposal;\r\n\r\n    struct buyoutAuction {\r\n        bool active;\r\n\r\n        NFTDeposit nftDeposit;\r\n\r\n        buyoutProposal initialProposal;\r\n        \r\n        address currentBidLeader;\r\n\r\n        uint id;\r\n        uint currentBid;\r\n        uint finishTime;\r\n        uint pricePerToken;\r\n    }\r\n\r\n    mapping (address => mapping(uint => bool)) hasVotedInAuction;\r\n    mapping (address => mapping(uint => bool)) voteValueInAuction;\r\n\r\n    mapping(baseFractionToken => allVotingInfo) AllVotingInfo;\r\n    //mapping(address => mapping(ERC20 => uint)) tokenBalances;\r\n\r\n    modifier isProposalOrAuctionNotActive(baseFractionToken token) {\r\n        uint latestProposal = AllVotingInfo[token].proposals.length;\r\n        uint latestAuction = AllVotingInfo[token].auctions.length;\r\n\r\n        require(AllVotingInfo[token].proposals[latestProposal].active == false, \"Token already in proposal\");\r\n        require(AllVotingInfo[token].auctions[latestAuction].active == false, \"Token already in auction\");\r\n        _;\r\n    }\r\n\r\n    modifier contractDeployerOnly {\r\n        require (msg.sender == contractDeployer, \"Only contract deployer can call this function\");\r\n        _;\r\n    }\r\n\r\n\r\n    function stakeTokens(baseFractionToken _tokens, uint _amount) public {\r\n        require(_tokens.balanceOf(msg.sender) <= _amount, \"you dont have enough tokens\");\r\n\r\n        //user needs to approve first\r\n\r\n        _tokens.transferFrom(msg.sender, address(this), _amount);\r\n        tokenBalances[msg.sender] += _amount;\r\n    }\r\n\r\n    function unstakeTokens(baseFractionToken _tokens, uint _amount) public {\r\n        require(tokenBalances[msg.sender] <= _amount, \"you dont have enough tokens\");\r\n\r\n        tokenBalances[msg.sender] -= _amount;\r\n        _tokens.transfer(msg.sender, _amount);\r\n    }\r\n\r\n    function depositNft(address _NFTContractAddress, uint256 _tokenId) public {\r\n\r\n        NFTDeposit memory newInfo;\r\n        newInfo.NFT = ERC721(_NFTContractAddress);\r\n        require(newInfo.NFT.ownerOf(_tokenId) == msg.sender, \"You do not own this NFT\");\r\n\r\n        depositsMade++;\r\n        //can this be reentrency\r\n        newInfo.NFT.safeTransferFrom(msg.sender, address(this), _tokenId);\r\n        newInfo.NFTContractAddress = _NFTContractAddress;\r\n        newInfo.owner = msg.sender;\r\n        newInfo.tokenId = _tokenId;\r\n        newInfo.depositTimestamp = block.timestamp;\r\n        newInfo.hasFractionalised = false;\r\n        nftDeposits[msg.sender].deposits.push(newInfo);\r\n    }\r\n\r\n    function createFraction(\r\n        address _NFTContractAddress,\r\n        uint256 _tokenId,\r\n        uint256 _royaltyPercentage,\r\n        uint256 _supply,\r\n        string memory _tokenName,\r\n        string memory _tokenTicker\r\n    ) public {\r\n        for (uint256 i = 0; i < nftDeposits[msg.sender].deposits.length; i++) {\r\n            //if correct nft to createFraction and we are the owner\r\n            if (nftDeposits[msg.sender].deposits[i].NFTContractAddress ==\r\n                _NFTContractAddress &&\r\n                nftDeposits[msg.sender].deposits[i].tokenId == _tokenId &&\r\n                nftDeposits[msg.sender].deposits[i].owner == msg.sender\r\n            ) {\r\n\r\n                baseFractionToken fractionToken = new baseFractionToken(\r\n                    msg.sender,\r\n                    _royaltyPercentage,\r\n                    _supply,\r\n                    _tokenName,\r\n                    _tokenTicker,\r\n                    address (this)\r\n                );\r\n                nftDeposits[msg.sender].deposits[i].hasFractionalised = true;\r\n                nftDeposits[msg.sender].deposits[i].fractionToken = fractionToken;\r\n                nftDeposits[msg.sender].deposits[i].fractionContractAddress = address(fractionToken);\r\n                break;\r\n            }\r\n        }\r\n    }\r\n\r\n    function withdrawNft(address _NFTContractAddress, uint256 _tokenId) public {\r\n        ERC721 NFTContract = ERC721(_NFTContractAddress);\r\n\r\n        for (uint256 i = 0; i < nftDeposits[msg.sender].deposits.length; i++) {\r\n            if (nftDeposits[msg.sender].deposits[i].NFT == NFTContract && \r\n                nftDeposits[msg.sender].deposits[i].tokenId == _tokenId)\r\n            {\r\n                //was hasFractionalised\r\n                if(nftDeposits[msg.sender].deposits[_tokenId].canWithdraw) {\r\n                    nftDeposits[msg.sender].deposits[_tokenId].NFT.safeTransferFrom(address(this), msg.sender, _tokenId);\r\n                }\r\n\r\n                // if nft owner owns all fractions of NFT\r\n                else if (nftDeposits[msg.sender].deposits[_tokenId].hasFractionalised == true &&\r\n                nftDeposits[msg.sender].deposits[_tokenId].fractionToken.balanceOf(msg.sender) == \r\n                nftDeposits[msg.sender].deposits[_tokenId].fractionToken.totalSupply()) {\r\n                nftDeposits[msg.sender].deposits[_tokenId].NFT.safeTransferFrom(address(this), msg.sender, _tokenId);\r\n                }\r\n            }\r\n        }\r\n    }\r\n\r\n    function updateNftOwner(address _oldOwner, address _newOwner, NFTDeposit memory _nftDeposit) public {\r\n        require(_nftDeposit.isChangingOwnership == true, \"NFT is not changing ownership\");\r\n        _nftDeposit.owner = _newOwner;\r\n        _nftDeposit.isChangingOwnership = false;\r\n    }\r\n\r\n    function buyoutAllTokens(address _NFTContractAddress, uint256 _tokenId) public {\r\n        ERC721 NFTContract = ERC721(_NFTContractAddress);\r\n\r\n       //access tokens\r\n        for (uint256 i = 0; i < nftDeposits[msg.sender].deposits.length; i++) {\r\n            if (nftDeposits[msg.sender].deposits[i].NFT == NFTContract && \r\n                nftDeposits[msg.sender].deposits[i].tokenId == _tokenId) {\r\n\r\n                    baseFractionToken nftFraction = nftDeposits[msg.sender].deposits[i].fractionToken;\r\n                    for (uint j = 0; j < nftFraction.returnTokenOwners().length; j++) {\r\n\r\n                    }\r\n                }\r\n            }\r\n    }\r\n\r\n    function startBuyoutProposal(baseFractionToken _token, NFTDeposit memory _nftDeposit) isProposalOrAuctionNotActive(_token) public payable{\r\n        buyoutProposal memory newProposal; \r\n        \r\n        newProposal.finishTime = block.timestamp + DEFAULT_WAIT_TIME;\r\n        newProposal.buyoutPriceStart = msg.value;\r\n        newProposal.proposalInitiator = msg.sender;\r\n        hasVotedInProposal[msg.sender][currentLastProposalId] = true;\r\n        newProposal.totalAmountAgree = _token.balanceOf(msg.sender);\r\n        newProposal.totalAmountDisagree = 0;\r\n        newProposal.totalVoted = _token.balanceOf(msg.sender);\r\n        newProposal.active = true;\r\n        newProposal.nftDeposit = _nftDeposit;\r\n        newProposal.id = currentLastProposalId; \r\n        AllVotingInfo[_token].proposals.push(newProposal);\r\n        currentLastProposalId++;\r\n    }\r\n\r\n    function voteOnProposal(NFTDeposit memory _NFTDeposit, bool _voteValue, uint _voteAmount) public {\r\n        baseFractionToken Token = _NFTDeposit.fractionToken;\r\n        uint latestProposal = AllVotingInfo[Token].proposals.length;\r\n        uint latestAuction = AllVotingInfo[Token].auctions.length;\r\n\r\n        uint id = AllVotingInfo[Token].proposals[latestProposal].id;\r\n\r\n        require (AllVotingInfo[Token].proposals[latestProposal].active == true, \"proposal is not active\");\r\n        require (hasVotedInProposal[msg.sender][id] == false, \"this user has already voted\");\r\n\r\n       if (block.timestamp < AllVotingInfo[Token].proposals[latestProposal].finishTime) {\r\n           stakeTokens(AllVotingInfo[Token].proposals[latestProposal].nftDeposit.fractionToken, _voteAmount);\r\n           hasVotedInProposal[msg.sender][id] = true;\r\n           voteValueInProposal[msg.sender][id] = _voteValue;\r\n\r\n           AllVotingInfo[Token].proposals[latestProposal].totalVoted += _voteAmount;\r\n\r\n           if (_voteValue == true) {\r\n               AllVotingInfo[Token].proposals[latestProposal].totalAmountAgree += _voteAmount;\r\n           } else {\r\n               AllVotingInfo[Token].proposals[latestProposal].totalAmountDisagree += _voteAmount;\r\n           }\r\n\r\n           // percentage agree\r\n           if(_NFTDeposit.supply * AllVotingInfo[Token].proposals[latestProposal].totalAmountAgree / 100 \r\n               >= DEFAULT_PROPOSAL_TO_PASS) {\r\n               AllVotingInfo[Token].proposals[latestProposal].active = false;\r\n               startBuyoutAuction(Token, AllVotingInfo[Token].proposals[latestProposal]);\r\n           }\r\n           //percentage disagree\r\n           else if (_NFTDeposit.supply * AllVotingInfo[Token].proposals[latestProposal].totalAmountDisagree / 100 \r\n                   >= DEFAULT_PROPOSAL_TO_PASS) {\r\n                   AllVotingInfo[Token].proposals[latestProposal].active = false;\r\n                   payable(AllVotingInfo[Token].proposals[latestProposal].proposalInitiator).transfer(AllVotingInfo[Token].proposals[latestProposal].buyoutPriceStart);\r\n\r\n           }\r\n       } else {\r\n           if (AllVotingInfo[Token].proposals[latestProposal].active == true) {\r\n               AllVotingInfo[Token].proposals[latestProposal].active = false;\r\n           }\r\n       }\r\n    }\r\n\r\n    function startBuyoutAuction(baseFractionToken _token, buyoutProposal memory proposal) public {\r\n        currentLastAuctionId++;\r\n        uint latestProposal = AllVotingInfo[_token].proposals.length;\r\n\r\n        buyoutAuction memory newAuction;\r\n        newAuction.initialProposal = AllVotingInfo[_token].proposals[latestProposal];\r\n        newAuction.finishTime = block.timestamp + DEFAULT_WAIT_TIME;\r\n        newAuction.currentBid = newAuction.initialProposal.buyoutPriceStart;\r\n        newAuction.currentBidLeader = newAuction.initialProposal.proposalInitiator;\r\n        newAuction.active = true;\r\n        newAuction.nftDeposit = proposal.nftDeposit;\r\n        newAuction.id = currentLastAuctionId;\r\n\r\n        AllVotingInfo[_token].auctions.push(newAuction);\r\n    }\r\n\r\n    function bidOnAuction(baseFractionToken _token, bool _voteValue) public payable{\r\n        uint latestProposal = AllVotingInfo[_token].proposals.length;\r\n        uint latestAuction = AllVotingInfo[_token].auctions.length;\r\n\r\n        if (msg.value <= AllVotingInfo[_token].auctions[latestAuction].currentBid) {\r\n            payable(msg.sender).transfer(msg.value);\r\n        } else { \r\n\r\n            if (block.timestamp < AllVotingInfo[_token].auctions[latestAuction].finishTime) { \r\n\r\n            require (AllVotingInfo[_token].auctions[latestAuction].active == true, \"proposal is not active\");\r\n            require (AllVotingInfo[_token].proposals[latestProposal].active == false, \"this token needs to leave the proposal first\");\r\n\r\n            uint oldBid = AllVotingInfo[_token].auctions[latestAuction].currentBid;\r\n            address oldLeader = AllVotingInfo[_token].auctions[latestAuction].currentBidLeader;\r\n            AllVotingInfo[_token].auctions[latestAuction].currentBid = msg.value;\r\n            AllVotingInfo[_token].auctions[latestAuction].currentBidLeader = msg.sender;\r\n            payable(oldLeader).transfer(oldBid);\r\n\r\n            } else if (AllVotingInfo[_token].auctions[latestAuction].active == true) {\r\n                AllVotingInfo[_token].auctions[latestAuction].active == false;\r\n            }\r\n\r\n            AllVotingInfo[_token].auctions[latestAuction].pricePerToken = AllVotingInfo[_token].auctions[latestAuction].currentBid / _token.totalSupply();\r\n            }\r\n\r\n            determineAuctionWinner(AllVotingInfo[_token].auctions[latestAuction], AllVotingInfo[_token].auctions[latestAuction].nftDeposit);\r\n            AllVotingInfo[_token].auctions[latestAuction].active = false; \r\n    }\r\n\r\n    function determineAuctionWinner(buyoutAuction memory _auction, NFTDeposit memory _nftDeposit) private {\r\n        _nftDeposit.isChangingOwnership = true;\r\n        updateNftOwner(_nftDeposit.owner, _auction.currentBidLeader, _nftDeposit);\r\n        _nftDeposit.isChangingOwnership = false;\r\n\r\n        _nftDeposit.fractionToken.updateNFTOwner(_auction.currentBidLeader);\r\n    }\r\n\r\n    //add non reentract modifier\r\n    function claimFromBuyoutTokens(baseFractionToken _token, uint _amount) public  {\r\n        uint latestAuction = AllVotingInfo[_token].auctions.length;\r\n\r\n        require(AllVotingInfo[_token].auctions[latestAuction].active == false, \"auction still active\");\r\n\r\n        _token.transferFrom(msg.sender, address(this), _amount);\r\n        _token.burn(_amount);\r\n        payable(msg.sender).transfer(AllVotingInfo[_token].auctions[latestAuction].pricePerToken * _amount);\r\n    }\r\n\r\n    function onERC721Received(\r\n        address,\r\n        address from,\r\n        uint256,\r\n        bytes calldata\r\n    ) external pure override returns (bytes4) {\r\n        // require(from == address(), \"Cannot send nfts to Vault dirrectly\");\r\n\r\n        return IERC721Receiver.onERC721Received.selector;\r\n    }\r\n}\r\n",
  "sourcePath": "D:\\Libraries\\Desktop\\Truffle\\fractionaliseNFT2\\contracts\\MainContact.sol",
  "compiler": {
    "name": "solc",
    "version": "0.8.14+commit.80d49f37.Emscripten.clang"
  },
  "schemaVersion": "3.4.6",
  "updatedAt": "2022-05-24T16:20:02.024Z",
  "devdoc": {
    "kind": "dev",
    "methods": {},
    "version": 1
  },
  "userdoc": {
    "kind": "user",
    "methods": {},
    "version": 1
  }
}