{
  "contractName": "ReclaimNftAuction",
  "abi": [
    {
      "inputs": [
        {
          "internalType": "contract baseFractionToken",
          "name": "_tokens",
          "type": "address"
        },
        {
          "internalType": "uint256",
          "name": "_amount",
          "type": "uint256"
        }
      ],
      "name": "stakeTokens",
      "outputs": [],
      "stateMutability": "nonpayable",
      "type": "function"
    },
    {
      "inputs": [
        {
          "internalType": "contract baseFractionToken",
          "name": "_tokens",
          "type": "address"
        },
        {
          "internalType": "uint256",
          "name": "_amount",
          "type": "uint256"
        }
      ],
      "name": "unstakeTokens",
      "outputs": [],
      "stateMutability": "nonpayable",
      "type": "function"
    },
    {
      "inputs": [
        {
          "internalType": "address",
          "name": "_oldOwner",
          "type": "address"
        },
        {
          "internalType": "address",
          "name": "_newOwner",
          "type": "address"
        },
        {
          "components": [
            {
              "internalType": "address",
              "name": "owner",
              "type": "address"
            },
            {
              "internalType": "address",
              "name": "NFTContractAddress",
              "type": "address"
            },
            {
              "internalType": "contract ERC721",
              "name": "NFT",
              "type": "address"
            },
            {
              "internalType": "uint256",
              "name": "supply",
              "type": "uint256"
            },
            {
              "internalType": "uint256",
              "name": "tokenId",
              "type": "uint256"
            },
            {
              "internalType": "uint256",
              "name": "depositTimestamp",
              "type": "uint256"
            },
            {
              "internalType": "address",
              "name": "fractionContractAddress",
              "type": "address"
            },
            {
              "internalType": "contract baseFractionToken",
              "name": "fractionToken",
              "type": "address"
            },
            {
              "internalType": "bool",
              "name": "hasFractionalised",
              "type": "bool"
            },
            {
              "internalType": "bool",
              "name": "canWithdraw",
              "type": "bool"
            },
            {
              "internalType": "bool",
              "name": "isChangingOwnership",
              "type": "bool"
            }
          ],
          "internalType": "struct ReclaimNftAuction.NFTDeposit",
          "name": "_nftDeposit",
          "type": "tuple"
        }
      ],
      "name": "updateNftOwner",
      "outputs": [],
      "stateMutability": "nonpayable",
      "type": "function"
    },
    {
      "inputs": [
        {
          "internalType": "address",
          "name": "_NFTContractAddress",
          "type": "address"
        },
        {
          "internalType": "uint256",
          "name": "_tokenId",
          "type": "uint256"
        }
      ],
      "name": "buyoutAllTokens",
      "outputs": [],
      "stateMutability": "nonpayable",
      "type": "function"
    },
    {
      "inputs": [
        {
          "internalType": "contract baseFractionToken",
          "name": "_token",
          "type": "address"
        },
        {
          "components": [
            {
              "internalType": "address",
              "name": "owner",
              "type": "address"
            },
            {
              "internalType": "address",
              "name": "NFTContractAddress",
              "type": "address"
            },
            {
              "internalType": "contract ERC721",
              "name": "NFT",
              "type": "address"
            },
            {
              "internalType": "uint256",
              "name": "supply",
              "type": "uint256"
            },
            {
              "internalType": "uint256",
              "name": "tokenId",
              "type": "uint256"
            },
            {
              "internalType": "uint256",
              "name": "depositTimestamp",
              "type": "uint256"
            },
            {
              "internalType": "address",
              "name": "fractionContractAddress",
              "type": "address"
            },
            {
              "internalType": "contract baseFractionToken",
              "name": "fractionToken",
              "type": "address"
            },
            {
              "internalType": "bool",
              "name": "hasFractionalised",
              "type": "bool"
            },
            {
              "internalType": "bool",
              "name": "canWithdraw",
              "type": "bool"
            },
            {
              "internalType": "bool",
              "name": "isChangingOwnership",
              "type": "bool"
            }
          ],
          "internalType": "struct ReclaimNftAuction.NFTDeposit",
          "name": "_nftDeposit",
          "type": "tuple"
        }
      ],
      "name": "startBuyoutProposal",
      "outputs": [],
      "stateMutability": "payable",
      "type": "function"
    },
    {
      "inputs": [
        {
          "components": [
            {
              "internalType": "address",
              "name": "owner",
              "type": "address"
            },
            {
              "internalType": "address",
              "name": "NFTContractAddress",
              "type": "address"
            },
            {
              "internalType": "contract ERC721",
              "name": "NFT",
              "type": "address"
            },
            {
              "internalType": "uint256",
              "name": "supply",
              "type": "uint256"
            },
            {
              "internalType": "uint256",
              "name": "tokenId",
              "type": "uint256"
            },
            {
              "internalType": "uint256",
              "name": "depositTimestamp",
              "type": "uint256"
            },
            {
              "internalType": "address",
              "name": "fractionContractAddress",
              "type": "address"
            },
            {
              "internalType": "contract baseFractionToken",
              "name": "fractionToken",
              "type": "address"
            },
            {
              "internalType": "bool",
              "name": "hasFractionalised",
              "type": "bool"
            },
            {
              "internalType": "bool",
              "name": "canWithdraw",
              "type": "bool"
            },
            {
              "internalType": "bool",
              "name": "isChangingOwnership",
              "type": "bool"
            }
          ],
          "internalType": "struct ReclaimNftAuction.NFTDeposit",
          "name": "_NFTDeposit",
          "type": "tuple"
        },
        {
          "internalType": "bool",
          "name": "_voteValue",
          "type": "bool"
        },
        {
          "internalType": "uint256",
          "name": "_voteAmount",
          "type": "uint256"
        }
      ],
      "name": "voteOnProposal",
      "outputs": [],
      "stateMutability": "nonpayable",
      "type": "function"
    },
    {
      "inputs": [
        {
          "internalType": "contract baseFractionToken",
          "name": "_token",
          "type": "address"
        },
        {
          "components": [
            {
              "internalType": "bool",
              "name": "active",
              "type": "bool"
            },
            {
              "components": [
                {
                  "internalType": "address",
                  "name": "owner",
                  "type": "address"
                },
                {
                  "internalType": "address",
                  "name": "NFTContractAddress",
                  "type": "address"
                },
                {
                  "internalType": "contract ERC721",
                  "name": "NFT",
                  "type": "address"
                },
                {
                  "internalType": "uint256",
                  "name": "supply",
                  "type": "uint256"
                },
                {
                  "internalType": "uint256",
                  "name": "tokenId",
                  "type": "uint256"
                },
                {
                  "internalType": "uint256",
                  "name": "depositTimestamp",
                  "type": "uint256"
                },
                {
                  "internalType": "address",
                  "name": "fractionContractAddress",
                  "type": "address"
                },
                {
                  "internalType": "contract baseFractionToken",
                  "name": "fractionToken",
                  "type": "address"
                },
                {
                  "internalType": "bool",
                  "name": "hasFractionalised",
                  "type": "bool"
                },
                {
                  "internalType": "bool",
                  "name": "canWithdraw",
                  "type": "bool"
                },
                {
                  "internalType": "bool",
                  "name": "isChangingOwnership",
                  "type": "bool"
                }
              ],
              "internalType": "struct ReclaimNftAuction.NFTDeposit",
              "name": "nftDeposit",
              "type": "tuple"
            },
            {
              "internalType": "address",
              "name": "proposalInitiator",
              "type": "address"
            },
            {
              "internalType": "uint256",
              "name": "id",
              "type": "uint256"
            },
            {
              "internalType": "uint256",
              "name": "buyoutPriceStart",
              "type": "uint256"
            },
            {
              "internalType": "uint256",
              "name": "totalVoted",
              "type": "uint256"
            },
            {
              "internalType": "uint256",
              "name": "totalAmountAgree",
              "type": "uint256"
            },
            {
              "internalType": "uint256",
              "name": "totalAmountDisagree",
              "type": "uint256"
            },
            {
              "internalType": "uint256",
              "name": "finishTime",
              "type": "uint256"
            }
          ],
          "internalType": "struct ReclaimNftAuction.buyoutProposal",
          "name": "proposal",
          "type": "tuple"
        }
      ],
      "name": "startBuyoutAuction",
      "outputs": [],
      "stateMutability": "nonpayable",
      "type": "function"
    },
    {
      "inputs": [
        {
          "internalType": "contract baseFractionToken",
          "name": "_token",
          "type": "address"
        },
        {
          "internalType": "bool",
          "name": "_voteValue",
          "type": "bool"
        }
      ],
      "name": "bidOnAuction",
      "outputs": [],
      "stateMutability": "payable",
      "type": "function"
    },
    {
      "inputs": [
        {
          "internalType": "contract baseFractionToken",
          "name": "_token",
          "type": "address"
        },
        {
          "internalType": "uint256",
          "name": "_amount",
          "type": "uint256"
        }
      ],
      "name": "claimFromBuyoutTokens",
      "outputs": [],
      "stateMutability": "nonpayable",
      "type": "function"
    }
  ],
  "bytecode": "0x60806040526203f480600055603260015534801561001c57600080fd5b50614a758061002c6000396000f3fe6080604052600436106100865760003560e01c8063a7525b3b11610059578063a7525b3b14610115578063b83a75e51461013e578063e0cf2b6114610167578063e89a173e14610190578063f4164f57146101b957610086565b80630de4fd491461008b5780633ac6ec99146100a757806379a83f5a146100d05780637f042b8b146100f9575b600080fd5b6100a560048036038101906100a09190613f89565b6101e2565b005b3480156100b357600080fd5b506100ce60048036038101906100c99190613fca565b61090e565b005b3480156100dc57600080fd5b506100f760048036038101906100f2919061400a565b610bc4565b005b610113600480360381019061010e919061404a565b610d5b565b005b34801561012157600080fd5b5061013c6004803603810190610137919061400a565b611e5c565b005b34801561014a57600080fd5b506101656004803603810190610160919061408a565b612107565b005b34801561017357600080fd5b5061018e600480360381019061018991906140de565b6121a2565b005b34801561019c57600080fd5b506101b760048036038101906101b2919061400a565b612f04565b005b3480156101c557600080fd5b506101e060048036038101906101db919061421a565b61305f565b005b816000600a60008373ffffffffffffffffffffffffffffffffffffffff1673ffffffffffffffffffffffffffffffffffffffff1681526020019081526020016000206000018054905090506000600a60008473ffffffffffffffffffffffffffffffffffffffff1673ffffffffffffffffffffffffffffffffffffffff16815260200190815260200160002060010180549050905060001515600a60008573ffffffffffffffffffffffffffffffffffffffff1673ffffffffffffffffffffffffffffffffffffffff16815260200190815260200160002060000183815481106102cf576102ce61425b565b5b906000526020600020906010020160000160009054906101000a900460ff16151514610330576040517f08c379a0000000000000000000000000000000000000000000000000000000008152600401610327906142e7565b60405180910390fd5b60001515600a60008573ffffffffffffffffffffffffffffffffffffffff1673ffffffffffffffffffffffffffffffffffffffff16815260200190815260200160002060010182815481106103885761038761425b565b5b90600052602060002090601e020160000160009054906101000a900460ff161515146103e9576040517f08c379a00000000000000000000000000000000000000000000000000000000081526004016103e090614353565b60405180910390fd5b6103f1613aef565b600054426103ff91906143a2565b816101000181815250503481608001818152505033816040019073ffffffffffffffffffffffffffffffffffffffff16908173ffffffffffffffffffffffffffffffffffffffff16815250506001600660003373ffffffffffffffffffffffffffffffffffffffff1673ffffffffffffffffffffffffffffffffffffffff1681526020019081526020016000206000600254815260200190815260200160002060006101000a81548160ff0219169083151502179055508573ffffffffffffffffffffffffffffffffffffffff166370a08231336040518263ffffffff1660e01b81526004016104ef9190614407565b602060405180830381865afa15801561050c573d6000803e3d6000fd5b505050506040513d601f19601f820116820180604052508101906105309190614437565b8160c001818152505060008160e00181815250508573ffffffffffffffffffffffffffffffffffffffff166370a08231336040518263ffffffff1660e01b815260040161057d9190614407565b602060405180830381865afa15801561059a573d6000803e3d6000fd5b505050506040513d601f19601f820116820180604052508101906105be9190614437565b8160a00181815250506001816000019015159081151581525050848160200181905250600254816060018181525050600a60008773ffffffffffffffffffffffffffffffffffffffff1673ffffffffffffffffffffffffffffffffffffffff16815260200190815260200160002060000181908060018154018082558091505060019003906000526020600020906010020160009091909190915060008201518160000160006101000a81548160ff02191690831515021790555060208201518160010160008201518160000160006101000a81548173ffffffffffffffffffffffffffffffffffffffff021916908373ffffffffffffffffffffffffffffffffffffffff16021790555060208201518160010160006101000a81548173ffffffffffffffffffffffffffffffffffffffff021916908373ffffffffffffffffffffffffffffffffffffffff16021790555060408201518160020160006101000a81548173ffffffffffffffffffffffffffffffffffffffff021916908373ffffffffffffffffffffffffffffffffffffffff160217905550606082015181600301556080820151816004015560a0820151816005015560c08201518160060160006101000a81548173ffffffffffffffffffffffffffffffffffffffff021916908373ffffffffffffffffffffffffffffffffffffffff16021790555060e08201518160070160006101000a81548173ffffffffffffffffffffffffffffffffffffffff021916908373ffffffffffffffffffffffffffffffffffffffff1602179055506101008201518160070160146101000a81548160ff0219169083151502179055506101208201518160070160156101000a81548160ff0219169083151502179055506101408201518160070160166101000a81548160ff021916908315150217905550505060408201518160090160006101000a81548173ffffffffffffffffffffffffffffffffffffffff021916908373ffffffffffffffffffffffffffffffffffffffff160217905550606082015181600a0155608082015181600b015560a082015181600c015560c082015181600d015560e082015181600e015561010082015181600f015550506002600081548092919061090190614464565b9190505550505050505050565b600082905060005b600560003373ffffffffffffffffffffffffffffffffffffffff1673ffffffffffffffffffffffffffffffffffffffff16815260200190815260200160002060000180549050811015610bbe578173ffffffffffffffffffffffffffffffffffffffff16600560003373ffffffffffffffffffffffffffffffffffffffff1673ffffffffffffffffffffffffffffffffffffffff16815260200190815260200160002060000182815481106109ce576109cd61425b565b5b906000526020600020906008020160020160009054906101000a900473ffffffffffffffffffffffffffffffffffffffff1673ffffffffffffffffffffffffffffffffffffffff16148015610a87575082600560003373ffffffffffffffffffffffffffffffffffffffff1673ffffffffffffffffffffffffffffffffffffffff1681526020019081526020016000206000018281548110610a7357610a7261425b565b5b906000526020600020906008020160040154145b15610bab576000600560003373ffffffffffffffffffffffffffffffffffffffff1673ffffffffffffffffffffffffffffffffffffffff1681526020019081526020016000206000018281548110610ae257610ae161425b565b5b906000526020600020906008020160070160009054906101000a900473ffffffffffffffffffffffffffffffffffffffff16905060005b8173ffffffffffffffffffffffffffffffffffffffff166394ee29d96040518163ffffffff1660e01b8152600401600060405180830381865afa158015610b64573d6000803e3d6000fd5b505050506040513d6000823e3d601f19601f82011682018060405250810190610b8d919061458e565b51811015610ba8578080610ba090614464565b915050610b19565b50505b8080610bb690614464565b915050610916565b50505050565b808273ffffffffffffffffffffffffffffffffffffffff166370a08231336040518263ffffffff1660e01b8152600401610bfe9190614407565b602060405180830381865afa158015610c1b573d6000803e3d6000fd5b505050506040513d601f19601f82011682018060405250810190610c3f9190614437565b1115610c80576040517f08c379a0000000000000000000000000000000000000000000000000000000008152600401610c7790614623565b60405180910390fd5b8173ffffffffffffffffffffffffffffffffffffffff166323b872dd3330846040518463ffffffff1660e01b8152600401610cbd93929190614652565b6020604051808303816000875af1158015610cdc573d6000803e3d6000fd5b505050506040513d601f19601f82011682018060405250810190610d00919061469e565b5080600460003373ffffffffffffffffffffffffffffffffffffffff1673ffffffffffffffffffffffffffffffffffffffff1681526020019081526020016000206000828254610d5091906143a2565b925050819055505050565b6000600a60008473ffffffffffffffffffffffffffffffffffffffff1673ffffffffffffffffffffffffffffffffffffffff1681526020019081526020016000206000018054905090506000600a60008573ffffffffffffffffffffffffffffffffffffffff1673ffffffffffffffffffffffffffffffffffffffff168152602001908152602001600020600101805490509050600a60008573ffffffffffffffffffffffffffffffffffffffff1673ffffffffffffffffffffffffffffffffffffffff1681526020019081526020016000206001018181548110610e4357610e4261425b565b5b90600052602060002090601e0201601b01543411610ea7573373ffffffffffffffffffffffffffffffffffffffff166108fc349081150290604051600060405180830381858888f19350505050158015610ea1573d6000803e3d6000fd5b50611515565b600a60008573ffffffffffffffffffffffffffffffffffffffff1673ffffffffffffffffffffffffffffffffffffffff1681526020019081526020016000206001018181548110610efb57610efa61425b565b5b90600052602060002090601e0201601c01544210156112d65760011515600a60008673ffffffffffffffffffffffffffffffffffffffff1673ffffffffffffffffffffffffffffffffffffffff1681526020019081526020016000206001018281548110610f6c57610f6b61425b565b5b90600052602060002090601e020160000160009054906101000a900460ff16151514610fcd576040517f08c379a0000000000000000000000000000000000000000000000000000000008152600401610fc490614717565b60405180910390fd5b60001515600a60008673ffffffffffffffffffffffffffffffffffffffff1673ffffffffffffffffffffffffffffffffffffffff16815260200190815260200160002060000183815481106110255761102461425b565b5b906000526020600020906010020160000160009054906101000a900460ff16151514611086576040517f08c379a000000000000000000000000000000000000000000000000000000000815260040161107d906147a9565b60405180910390fd5b6000600a60008673ffffffffffffffffffffffffffffffffffffffff1673ffffffffffffffffffffffffffffffffffffffff16815260200190815260200160002060010182815481106110dc576110db61425b565b5b90600052602060002090601e0201601b015490506000600a60008773ffffffffffffffffffffffffffffffffffffffff1673ffffffffffffffffffffffffffffffffffffffff16815260200190815260200160002060010183815481106111465761114561425b565b5b90600052602060002090601e020160190160009054906101000a900473ffffffffffffffffffffffffffffffffffffffff16905034600a60008873ffffffffffffffffffffffffffffffffffffffff1673ffffffffffffffffffffffffffffffffffffffff16815260200190815260200160002060010184815481106111cf576111ce61425b565b5b90600052602060002090601e0201601b018190555033600a60008873ffffffffffffffffffffffffffffffffffffffff1673ffffffffffffffffffffffffffffffffffffffff16815260200190815260200160002060010184815481106112395761123861425b565b5b90600052602060002090601e020160190160006101000a81548173ffffffffffffffffffffffffffffffffffffffff021916908373ffffffffffffffffffffffffffffffffffffffff1602179055508073ffffffffffffffffffffffffffffffffffffffff166108fc839081150290604051600060405180830381858888f193505050501580156112ce573d6000803e3d6000fd5b5050506113cc565b60011515600a60008673ffffffffffffffffffffffffffffffffffffffff1673ffffffffffffffffffffffffffffffffffffffff168152602001908152602001600020600101828154811061132e5761132d61425b565b5b90600052602060002090601e020160000160009054906101000a900460ff161515036113cb5760001515600a60008673ffffffffffffffffffffffffffffffffffffffff1673ffffffffffffffffffffffffffffffffffffffff16815260200190815260200160002060010182815481106113ac576113ab61425b565b5b90600052602060002090601e020160000160009054906101000a905050505b5b8373ffffffffffffffffffffffffffffffffffffffff166318160ddd6040518163ffffffff1660e01b8152600401602060405180830381865afa158015611417573d6000803e3d6000fd5b505050506040513d601f19601f8201168201806040525081019061143b9190614437565b600a60008673ffffffffffffffffffffffffffffffffffffffff1673ffffffffffffffffffffffffffffffffffffffff168152602001908152602001600020600101828154811061148f5761148e61425b565b5b90600052602060002090601e0201601b01546114ab91906147f8565b600a60008673ffffffffffffffffffffffffffffffffffffffff1673ffffffffffffffffffffffffffffffffffffffff16815260200190815260200160002060010182815481106114ff576114fe61425b565b5b90600052602060002090601e0201601d01819055505b611dd8600a60008673ffffffffffffffffffffffffffffffffffffffff1673ffffffffffffffffffffffffffffffffffffffff168152602001908152602001600020600101828154811061156c5761156b61425b565b5b90600052602060002090601e0201604051806101000160405290816000820160009054906101000a900460ff1615151515815260200160018201604051806101600160405290816000820160009054906101000a900473ffffffffffffffffffffffffffffffffffffffff1673ffffffffffffffffffffffffffffffffffffffff1673ffffffffffffffffffffffffffffffffffffffff1681526020016001820160009054906101000a900473ffffffffffffffffffffffffffffffffffffffff1673ffffffffffffffffffffffffffffffffffffffff1673ffffffffffffffffffffffffffffffffffffffff1681526020016002820160009054906101000a900473ffffffffffffffffffffffffffffffffffffffff1673ffffffffffffffffffffffffffffffffffffffff1673ffffffffffffffffffffffffffffffffffffffff1681526020016003820154815260200160048201548152602001600582015481526020016006820160009054906101000a900473ffffffffffffffffffffffffffffffffffffffff1673ffffffffffffffffffffffffffffffffffffffff1673ffffffffffffffffffffffffffffffffffffffff1681526020016007820160009054906101000a900473ffffffffffffffffffffffffffffffffffffffff1673ffffffffffffffffffffffffffffffffffffffff1673ffffffffffffffffffffffffffffffffffffffff1681526020016007820160149054906101000a900460ff161515151581526020016007820160159054906101000a900460ff161515151581526020016007820160169054906101000a900460ff161515151581525050815260200160098201604051806101200160405290816000820160009054906101000a900460ff1615151515815260200160018201604051806101600160405290816000820160009054906101000a900473ffffffffffffffffffffffffffffffffffffffff1673ffffffffffffffffffffffffffffffffffffffff1673ffffffffffffffffffffffffffffffffffffffff1681526020016001820160009054906101000a900473ffffffffffffffffffffffffffffffffffffffff1673ffffffffffffffffffffffffffffffffffffffff1673ffffffffffffffffffffffffffffffffffffffff1681526020016002820160009054906101000a900473ffffffffffffffffffffffffffffffffffffffff1673ffffffffffffffffffffffffffffffffffffffff1673ffffffffffffffffffffffffffffffffffffffff1681526020016003820154815260200160048201548152602001600582015481526020016006820160009054906101000a900473ffffffffffffffffffffffffffffffffffffffff1673ffffffffffffffffffffffffffffffffffffffff1673ffffffffffffffffffffffffffffffffffffffff1681526020016007820160009054906101000a900473ffffffffffffffffffffffffffffffffffffffff1673ffffffffffffffffffffffffffffffffffffffff1673ffffffffffffffffffffffffffffffffffffffff1681526020016007820160149054906101000a900460ff161515151581526020016007820160159054906101000a900460ff161515151581526020016007820160169054906101000a900460ff16151515158152505081526020016009820160009054906101000a900473ffffffffffffffffffffffffffffffffffffffff1673ffffffffffffffffffffffffffffffffffffffff1673ffffffffffffffffffffffffffffffffffffffff168152602001600a8201548152602001600b8201548152602001600c8201548152602001600d8201548152602001600e8201548152602001600f8201548152505081526020016019820160009054906101000a900473ffffffffffffffffffffffffffffffffffffffff1673ffffffffffffffffffffffffffffffffffffffff1673ffffffffffffffffffffffffffffffffffffffff168152602001601a8201548152602001601b8201548152602001601c8201548152602001601d82015481525050600a60008773ffffffffffffffffffffffffffffffffffffffff1673ffffffffffffffffffffffffffffffffffffffff1681526020019081526020016000206001018381548110611b9957611b9861425b565b5b90600052602060002090601e0201600101604051806101600160405290816000820160009054906101000a900473ffffffffffffffffffffffffffffffffffffffff1673ffffffffffffffffffffffffffffffffffffffff1673ffffffffffffffffffffffffffffffffffffffff1681526020016001820160009054906101000a900473ffffffffffffffffffffffffffffffffffffffff1673ffffffffffffffffffffffffffffffffffffffff1673ffffffffffffffffffffffffffffffffffffffff1681526020016002820160009054906101000a900473ffffffffffffffffffffffffffffffffffffffff1673ffffffffffffffffffffffffffffffffffffffff1673ffffffffffffffffffffffffffffffffffffffff1681526020016003820154815260200160048201548152602001600582015481526020016006820160009054906101000a900473ffffffffffffffffffffffffffffffffffffffff1673ffffffffffffffffffffffffffffffffffffffff1673ffffffffffffffffffffffffffffffffffffffff1681526020016007820160009054906101000a900473ffffffffffffffffffffffffffffffffffffffff1673ffffffffffffffffffffffffffffffffffffffff1673ffffffffffffffffffffffffffffffffffffffff1681526020016007820160149054906101000a900460ff161515151581526020016007820160159054906101000a900460ff161515151581526020016007820160169054906101000a900460ff161515151581525050613a41565b6000600a60008673ffffffffffffffffffffffffffffffffffffffff1673ffffffffffffffffffffffffffffffffffffffff1681526020019081526020016000206001018281548110611e2e57611e2d61425b565b5b90600052602060002090601e020160000160006101000a81548160ff02191690831515021790555050505050565b6000600a60008473ffffffffffffffffffffffffffffffffffffffff1673ffffffffffffffffffffffffffffffffffffffff16815260200190815260200160002060010180549050905060001515600a60008573ffffffffffffffffffffffffffffffffffffffff1673ffffffffffffffffffffffffffffffffffffffff1681526020019081526020016000206001018281548110611efe57611efd61425b565b5b90600052602060002090601e020160000160009054906101000a900460ff16151514611f5f576040517f08c379a0000000000000000000000000000000000000000000000000000000008152600401611f5690614875565b60405180910390fd5b8273ffffffffffffffffffffffffffffffffffffffff166323b872dd3330856040518463ffffffff1660e01b8152600401611f9c93929190614652565b6020604051808303816000875af1158015611fbb573d6000803e3d6000fd5b505050506040513d601f19601f82011682018060405250810190611fdf919061469e565b508273ffffffffffffffffffffffffffffffffffffffff166342966c68836040518263ffffffff1660e01b81526004016120199190614895565b600060405180830381600087803b15801561203357600080fd5b505af1158015612047573d6000803e3d6000fd5b505050503373ffffffffffffffffffffffffffffffffffffffff166108fc83600a60008773ffffffffffffffffffffffffffffffffffffffff1673ffffffffffffffffffffffffffffffffffffffff16815260200190815260200160002060010184815481106120ba576120b961425b565b5b90600052602060002090601e0201601d01546120d691906148b0565b9081150290604051600060405180830381858888f19350505050158015612101573d6000803e3d6000fd5b50505050565b60011515816101400151151514612153576040517f08c379a000000000000000000000000000000000000000000000000000000000815260040161214a90614956565b60405180910390fd5b81816000019073ffffffffffffffffffffffffffffffffffffffff16908173ffffffffffffffffffffffffffffffffffffffff1681525050600081610140019015159081151581525050505050565b60008360e0015190506000600a60008373ffffffffffffffffffffffffffffffffffffffff1673ffffffffffffffffffffffffffffffffffffffff1681526020019081526020016000206000018054905090506000600a60008473ffffffffffffffffffffffffffffffffffffffff1673ffffffffffffffffffffffffffffffffffffffff1681526020019081526020016000206001018054905090506000600a60008573ffffffffffffffffffffffffffffffffffffffff1673ffffffffffffffffffffffffffffffffffffffff16815260200190815260200160002060000183815481106122955761229461425b565b5b9060005260206000209060100201600a0154905060011515600a60008673ffffffffffffffffffffffffffffffffffffffff1673ffffffffffffffffffffffffffffffffffffffff16815260200190815260200160002060000184815481106123015761230061425b565b5b906000526020600020906010020160000160009054906101000a900460ff16151514612362576040517f08c379a000000000000000000000000000000000000000000000000000000000815260040161235990614717565b60405180910390fd5b60001515600660003373ffffffffffffffffffffffffffffffffffffffff1673ffffffffffffffffffffffffffffffffffffffff168152602001908152602001600020600083815260200190815260200160002060009054906101000a900460ff16151514612406576040517f08c379a00000000000000000000000000000000000000000000000000000000081526004016123fd906149c2565b60405180910390fd5b600a60008573ffffffffffffffffffffffffffffffffffffffff1673ffffffffffffffffffffffffffffffffffffffff168152602001908152602001600020600001838154811061245a5761245961425b565b5b9060005260206000209060100201600f0154421015612dfd57612505600a60008673ffffffffffffffffffffffffffffffffffffffff1673ffffffffffffffffffffffffffffffffffffffff16815260200190815260200160002060000184815481106124ca576124c961425b565b5b906000526020600020906010020160010160070160009054906101000a900473ffffffffffffffffffffffffffffffffffffffff1686610bc4565b6001600660003373ffffffffffffffffffffffffffffffffffffffff1673ffffffffffffffffffffffffffffffffffffffff168152602001908152602001600020600083815260200190815260200160002060006101000a81548160ff02191690831515021790555085600760003373ffffffffffffffffffffffffffffffffffffffff1673ffffffffffffffffffffffffffffffffffffffff168152602001908152602001600020600083815260200190815260200160002060006101000a81548160ff02191690831515021790555084600a60008673ffffffffffffffffffffffffffffffffffffffff1673ffffffffffffffffffffffffffffffffffffffff168152602001908152602001600020600001848154811061262b5761262a61425b565b5b9060005260206000209060100201600c01600082825461264b91906143a2565b9250508190555060011515861515036126df5784600a60008673ffffffffffffffffffffffffffffffffffffffff1673ffffffffffffffffffffffffffffffffffffffff16815260200190815260200160002060000184815481106126b3576126b261425b565b5b9060005260206000209060100201600d0160008282546126d391906143a2565b9250508190555061275c565b84600a60008673ffffffffffffffffffffffffffffffffffffffff1673ffffffffffffffffffffffffffffffffffffffff16815260200190815260200160002060000184815481106127345761273361425b565b5b9060005260206000209060100201600e01600082825461275491906143a2565b925050819055505b6001546064600a60008773ffffffffffffffffffffffffffffffffffffffff1673ffffffffffffffffffffffffffffffffffffffff16815260200190815260200160002060000185815481106127b5576127b461425b565b5b9060005260206000209060100201600d015489606001516127d691906148b0565b6127e091906147f8565b10612bbe576000600a60008673ffffffffffffffffffffffffffffffffffffffff1673ffffffffffffffffffffffffffffffffffffffff168152602001908152602001600020600001848154811061283b5761283a61425b565b5b906000526020600020906010020160000160006101000a81548160ff021916908315150217905550612bb984600a60008773ffffffffffffffffffffffffffffffffffffffff1673ffffffffffffffffffffffffffffffffffffffff16815260200190815260200160002060000185815481106128bb576128ba61425b565b5b9060005260206000209060100201604051806101200160405290816000820160009054906101000a900460ff1615151515815260200160018201604051806101600160405290816000820160009054906101000a900473ffffffffffffffffffffffffffffffffffffffff1673ffffffffffffffffffffffffffffffffffffffff1673ffffffffffffffffffffffffffffffffffffffff1681526020016001820160009054906101000a900473ffffffffffffffffffffffffffffffffffffffff1673ffffffffffffffffffffffffffffffffffffffff1673ffffffffffffffffffffffffffffffffffffffff1681526020016002820160009054906101000a900473ffffffffffffffffffffffffffffffffffffffff1673ffffffffffffffffffffffffffffffffffffffff1673ffffffffffffffffffffffffffffffffffffffff1681526020016003820154815260200160048201548152602001600582015481526020016006820160009054906101000a900473ffffffffffffffffffffffffffffffffffffffff1673ffffffffffffffffffffffffffffffffffffffff1673ffffffffffffffffffffffffffffffffffffffff1681526020016007820160009054906101000a900473ffffffffffffffffffffffffffffffffffffffff1673ffffffffffffffffffffffffffffffffffffffff1673ffffffffffffffffffffffffffffffffffffffff1681526020016007820160149054906101000a900460ff161515151581526020016007820160159054906101000a900460ff161515151581526020016007820160169054906101000a900460ff16151515158152505081526020016009820160009054906101000a900473ffffffffffffffffffffffffffffffffffffffff1673ffffffffffffffffffffffffffffffffffffffff1673ffffffffffffffffffffffffffffffffffffffff168152602001600a8201548152602001600b8201548152602001600c8201548152602001600d8201548152602001600e8201548152602001600f8201548152505061305f565b612df8565b6001546064600a60008773ffffffffffffffffffffffffffffffffffffffff1673ffffffffffffffffffffffffffffffffffffffff1681526020019081526020016000206000018581548110612c1757612c1661425b565b5b9060005260206000209060100201600e01548960600151612c3891906148b0565b612c4291906147f8565b10612df7576000600a60008673ffffffffffffffffffffffffffffffffffffffff1673ffffffffffffffffffffffffffffffffffffffff1681526020019081526020016000206000018481548110612c9d57612c9c61425b565b5b906000526020600020906010020160000160006101000a81548160ff021916908315150217905550600a60008573ffffffffffffffffffffffffffffffffffffffff1673ffffffffffffffffffffffffffffffffffffffff1681526020019081526020016000206000018381548110612d1957612d1861425b565b5b906000526020600020906010020160090160009054906101000a900473ffffffffffffffffffffffffffffffffffffffff1673ffffffffffffffffffffffffffffffffffffffff166108fc600a60008773ffffffffffffffffffffffffffffffffffffffff1673ffffffffffffffffffffffffffffffffffffffff1681526020019081526020016000206000018581548110612db857612db761425b565b5b9060005260206000209060100201600b01549081150290604051600060405180830381858888f19350505050158015612df5573d6000803e3d6000fd5b505b5b612efb565b60011515600a60008673ffffffffffffffffffffffffffffffffffffffff1673ffffffffffffffffffffffffffffffffffffffff1681526020019081526020016000206000018481548110612e5557612e5461425b565b5b906000526020600020906010020160000160009054906101000a900460ff16151503612efa576000600a60008673ffffffffffffffffffffffffffffffffffffffff1673ffffffffffffffffffffffffffffffffffffffff1681526020019081526020016000206000018481548110612ed157612ed061425b565b5b906000526020600020906010020160000160006101000a81548160ff0219169083151502179055505b5b50505050505050565b80600460003373ffffffffffffffffffffffffffffffffffffffff1673ffffffffffffffffffffffffffffffffffffffff168152602001908152602001600020541115612f86576040517f08c379a0000000000000000000000000000000000000000000000000000000008152600401612f7d90614623565b60405180910390fd5b80600460003373ffffffffffffffffffffffffffffffffffffffff1673ffffffffffffffffffffffffffffffffffffffff1681526020019081526020016000206000828254612fd591906149e2565b925050819055508173ffffffffffffffffffffffffffffffffffffffff1663a9059cbb33836040518363ffffffff1660e01b8152600401613017929190614a16565b6020604051808303816000875af1158015613036573d6000803e3d6000fd5b505050506040513d601f19601f8201168201806040525081019061305a919061469e565b505050565b6003600081548092919061307290614464565b91905055506000600a60008473ffffffffffffffffffffffffffffffffffffffff1673ffffffffffffffffffffffffffffffffffffffff1681526020019081526020016000206000018054905090506130c9613b59565b600a60008573ffffffffffffffffffffffffffffffffffffffff1673ffffffffffffffffffffffffffffffffffffffff168152602001908152602001600020600001828154811061311d5761311c61425b565b5b9060005260206000209060100201604051806101200160405290816000820160009054906101000a900460ff1615151515815260200160018201604051806101600160405290816000820160009054906101000a900473ffffffffffffffffffffffffffffffffffffffff1673ffffffffffffffffffffffffffffffffffffffff1673ffffffffffffffffffffffffffffffffffffffff1681526020016001820160009054906101000a900473ffffffffffffffffffffffffffffffffffffffff1673ffffffffffffffffffffffffffffffffffffffff1673ffffffffffffffffffffffffffffffffffffffff1681526020016002820160009054906101000a900473ffffffffffffffffffffffffffffffffffffffff1673ffffffffffffffffffffffffffffffffffffffff1673ffffffffffffffffffffffffffffffffffffffff1681526020016003820154815260200160048201548152602001600582015481526020016006820160009054906101000a900473ffffffffffffffffffffffffffffffffffffffff1673ffffffffffffffffffffffffffffffffffffffff1673ffffffffffffffffffffffffffffffffffffffff1681526020016007820160009054906101000a900473ffffffffffffffffffffffffffffffffffffffff1673ffffffffffffffffffffffffffffffffffffffff1673ffffffffffffffffffffffffffffffffffffffff1681526020016007820160149054906101000a900460ff161515151581526020016007820160159054906101000a900460ff161515151581526020016007820160169054906101000a900460ff16151515158152505081526020016009820160009054906101000a900473ffffffffffffffffffffffffffffffffffffffff1673ffffffffffffffffffffffffffffffffffffffff1673ffffffffffffffffffffffffffffffffffffffff168152602001600a8201548152602001600b8201548152602001600c8201548152602001600d8201548152602001600e8201548152602001600f8201548152505081604001819052506000544261342c91906143a2565b8160c00181815250508060400151608001518160a0018181525050806040015160400151816060019073ffffffffffffffffffffffffffffffffffffffff16908173ffffffffffffffffffffffffffffffffffffffff1681525050600181600001901515908115158152505082602001518160200181905250600354816080018181525050600a60008573ffffffffffffffffffffffffffffffffffffffff1673ffffffffffffffffffffffffffffffffffffffff1681526020019081526020016000206001018190806001815401808255809150506001900390600052602060002090601e020160009091909190915060008201518160000160006101000a81548160ff02191690831515021790555060208201518160010160008201518160000160006101000a81548173ffffffffffffffffffffffffffffffffffffffff021916908373ffffffffffffffffffffffffffffffffffffffff16021790555060208201518160010160006101000a81548173ffffffffffffffffffffffffffffffffffffffff021916908373ffffffffffffffffffffffffffffffffffffffff16021790555060408201518160020160006101000a81548173ffffffffffffffffffffffffffffffffffffffff021916908373ffffffffffffffffffffffffffffffffffffffff160217905550606082015181600301556080820151816004015560a0820151816005015560c08201518160060160006101000a81548173ffffffffffffffffffffffffffffffffffffffff021916908373ffffffffffffffffffffffffffffffffffffffff16021790555060e08201518160070160006101000a81548173ffffffffffffffffffffffffffffffffffffffff021916908373ffffffffffffffffffffffffffffffffffffffff1602179055506101008201518160070160146101000a81548160ff0219169083151502179055506101208201518160070160156101000a81548160ff0219169083151502179055506101408201518160070160166101000a81548160ff021916908315150217905550505060408201518160090160008201518160000160006101000a81548160ff02191690831515021790555060208201518160010160008201518160000160006101000a81548173ffffffffffffffffffffffffffffffffffffffff021916908373ffffffffffffffffffffffffffffffffffffffff16021790555060208201518160010160006101000a81548173ffffffffffffffffffffffffffffffffffffffff021916908373ffffffffffffffffffffffffffffffffffffffff16021790555060408201518160020160006101000a81548173ffffffffffffffffffffffffffffffffffffffff021916908373ffffffffffffffffffffffffffffffffffffffff160217905550606082015181600301556080820151816004015560a0820151816005015560c08201518160060160006101000a81548173ffffffffffffffffffffffffffffffffffffffff021916908373ffffffffffffffffffffffffffffffffffffffff16021790555060e08201518160070160006101000a81548173ffffffffffffffffffffffffffffffffffffffff021916908373ffffffffffffffffffffffffffffffffffffffff1602179055506101008201518160070160146101000a81548160ff0219169083151502179055506101208201518160070160156101000a81548160ff0219169083151502179055506101408201518160070160166101000a81548160ff021916908315150217905550505060408201518160090160006101000a81548173ffffffffffffffffffffffffffffffffffffffff021916908373ffffffffffffffffffffffffffffffffffffffff160217905550606082015181600a0155608082015181600b015560a082015181600c015560c082015181600d015560e082015181600e015561010082015181600f0155505060608201518160190160006101000a81548173ffffffffffffffffffffffffffffffffffffffff021916908373ffffffffffffffffffffffffffffffffffffffff160217905550608082015181601a015560a082015181601b015560c082015181601c015560e082015181601d0155505050505050565b600181610140019015159081151581525050613a668160000151836060015183612107565b6000816101400190151590811515815250508060e0015173ffffffffffffffffffffffffffffffffffffffff16637650122183606001516040518263ffffffff1660e01b8152600401613ab99190614407565b600060405180830381600087803b158015613ad357600080fd5b505af1158015613ae7573d6000803e3d6000fd5b505050505050565b604051806101200160405280600015158152602001613b0c613bc2565b8152602001600073ffffffffffffffffffffffffffffffffffffffff1681526020016000815260200160008152602001600081526020016000815260200160008152602001600081525090565b604051806101000160405280600015158152602001613b76613bc2565b8152602001613b83613aef565b8152602001600073ffffffffffffffffffffffffffffffffffffffff168152602001600081526020016000815260200160008152602001600081525090565b604051806101600160405280600073ffffffffffffffffffffffffffffffffffffffff168152602001600073ffffffffffffffffffffffffffffffffffffffff168152602001600073ffffffffffffffffffffffffffffffffffffffff168152602001600081526020016000815260200160008152602001600073ffffffffffffffffffffffffffffffffffffffff168152602001600073ffffffffffffffffffffffffffffffffffffffff1681526020016000151581526020016000151581526020016000151581525090565b6000604051905090565b600080fd5b600080fd5b600073ffffffffffffffffffffffffffffffffffffffff82169050919050565b6000613ccf82613ca4565b9050919050565b6000613ce182613cc4565b9050919050565b613cf181613cd6565b8114613cfc57600080fd5b50565b600081359050613d0e81613ce8565b92915050565b600080fd5b6000601f19601f8301169050919050565b7f4e487b7100000000000000000000000000000000000000000000000000000000600052604160045260246000fd5b613d6282613d19565b810181811067ffffffffffffffff82111715613d8157613d80613d2a565b5b80604052505050565b6000613d94613c90565b9050613da08282613d59565b919050565b613dae81613cc4565b8114613db957600080fd5b50565b600081359050613dcb81613da5565b92915050565b6000613ddc82613cc4565b9050919050565b613dec81613dd1565b8114613df757600080fd5b50565b600081359050613e0981613de3565b92915050565b6000819050919050565b613e2281613e0f565b8114613e2d57600080fd5b50565b600081359050613e3f81613e19565b92915050565b60008115159050919050565b613e5a81613e45565b8114613e6557600080fd5b50565b600081359050613e7781613e51565b92915050565b60006101608284031215613e9457613e93613d14565b5b613e9f610160613d8a565b90506000613eaf84828501613dbc565b6000830152506020613ec384828501613dbc565b6020830152506040613ed784828501613dfa565b6040830152506060613eeb84828501613e30565b6060830152506080613eff84828501613e30565b60808301525060a0613f1384828501613e30565b60a08301525060c0613f2784828501613dbc565b60c08301525060e0613f3b84828501613cff565b60e083015250610100613f5084828501613e68565b61010083015250610120613f6684828501613e68565b61012083015250610140613f7c84828501613e68565b6101408301525092915050565b6000806101808385031215613fa157613fa0613c9a565b5b6000613faf85828601613cff565b9250506020613fc085828601613e7d565b9150509250929050565b60008060408385031215613fe157613fe0613c9a565b5b6000613fef85828601613dbc565b925050602061400085828601613e30565b9150509250929050565b6000806040838503121561402157614020613c9a565b5b600061402f85828601613cff565b925050602061404085828601613e30565b9150509250929050565b6000806040838503121561406157614060613c9a565b5b600061406f85828601613cff565b925050602061408085828601613e68565b9150509250929050565b60008060006101a084860312156140a4576140a3613c9a565b5b60006140b286828701613dbc565b93505060206140c386828701613dbc565b92505060406140d486828701613e7d565b9150509250925092565b60008060006101a084860312156140f8576140f7613c9a565b5b600061410686828701613e7d565b93505061016061411886828701613e68565b92505061018061412a86828701613e30565b9150509250925092565b6000610260828403121561414b5761414a613d14565b5b614156610120613d8a565b9050600061416684828501613e68565b600083015250602061417a84828501613e7d565b60208301525061018061418f84828501613dbc565b6040830152506101a06141a484828501613e30565b6060830152506101c06141b984828501613e30565b6080830152506101e06141ce84828501613e30565b60a0830152506102006141e384828501613e30565b60c0830152506102206141f884828501613e30565b60e08301525061024061420d84828501613e30565b6101008301525092915050565b600080610280838503121561423257614231613c9a565b5b600061424085828601613cff565b925050602061425185828601614134565b9150509250929050565b7f4e487b7100000000000000000000000000000000000000000000000000000000600052603260045260246000fd5b600082825260208201905092915050565b7f546f6b656e20616c726561647920696e2070726f706f73616c00000000000000600082015250565b60006142d160198361428a565b91506142dc8261429b565b602082019050919050565b60006020820190508181036000830152614300816142c4565b9050919050565b7f546f6b656e20616c726561647920696e2061756374696f6e0000000000000000600082015250565b600061433d60188361428a565b915061434882614307565b602082019050919050565b6000602082019050818103600083015261436c81614330565b9050919050565b7f4e487b7100000000000000000000000000000000000000000000000000000000600052601160045260246000fd5b60006143ad82613e0f565b91506143b883613e0f565b9250827fffffffffffffffffffffffffffffffffffffffffffffffffffffffffffffffff038211156143ed576143ec614373565b5b828201905092915050565b61440181613cc4565b82525050565b600060208201905061441c60008301846143f8565b92915050565b60008151905061443181613e19565b92915050565b60006020828403121561444d5761444c613c9a565b5b600061445b84828501614422565b91505092915050565b600061446f82613e0f565b91507fffffffffffffffffffffffffffffffffffffffffffffffffffffffffffffffff82036144a1576144a0614373565b5b600182019050919050565b600080fd5b600067ffffffffffffffff8211156144cc576144cb613d2a565b5b602082029050602081019050919050565b600080fd5b6000815190506144f181613da5565b92915050565b600061450a614505846144b1565b613d8a565b9050808382526020820190506020840283018581111561452d5761452c6144dd565b5b835b81811015614556578061454288826144e2565b84526020840193505060208101905061452f565b5050509392505050565b600082601f830112614575576145746144ac565b5b81516145858482602086016144f7565b91505092915050565b6000602082840312156145a4576145a3613c9a565b5b600082015167ffffffffffffffff8111156145c2576145c1613c9f565b5b6145ce84828501614560565b91505092915050565b7f796f7520646f6e74206861766520656e6f75676820746f6b656e730000000000600082015250565b600061460d601b8361428a565b9150614618826145d7565b602082019050919050565b6000602082019050818103600083015261463c81614600565b9050919050565b61464c81613e0f565b82525050565b600060608201905061466760008301866143f8565b61467460208301856143f8565b6146816040830184614643565b949350505050565b60008151905061469881613e51565b92915050565b6000602082840312156146b4576146b3613c9a565b5b60006146c284828501614689565b91505092915050565b7f70726f706f73616c206973206e6f742061637469766500000000000000000000600082015250565b600061470160168361428a565b915061470c826146cb565b602082019050919050565b60006020820190508181036000830152614730816146f4565b9050919050565b7f7468697320746f6b656e206e6565647320746f206c656176652074686520707260008201527f6f706f73616c2066697273740000000000000000000000000000000000000000602082015250565b6000614793602c8361428a565b915061479e82614737565b604082019050919050565b600060208201905081810360008301526147c281614786565b9050919050565b7f4e487b7100000000000000000000000000000000000000000000000000000000600052601260045260246000fd5b600061480382613e0f565b915061480e83613e0f565b92508261481e5761481d6147c9565b5b828204905092915050565b7f61756374696f6e207374696c6c20616374697665000000000000000000000000600082015250565b600061485f60148361428a565b915061486a82614829565b602082019050919050565b6000602082019050818103600083015261488e81614852565b9050919050565b60006020820190506148aa6000830184614643565b92915050565b60006148bb82613e0f565b91506148c683613e0f565b9250817fffffffffffffffffffffffffffffffffffffffffffffffffffffffffffffffff04831182151516156148ff576148fe614373565b5b828202905092915050565b7f4e4654206973206e6f74206368616e67696e67206f776e657273686970000000600082015250565b6000614940601d8361428a565b915061494b8261490a565b602082019050919050565b6000602082019050818103600083015261496f81614933565b9050919050565b7f7468697320757365722068617320616c726561647920766f7465640000000000600082015250565b60006149ac601b8361428a565b91506149b782614976565b602082019050919050565b600060208201905081810360008301526149db8161499f565b9050919050565b60006149ed82613e0f565b91506149f883613e0f565b925082821015614a0b57614a0a614373565b5b828203905092915050565b6000604082019050614a2b60008301856143f8565b614a386020830184614643565b939250505056fea26469706673582212200a21ea8ee032dbb4d4daf1b30d05cf9ca3961889d800d024832a00f07a29bfdd64736f6c634300080e0033",
  "immutableReferences": {},
  "source": "//UNDER DEVELOPNMENT\r\npragma solidity 0.8.14;\r\n\r\nimport './FractionToken.sol';\r\nimport './MainContract.sol';\r\n\r\ncontract ReclaimNftAuction {\r\n    uint DEFAULT_WAIT_TIME = 259200; // 3 days;\r\n    uint DEFAULT_PROPOSAL_TO_PASS = 50; //50%\r\n\r\n    uint currentLastProposalId;\r\n    uint currentLastAuctionId;\r\n\r\n    mapping(address => uint) tokenBalances;\r\n\r\n    struct allVotingInfo {\r\n        buyoutProposal[] proposals;\r\n        buyoutAuction[] auctions;\r\n    }\r\n\r\n    struct NFTDeposit {\r\n        address owner;\r\n        address NFTContractAddress;\r\n        ERC721 NFT;\r\n        uint256 supply;\r\n        uint256 tokenId;\r\n        uint256 depositTimestamp;\r\n        address fractionContractAddress;\r\n        baseFractionToken fractionToken;\r\n        bool hasFractionalised;\r\n        bool canWithdraw;\r\n        bool isChangingOwnership;\r\n    }\r\n\r\n    struct buyoutProposal {\r\n        \r\n        bool active;\r\n\r\n        NFTDeposit nftDeposit;\r\n\r\n        address proposalInitiator;\r\n\r\n        uint id;\r\n        uint buyoutPriceStart;\r\n        uint totalVoted;\r\n        uint totalAmountAgree;\r\n        uint totalAmountDisagree;\r\n        uint finishTime;\r\n        \r\n    }\r\n\r\n\r\n    struct buyoutAuction {\r\n        bool active;\r\n\r\n        NFTDeposit nftDeposit;\r\n\r\n        buyoutProposal initialProposal;\r\n        \r\n        address currentBidLeader;\r\n\r\n        uint id;\r\n        uint currentBid;\r\n        uint finishTime;\r\n        uint pricePerToken;\r\n    }\r\n        \r\n    struct CurrentDepositedNFTs {\r\n        NFTDeposit[] deposits;\r\n    }\r\n    mapping(address => CurrentDepositedNFTs) nftDeposits;\r\n\r\n    mapping (address => mapping(uint => bool)) hasVotedInProposal;\r\n    mapping (address => mapping(uint  => bool)) voteValueInProposal;\r\n    mapping (address => mapping(uint => bool)) hasVotedInAuction;\r\n    mapping (address => mapping(uint => bool)) voteValueInAuction;\r\n\r\n    mapping(baseFractionToken => allVotingInfo) AllVotingInfo;\r\n\r\n    modifier isProposalOrAuctionNotActive(baseFractionToken token) {\r\n        uint latestProposal = AllVotingInfo[token].proposals.length;\r\n        uint latestAuction = AllVotingInfo[token].auctions.length;\r\n\r\n        require(AllVotingInfo[token].proposals[latestProposal].active == false, \"Token already in proposal\");\r\n        require(AllVotingInfo[token].auctions[latestAuction].active == false, \"Token already in auction\");\r\n        _;\r\n    }\r\n\r\n    function stakeTokens(baseFractionToken _tokens, uint _amount) public {\r\n        require(_tokens.balanceOf(msg.sender) <= _amount, \"you dont have enough tokens\");\r\n\r\n        //user needs to approve first\r\n\r\n        _tokens.transferFrom(msg.sender, address(this), _amount);\r\n        tokenBalances[msg.sender] += _amount;\r\n    }\r\n\r\n    function unstakeTokens(baseFractionToken _tokens, uint _amount) public {\r\n        require(tokenBalances[msg.sender] <= _amount, \"you dont have enough tokens\");\r\n\r\n        tokenBalances[msg.sender] -= _amount;\r\n        _tokens.transfer(msg.sender, _amount);\r\n    }\r\n\r\n    function updateNftOwner(address _oldOwner, address _newOwner, NFTDeposit memory _nftDeposit) public {\r\n        require(_nftDeposit.isChangingOwnership == true, \"NFT is not changing ownership\");\r\n        _nftDeposit.owner = _newOwner;\r\n        _nftDeposit.isChangingOwnership = false;\r\n    }\r\n\r\n    function buyoutAllTokens(address _NFTContractAddress, uint256 _tokenId) public {\r\n        ERC721 NFTContract = ERC721(_NFTContractAddress);\r\n\r\n       //access tokens\r\n        for (uint256 i = 0; i < nftDeposits[msg.sender].deposits.length; i++) {\r\n            if (nftDeposits[msg.sender].deposits[i].NFT == NFTContract && \r\n                nftDeposits[msg.sender].deposits[i].tokenId == _tokenId) {\r\n\r\n                    baseFractionToken nftFraction = nftDeposits[msg.sender].deposits[i].fractionToken;\r\n                    for (uint j = 0; j < nftFraction.returnTokenOwners().length; j++) {\r\n\r\n                    }\r\n                }\r\n            }\r\n    }\r\n\r\n    function startBuyoutProposal(baseFractionToken _token, NFTDeposit memory _nftDeposit) isProposalOrAuctionNotActive(_token) public payable{\r\n        buyoutProposal memory newProposal; \r\n        \r\n        newProposal.finishTime = block.timestamp + DEFAULT_WAIT_TIME;\r\n        newProposal.buyoutPriceStart = msg.value;\r\n        newProposal.proposalInitiator = msg.sender;\r\n        hasVotedInProposal[msg.sender][currentLastProposalId] = true;\r\n        newProposal.totalAmountAgree = _token.balanceOf(msg.sender);\r\n        newProposal.totalAmountDisagree = 0;\r\n        newProposal.totalVoted = _token.balanceOf(msg.sender);\r\n        newProposal.active = true;\r\n        newProposal.nftDeposit = _nftDeposit;\r\n        newProposal.id = currentLastProposalId; \r\n        AllVotingInfo[_token].proposals.push(newProposal);\r\n        currentLastProposalId++;\r\n    }\r\n\r\n    function voteOnProposal(NFTDeposit memory _NFTDeposit, bool _voteValue, uint _voteAmount) public {\r\n        baseFractionToken Token = _NFTDeposit.fractionToken;\r\n        uint latestProposal = AllVotingInfo[Token].proposals.length;\r\n        uint latestAuction = AllVotingInfo[Token].auctions.length;\r\n\r\n        uint id = AllVotingInfo[Token].proposals[latestProposal].id;\r\n\r\n        require (AllVotingInfo[Token].proposals[latestProposal].active == true, \"proposal is not active\");\r\n        require (hasVotedInProposal[msg.sender][id] == false, \"this user has already voted\");\r\n\r\n       if (block.timestamp < AllVotingInfo[Token].proposals[latestProposal].finishTime) {\r\n           stakeTokens(AllVotingInfo[Token].proposals[latestProposal].nftDeposit.fractionToken, _voteAmount);\r\n           hasVotedInProposal[msg.sender][id] = true;\r\n           voteValueInProposal[msg.sender][id] = _voteValue;\r\n\r\n           AllVotingInfo[Token].proposals[latestProposal].totalVoted += _voteAmount;\r\n\r\n           if (_voteValue == true) {\r\n               AllVotingInfo[Token].proposals[latestProposal].totalAmountAgree += _voteAmount;\r\n           } else {\r\n               AllVotingInfo[Token].proposals[latestProposal].totalAmountDisagree += _voteAmount;\r\n           }\r\n\r\n           // percentage agree\r\n           if(_NFTDeposit.supply * AllVotingInfo[Token].proposals[latestProposal].totalAmountAgree / 100 \r\n               >= DEFAULT_PROPOSAL_TO_PASS) {\r\n               AllVotingInfo[Token].proposals[latestProposal].active = false;\r\n               startBuyoutAuction(Token, AllVotingInfo[Token].proposals[latestProposal]);\r\n           }\r\n           //percentage disagree\r\n           else if (_NFTDeposit.supply * AllVotingInfo[Token].proposals[latestProposal].totalAmountDisagree / 100 \r\n                   >= DEFAULT_PROPOSAL_TO_PASS) {\r\n                   AllVotingInfo[Token].proposals[latestProposal].active = false;\r\n                   payable(AllVotingInfo[Token].proposals[latestProposal].proposalInitiator).transfer(AllVotingInfo[Token].proposals[latestProposal].buyoutPriceStart);\r\n\r\n           }\r\n       } else {\r\n           if (AllVotingInfo[Token].proposals[latestProposal].active == true) {\r\n               AllVotingInfo[Token].proposals[latestProposal].active = false;\r\n           }\r\n       }\r\n    }\r\n\r\n    function startBuyoutAuction(baseFractionToken _token, buyoutProposal memory proposal) public {\r\n        currentLastAuctionId++;\r\n        uint latestProposal = AllVotingInfo[_token].proposals.length;\r\n\r\n        buyoutAuction memory newAuction;\r\n        newAuction.initialProposal = AllVotingInfo[_token].proposals[latestProposal];\r\n        newAuction.finishTime = block.timestamp + DEFAULT_WAIT_TIME;\r\n        newAuction.currentBid = newAuction.initialProposal.buyoutPriceStart;\r\n        newAuction.currentBidLeader = newAuction.initialProposal.proposalInitiator;\r\n        newAuction.active = true;\r\n        newAuction.nftDeposit = proposal.nftDeposit;\r\n        newAuction.id = currentLastAuctionId;\r\n\r\n        AllVotingInfo[_token].auctions.push(newAuction);\r\n    }\r\n\r\n    function bidOnAuction(baseFractionToken _token, bool _voteValue) public payable{\r\n        uint latestProposal = AllVotingInfo[_token].proposals.length;\r\n        uint latestAuction = AllVotingInfo[_token].auctions.length;\r\n\r\n        if (msg.value <= AllVotingInfo[_token].auctions[latestAuction].currentBid) {\r\n            payable(msg.sender).transfer(msg.value);\r\n        } else { \r\n\r\n            if (block.timestamp < AllVotingInfo[_token].auctions[latestAuction].finishTime) { \r\n\r\n            require (AllVotingInfo[_token].auctions[latestAuction].active == true, \"proposal is not active\");\r\n            require (AllVotingInfo[_token].proposals[latestProposal].active == false, \"this token needs to leave the proposal first\");\r\n\r\n            uint oldBid = AllVotingInfo[_token].auctions[latestAuction].currentBid;\r\n            address oldLeader = AllVotingInfo[_token].auctions[latestAuction].currentBidLeader;\r\n            AllVotingInfo[_token].auctions[latestAuction].currentBid = msg.value;\r\n            AllVotingInfo[_token].auctions[latestAuction].currentBidLeader = msg.sender;\r\n            payable(oldLeader).transfer(oldBid);\r\n\r\n            } else if (AllVotingInfo[_token].auctions[latestAuction].active == true) {\r\n                AllVotingInfo[_token].auctions[latestAuction].active == false;\r\n            }\r\n\r\n            AllVotingInfo[_token].auctions[latestAuction].pricePerToken = AllVotingInfo[_token].auctions[latestAuction].currentBid / _token.totalSupply();\r\n            }\r\n\r\n            determineAuctionWinner(AllVotingInfo[_token].auctions[latestAuction], AllVotingInfo[_token].auctions[latestAuction].nftDeposit);\r\n            AllVotingInfo[_token].auctions[latestAuction].active = false; \r\n    }\r\n\r\n    function determineAuctionWinner(buyoutAuction memory _auction, NFTDeposit memory _nftDeposit) private {\r\n        _nftDeposit.isChangingOwnership = true;\r\n        updateNftOwner(_nftDeposit.owner, _auction.currentBidLeader, _nftDeposit);\r\n        _nftDeposit.isChangingOwnership = false;\r\n\r\n        _nftDeposit.fractionToken.updateNFTOwner(_auction.currentBidLeader);\r\n    }\r\n\r\n    //add non reentract modifier\r\n    function claimFromBuyoutTokens(baseFractionToken _token, uint _amount) public  {\r\n        uint latestAuction = AllVotingInfo[_token].auctions.length;\r\n\r\n        require(AllVotingInfo[_token].auctions[latestAuction].active == false, \"auction still active\");\r\n\r\n        _token.transferFrom(msg.sender, address(this), _amount);\r\n        _token.burn(_amount);\r\n        payable(msg.sender).transfer(AllVotingInfo[_token].auctions[latestAuction].pricePerToken * _amount);\r\n    }\r\n}\r\n\r\n",
  "sourcePath": "D:\\Libraries\\Desktop\\Truffle\\fractionaliseNFT_after_split\\contracts\\ReclaimNftAuction.sol",
  "compiler": {
    "name": "solc",
    "version": "0.8.14+commit.80d49f37.Emscripten.clang"
  },
  "schemaVersion": "3.4.6",
  "updatedAt": "2022-05-29T01:40:20.084Z",
  "devdoc": {
    "kind": "dev",
    "methods": {},
    "version": 1
  },
  "userdoc": {
    "kind": "user",
    "methods": {},
    "version": 1
  }
}